:020000040800F2
:100000003839002015320008450100084701000872
:100010006B0100086F010008730100080000000078
:100020000000000000000000000000007701000850
:1000300079010008000000007B0100082D32000853
:100040002F3200082F3200082F3200082F3200080C
:100050002F3200082F3200082F3200082F320008FC
:100060002F3200082F3200082F3200082F320008EC
:100070002F3200082F3200082F3200082F320008DC
:100080002F3200082F3200082F3200082F320008CC
:100090002F3200082F3200082F3200082F320008BC
:1000A0002F3200082F3200082F3200082F320008AC
:1000B000BD0F00082F3200082F3200082F32000831
:1000C0002F3200082F3200082F3200082F3200088C
:1000D0002F320008CB090008A10A0008F10B000824
:1000E0002F3200082F3200082F3200082F3200086C
:1000F0002F3200082F3200082F3200082F3200085C
:100100002F3200082F3200082F3200082F3200084B
:100110002F3200082F3200082F3200082F3200083B
:100120002F3200082F3200082F3200082F3200082B
:10013000DFF80CD007F050FC004800472F02000801
:100140003839002070470FE071B600BF0B480068D7
:1001500000F4E0600A490843001D08490860BFF345
:10016000408F00BF00BFFEE7EEE700BFFEE700BF25
:10017000FEE700BFFEE77047704770470CED00E0F8
:100180000000FA0510B5012005F03BF930B1132845
:1001900010D0172816D01C2847D142E0CE4802883C
:1001A0000088401CCC4B188020230121084604F015
:1001B00079FB3AE0C948008882B2C949012004F0BD
:1001C000F0FB32E0012005F008F900F0010018B161
:1001D0000121084605F00AF9012005F045F9C14959
:1001E000086008460068D8B10846008882B2BE4957
:1001F000012004F0D1FC0020BB49BA4A126888549F
:10020000BAA007F0A5FCB748B7490268BB4800F0A0
:100210008AFBB44B1846B4490268B94800F01EFF87
:1002200003E0012004F024FB00BF00BF10BD00F07C
:10023000C5F94FF4E1321146104600F0A5FA00F07E
:100240007BFDB04805F0CAFCAE4805F0FAFC04227C
:10025000AD49AC4807F043F8AC49AA4807F0DFF8CD
:10026000A84805F0C4FCAAA007F072FC0020AF4922
:1002700008600BE0A548AD4A1268815CACA007F0AD
:1002800067FCAA480068401CA8490860A7480068A5
:100290001428EFDB00F00EFA00F068FE4FF4437113
:1002A000062000F04DFE0121A34800F0D6F9A24837
:1002B0000078A149098800EB11208B4908709E48FD
:1002C0000068000C9C49096800EB11608649487081
:1002D000994800799849898800EB112082498870F3
:1002E00095484068000C9449496800EB11607E49CC
:1002F000C8709148007A9049098900EB11207A4929
:1003000008718D488068000C8B49896800EB11608A
:1003100075494871087800EBD0714910A0EB410194
:1003200021B171480078401C6F49087083486E49BC
:100330000A68026089888180062281496A4800F043
:10034000BBFD3A2302220C217D4800F0E5FD3A2353
:1003500005220D217A4800F0DFFD3A2308220E2104
:10036000774800F0D9FD3A230B220F21744800F0A2
:10037000D3FD3A230E221021714800F0CDFD7049C3
:1003800070A007F0E5FB05F033FA05F0C2FA05F0BE
:100390001FFA7149714805F005F9002004F068FA68
:1003A000012004F065FA022004F062FA032004F050
:1003B0005FFA042004F05CFA052004F059FA0620E4
:1003C00004F056FA072004F053FA65A007F0C0FBCA
:1003D00080E000F0C7FD02F02FFF032802D004F0F8
:1003E0006EF801E0FFF7CEFE04F04EFF5F490870A3
:1003F000084600785E49097888422DD05B4800782D
:100400005B4908705948007818B15AA007F0A0FB62
:1004100022E05CA007F09CFB05F07BFA4E494F48B8
:1004200005F0C0F8002004F023FA012004F020FABF
:10043000022004F01DFA032004F01AFA042004F04C
:1004400017FA052004F014FA062004F011FA072028
:1004500004F00EFA04F028F84E4A4F49A2F10C00BD
:1004600000F026FE4B480C38C068002807DD4948DC
:100470000C38808982B24849012004F021FB2048D1
:100480000069D0B945480068002816DC4448006877
:10049000002812DC1A4A10324249194800F008FEBE
:1004A00017480069002808DD15483E4902693E48A2
:1004B00000F039FA0020124908613C4A3C49A2F197
:1004C0000C0000F0F5FD3B4A3B49A2F10C0000F0A6
:1004D000EFFD00BF7DE70000160100200C000020AA
:1004E0000800002000000020400100200D0ABDD3BC
:1004F000CAD5B5BDCFFBCFA23A0D0A0000380140E6
:10050000901B00203C020020180000202802002040
:10051000B6D479616E67BDF8D0D073686131BCD351
:10052000C3DCBAF3B5C4D6B53A0D0A0014000020F6
:100530002530327800000000080200200001002071
:10054000140200200D0A4D4143B5D8D6B72020250E
:1005500073200D0A00000000F8000020F0000020C9
:100560000D0A73746172740D0A00000010000020FF
:10057000110000200D0ACDF8CFDFC1ACBDD30D0AAC
:10058000000000000D0ACDF8CFDFB6CFBFAA0D0ADC
:1005900000000000A4140020D418002070000020E7
:1005A00074000020CC1F002000480040A40200205E
:1005B000E4060020AC0D0020DC11002008B54FF44B
:1005C000A06000F081FF25208DF8000000208DF84C
:1005D00001008DF8020001208DF80300684600F04C
:1005E00078FF26208DF8000000208DF80100012002
:1005F0008DF802008DF80300684600F06AFF27209E
:100600008DF8000000208DF8010002208DF8020016
:1006100001208DF80300684600F05BFF1C208DF878
:10062000000001208DF8030003208DF801008DF8F3
:100630000200684600F04DFF08BD71B600BF1348C8
:10064000006800F4E06012490843001D0F4908608B
:10065000BFF3408F00BF00BFFEE770B504460D46F4
:100660009CB10C4850F8250000682060094850F8FB
:10067000250040686060074850F825008068A06049
:1006800005A094E80E0007F063FA70BD0CED00E0E1
:100690000000FA05200000200D0A20D0BEC6ACCE16
:1006A000A8D2BB49443A2025582D25582D25580D50
:1006B0000A00000010B56FF0040000F054FF2E484F
:1006C00000682E49B0FBF1F02D490870084600780B
:1006D00000EB4001C1EBC0104FF6FF7101EAC00012
:1006E0002849088010BD0146254A12784A434FF038
:1006F000E0235A6100229A611A46126942F001020F
:100700001A6100BF4FF0E022106900F001021AB137
:1007100000F48032002AF5D04FF0E022126922F076
:1007200001024FF0E0231A6100229A6170470146EE
:10073000144A12884A434FF0E0235A6100229A611A
:100740001A46126942F001021A6100BF4FF0E0221E
:10075000106900F001021AB100F48032002AF5D0CD
:100760004FF0E022126922F001024FF0E0231A61FB
:1007700000229A61704700008800002000127A0071
:10078000480000204A00002070B586B006460C469E
:1007900015464FF48062FA49FA4800F0A9FCC820D7
:1007A000F94B4FF48062F9490090F94800F036FCAB
:1007B000C820F84B4FF48062F7490090F74800F0EA
:1007C0002DFCC820F64B4FF48062F6490090F648A5
:1007D00000F024FCC820F54B4FF48062F4490090EF
:1007E000F44800F01BFC01214FF4C02001F055F843
:1007F000012144F20D0001F043F84FF40070ADF810
:10080000140003208DF8160018208DF8170005A994
:10081000E94801F0FDFA4FF48060ADF814000420BF
:100820008DF8170005A9E44801F0F2FA0420ADF8AC
:10083000140003208DF8160018208DF8170005A964
:10084000DD4801F0E5FA0820ADF8140004208DF829
:10085000170005A9D84801F0DBFA4FF48060ADF825
:10086000140003208DF8160018208DF8170005A934
:10087000D24801F0CDFA4FF40060ADF81400042026
:100880008DF8170005A9CD4801F0C2FA0020ADF897
:100890000800ADF80A00ADF80C00ADF810000C200F
:1008A000ADF80E00019601A9C54801F090F8019439
:1008B00001A9C44801F08BF8019501A9C24801F0D3
:1008C00086F8012240F22551BD4801F018F90122B5
:1008D00040F22551BB4801F012F9012240F22551A6
:1008E000B94801F00CF9012240F22441B44801F06A
:1008F00006F9012240F22441B24801F000F9012238
:1009000040F22441B04801F0FAF80121AC4801F06E
:10091000EAF80121AB4801F0E6F80121AA4801F00C
:10092000E2F806B070BD70B504460D461646A44800
:1009300084420BD132462946924800F0BEFC012287
:1009400040F22771204601F0DAF81AE09D4884420F
:100950000AD19E4805609E480660012240F2277138
:10096000204601F0CCF80CE09748844209D1994820
:10097000056099480660012240F22771204601F087
:10098000BEF870BD70B504460D460BE014F8011BAF
:100990008B4801F015F900BF8021894801F07EF9EC
:1009A0000028F9D02800A5F10105EFD170BD10B5E0
:1009B00004462146824801F003F900BF80218048A7
:1009C00001F06CF90028F9D010BD38B540F225517E
:1009D0007B4801F079F9B0B1794801F0F5F8C4B27B
:1009E0007E487F49096844547D480068401C7C4922
:1009F00008600846006840F2F631884217D90020A6
:100A00007749086013E040F224416D4801F05CF939
:100A100001280CD16A48001D00886B4670486F4958
:100A200002685B4800F01AFB00206D49086040F244
:100A30002771634801F048F900B3524800F072FB97
:100A400000280ADD012267494E4800F096FB654800
:100A500001785B4801F0B4F810E040F22771584883
:100A600001F05CF9002240F22771554801F047F887
:100A7000012240F22661524801F041F840F226611D
:100A80004F4801F021F950B140F226614C4801F085
:100A900045F9002240F22661494801F030F838BD9E
:100AA00038B540F22551474801F00EF9B0B145483C
:100AB00001F08AF8C4B24C484C49096844544B4888
:100AC0000068401C494908600846006840F2F63159
:100AD000884217D900204549086013E040F22441BC
:100AE000384801F0F1F801280CD13648001D008883
:100AF0006B463E483C490268284800F0AFFA0020A7
:100B00003A49086040F227712E4801F0DDF828B319
:100B10002F480068002810DD2C480068017829481B
:100B200001F04EF829480068401C28490860284810
:100B30000068401E2649086010E040F227712148F5
:100B400001F0ECF8002240F227711E4800F0D7FFB8
:100B5000012240F226611B4800F0D1FF40F22661DD
:100B6000184801F0B1F850B140F22661154801F083
:100B7000D5F8002240F22661124800F0C0FF38BDCF
:100B8000A0090020D4020020D8080020E4020020A0
:100B900098020020D0130020DC0D0020A00D0020C2
:100BA000C0210020CC1B0020901B0020C81A002070
:100BB000D41400209814002000080140000C0140CB
:100BC0000038014000440040004800404C00002034
:100BD00068000020500000207000002088220020C3
:100BE00054000020580000208826002064000020C7
:100BF00038B540F22551464801F066F8B0B1444896
:100C000000F0E2FFC4B243484349096844544248F3
:100C10000068401C404908600846006840F2F63110
:100C2000884217D900203C49086013E040F2244173
:100C3000374801F049F801280CD13548001D0088DB
:100C40006B46354833490268344800F007FA002003
:100C50003149086040F227712D4801F035F840B362
:100C60002F480068002810DD2E48006801782848C9
:100C700000F0A6FF2B480068401C2A49086028485D
:100C80000068401E2649086013E00A2026490860D3
:100C900040F227711E4801F041F8002240F227710E
:100CA0001B4800F02CFF012240F22661184800F09A
:100CB00026FF40F22661164801F006F850B140F2D6
:100CC0002661134801F02AF8002240F226611048FC
:100CD00000F015FF38BD38B504460D46E0B200906F
:100CE0001248007838B901201049087040F2266196
:100CF0000F4801F013F8012269460E4800F0DDFAB2
:100D0000012240F227710A4800F0F9FE204638BD62
:100D100000480040882A00206C0000209814002021
:100D20007000002050000020740000207800002097
:100D300000380140D402002008B501217D2000F0D8
:100D40009FFD4FF40050ADF8000010208DF8030017
:100D500003208DF802006946084801F059F8202068
:100D6000ADF8000048208DF8030003208DF8020044
:100D70006946034801F04CF808BD0000001001402E
:100D8000000C014010B56B48006807F095FD10BDE0
:100D90002DE9F04781460F469046002400260025A5
:100DA000384606F0ECFBC5B23946484606F0C9FBAA
:100DB00004460CB36119481C414606F0C2FB0646C6
:100DC000C6B16119711A481C07F09EFD59490860A7
:100DD0006019301A411C5748006806F0A7FB6019DB
:100DE000321A61195348006806F087FB51480068C1
:100DF000BDE8F0870020FBE70020F9E74E480068D7
:100E000020B14E4800784C490968087070472DE9B8
:100E1000F04180460D46164600240027284606F07D
:100E2000AEFBC7B22946404606F08BFB0446BCB178
:100E3000E119481C314606F084FB3F49086008462A
:100E4000006858B10846006800783C4908700020E6
:100E5000394909680870E019BDE8F0810020FBE716
:100E60000020F9E72DE9F04707460E46144698465C
:100E70004FF000091FB1384606F081FB08B9BDE804
:100E8000F0871EB1304606F07AFB00B9F7E731462D
:100E9000384606F091FB054608E004B120C409F18C
:100EA00001093146002006F087FB0546002DF4D1EC
:100EB000C8F8009000BFE2E778B503460C46002171
:100EC00027E05D5C2D098DF800505D5C05F00F0595
:100ED0008DF80150002019E01DF800500A2D06DAA7
:100EE0001DF800503035EDB20DF8005009E01DF846
:100EF0000050102D05DA1DF800505735EDB20DF8F1
:100F000000501DF8005004F8015B401C0228E3D398
:100F1000491C9142D5D378BD70B50C46611E03E0E3
:100F2000465C4D1C4655491E9142F9DA8354641CB7
:100F300070BD00007C0000208000002084000020A4
:100F400070B505460C4645F2555001F0BDFF2846E8
:100F500001F0BDFF204601F0BDFF01F0BEFF01F032
:100F6000C1FF70BD10B501F0B8FF10BD0EB5012175
:100F7000084600F092FC4FF0804001F097F8002006
:100F8000ADF80600ADF802000A20ADF8040041F605
:100F90001F40ADF8000069464FF0804001F05AF95B
:100FA0000121880701F08CFF0121880701F0AEFCC8
:100FB00001221146900701F0C4FC0EBD10B50121BD
:100FC000880701F06CFF012822D10121800701F080
:100FD00077FF03F057FA0F480068401E0D4908607C
:100FE0000D48406828B10C484069401C0A494861D6
:100FF00002E00020084948610748806828B1064897
:101000008069401C0449886102E00020024988612F
:1010100010BD000074000020882E00202DE9F04152
:1010200004460E4617461D46DDF8188072B63A464D
:10103000314604F11C0000F05BF84246294604F1F9
:101040002C0000F055F80020206060602072E06005
:1010500060722061606162B6BDE8F0817FB50446D0
:101060000E461D4672B604F11C0000F077F8029996
:10107000884218D904F12C0000F070F804280EDD25
:10108000314604F11C00029A00F017F9042202A96B
:1010900004F12C0000F011F90020286006E04FF068
:1010A000FF30286002E06FF00100286062B67FBD6B
:1010B00070B504460E46154672B60020286004F14D
:1010C0002C0000F02FF8042810DB042204F1180192
:1010D00004F12C0000F051F8A069002806DD31462B
:1010E00004F11C00A26900F048F8286062B670BDE7
:1010F00000B970470260C160C3684360C368836021
:1011000000BFF6E700B970470021C160416081600F
:10111000016000BFF7E7014611B94FF0FF3070479B
:101120000868FCE700B5024612B94FF0FF3000BD79
:10113000D2E90101884201D10020F8E7D2E901019A
:10114000884203D2D2E90110401AF0E71046FFF7B7
:10115000E2FFD2E90113C91A401AE8E730B50446A4
:1011600014B94FF0FF3030BD2046FFF7D4FF0546DD
:101170002046FFF7D7FF281AF5E72DE9F04104468E
:101180000F461646002514B9681EBDE8F08117B950
:101190004FF0FF30F9E7D4E90101884214D220462C
:1011A000FFF7C0FFB04201D9304602E02046FFF70A
:1011B000B9FF05462A463846616806F09EF9606820
:1011C000284460602846E0E72046FFF7A4FFE26875
:1011D0006168891A401AB0420AD935462A4638460B
:1011E000616806F08AF96068284460602846CCE7A8
:1011F0002046FFF790FFE2686168891A451A2A467F
:101200003846616806F079F9E0686060721B791908
:101210002046FFF7B2FF05442846B6E72DE9F04126
:1012200004460F461546002614B9701EBDE8F0812D
:1012300017B94FF0FF30F9E72046FFF78FFFA842BC
:1012400002D84FF0FF30F1E7D4E9010188422AD8F3
:101250002046FFF760FFD4E90212891A461AB54208
:1012600013D82A463946A06806F047F9A0682844F2
:10127000A0602046FFF74FFFE1680844A16888425C
:1012800001D1E068A0602846D0E732463946A06820
:1012900006F033F9E068A060AA1BB9192046FFF7F1
:1012A000BDFF3044C2E72A463946A06806F025F95A
:1012B000A0682844A0602846B8E72DE9F041074619
:1012C0000C461546002614B9701EBDE8F0812A466A
:1012D00021463846FFF7A2FF0646AE4202D04FF045
:1012E000FF30F2E73046F0E70CB5002001900090A7
:1012F0006C48006840F480306A49086000BF694863
:10130000006800F4003000900198401C01900098A3
:1013100018B90198B0F5A06FF1D16248006800F4E7
:10132000003010B10120009001E0002000900098F2
:10133000012843D15C48006840F010005A49086019
:101340000846006820F0030008600846006840F086
:1013500002000860534840685249486008464068A7
:1013600048600846406840F480604860084640682D
:1013700020F47C1048600846406840F4E81048605B
:101380000846006840F08070086000BF454800686B
:1013900000F000700028F9D04248406820F00300B7
:1013A000404948600846406840F00200486000BF7D
:1013B0003C48406800F00C000828F9D10CBD10B57D
:1013C000FFF792FF10BD10B53648006840F00100ED
:1013D000344908600846406834490840314948604B
:1013E00008460068324908402E49086008460068EF
:1013F00020F4802008600846406820F4FE00486021
:101400004FF41F008860FFF7DAFF4FF000602949B2
:10141000086010BD10B5002100200022214B5B6840
:1014200003F00C0121B1042906D0082928D107E0D6
:10143000214B224C236027E01F4B204C236023E0EC
:10144000184B5B6803F47010164B5B6803F4803232
:10145000022303EB904022B9194B4343174C2360FE
:101460000DE0104B5B6803F4003323B1144B43438E
:10147000124C236003E0104B4343104C236003E005
:101480000D4B0E4C236000BF00BF064B5B68C3F3DF
:1014900003130C4CE15C094B1B68CB40074C2360E9
:1014A00010BD000000100240002002400000FFF8C4
:1014B000FFFFF6FE08ED00E000127A008800002031
:1014C00000093D008C00002031490143314A116080
:1014D000704770B5002100230F22C47804B32D4C4F
:1014E000246804F4E064C4F5E064210AC1F1040353
:1014F000CA40447804FA03F1847814402143090176
:10150000254C0678A155047804F01F050124AC4051
:1015100005786D11AD0005F1E025C5F8004109E041
:10152000047804F01F050124AC401C4D06787611A8
:1015300045F8264070BD1A4A0A400243154B1B1F4E
:101540001A60704739B1134A121D12680243114BD9
:101550001B1D1A6006E00F4A121D126882430D4BD4
:101560001B1D1A607047042808D14FF0E02109695B
:1015700041F004014FF0E022116107E04FF0E0215B
:10158000096921F004014FF0E02211617047000069
:101590000000FA050CED00E000E400E080E100E06E
:1015A00080FFFF1FDF48006840F00100DD49086050
:1015B00008464068DC490840DA4948600846006847
:1015C000DA490840D74908600846006820F48020BE
:1015D00008600846406820F4FE0048604FF41F0091
:1015E00088607047CF49096821F48031CD4A116085
:1015F0001146096821F480211160B0F5803F03D0C5
:10160000B0F5802F0ED106E0C649096841F480315B
:10161000C44A116007E0C349096841F4A021C14AE6
:10162000116000E000BF00BF704710B50146002206
:10163000002300204A11012A02D1BA4C236806E097
:10164000022A02D1B74C236A01E0B64C636A01F06A
:101650001F02012494401C400CB1012000E0002036
:1016600010BD38B5002000900024002500BF3120B7
:10167000FFF7DBFF05460098401C00900098B0F58E
:10168000A06F01D0002DF2D03120FFF7CEFF08B1BE
:10169000012400E00024204638BD01460020A14A74
:1016A000106820F0F80040EAC10010607047A049BF
:1016B00008607047024600209A4B586820F47C105E
:1016C00042EA01031843974B5860704798490866EF
:1016D000704701460020934A506820F003000843F9
:1016E000506070478F48406800F00C00704701461A
:1016F00000208C4A506820F0F0000843506070478A
:1017000001460020874A506820F4E060084350609A
:10171000704701460020834A506820F4605040EA38
:10172000C1005060704729B17E4A527A02437D4B16
:101730005A7204E07B4A527A82437A4B5A7270475B
:101740007B49D8310860704701460020754A5068CF
:1017500020F440400843506070470021714A203215
:101760001170704A82F82010012802D004280AD192
:1017700004E001216B4A2032117005E00521694A1D
:101780002032117000E000BF00BF70476949086057
:1017900070476449096A0143624A116270476549AA
:1017A00044390860704730B500210022002400232E
:1017B0005C4D6D6805F00C0121B1042905D00829A4
:1017C00023D105E05C4D056022E05B4D05601FE024
:1017D000544D6D6805F47012524D6D6805F48034F7
:1017E000022505EB92421CB9544D554305600BE0B0
:1017F0004C4D6D6805F400351DB1504D55430560E5
:1018000002E04D4D5543056002E04B4D056000BFC1
:1018100000BF444D6D6805F0F0010909484D6B5C4F
:101820000568DD4045603F4D6D6805F4E061090ADB
:10183000434D6B5C4568DD4085603A4D6D6805F44D
:101840006051C90A3E4D6B5C4568DD40C560354D51
:101850006D6805F44041890B3A4D6B5CC568B5FB7A
:10186000F3F5056130BD29B12E4A526902432D4B73
:101870005A6104E02B4A526982432A4B5A617047ED
:1018800029B1284A92690243264B9A6104E0254A0D
:1018900092698243234B9A61704729B1214AD269E8
:1018A0000243204BDA6104E01E4AD26982431D4B99
:1018B000DA61704729B11B4AD2680243194BDA60DA
:1018C00004E0184AD2688243164BDA60704729B1A7
:1018D000144A12690243134B1A6104E0114A126957
:1018E0008243104B1A6170471249403908607047B3
:1018F0000F49C86470470B49C87170470948406A6E
:1019000040F0807007494862704701460020054A50
:1019100092680A400AB1012000E0002070470149A6
:1019200088727047001002400000FFF8FFFFF6FECB
:10193000000042428004424200127A0000093D0049
:101940009C000020AC00002010B50446FB488442F7
:1019500009D101218803FFF7ADFF00214FF480403A
:10196000FFF7A8FF32E0F648844209D1012148047C
:10197000FFF7ADFF00214FF40030FFF7A8FF25E08F
:10198000F048844209D101218804FFF7A0FF00211B
:101990004FF48020FFF79BFF18E0EB48844209D109
:1019A0000121C804FFF793FF00214FF40020FFF747
:1019B0008EFF0BE0E548844208D101210805FFF7BE
:1019C00086FF00214FF48010FFF781FF10BD2DE945
:1019D000F04786B005460E460024A24600BFA14649
:1019E0000027B08900B100BF2F462C8A4CF6FF704B
:1019F0000440F08804432C82AC894EF6F310044076
:101A0000B08831890843718908430443AC81AC8AAA
:101A10004FF6FF400440B0890443AC8201A8FFF7B1
:101A2000C2FEC648874202D1DDF810A001E0DDF811
:101A30000CA0A88900F4004040B10AEBCA0000EBFA
:101A40000A1031684900B0FBF1F807E00AEBCA0060
:101A500000EB0A1031688900B0FBF1F86420B8FB94
:101A6000F0F004012009642101FB1089A88900F429
:101A7000004040B1322000EBC900B0FBF1F000F0B3
:101A80000700044308E0322000EB09106421B0FB9A
:101A9000F1F000F00F0004432C8106B0BDE8F087A0
:101AA0004FF41651016000218180C18001810C2119
:101AB000418100218181704710B502460020108AC3
:101AC0004FF2FF0318400B884C8823438C88234334
:101AD000CC8823431843108210BD0021018041802F
:101AE0008180C180704721B1828942F40052828195
:101AF00004E082894DF6FF731A4082817047F0B589
:101B00000346002400260025002040F66A17B9424B
:101B100000D100BF1846C1F3421401F01F0601278F
:101B200007FA06F5012C01D10C3004E0022C01D19A
:101B3000103000E014301AB107682F43076002E04C
:101B40000768AF430760F0BD1AB1838A0B438382F5
:101B500002E0838A8B4383827047028A4FF6F073D8
:101B60001A400282028A0A430282704782894FF237
:101B7000FF731A40828182890A438281704721B1B2
:101B8000828942F00202828104E082894FF6FD736D
:101B90001A4082817047028A4FF6DF731A40028230
:101BA000028A0A430282704721B1028A42F48042CB
:101BB000028204E0028A4BF6FF731A4002827047E9
:101BC000C1F308028280704701468888C0F308008C
:101BD0007047818941F0010181817047028BD2B247
:101BE0000283028B42EA012202837047028B02F4D5
:101BF0007F420283028B0A430283704721B1828AAB
:101C000042F02002828204E0828A4FF6DF731A409B
:101C10008282704721B1828A42F01002828204E0FF
:101C2000828A4FF6EF731A408282704721B1828A0E
:101C300042F00802828204E0828A4FF6F7731A406B
:101C40008282704721B1828942F40042828103E09E
:101C50008289C2F30E028281704721B1828A42F4E6
:101C60000062828204E0828A4FF2FF731A4082820D
:101C70007047828A4FF6FB731A408282828A0A4337
:101C80008282704721B1828A42F00202828204E09D
:101C9000828A4FF6FD731A40828270470246002006
:101CA000B1F5007F00D100BF13880B400BB10120BC
:101CB00000E00020704701F40072B2F5007F00D10F
:101CC00000BFCA430280704770B50246002400235B
:101CD0000025002040F66A16B14200D100BFC1F3D2
:101CE000421501F01F03012606FA03F3012D02D16C
:101CF0009689334006E0022D02D1168A334001E076
:101D0000968A33400C12012606FA04F416883440F1
:101D100013B10CB1012000E0002070BD10B500220D
:101D2000002340F66A14A14200D100BF0A12012428
:101D30009440A3B2DC43048010BD00000038014091
:101D40000044004000480040004C0040005000406B
:101D500010B50446CC48844208D101210420FFF785
:101D6000A9FD00210420FFF7A5FD46E0C7488442F5
:101D700008D101210820FFF79DFD00210820FFF771
:101D800099FD3AE0C248844208D101211020FFF7B2
:101D900091FD00211020FFF78DFD2EE0BD4884420B
:101DA00008D101212020FFF785FD00212020FFF729
:101DB00081FD22E0B848844208D101214020FFF78C
:101DC00079FD00214020FFF775FD16E0B3488442FD
:101DD00008D101218020FFF76DFD00218020FFF751
:101DE00069FD0AE0AE48844207D101218015FFF762
:101DF00061FD0021A015FFF75DFD10BD10B50121AB
:101E00000846FFF757FD00210120FFF753FD10BDE5
:101E10002DE9F04102460025002600200023002481
:101E2000002791F803C00CF00F0591F803C00CF0E7
:101E3000100CBCF1000F03D091F802C04CEA05056C
:101E400091F800C0BCF1000F31D0146800202BE0E5
:101E50004FF0010C0CFA00F3B1F800C00CEA0306D5
:101E60009E4220D183004FF00F0C0CFA03F7BC43C5
:101E700005FA03FC4CEA040491F803C0BCF1280FF6
:101E800006D14FF0010C0CFA00FCC2F814C00AE0B5
:101E900091F803C0BCF1480F05D14FF0010C0CFACA
:101EA00000FCC2F810C0401C0828D1D31460B1F85F
:101EB00000C0BCF1FF0F34DD546800202EE000F1BB
:101EC000080C4FF0010808FA0CF3B1F800C00CEA56
:101ED00003069E4221D183004FF00F0C0CFA03F74A
:101EE000BC4305FA03FC4CEA040491F803C0BCF1BE
:101EF000280F05D100F1080C08FA0CF8C2F814807C
:101F000091F803C0BCF1480F07D100F1080C4FF065
:101F1000010808FA0CF8C2F81080401C0828CED33B
:101F20005460BDE8F0814FF6FF710180022181709D
:101F30000421C17070470246002093680B400BB12A
:101F4000012000E0002070470146886880B2704799
:101F500002460020D3680B400BB1012000E00020B6
:101F600070470146C86880B270470161704741619F
:101F700070470AB1016100E041617047C16070477C
:101F80004FF480320A438261816182618269826991
:101F9000704702460020434B18684FF68073184084
:101FA00040EA021008433F4B186070473E49C86141
:101FB0007047F0B50A46002300240021002500F0F8
:101FC0000046B6F1004F02D1364EF16901E0354EC0
:101FD0007168C0F3034583B200F44016B6F5401FA4
:101FE00008D121F070612F4E766826F070662D4F73
:101FF0007E6012E000F48016B6F5801F06D103263D
:1020000006FA05F4A14341F0706106E0460D360181
:1020100003FA06F6B14341F0706122B1460D360174
:1020200003FA06F6314300F00046B6F1004F02D144
:102030001C4EF16101E01B4E7160F0BD30B5002215
:102040008B071C0F0F2303FA04F2164B08338C1076
:1020500053F824309343134C08348D1044F8253042
:1020600023468C1053F824308C07240F00FA04F414
:1020700023430C4C08348D1044F8253030BD0A49F8
:10208000DC3108607047000000080140000C01408E
:10209000001001400014014000180140001C0140E4
:1020A00000200140000001400000204210B504461D
:1020B000FE48844208D10121C014FFF7FBFB002138
:1020C000E014FFF7F7FBC4E0B4F1804F08D1012121
:1020D0000846FFF7FCFB00210120FFF7F8FBB8E002
:1020E000F348844208D101210220FFF7F0FB0021D0
:1020F0000220FFF7ECFBACE0EE48844208D101215E
:102100000420FFF7E4FB00210420FFF7E0FBA0E040
:10211000E948844208D101210820FFF7D8FB0021BB
:102120000820FFF7D4FB94E0E448844208D1012161
:102130001020FFF7CCFB00211020FFF7C8FB88E040
:10214000DF48844208D101212020FFF7C0FB002195
:102150002020FFF7BCFB7CE0DA48844208D1012153
:102160004014FFF7A7FB00216014FFF7A3FB70E00A
:10217000D548844209D10121C804FFF79BFB002107
:102180004FF40020FFF796FB63E0D048844209D16A
:1021900001210805FFF78EFB00214FF48010FFF7A7
:1021A00089FB56E0CA48844209D101214805FFF75E
:1021B00081FB00214FF40010FFF77CFB49E0C5488C
:1021C000844208D101214020FFF781FB00214020FB
:1021D000FFF77DFB3DE0C048844208D1012180200B
:1021E000FFF775FB00218020FFF771FB31E0BB4852
:1021F000844208D101218015FFF769FB0021A01559
:10220000FFF765FB25E0B648844209D101210804A7
:10221000FFF750FB00214FF48030FFF74BFB18E035
:10222000B048844209D101214804FFF743FB002153
:102230004FF40030FFF73EFB0BE0AB48844208D17F
:1022400001218804FFF736FB00214FF48020FFF7BF
:1022500031FB10BD00220288944B98420ED0994B5E
:1022600098420BD0B0F1804F08D0914B984205D0E6
:10227000904B984202D0904B984204D14FF68F7306
:102280001A404B881A438D4B984207D08C4B98428A
:1022900004D04FF6FF431A40CB881A4302808B8844
:1022A00083850B880385814B98420BD0854B9842E0
:1022B00008D08B4B984205D08A4B984202D08A4B6B
:1022C000984201D10B7A038601238382704770B54F
:1022D000002400220023058C4FF6FE76354005844D
:1022E000028C8388048B4FF68F752C40B51E2C40D2
:1022F0000D882C43751E2A400D892A434D882A4398
:102300006A4DA8420BD06F4DA84208D0744DA84228
:1023100005D0744DA84202D0734DA84213D14FF698
:10232000F7752A404D892A434FF6FB752A408D8860
:102330002A434FF6FF652B404FF6FF552B408D8902
:102340002B43CD892B4383800483CD8885860284EB
:1023500070BD70B5002400220023058C4FF6EF7687
:1023600035400584028C8388048B48F6FF752C4029
:102370004FF6FF452C400D884FF6FF7606EA0525FF
:102380002C434FF6DF752A400D8906EA05152A43CE
:102390004D8806EA05152A43444DA84202D0494D0E
:1023A000A8421DD14FF67F752A404D894FF6FF7622
:1023B00006EA05152A434FF6BF752A408D8806EABE
:1023C00005152A434FF6FF352B404FF2FF752B4082
:1023D0008D8906EA85052B43CD8906EA85052B43C1
:1023E00083800483CD880587028470BD70B5002486
:1023F00000220023058C4FF6FF6635400584028CD1
:102400008388848B4FF68F752C404FF6FC752C40DB
:102410000D882C434FF6FF552A400D894FF6FF7665
:1024200006EA05252A434D8806EA05252A431F4D5D
:10243000A84202D0234DA8421DD14FF2FF752A4079
:102440004D894FF6FF7606EA05252A434FF6FF35FC
:102450002A408D8806EA05252A434EF6FF752B4053
:102460004DF6FF752B408D8906EA05152B43CD8966
:1024700006EA05152B4383808483CD8885870284F3
:1024800070BD70B5002200230024058C4EF6FF7647
:1024900035400584038C8488828B48F6FF752A407A
:1024A0004FF6FF452A400D8820E00000002C014037
:1024B0000004004000080040000C004000100040F4
:1024C0000014004000340140004C01400050014025
:1024D0000054014000180040001C00400020004053
:1024E0000040014000440140004801404FF6FF76A3
:1024F00006EA05252A434DF6FF752B400D8906EAAD
:1025000005352B434D8806EA05352B43FA4DA84285
:1025100002D0FA4DA84208D14BF6FF752C408D89A8
:102520004FF6FF7606EA85152C4384808283CD889A
:10253000A0F84050038470BD828B4FF2FF331A40E5
:102540008283828B4FF6FF7303EA01231A4382834F
:102550007047F0B50C461546002200210026078C76
:102560004EF6FF7C07EA0C070784828B018C4FF63E
:10257000FF7707EA043640F6FF473A404FF6FF7709
:1025800007EA05273A434FF6FF7707EA03373A434E
:10259000D94FB8420ED0D94FB8420BD0B0F1804FCE
:1025A00008D0D74FB84205D0D64FB84202D0D64F48
:1025B000B84206D14DF6FF77394046F4805739438B
:1025C00005E047F6FF57394044F48057394382838A
:1025D0000184F0BD828B4FF6F3731A408283828BA5
:1025E0000A4382837047F0B50C461546002200214D
:1025F0000026078C4FF6FF6C07EA0C070784828BD6
:10260000018C4FF6FF7707EA04264FF60C773A4025
:102610004FF6FF7707EA03172F433A43B64FB84206
:102620000ED0B64FB8420BD0B0F1804F08D0B44FA7
:10263000B84205D0B34FB84202D0B34FB84206D12A
:102640004FF6FF57394046F48077394305E04FF2A3
:10265000FF57394044F48077394382830184F0BDC9
:10266000028B4FF2FF331A400283028B4FF6FF7347
:1026700003EA01231A4302837047F0B50C4615465E
:10268000002200210026078C4FF6EF7C07EA0C079A
:102690000784028B018C4FF6FF7707EA041640F699
:1026A000FF473A404FF6FF7707EA03373A434FF6C2
:1026B000FF7707EA05273A438F4FB8420ED08F4F76
:1026C000B8420BD0B0F1804F08D08D4FB84205D042
:1026D0008C4FB84202D08C4FB84206D14FF6DF770C
:1026E000394046F01007394305E04FF65F7739402F
:1026F00044F01007394302830184F0BD028B4FF68A
:10270000F3731A400283028B0A4302837047F0B5C9
:102710000C46154600220021068C4FF6FE773E40FF
:102720000684028B018C4FF60C7632407E1C06EA42
:1027300003162E433243704EB0420ED06F4EB0425D
:102740000BD0B0F1804F08D06D4EB04205D06D4E29
:10275000B04202D06C4EB04206D14FF6FD76314009
:1027600044F00106314305E04FF6F576314044F080
:102770000106314302830184F0BD70B505460C4665
:102780005D4885420ED05D4885420BD0B5F1804F43
:1027900008D05B48854205D05A48854202D05A4845
:1027A000854200D100E000BF208850B92389A2886B
:1027B00061882846FFF7ABFFE1882846FFF79EFFB8
:1027C00025E0208804280AD12389A2886188284628
:1027D000FFF753FFE1882846FFF742FF17E0208804
:1027E00008280AD12389A28861882846FFF7FBFEC2
:1027F000E1882846FFF7EEFE09E02389A288618878
:102800002846FFF7A6FEE1882846FFF795FE70BD33
:102810002DE9F04105460C4600260127608808B9DD
:10282000022600E00026A088012801D1022700E04E
:1028300001272088A0B92389A28861882846FFF74C
:1028400066FFE1882846FFF759FF23893A4631465B
:102850002846FFF712FFE1882846FFF701FF13E043
:102860002389A28861882846FFF707FFE188284668
:10287000FFF7F6FE23893A4631462846FFF747FF21
:10288000E1882846FFF73AFFBDE8F0810A884B88C7
:102890001A438B881A43CB881A430B891A434B89F6
:1028A0001A438B891A43A0F8442070474FF6FF71F2
:1028B000818000210180C180418001727047002128
:1028C000018041808180C180018141818181C181FC
:1028D0007047002101804180012181800021C18059
:1028E000018170470021018041808180C180018188
:1028F0004181818170470000002C0140003401407B
:102900000004004000080040000C004021B1028893
:1029100042F00102028004E002884FF6FE731A4082
:102920000280704731B1B0F8442042F40042A0F870
:10293000442005E0B0F84420C2F30E02A0F8442081
:1029400070471AB183890B43838102E083898B43EB
:10295000838170478182704741EA0203A0F84830C2
:1029600070471AB183890B43838102E083898B43CB
:102970008381704701894FF6F872114001817047D9
:102980000A46002101894FF68F73194011430181D6
:10299000704730B504460D4629462046FFF7F0FF44
:1029A000208940F00700208130BD2DE9F041044628
:1029B0000D4616461F46602D06D13B460122314684
:1029C0002046FFF75AFE05E03B46012231462046ED
:1029D000FFF79DFE29462046FFF7D2FF208940F0F1
:1029E00007002081BDE8F08130B50C460021018947
:1029F000C9B24FF6FF7505EA032515432543294360
:102A0000018130BD2DE9F04105460E461746984636
:102A1000002443463A4631462846FFF7E5FF2C8915
:102A20004FF6F870044044F007044FF68F700440EE
:102A300044F070042C81BDE8F081F0B504460D46E9
:102A400016461F463B46324629462046FFF7CCFF36
:102A5000208940F480402081F0BD0185828270474A
:102A60000A46002101884FF68F73194011430180F7
:102A70007047F0B50C4615461E4600210022002383
:102A80000189028B038C4FF6F877394021434FF6CA
:102A9000FC473A4040F201173A434FF6DD773B409E
:102AA0004FF6FF7707EA06172F433B430181028366
:102AB0000384F0BD0A460021018B4FF68F73194045
:102AC0001143018370470A460021018B48F6FF73CA
:102AD00019404FF6FF7303EA02231943018370473D
:102AE0000A460021818B4FF68F7319401143818371
:102AF00070470A460021818B48F6FF7319404FF654
:102B0000FF7303EA022319438183704721B10288CE
:102B100042F08002028004E002884FF67F731A4080
:102B20000280704721B1828842F00402828004E072
:102B300082884FF6FB731A408280704721B18288E9
:102B400042F00802828004E082884FF6F7731A4050
:102B50008280704721B1828842F00102828004E0C5
:102B600082884FF6FE731A40828070470A46002121
:102B7000018B4FF6F77319401143018370470A46E2
:102B80000021018B4FF2FF7319404FF6FF7303EAE8
:102B900002231943018370470A460021818B4FF6B7
:102BA000F77319401143818370470A460021818BD6
:102BB0004FF2FF7319404FF6FF7303EA02231943E4
:102BC000818370470A460021018B4FF6FB73194041
:102BD0001143018370470A460021018B4FF6FF33F2
:102BE00019404FF6FF7303EA02231943018370472C
:102BF0000A460021818B4FF6FB73194011438183F4
:102C000070470A460021818B4FF6FF3319404FF67B
:102C1000FF7303EA02231943818370470A460021A8
:102C2000018B4FF67F7319401143018370470A46A9
:102C30000021018BC1F30E014FF6FF7303EA02235B
:102C40001943018370470A460021818B4FF67F7339
:102C500019401143818370470A460021818BC1F3DB
:102C60000E014FF6FF7303EA022319438183704775
:102C70000A460021018C4FF6FD731940114301846F
:102C800070470A460021018C4FF6F7731940114333
:102C9000018470470A460021018C4FF6DF7319400A
:102CA0004FF6FF7303EA02131943018470470A4683
:102CB0000021018C4FF67F7319404FF6FF7303EA32
:102CC00002131943018470470A460021018C4FF614
:102CD000FF5319404FF6FF7303EA0223194301849F
:102CE00070470A460021018C4FF2FF7319404FF6DE
:102CF000FF7303EA02231943018470470A46002147
:102D0000018C4DF6FF7319404FF6FF7303EA02334F
:102D100019430184704730B5002301248C40A3B2CD
:102D2000048C9C430484048C02FA01F5ADB22C435C
:102D3000048430BD30B5002304248C40A3B2048C3D
:102D40009C430484048C02FA01F5ADB22C43048444
:102D500030BD70B503460020002418461830012508
:102D60008D40ACB21D8CA5431D8409B1082909D141
:102D700000EB6100056825F07005056005681543E6
:102D800005600EE00D1FC5F34E052844056825F4C7
:102D9000E045056005684FF6FF7606EA02263543F2
:102DA000056070BD21B1028842F00202028004E099
:102DB00002884FF6FD731A400280704721B10288E5
:102DC00042F00402028004E002884FF6FB731A40CE
:102DD0000280704721B1828842F08002828004E044
:102DE00082884FF67F731A408280704702884FF6C0
:102DF000F7731A40028002880A4302807047828873
:102E00004FF68F731A40828082880A43828070470F
:102E100002894FF6F8731A40028102890A4302813F
:102E2000704702894FF67F731A40028102890A4374
:102E30000281704781847047818570478186704721
:102E40000187704781877047A0F84010704702885B
:102E50004FF6FF431A40028002880A4302807047FF
:102E60000146888E70470146088F70470146888F5B
:102E700070470146B1F8400070470146888C7047A2
:102E80000146088D704702460020138A0B400BB1A3
:102E9000012000E000207047CA430282704730B52D
:102EA0000246002000230024158A05EA01039589C3
:102EB00005EA010413B10CB1012000E0002030BD8F
:102EC000CA430282704700000E49086070470D49EE
:102ED000486070470B49886070474AF6AA20094944
:102EE000086070474CF6CC400649086070470146C0
:102EF0000020044AD2680A400AB1012000E0002004
:102F0000704700000030004010B50446BE488442BF
:102F100008D101218014FEF7CDFC0021A014FEF79A
:102F2000C9FC16E0B948844208D101210014FEF71B
:102F3000CEFC00212014FEF7CAFC0AE0B44884420B
:102F400007D10121C013FEF7C2FC0021E013FEF7F8
:102F5000BEFC10BD10B50022028802F441520B885D
:102F60004C8823438C882343CC8823430C892343F8
:102F70004C8923438C892343CC8923431A43028001
:102F8000838B4FF2FF74234083830B8A038210BD2F
:102F90002DE9F04F85B005460C464FF00009022799
:102FA0004FF000084FF0010B0026B246A88B4FF2FD
:102FB00040010840A88302202884B5F81C90A0682E
:102FC000022801D100BF38E0A08810B94FF0010BF2
:102FD00001E04FF0020B8D48854200D100E000BFB8
:102FE0006846FEF7E0FBDDF800A0E088B0F5007F62
:102FF0000AD14FEA1A2000EB80004000A168B0FB24
:10300000F1F0401D86B20BE04FEA4B10BAFBF0F036
:1030100000EB80004000A168B0FBF1F0401D86B2DB
:103020000A20B6FBF0F606F00108A6EB0800C0F394
:103030004F074FF6FF7000EA0828022F01DBFF2F31
:1030400002DD02274FF00008E08840EA080038431C
:103050002884A088A18908436188084321880843FF
:1030600040F4006040EA0909A5F81C9005B0BDE8ED
:10307000F08F0021018041808180C18001814181E8
:103080008181C18107210182704700210180418037
:103090008180C1800221816000218181704721B13E
:1030A000028842F04002028004E002884FF6BF73BB
:1030B0001A400280704721B1828B42F48062828381
:1030C00004E0828B4FF6FF331A408283704730B59D
:1030D000002400230C110125A540ABB21AB185884C
:1030E0001D43858002E085889D43858030BD1AB1EF
:1030F00083880B43838002E083888B4383807047FF
:10310000818170470146888970474FF6FF6291427E
:1031100004D0028842F48072028004E002884FF6F4
:10312000FF631A400280704721B1828842F0040296
:10313000828004E082884FF6FB731A4082807047D9
:1031400002884FF2FF731A40028002880A4302800D
:103150007047018841F480510180704721B1028895
:1031600042F40052028004E002884DF6FF731A40D8
:103170000280704702460020012901D0108B00E038
:10318000908A70470146088A7047B1F5804F04D194
:10319000028842F48042028004E002884BF6FF730A
:1031A0001A40028070470246002013890B400BB181
:1031B000012000E000207047CA4302817047F0B54B
:1031C0000246002000240023002501F00F070126FD
:1031D000BE40B4B20B1101269E40B3B2968806EAF7
:1031E00003051689264016B10DB1012000E000202C
:1031F000F0BD10B5002201F00F040123A3409AB2E4
:10320000D343038110BD000000300140003800406E
:10321000003C00400648804706480047FEE7FEE7BE
:10322000FEE7FEE7FEE7FEE7FEE7FEE7FEE7FEE776
:10323000C713000831010008FE48007870470020DD
:10324000FD490860FD490860FB480068401DFC49D5
:1032500008600020FB490870704710B586B0FAA0DE
:103260000068059000244FF40971F848006804F0E4
:103270005DF90120F54909680870F449096848704A
:103280000620F249096888700020F0490968C87072
:10329000EF48006801F08AFFEC49096848600020A7
:1032A00001F07EFFE949096808814FF4004001F010
:1032B00077FFE64909684881E64800680078E349F5
:1032C00009680877E34800684178E048006841777A
:1032D000E04800688178DD4800688177DD48006853
:1032E000C178DA480068C177DA4800680179D748C0
:1032F000006880F82010D74800684179D3480068FA
:1033000080F8211063222146641CD0480068EC300C
:10331000425482222146641CCC480068EC3042545E
:1033200053222146641CC9480068EC304254632291
:103330002146641CC5480068EC30425435222146C1
:10334000641CC2480068EC30425401222146641CCF
:10335000BE480068EC3042542146641CBB480068FB
:10336000EC3042543D222146641CB8480068EC30E1
:10337000425407222146641CB4480068EC30425491
:1033800001222146641CB1480068EC304254B14827
:10339000006802782146641CAC480068EC30425456
:1033A000AC48006842782146641CA8480068EC30AC
:1033B0004254A848006882782146641CA3480068EB
:1033C000EC304254A3480068C2782146641C9F48F0
:1033D0000068EC3042549F48006802792146641C22
:1033E0009A480068EC3042549A4800684279204676
:1033F000611C8CB295490968EC310A540C222046B4
:10340000611C8CB291490968EC310A5491480068FA
:103410004079904909680979CDE900108D48006824
:10342000C3788DA28EA102A804F0A2FB02A804F02A
:10343000A6F8C2B22046611C8CB284490968EC31FE
:103440000A5482490968EC31081902A904F0ABF862
:1034500002A804F094F8204484B237222046611C6C
:103460008CB27A490968EC310A5406222046611C64
:103470008CB276490968EC310A5401222046611C5D
:103480008CB272490968EC310A5403222046611C4F
:103490008CB26E490968EC310A5406222046611C40
:1034A0008CB26A490968EC310A540F222046611C2B
:1034B0008CB266490968EC310A543A222046611CF4
:1034C0008CB262490968EC310A543B222046611CE7
:1034D0008CB25E490968EC310A54FF222046611C17
:1034E0008CB25A490968EC310A54432005AB4FF4B9
:1034F0000972009055480168032001F06EFB5DA041
:1035000004F026FB06B010BD10B586B000244FF4C1
:1035100009714E48006804F009F801204B49096818
:1035200008704A4909684870062048490968887047
:10353000002046490968C8704548006801F036FE19
:10354000424909684860002001F02AFE3F490968A5
:10355000088138480078032807DA4FF4004001F06A
:103560001FFE3A490968488109E000203749096887
:10357000488136480068454909680968C160334890
:103580000068344909680A68C26189880184632235
:103590002046611C8CB22D490968EC310A54822204
:1035A0002046611C8CB229490968EC310A54532227
:1035B0002046611C8CB225490968EC310A5463220B
:1035C0002046611C8CB221490968EC310A5435222D
:1035D0002046611C8CB21D490968EC310A54012255
:1035E0002046611C8CB219490968EC310A54032247
:1035F0002046611C8CB215490968EC310A543D2201
:103600002046611C8CB211490968EC310A5407222A
:103610002046611C8CB20D490968EC310A54012224
:103620002046611C8CB209490968EC310A540948EA
:1036300000682DE0D400002024010020E0000020DC
:10364000DC000020D5000020FFFFFFFFEC00002081
:10365000E8000020B0000020573535303000000071
:10366000252E34732D2530325825303258253032EE
:103670005800000073656E7420444843505F44490D
:1036800053434F5645520D0A00000000C40000206D
:1036900002782046611C8CB2FE490968EC310A545C
:1036A000FD48006842782046611C8CB2F9490968DF
:1036B000EC310A54F848006882782046611C8CB2CC
:1036C000F4490968EC310A54F3480068C27820468E
:1036D000611C8CB2EF490968EC310A54EE4800686D
:1036E00002792046611C8CB2EA490968EC310A541F
:1036F000E948006842792046611C8CB2E5490968B6
:10370000EC310A54E548007803286BDA322220466F
:10371000611C8CB2DF490968EC310A54042220464E
:10372000611C8CB2DB490968EC310A54DC48006842
:1037300002782046611C8CB2D6490968EC310A54E3
:10374000D748006842782046611C8CB2D14909688C
:10375000EC310A54D248006882782046611C8CB251
:10376000CC490968EC310A54CD480068C27820463B
:10377000611C8CB2C7490968EC310A5436222046D4
:10378000611C8CB2C3490968EC310A5404222046FA
:10379000611C8CB2BF490968EC310A54C1480278F7
:1037A0002046611C8CB2BB490968EC310A54BD4803
:1037B00042782046611C8CB2B6490968EC310A5443
:1037C000B84882782046611C8CB2B2490968EC3155
:1037D0000A54B448C2782046611C8CB2AD490968CD
:1037E000EC310A540C222046611C8CB2A9490968AC
:1037F000EC310A54A84800684079A749096809795A
:10380000CDE90010A4480068C378AFF2B412AFF25B
:10381000B01102A804F0ACF902A803F0B0FEC2B2E5
:103820002046611C8CB29B490968EC310A549949C5
:103830000968EC31081902A903F0B5FE02A803F0EB
:103840009EFE204484B237222046611C8CB29149EE
:103850000968EC310A5408222046611C8CB28D495B
:103860000968EC310A5401222146601C84B289485F
:103870000068EC30425403222046611C8CB285491A
:103880000968EC310A5406222046611C8CB2814939
:103890000968EC310A540F222046611C8CB27D4924
:1038A0000968EC310A543A222046611C8CB27949ED
:1038B0000968EC310A543B222046611C8CB27549E0
:1038C0000968EC310A541F222046611C8CB27149F0
:1038D0000968EC310A5421222146601C84B26D48EB
:1038E0000068EC304254FF222146601C84B26948D3
:1038F0000068EC30425469480078032804DA042157
:1039000005A803F00CFE02E066480068059043201D
:1039100005AB4FF4097200905E480168032001F086
:103920005CF961A004F014F906B010BD7CB5054641
:1039300000244FF409715748006803F0F7FD012097
:10394000544909680870534909684870062051496C
:103950000968887000204F490968C8705748006896
:1039600001F024FC4B4909684860002001F018FC74
:103970004849096808810020464909684881454846
:103980000068454909680A68C26189880184632220
:103990002146641C3F480068EC3042548222214694
:1039A000641C3C480068EC30425453222146641C9D
:1039B00038480068EC30425463222146641C354884
:1039C0000068EC30425435222146641C31480068BE
:1039D000EC30425401222146641C2E480068EC3031
:1039E00042540DB9072200E004222046611C8CB22B
:1039F00028490968EC310A543D222046611C8CB2EA
:103A000024490968EC310A5407222046611C8CB213
:103A100020490968EC310A5401222046611C8CB20D
:103A20001C490968EC310A541B480068027820469A
:103A3000611C8CB217490968EC310A5416480068B9
:103A400042782046611C8CB212490968EC310A5454
:103A50001148006882782046611C8CB20D490968C3
:103A6000EC310A540C480068C2782046611C8CB2C4
:103A700008490968EC310A54074800680279204671
:103A8000611C8CB203490968EC310A540248006891
:103A9000427915E0EC000020B0000020D4000020A6
:103AA000C4000020C800002073656E7420444843A1
:103AB000505F524551554553540D0A00E80000200F
:103AC0002046611C8CB2FE490968EC310A5436224A
:103AD0002046611C8CB2FA490968EC310A54042270
:103AE0002046611C8CB2F6490968EC310A54F5484D
:103AF00002782046611C8CB2F1490968EC310A5405
:103B0000F04842782046611C8CB2ED490968EC31DE
:103B10000A54EC4882782046611C8CB2E849096856
:103B2000EC310A54E748C2782046611C8CB2E44963
:103B30000968EC310A54002D3BD032222046611C2A
:103B40008CB2DF490968EC310A5404222046611C1A
:103B50008CB2DB490968EC310A54DB480068027812
:103B60002046611C8CB2D6490968EC310A54D6480B
:103B7000006842782046611C8CB2D1490968EC315A
:103B80000A54D148006882782046611C8CB2CC4926
:103B90000968EC310A54CC480068C2782046611CA0
:103BA0008CB2C7490968EC310A54C8A003F0D0FFB1
:103BB00002E0CBA003F0CCFFFF222046611C8CB2B8
:103BC000BF490968EC310A5425B1042101A803F06A
:103BD000A6FC02E0BB4800680190432001AB4FF413
:103BE00009720090B6480168032000F0F6FF7CBD22
:103BF0002DE9FF4707464FF0000901A802AB3A46FE
:103C00000090AF480168032001F06DF88046AD4890
:103C1000C0780090AB48837842780178B5A003F073
:103C200097FFBA48C0780090B84883784278017806
:103C3000B7A003F08DFF9DF80B0000909DF80A30AF
:103C40009DF809209DF80810B7A003F081FF9C485B
:103C500000680078022803D1BDF80400432806D08C
:103C6000B7A003F075FF002004B0BDE8F08706227E
:103C7000B9480168924800681C3003F087FC40B9DD
:103C8000B648006801F092FA8D490968496888428F
:103C90004ED0B3A003F05CFFAF4800688378AE4815
:103CA00000684278AC4800680178B9A003F050FF82
:103CB000A94800684379A84800680279A6480068C6
:103CC000C178BBA003F044FF7D480068837F7C4837
:103CD0000068427F7A480068017FB9A003F038FF8E
:103CE0007748006890F821307548006890F82020E7
:103CF00073480068C17FAEA003F02AFF70480068D7
:103D0000416896480268B7A003F022FF6C4800683B
:103D1000C07C00906A480068837C69480068427CE7
:103D200067480068017CB8A003F012FF00209BE701
:103D30006448006800281AD07448006802998842D4
:103D400015D0604800680299884210D0B6A003F0F0
:103D5000FFFE9DF80B0000909DF80A309DF80920A9
:103D60009DF80810C0A003F0F3FE00207CE7564841
:103D700000685349096809690160C0A003F0E8FEC2
:103D800051480068C07800904F48006883784E48DA
:103D9000006842784C4800680178BDA003F0D8FE66
:103DA000002647480468F034A8F1F000051943469E
:103DB0002A462146BCA003F0CBFE10E214F8011BFA
:103DC000332954D007DC71B1012915D003292DD036
:103DD000062972D144E0352906D0362954D0FF296E
:103DE000F7D1304640E7F8E114F8019B26783146D8
:103DF000B5A003F0ADFEF0E114F8019BB9480068EE
:103E000021680160B8A003F0A3FEB6480068C0783E
:103E10000090B44800688378B24800684278B1489E
:103E20000068017891A003F093FED6E114F8019B9D
:103E3000B148006821680160B0A003F089FEAE4877
:103E40000068C0780090AC4800688378AA48006891
:103E50004278A9480068017884A003F079FEBCE1AB
:103E600014F8019BAA48006821680160B5E114F8C4
:103E7000019B206801F0A6F9A64908600846016880
:103E8000A5A003F065FEA8E114F8019B0D48C078D9
:103E900000900C48837842780178A6A003F058FE81
:103EA0000848006850B1194800680299884205D056
:103EB00004480068029988424AE187E149E100002C
:103EC000EC000020C8000020C400002073656E7460
:103ED00020444843505F4445434C494E450D0A0039
:103EE00073656E7420444843505F52454C454153BE
:103EF000450D0A00444843505F5349503A25752EFA
:103F000025752E25752E25750D0A0000CC00002084
:103F1000444843505F5249503A25752E25752E2549
:103F2000752E25750D0A00007376725F61646472E8
:103F30003A25752E25752E25752E25750D0A00003E
:103F400044484350203A204E4F2044484350204D8F
:103F500053470D0A00000000B0000020E8000020D8
:103F60004E6F204D792044484350204D6573736156
:103F700067652E2054686973206D6573736167658A
:103F80002069732069676E6F7265642E0D0A0000E8
:103F9000095352435F4D41435F4144445228253009
:103FA00032582E253032582E253032582E0000003F
:103FB000253032582E253032582E253032582900DF
:103FC0002C20705249504D53472D3E636861646404
:103FD0007228253032582E253032582E253032584E
:103FE0002E00000009705249504D53472D3E78690C
:103FF000642825303858292C20444843505F5849BC
:104000004428253038582900097052494D504D53E5
:10401000472D3E7969616464723A25642E25642EC9
:1040200025642E25640D0A00416E6F746865722048
:10403000444843502073657665722073656E642032
:104040006120726573706F6E7365206D6573736147
:1040500067652E20546869732069732069676E6FE5
:104060007265642E0D0A00000949503A25752E2507
:10407000752E25752E25750D0A0000004448435005
:10408000204D53472072656365697665640D0A00AB
:10409000796961646472203A2025752E25752E2574
:1040A000752E25750D0A000070203A2025303858ED
:1040B000202065203A202530385820206C656E205D
:1040C0003A2025640D0A0000646863704D657373BF
:1040D00061676554797065203A20253032580D0AA1
:1040E00000000000B40000207375626E65744D61BD
:1040F000736B203A20000000B8000020726F7574C6
:104100006572734F6E5375626E6574203A200000BD
:10411000BC000020D80000206468637049506164CE
:1041200064724C6561736554696D65203A2025643D
:104130000D0A0000444843505F534950203A20255F
:10414000752E25752E25752E25750D0A000000008B
:1041500022D1E54821680160E44802990160E4A0A9
:1041600003F0F6FCE048C0780090DF48837842789E
:104170000178AFF2081003F0EBFCE4A003F0E8FCD8
:10418000DA48C0780090D948837842780178AFF255
:10419000241003F0DDFC18E0E5A003F0D9FCD248C0
:1041A000C0780090D048837842780178E9A003F085
:1041B000CFFC9DF80B0000909DF80A309DF8092077
:1041C0009DF80810E8A003F0C3FC06E014F8019B7A
:1041D0004946EBA003F0BCFC00BF00BF4C44AC421E
:1041E000FFF4ECAD00203FE510B5E9480078032866
:1041F0002FDAE8480068E8490968884236D9002083
:10420000E449086008460068401DE3490860E0484A
:104210000078401CDE490870E0480078012804D08E
:10422000022808D0042812D10BE0DDA003F090FC96
:10423000FFF713F80CE0E5A003F08AFCFFF764F940
:1042400006E0EDA003F084FCFFF75EF900E000BF9C
:104250000CE0FEF7F4FF0120F2490870FEF7FDFFC5
:104260000120CE490870F0A003F072FC10BD08B523
:10427000F7480068C0780090F54800688378F448F3
:1042800000684278F24800680178F2A003F060FC10
:1042900041F288300090EE481122F8A10368032013
:1042A00000F09BFC38B1FAA003F052FC0120FFF7AC
:1042B0003DFB002008BDFAA003F04AFC0120F9E70D
:1042C000F8B505460024284601F09BF848B1284679
:1042D00001F0CAF8061E17DD3046FFF789FC0446D8
:1042E00012E0AE48007810B9F1A003F031FC0023D1
:1042F00044220221032000F0D5FA28B90321F3A0BB
:1043000003F026FC0120F8BDA448007805287CD2E3
:10431000DFE800F00311214566000020C149087064
:10432000FEF78DFFFEF799FF0020F149087001208C
:104330009A4908709AE0022C0AD1FEF780FFFFF735
:10434000E3F8022095490870A3A003F001FC01E006
:10435000FFF74AFF8AE0052C13D1FEF770FFFFF745
:1043600086FF30B1E3A003F0F3FB03208B49087014
:10437000C9E78EA003F0ECFB0120884908700420F7
:10438000C1E7062C08D1FEF75AFF012083490870C7
:1043900086A003F0DDFB01E0FFF726FF66E0DC48C6
:1043A0000068401CD8B17B480068D9490968B0EB67
:1043B000510F14D90024D748A5490968096801603C
:1043C000D5480068401CD4490860FFF79DF80420D8
:1043D000724908708BA003F0BBFBFEF730FF45E08D
:1043E000052C31D104229A480168CA4803F0CEF85E
:1043F000002820D0C9A003F0ABFBC648C0780090CD
:10440000C44883784278017800E02BE0D0A003F024
:104410009FFB8F480068C07800908D4800688378C3
:104420008B48006842788A4800680178CDA003F084
:104430008FFB032067E7D1A003F08AFBFEF7FFFEA6
:104440000320564908700CE0062C08D1FEF7F7FE51
:1044500001205249087055A003F07AFB01E0FFF7F4
:10446000C3FE03E000204D49087000BF00BF6D4847
:104470000078012804D1002048490870022042E752
:10448000002040E7C74801680068401CC54A10602A
:10449000B1F57A7F07D90020114608603D480068D1
:1044A000401C3C490860704710B50020BE490870A8
:1044B0003A4908700321BDA003F04AFB10BD10B5B6
:1044C00000240120BF4908700320FFF7F9FE0446CD
:1044D00034B1022C05D0032C04D0042C03D187E185
:1044E00072E172E17BE190E1C8000020CC00002085
:1044F0004D792064686370536572766572496465AE
:104500006E746966696572203A2000004D79204416
:1045100048435020736572766572207265616C2025
:1045200049502061646472657373203A2000000072
:10453000416E6F746865722064686370536572764B
:1045400065724964656E746966696572203A200D0A
:104550000A000000094D592825752E25752E257550
:104560002E25752920000000416E6F746865722841
:1045700025752E25752E25752E2575290D0A000009
:104580006F70745F6C656E203A2025750D0A00000F
:10459000D500002024010020DC000020D4000020F1
:1045A0003C3C74696D656F75743E3E207374617434
:1045B00065203A2053544154455F444843505F447A
:1045C0004953434F5645520D0A0000003C3C746964
:1045D0006D656F75743E3E207374617465203A207A
:1045E00053544154455F444843505F5245515545EB
:1045F00053540D0A000000003C3C74696D656F75F2
:10460000743E3E207374617465203A2053544154C3
:10461000455F444843505F524552455155455354B8
:104620000D0A0000D600002074696D656F75742056
:104630003A207374617465203A2053544154455FA5
:10464000444843505F444953434F5645520D0A0076
:10465000C40000203C436865636B20746865204992
:104660005020436F6E666C6963742025642E256448
:104670002E25642E25643A2000000000434845435F
:104680004B5F49505F434F4E464C49435400000036
:1046900020436F6E666C6963743E0D0A0000000073
:1046A000204E6F20436F6E666C6963743E0D0A0086
:1046B0007374617465203A2053544154455F4448F3
:1046C00043505F52454144590D0A00004661696CF0
:1046D00020746F206372656174652074686520447E
:1046E000484350435F534F434B282575290D0A001B
:1046F000E40000207374617465203A2053544154DF
:10470000455F444843505F4C45415345440D0A00C2
:10471000D8000020D0000020E80000205468652068
:10472000495020616464726573732066726F6D20F6
:104730007468652044484350207365727665722022
:10474000697320757064617465642E0D0A00000041
:104750004F4C445F5349503D25752E25752E2575C8
:104760002E2575004745545F5349503D25752E252C
:10477000752E25752E25750D0A0000007374617461
:1047800065203A2053544154455F444843505F4CA0
:104790004541534544203A2073616D652049500DD1
:1047A0000A000000E00000201F010020696E69740B
:1047B0005F646863705F636C69656E743A25750D3C
:1047C0000A0000001E01002020E011A003F0C0F943
:1047D00000201449087014A003F0BAF916E0012073
:1047E0001449087000F04DFF13A003F0B1F90DE07B
:1047F00018A003F0ADF900200A4908700AA003F0E0
:10480000A7F900200B49087000E000BF00BF10BDF1
:104810000D0A4950B5D8D6B7BBF1C8A1B3ACCAB1DF
:104820000D0A0000D40000200D0AD6D8CAD4D6D074
:104830000D0A00001F0100200D0A44484350B7FE36
:10484000CEF1C6F7BBF1B5C34950B5D8D6B70D0AFE
:10485000000000000D0AB4D344484350BBF1C8A186
:104860004950B5D8D6B7CAA7B0DC0D0A0000000081
:1048700010B504464FF4847101EB4410102101F08F
:104880007AF800BF4FF4847101EB441001F08CF80A
:104890000028F7D14FF4027101EB4410FF2101F021
:1048A0006AF810BD2DE9F04104460D4616469846BB
:1048B00005F00F0001280FD005F00F0002280BD0E3
:1048C00005F00F00032807D005F00F00042803D0DF
:1048D00005F00F00052841D12046FFF7C9FF45EA42
:1048E0000801082202EB441001F045F876B1310AC4
:1048F0004FF4816202EB441001F03DF8F1B24FF445
:10490000A16202EB441001F036F815E0FE48008881
:10491000401CFD4908800A461288110A4FF4816242
:1049200002EB441001F027F8F74A11784FF4A16226
:1049300002EB441001F01FF84FF4847101EB4410B6
:10494000012101F018F800BF4FF4847101EB44100D
:1049500001F02AF80028F7D1012700E000273846A7
:10496000BDE8F08170B504464FF4427101EB44108C
:1049700001F01AF8132811D14FF4847101EB44109F
:10498000022100F0F8FF00BF4FF4847101EB4410E6
:1049900001F00AF80028F7D1012500E0002528469B
:1049A00070BD2DE9F04105460C4616462078FF28DB
:1049B00008D16078FF2805D1A078FF2802D1E078DF
:1049C000FF2808D0207828B9607818B9A07808B9ED
:1049D000E07800B10EB900275CE00127217840F6AD
:1049E000084202EB451000F0C6FF617840F608521D
:1049F00002EB451000F0BFFFA17840F6086202EB21
:104A0000451000F0B8FFE17840F6087202EB45105F
:104A100000F0B1FF310A41F2080202EB451000F04C
:104A2000AAFFF1B241F2081202EB451000F0A3FF19
:104A30004FF4847101EB4510042100F09CFF00BF8E
:104A40004FF4847101EB451000F0AEFF0028F7D160
:104A500017E04FF4427101EB451000F0A5FF172855
:104A600000D116E0284600F0B8FC00F0080040B184
:104A70004FF4027101EB4510082100F07CFF002784
:104A800007E04FF4427101EB451000F08DFF15284F
:104A9000DFD100BF3846BDE8F08110B504464FF4C1
:104AA000847101EB4410082100F065FF00BF4FF452
:104AB000847101EB441000F077FF0028F7D110BD9E
:104AC0002DE9F04704468846164600250027A946EA
:104AD000204600F0F2FBB04204DA204600F0EDFB85
:104AE000074600E0374600BF204600F093FC8146B1
:104AF0004FF4427101EB441000F056FF0546172DAC
:104B000003D01C2D01D0002701E0B945ECDB00BF2C
:104B10003A464146204600F0D1FC4FF4847101EB47
:104B20004410202100F027FF00BF4FF4847101EBF7
:104B3000441000F039FF0028F7D113E04FF4427120
:104B400001EB441000F030FF0546172D0AD01C2D54
:104B500008D06EA002F0FCFF2046FFF789FE00207F
:104B6000BDE8F0874FF4027101EB441000F01CFF28
:104B700000F010001028E1D14FF4027101EB441055
:104B8000102100F0F8FE4FF4027101EB44101021E7
:104B900000F0F1FE3846E3E72DE9F04104460E4609
:104BA00015460027002D15DD2A463146204600F027
:104BB000BFFC4FF4847101EB4410402100F0DBFE98
:104BC00000BF4FF4847101EB441000F0EDFE0028AB
:104BD000F7D12F463846BDE8F0812DE9F04704466D
:104BE000894616461D46089F4FF00008204600F0F3
:104BF00064FBB04204DA204600F05FFB804600E030
:104C0000B046287828B9687818B9A87808B9E8783B
:104C100000B117B94FF0000863E0297840F6084268
:104C200002EB441000F0A7FE697840F6085202EB50
:104C3000441000F0A0FEA97840F6086202EB441090
:104C400000F099FEE97840F6087202EB441000F09B
:104C500092FE390A41F2080202EB441000F08BFE8A
:104C6000F9B241F2081202EB441000F084FE424611
:104C70004946204600F022FC4FF4847101EB4410B9
:104C8000202100F078FE00BF4FF4847101EB441046
:104C900000F08AFE0028F7D112E04FF4027101EB18
:104CA000441000F081FE00F0080048B14FF402719A
:104CB00001EB4410182100F05EFE0020BDE8F087F3
:104CC0004FF4027101EB441000F06EFE00F0100092
:104CD0001028E2D14FF4027101EB4410102100F0D2
:104CE0004AFE4046EAE72DE9FC5F05468A469146C2
:104CF0001E46DDF8308000270024A346B9F1000FDE
:104D000071DD42F608010BE01601002053454E44C8
:104D10005F4F4B2050726F626C656D21210D0A0050
:104D200001EB451000F040FE044642F6081101EB8D
:104D3000451000F039FE00EB042084B2200200EBA5
:104D4000451000F1180B082101EB451000F02CFE76
:104D500000F00700022804D0032845D0042878D1A9
:104D600078E008226946584600F05FFE04F108002A
:104D700084B29DF8000030709DF8010070709DF8BD
:104D80000200B0709DF80300F0709DF80400A8F8D0
:104D900000009DF8050098F8001000EB0120A8F82D
:104DA00000009DF806709DF8070000EB072087B211
:104DB000200200EB451000F1180B3A4651465846C8
:104DC00000F033FEE01984B2210A42F6080202EB39
:104DD000451000F0D0FDE1B242F6081202EB45109A
:104DE00000F0C9FD6AE07AE006226946584600F004
:104DF0001CFEA01D84B29DF8000030709DF80100DB
:104E000070709DF80200B0709DF80300F0709DF87E
:104E100004709DF8050000EB072087B2200200EB2C
:104E2000451000F1180B3A465146584600F0FDFD7A
:104E3000E01984B2210A42F6080202EB451000F0A4
:104E40009AFDE1B242F6081202EB451000F093FD24
:104E500034E032E002226946584600F0E6FDA01C2C
:104E600084B29DF800709DF8010000EB0720801EC1
:104E700087B240F2EA50874204DD1AA002F068FED1
:104E800000BFFEE7200200EB451000F1180B3A4688
:104E90005146584600F0C9FDE01984B2210A42F695
:104EA000080202EB451000F066FDE1B242F608127E
:104EB00002EB451000F05FFD00E000BF00BF4FF4C3
:104EC000847101EB4510402100F055FD00BF4FF407
:104ED000847101EB451000F067FD0028F7D13846DA
:104EE000BDE8FC9F646174615F6C656E206F7665E0
:104EF0007220313531340D0A00000000014630299E
:104F000005DB392903DCA1F13000C0B2704761290B
:104F100005DB662903DCA1F15700C0B2F6E74129A1
:104F200005DB462903DCA1F13700C0B2EEE70846F5
:104F3000ECE730B502460B46002405E012F8010B01
:104F4000FFF7DCFF04FB030410780028F6D1A0B2C1
:104F500030BD30B502460B46002405E012F8010BC7
:104F6000FFF7CCFF04FB030410780028F6D120469D
:104F700030BD2DE9F04104460D461646701EC7B2FD
:104F800020223146284602F0CAFA00BF0A2094FBCC
:104F9000F0F100FB11403030C2B23846791ECFB27A
:104FA0002A540A2094FBF0F080B2041EEEDCBDE827
:104FB000F0812DE9F04104460F46904626460CB19B
:104FC000207810B90020BDE8F0810BE03078FFF7C1
:104FD00095FF0546002D03DBBD4201DA761C01E09A
:104FE0000020F0E730780028F0D1B9B22046FFF772
:104FF000A0FFC8F800000120E5E710B50B4600212E
:1050000004E0445C9C4200D14254491C445C002CA6
:10501000F7D110BD014600200A06100C40EA11200D
:105020007047014600200806C1F3072240EA02400B
:10503000C1F3074240EA022040EA116070472DE9BF
:10504000F04781460E4617461D463146484602F057
:1050500078FA0446304602F092FA04443946204673
:1050600002F06FFA8246AAEB04001FFA80F842466B
:105070002146284602F077FA002005F80800BDE82E
:10508000F0872DE9F04188B006460F463146684664
:1050900002F089FA6C4600251BE070A1204602F060
:1050A0008BFA04462078302809D16078782806D118
:1050B0001021A01CFFF73DFF00F0FF0805E00A21CA
:1050C0002046FFF736FF00F0FF0807F805800024B0
:1050D0006D1C042DE1DB08B0BDE8F0811CB5044671
:1050E00020215F4802F022FAE0B2C4F30721220E29
:1050F000C4F30743CDE900105AA1594802F038FD26
:1051000057481CBD1CB504461021594802F00EFA40
:10511000E0B2C4F30721220EC4F30743CDE9001027
:1051200054A1534802F004FD51481CBDF0B58FB0A6
:1051300006460F4601AC314601A802F034FA0025BC
:105140002AE046A1204602F037FA044614B90020AE
:105150000FB0F0BD207830280AD16078782807D1C8
:105160000EAA1021A01CFFF724FF48B90020EFE78A
:105170000EAA0A212046FFF71CFF08B90020E7E726
:105180000E9878550E98002802DB0E98FF2801DD56
:105190000020DDE700246D1C042DD2DB0120D7E7C1
:1051A00000B503461846FFF735FF00BD00B50346BE
:1051B0001846FFF736FF00BD10B504462046FFF73E
:1051C000EFFF10BD10B504462046FFF7EFFF10BDFE
:1051D000F0B502460D46C5F34F06002400210EE04F
:1051E00012F811304FF6FF7707EA0323012707EB88
:1051F0004107D75D1F44BBB21C444F1CB9B2B1423A
:10520000EEDB05F001071FB112F8113004EB0324A7
:10521000A0B200EB1447FF43B8B2F0BDF1B50024D3
:105220006D4600BF15E004F5A06000F0BDFB295DF0
:1052300000EA010704F5706000F0B6FB064604F5CD
:10524000A06000F0B1FB0640B74201D00120F8BDDC
:10525000641C042CE7DB0020F9E700002E000000AE
:10526000BA32002025642E25642E25642E25640084
:10527000DA320020253033642E253033642E253079
:1052800033642E253033640010B54FF4385000F0ED
:105290008BFB00F0010010BD10B504462146002034
:1052A00000F069FB10BD10B58020FFF7F5FF10BDC1
:1052B0000146DC4830F8110070470146DA4830F802
:1052C0001100704710B5044604222146900100F0F9
:1052D00084FB10BD10B5044604222146900100F065
:1052E000A4FB10BD10B50446042221464FF4A06073
:1052F00000F073FB10BD10B50446062221464FF4A2
:10530000106000F06AFB10BD10B50446042221466F
:105310004FF4706000F061FB10BD10B5044604222C
:1053200021464FF4A06000F080FB10BD10B504468C
:10533000062221464FF4106000F077FB10BD10B537
:105340000446042221464FF4706000F06EFB10BD4D
:1053500010B54FF4A85000F027FB10BD10B504465F
:10536000210A4FF4C85000F006FBE1B24FF4D050D0
:1053700000F001FB10BD10B5044621464FF4D85093
:1053800000F0F9FA10BD70B50446FFF7E1FF60EADE
:105390000400C5B229464FF4A85000F0ECFA70BDE5
:1053A00070B504460D46290A41F2082202EB44106A
:1053B00000F0E1FAE9B241F2083202EB441000F0E9
:1053C000DAFA70BD70B504460D4641F2086101EB92
:1053D0004410294600F0CFFA70BD10B504464FF4D2
:1053E000027101EB441000F0DFFA10BD70B5044605
:1053F0000D464FF4027101EB4410294600F0BBFA50
:1054000070BD10B504464FF4427101EB441000F03A
:10541000CBFA10BD70B504460025002600BF42F24D
:10542000080101EB441000F0BFFA064642F20811F1
:1054300001EB441000F0B8FA00EB062086B27EB112
:1054400042F2080101EB441000F0AEFA054642F2C8
:10545000081101EB441000F0A7FA00EB052085B21B
:10546000B542DCD1284670BD70B504460025002643
:1054700000BF42F2086101EB441000F095FA0646C5
:1054800042F2087101EB441000F08EFA00EB0620A6
:1054900086B27EB142F2086101EB441000F084FA5A
:1054A000054642F2087101EB441000F07DFA00EB72
:1054B000052085B2B542DCD1284670BD2DE9F0410A
:1054C00004460F4616460025A8462EB9214657A089
:1054D00002F03EFBBDE8F08142F2084101EB4410CE
:1054E00000F062FA054642F2085101EB441000F068
:1054F0005BFA00EB052085B2280200EB441000F1B6
:10550000100832463946404600F067FAA81985B2BD
:10551000290A42F2084202EB441000F02CFAE9B2E8
:1055200042F2085202EB441000F025FA00BFD1E726
:105530002DE9F04104460F4616460025A8462EB92F
:10554000214642A002F004FBBDE8F08142F60801CA
:1055500001EB441000F028FA054642F6081101EB71
:10556000441000F021FA00EB052085B2280200EB80
:10557000441000F1180832463946404600F055FA0A
:10558000A81985B2290A42F6080202EB441000F07D
:10559000F2F9E9B242F6081202EB441000F0EBF91E
:1055A00000BFD1E72DE9F04105460E460027B84679
:1055B000002433E0295D41F6087202EB441000F04C
:1055C000DAF9315D41F6086202EB441000F0D3F9DC
:1055D0000020154921F81400124921F81400B7F5EC
:1055E000804F07DC285D4FF6FF7101EA80200E49ED
:1055F00021F81400B8F5804F07DC305D4FF6FF71DD
:1056000001EA8020074921F81400074830F8140007
:105610000744044830F814008044641C082CC9DB9B
:10562000BDE8F081FA320020EA32002043483A20F7
:10563000256420556E657870656374656431206CEF
:10564000656E67746820300D0A00000043483A20F8
:10565000256420556E657870656374656432206CCE
:10566000656E67746820300D0A00000010B50024D4
:105670000A20FBF75CF810BD10B50A20FBF733F8E1
:1056800010BD08B5F648F7490A680260898881802C
:10569000F5490968C0F80610F4490968C0F80A100D
:1056A000F3490968C0F80E10F2490968C0F81210F1
:1056B000F148007810B9F1A002F04AFAEE480078FB
:1056C000022825D1FFF7D8FFF4480078D8B9F3486D
:1056D0004078082817D1F1488078DC2813D1F0A051
:1056E00002F036FADE48ED49D1F80610C0F806108F
:1056F000EA49D1F80A10C0F80A10E849D1F80E10AA
:10570000C0F80E1004E0EBA002F022FAFFF7AEFFA3
:10571000D9480078012822D1F4480078012818D10E
:10572000F3A002F015FACE48F549D1F80610C0F8FA
:105730000610F349D1F80A10C0F80A10F049D1F860
:105740000E10C0F80E10EE49D1F81210C0F8121069
:1057500005E0ECA002F0FCF9C8A002F0F9F9012084
:10576000BF4988760021BE48C1760A30FFF7BAFDEE
:10577000BB480E30FFF7A6FDB948801DFFF7C4FDFA
:10578000B948FFF7DCFDB848C0780090B648837888
:1057900042780178E3A002F0DBF9B448FFF7BDFDE1
:1057A000B248C0780090B148837842780178E5A08B
:1057B00002F0CEF9AE48FFF78DFDAD48C0780090FD
:1057C000AB48837842780178E6A002F0C1F908BDC1
:1057D00010B5A348A3490A68026089888180FFF751
:1057E0008AFDC7489F490A6802608988818010BD88
:1057F00000B587B001211420FCF742F801210420F4
:10580000FCF73EF801210803FCF73AF82020ADF838
:10581000040003208DF8060018208DF8070001A968
:10582000D848FCF7F5FA4020ADF8040001A9D548A6
:10583000FCF7EEFA8020ADF8040001A9D148FCF78E
:10584000E7FA1020ADF804008DF8070001A9CD4853
:10585000FCF7DEFA0020ADF808004FF48270ADF8D6
:105860000A000020ADF80C000220ADF80E00012067
:10587000ADF810004002ADF812000820ADF8140099
:105880000020ADF816000720ADF8180002A9BE48A8
:10589000FDF760FB0121BC48FDF701FC4FF480706F
:1058A000ADF8040003208DF8060010208DF80700E5
:1058B00001A9B448FCF7ACFA4FF48071B148FCF789
:1058C00054FB1020ADF8040003208DF8060048209A
:1058D0008DF8070001A9AD48FCF79AFA07B000BDA2
:1058E00010B5044624B91021A648FCF740FB05E09A
:1058F000012C03D11021A348FCF737FB10BD10B5D4
:105900000020FFF7EDFF10BD10B50120FFF7E8FF05
:1059100010BD10B54FF480719A48FCF728FB0220A7
:10592000FAF7E1FE4FF480719648FCF71EFB4FF446
:10593000C860FAF7FCFE10BD10B5044600BF022196
:105940009148FDF730FC0028F9D021468E48FDF73C
:10595000D7FB00BF01218C48FDF725FC0028F9D0BA
:105960008948FDF7CFFBC0B210BD10B504462046F4
:10597000FFF7E2FF10BD70B504460D46FFF7BFFF0D
:10598000C4F30740FFF7F1FFC4F30720FFF7EDFF73
:1059900004F0F801091DC8B2FFF7E7FF2846FFF73A
:1059A000E4FFFFF7B1FF70BD70B504460025FFF7B7
:1059B000A6FFC4F30740FFF7D8FFC4F30720FFF7A3
:1059C000D4FF04F0F800FFF7D0FF0020FFF7CDFF71
:1059D0000546FFF799FF284670BD2DE9F0410446C2
:1059E0000F461546002615B969A002F0B1F8FFF779
:1059F00086FFC4F30740FFF7B8FFC4F30720FFF7A3
:105A0000B4FF04F0F801091DC8B2FFF7AEFF00268D
:105A100004E0B85DFFF7A9FF701C86B2AE42F8DB68
:105A2000FFF772FF2846BDE8F0812DE9F0410446FA
:105A30000F461546002615B955A002F089F8FFF764
:105A40005EFFC4F30740FFF790FFC4F30720FFF7A2
:105A50008CFF04F0F800FFF788FF0026AAE00000A2
:105A60000A33002000010020060100200A01002066
:105A70000E010020120100201E01002020CAB9D30F
:105A8000C3B6A8D2E5B5C44950D0C5CFA2C5E4D6A7
:105A9000C357353530300D0A000000002633002092
:105AA0002049502066726F6D20454550524F4D0D74
:105AB0000A00000020454550524F4DCEB4C5E4D6F3
:105AC000C32CCAB9D3C3B6A8D2E5B5C44950D0C512
:105AD000CFA2C5E4D6C357353530302CB2A2D0B4EE
:105AE000C8EB454550524F4D0D0A00001F010020E4
:105AF0002049502066726F6D20444843500D0A00C3
:105B0000A42E00202044484350D7D3B3CCD0F2CEAB
:105B1000B4D4CBD0D02CBBF2D5DFB2BBB3C9B9A6BD
:105B20000D0A0000205735353030204950B5D8D601
:105B3000B72020203A2025642E25642E25642E25AA
:105B4000640D0A0020573535303020D7D3CDF8D139
:105B5000DAC2EB203A2025642E25642E25642E25FA
:105B6000640D0A0020573535303020CDF8B9D820E3
:105B7000202020203A2025642E25642E25642E2501
:105B8000640D0A000008014000300140001001408F
:105B9000556E657870656374656432206C656E67F8
:105BA000746820300D0A00000020FFF7DEFEB855B3
:105BB000701C86B2AE42F7DBFFF7A6FE2846BDE8B2
:105BC000F081000070B505460C46224600212846AB
:105BD000014B1B68984770BD2C01002010B504468E
:105BE00000BF00BF5C21204601F0A0FC10BD10B535
:105BF000044604B910BD5C212046FFF7E3FF00BF57
:105C0000F8E770B504460D4600BF00BF00BF00BFF7
:105C10005C222946204601F070FC70BD014600BFA1
:105C200000BF002008604860FE488860FE4ACA60E5
:105C3000C2430A61FC4AD2434A61FC4A8A6100209D
:105C4000704700B503461846FFF7E8FF00BD2DE991
:105C5000F04390B084460F4600BF00BF00BF00BFB6
:105C60003878000697F8018040EA084097F80280EB
:105C700040EA082097F8038040EA0800009038794D
:105C8000000697F8058040EA084097F8068040EA49
:105C9000082097F8078040EA08000190387A00064B
:105CA00097F8098040EA084097F80A8040EA0820FF
:105CB00097F80B8040EA08000290387B000697F8BE
:105CC0000D8040EA084097F80E8040EA082097F8D7
:105CD0000F8040EA08000390387C000697F8118096
:105CE00040EA084097F8128040EA082097F81380AD
:105CF00040EA08000490387D000697F8158040EAD5
:105D0000084097F8168040EA082097F8178040EA84
:105D100008000590387E000697F8198040EA084090
:105D200097F81A8040EA082097F81B8040EA08009C
:105D30000690387F000697F81D8040EA084097F8E3
:105D40001E8040EA082097F81F8040EA080007906C
:105D500097F82000000697F8218040EA084097F85D
:105D6000228040EA082097F8238040EA0800089043
:105D700097F82400000697F8258040EA084097F835
:105D8000268040EA082097F8278040EA080009901A
:105D900097F82800000697F8298040EA084097F80D
:105DA0002A8040EA082097F82B8040EA08000A90F1
:105DB00097F82C00000697F82D8040EA084097F8E5
:105DC0002E8040EA082097F82F8040EA08000B90C8
:105DD00097F83000000697F8318040EA084097F8BD
:105DE000328040EA082097F8338040EA08000C909F
:105DF00097F83400000697F8358040EA084097F895
:105E0000368040EA082097F8378040EA08000D9075
:105E100097F83800000697F8398040EA084097F86C
:105E20003A8040EA082097F83B8040EA08000E904C
:105E300097F83C00000697F83D8040EA084097F844
:105E40003E8040EA082097F83F8040EA08000F9023
:105E5000DCF80810DCF80C20DCF81030DCF814401A
:105E6000DCF81850480140EAD16883EA0400104089
:105E700060404044DFF8B8814044DDF80080404491
:105E80000544900740EA9202680140EAD56882EA38
:105E90000300084058404044DFF894814044DDF856
:105EA000048040440444880740EA9101600140EACC
:105EB000D46881EA0200284050404044DFF87081F5
:105EC0004044DDF8088040440344A80740EA9505B3
:105ED000580140EAD36885EA010020404840404428
:105EE000DFF84C814044DDF80C8040440244A007B8
:105EF00040EA9404500140EAD26884EA0500184060
:105F000068404044DFF828814044DDF81080404478
:105F10000144980740EA9303480140EAD16883EAC4
:105F20000400104060404044DFF804814044DDF844
:105F3000148040440544900740EA9202680140EA18
:105F4000D56882EA0300084058404044DFF8E0800A
:105F50004044DDF8188040440444880740EA910139
:105F6000600140EAD46881EA020028405040404481
:105F7000DFF8BC804044DDF81C8040440344A8079F
:105F800040EA9505580140EAD36885EA01002040BF
:105F900048404044DFF898804044DDF82080404489
:105FA0000244A00740EA9404500140EAD26884EA1F
:105FB0000500184068404044DFF874804044DDF834
:105FC000248040440144980740EA9303480140EA92
:105FD000D16883EA0400104060404044DFF85080FC
:105FE0004044DDF8288040440544900740EA92028E
:105FF000680140EAD56882EA0300084058404044FE
:10600000DFF82C804044DDF82C80404404448807AD
:1060100040EA9101600140EAD46881EA0200284028
:10602000504007E00123456789ABCDEFF0E1D2C3D3
:106030009979825A4044DFF8F88F4044DDF8308087
:1060400040440344A80740EA9505580140EAD36854
:1060500085EA0100204048404044DFF8D48F4044A6
:10606000DDF8348040440244A00740EA9404500123
:1060700040EAD26884EA0500184068404044DFF8EE
:10608000B08F4044DDF8388040440144980740EA2E
:106090009303480140EAD16883EA0400104060405D
:1060A0004044DFF88C8F4044DDF83C804044054498
:1060B000900740EA9202DDF820800D9880EA0800FF
:1060C000DDF8088080EA0800DDF8008080EA080634
:1060D000700040EAD678680140EAD56982EA030098
:1060E000084058404844DFF8489F4844404404442E
:1060F000CDF80080880740EA9101DDF824800E98F1
:1061000080EA0800DDF80C8080EA0800DDF80480F1
:1061100080EA0806700040EAD678600140EAD46957
:1061200081EA0200284050404844DFF8049F484478
:1061300040440344CDF80480A80740EA9505DDF803
:1061400028800F9880EA0800DDF8108080EA0800B7
:10615000DDF8088080EA0806700040EAD678580129
:1061600040EAD36985EA0100204048404844DFF80E
:10617000C09E484440440244CDF80880A00740EA4D
:106180009404DDF82C80009880EA0800DDF8148083
:1061900080EA0800DDF80C8080EA0806700040EA1A
:1061A000D678500140EAD26984EA05001840684078
:1061B0004844DFF87C9E484440440144CDF80C80BC
:1061C000980740EA9303DDF83080019880EA0800E0
:1061D000DDF8188080EA0800DDF8108080EA080603
:1061E000700040EAD678480140EAD16982EA0300AB
:1061F00060404844DFF83C9E484440440544CDF8A4
:106200001080900740EA9202DDF83480029880EA1C
:106210000800DDF81C8080EA0800DDF8148080EAC0
:106220000806700040EAD678680140EAD56981EA3C
:10623000020058404844DFF8FC9D48444044044470
:10624000CDF81480880740EA9101DDF83880039882
:1062500080EA0800DDF8208080EA0800DDF8188078
:1062600080EA0806700040EAD678600140EAD46906
:1062700085EA010050404844DFF8B89D4844404456
:106280000344CDF81880A80740EA9505DDF83C8066
:10629000049880EA0800DDF8248080EA0800DDF830
:1062A0001C8080EA0806700040EAD678580140EA6F
:1062B000D36984EA050048404844DFF8789D4844A3
:1062C00040440244CDF81C80A00740EA9404DDF865
:1062D0000080059880EA0800DDF8288080EA080040
:1062E000DDF8208080EA0806700040EAD678500188
:1062F00040EAD26983EA040068404844DFF8349DEC
:10630000484440440144CDF82080980740EA930374
:10631000DDF80480069880EA0800DDF82C8080EA29
:106320000800DDF8248080EA0806700040EAD6788C
:10633000480140EAD16982EA030060404844DFF83E
:10634000F49C484440440544CDF82480900740EA3A
:106350009202DDF80880079880EA0800DDF83080B6
:1063600080EA0800DDF8288080EA0806700040EA2C
:10637000D678680140EAD56981EA0200584048446D
:10638000DFF8B09C484440440444CDF82880880796
:1063900040EA9101DDF80C80089880EA0800DDF8F9
:1063A000348080EA0800DDF82C8080EA080670005E
:1063B00040EAD678600140EAD46985EA010050409D
:1063C0004844DFF8709C484440440344CDF82C8096
:1063D000A80740EA9505DDF81080099880EA0800D2
:1063E000DDF8388080EA0800DDF8308080EA0806B1
:1063F000700040EAD678580140EAD36984EA050083
:1064000048404844DFF82C9C484440440244CDF8BE
:106410003080A00740EA9404DDF814800A9880EAEE
:106420000800DDF83C8080EA0800DDF8348080EA6E
:106430000806700040EAD678500140EAD26983EA43
:10644000040068404844DFF8EC9B48444044014461
:10645000CDF83480980740EA9303DDF818800B9854
:1064600080EA0800DDF8008080EA0800DDF8388066
:1064700080EA0806700040EAD678480140EAD1690F
:1064800082EA030060404844DFF8A89B4844404447
:106490000544CDF83880900740EA9202DDF81C8070
:1064A0000C9880EA0800DDF8048080EA0800DDF836
:1064B0003C8080EA0806700040EAD678680140EA2D
:1064C000D56981EA020058404844DFF8689B484497
:1064D00040440444CDF83C80880740EA9101DDF84F
:1064E00020800D9880EA0800DDF8088080EA080026
:1064F000DDF8008080EA0806700040EAD678600186
:1065000040EAD46985EA010050404844DFF8249B02
:10651000484440440344CDF80080A80740EA95056C
:10652000DDF824800E9880EA0800DDF80C8080EA0F
:106530000800DDF8048080EA0806700040EAD6789A
:10654000580140EAD36984EA050048404844DFF82E
:10655000E49A484440440244CDF80480A00740EA4D
:106560009404DDF828800F9880EA0800DDF8108098
:1065700080EA0800DDF8088080EA0806700040EA3A
:10658000D678500140EAD26983EA04006840484462
:10659000DFF8A09A484440440144CDF808809807A9
:1065A00040EA9303DDF82C80009880EA0800DDF8CB
:1065B000148080EA0800DDF80C8080EA080670008C
:1065C00040EAD678480140EAD16982EA0300604097
:1065D0004844DFF8609A484440440544CDF80C80B4
:1065E000900740EA9202DDF83080019880EA0800C6
:1065F000DDF8188080EA0800DDF8108080EA0806DF
:10660000700040EAD678680140EAD56981EA020064
:1066100058404844DFF81C9A484440440444CDF8AC
:106620001080880740EA9101DDF83480029880EA02
:106630000800DDF81C8080EA0800DDF8148080EA9C
:106640000806700040EAD678600140EAD46985EA1D
:10665000010050404844DFF8DC994844404403447A
:10666000CDF81480A80740EA9505DDF83880039836
:1066700080EA0800DDF8208080EA0800DDF8188054
:1066800080EA0806700040EAD678580140EAD369EB
:1066900084EA050048404844DFF89899484440445B
:1066A0000244CDF81880A00740EA9404DDF83C804D
:1066B000049880EA0800DDF8248080EA0800DDF80C
:1066C0001C8080EA0806700040EAD678500140EA53
:1066D000D26983EA040068404844DFF85899484486
:1066E00040440144CDF81C80980740EA93034801D8
:1066F00040EAD16902EA030042EA030808EA040812
:1067000040EA08004844DFF830898044DDF8009012
:10671000059880EA0900DDF8289080EA0900DDF894
:10672000209080EA0906700040EAD6700890404444
:106730000544900740EA9202680140EAD56901EAFF
:10674000020041EA020808EA030840EA0800484457
:10675000DFF8E4888044DDF80490069880EA0900B8
:10676000DDF82C9080EA0900DDF8249080EA090623
:10677000700040EAD670099040440444880740EA1B
:106780009101600140EAD46905EA010045EA010887
:1067900008EA020840EA08004844DFF89C88804480
:1067A000DDF80890079880EA0900DDF8309080EA6B
:1067B0000900DDF8289080EA0906700040EAD670EA
:1067C0000A9040440344A80740EA9505580140EA6E
:1067D000D36904EA050044EA050808EA010840EA2A
:1067E00008004844DFF850888044DDF80C90089891
:1067F00080EA0900DDF8349080EA0900DDF82C9089
:1068000080EA0906700040EAD6700B9040440244CA
:10681000A00740EA9404500140EAD26903EA040068
:1068200043EA040808EA050840EA08004844DFF89B
:1068300008888044DDF81090099880EA0900DDF8A6
:10684000389080EA0900DDF8309080EA090670008F
:1068500040EAD6700C9040440144980740EA930304
:10686000480140EAD16902EA030042EA030808EA63
:10687000040840EA08004844DFF8BC878044DDF89B
:1068800014900A9880EA0900DDF83C9080EA09003B
:10689000DDF8349080EA0906700040EAD6700D9069
:1068A00040440544900740EA9202680140EAD569F5
:1068B00001EA020041EA020808EA030840EA080087
:1068C0004844DFF874878044DDF818900B9880EA1C
:1068D0000900DDF8009080EA0900DDF8389080EAD0
:1068E0000906700040EAD6700E90404404448807C0
:1068F00040EA9101600140EAD46905EA010045EAF5
:10690000010808EA020840EA08004844DFF828873E
:106910008044DDF81C900C9880EA0900DDF80490B2
:1069200080EA0900DDF83C9080EA0906700040EA40
:10693000D6700F9040440344A80740EA95055801DB
:1069400040EAD36904EA050044EA050808EA0108B8
:1069500040EA08004844DFF8E0868044DDF82090F3
:106960000D9880EA0900DDF8089080EA0900DDF85A
:10697000009080EA0906700040EAD670009040441A
:106980000244A00740EA9404500140EAD26903EAB5
:10699000040043EA040808EA050840EA08004844FD
:1069A000DFF894868044DDF824900E9880EA090090
:1069B000DDF80C9080EA0900DDF8049080EA090611
:1069C000700040EAD670019040440144980740EAC4
:1069D0009303480140EAD16902EA030042EA03084E
:1069E00008EA040840EA08004844DFF84C8680447E
:1069F000DDF828900F9880EA0900DDF8109080EA11
:106A00000900DDF8089080EA0906700040EAD670B7
:106A1000029040440544900740EA9202680140EA2F
:106A2000D56901EA020041EA020808EA030840EADF
:106A300008004844DFF800868044DDF82C90009878
:106A400080EA0900DDF8149080EA0900DDF80C9076
:106A500080EA0906700040EAD6700390404404447E
:106A6000880740EA9101600140EAD46905EA010023
:106A700045EA010808EA020840EA08004844DFF84D
:106A8000B8858044DDF83090019880EA0900DDF88F
:106A9000189080EA0900DDF8109080EA090670007D
:106AA00040EAD670049040440344A80740EA9505A4
:106AB000580140EAD36904EA050044EA050808EAF7
:106AC000010840EA08004844DFF86C858044DDF89E
:106AD0003490029880EA0900DDF81C9080EA0900F1
:106AE000DDF8149080EA0906700040EAD67005903F
:106AF00040440244A00740EA9404500140EAD269AD
:106B000003EA040043EA040808EA050840EA08002A
:106B10004844DFF824858044DDF83890039880EA03
:106B20000900DDF8209080EA0900DDF8189080EA7D
:106B30000906700040EAD670069040440144980768
:106B400040EA9303480140EAD16902EA030042EABD
:106B5000030808EA040840EA08004844DFF8D8843B
:106B60008044DDF83C90049880EA0900DDF8249028
:106B700080EA0900DDF81C9080EA0906700040EA0E
:106B8000D670079040440544900740EA920268019D
:106B900040EAD56901EA020041EA020808EA03086E
:106BA00040EA08004844DFF890848044DDF8009013
:106BB000059880EA0900DDF8289080EA0900DDF8F0
:106BC000209080EA0906700040EAD67008904044A0
:106BD0000444880740EA9101600140EAD46905EA6B
:106BE000010045EA010808EA020840EA08004844B2
:106BF000DFF844848044DDF80490069880EA0900B8
:106C0000DDF82C9080EA0900DDF8249080EA09067E
:106C1000700040EAD670099040440344A80740EA57
:106C20009505580140EAD36904EA050044EA0508DD
:106C300008EA010840EA08004844DFF8FC83804481
:106C4000DDF80890079880EA0900DDF8309080EAC6
:106C50000900DDF8289080EA0906700040EAD67045
:106C60000A9040440244A00740EA9404500140EADC
:106C7000D26903EA040043EA040808EA050840EA86
:106C800008004844DFF8B0838044DDF80C90089891
:106C900080EA0900DDF8349080EA0900DDF82C90E4
:106CA00080EA0906700040EAD6700B904044014427
:106CB000980740EA9303DDF81080099880EA0800FD
:106CC000DDF8388080EA0800DDF8308080EA0806C8
:106CD000700040EAD678480140EAD16982EA0300B0
:106CE00060404844DFF85493484440440544CDF89C
:106CF0003080900740EA9202DDF814800A9880EA1A
:106D00000800DDF83C8080EA0800DDF8348080EA85
:106D10000806700040EAD678680140EAD56981EA41
:106D2000020058404844DFF8149348444044044467
:106D3000CDF83480880740EA9101DDF818800B987F
:106D400080EA0800DDF8008080EA0800DDF838807D
:106D500080EA0806700040EAD678600140EAD4690B
:106D600085EA010050404844DFF8D092484440444E
:106D70000344CDF83880A80740EA9505DDF81C806B
:106D80000C9880EA0800DDF8048080EA0800DDF84D
:106D90003C8080EA0806700040EAD678580140EA54
:106DA000D36984EA050048404844DFF8909248449B
:106DB00040440244CDF83C80A00740EA9404DDF84A
:106DC00020800D9880EA0800DDF8088080EA08003D
:106DD000DDF8008080EA0806700040EAD6785001AD
:106DE00040EAD26983EA040068404844DFF84C92E4
:106DF000484440440144CDF80080980740EA93039A
:106E0000DDF824800E9880EA0800DDF80C8080EA26
:106E10000800DDF8048080EA0806700040EAD678B1
:106E2000480140EAD16982EA030060404844DFF843
:106E30000C92484440440544CDF80480900740EA51
:106E40009202DDF828800F9880EA0800DDF81080B3
:106E500080EA0800DDF8088080EA0806700040EA51
:106E6000D678680140EAD56981EA02005840484472
:106E7000DFF8C891484440440444CDF808808807AE
:106E800040EA9101DDF82C80009880EA0800DDF8E6
:106E9000148080EA0800DDF80C8080EA08067000A3
:106EA00040EAD678600140EAD46985EA01005040A2
:106EB0004844DFF88891484440440344CDF80C80AE
:106EC000A80740EA9505DDF83080019880EA0800BF
:106ED000DDF8188080EA0800DDF8108080EA0806F6
:106EE000700040EAD678580140EAD36984EA050088
:106EF00048404844DFF84491484440440244CDF8B7
:106F00001080A00740EA9404DDF83480029880EAFB
:106F10000800DDF81C8080EA0800DDF8148080EAB3
:106F20000806700040EAD678500140EAD26983EA48
:106F3000040068404844DFF8049148444044014458
:106F4000CDF81480980740EA9303DDF83880039861
:106F500080EA0800DDF8208080EA0800DDF818806B
:106F600080EA0806700040EAD678480140EAD16914
:106F700082EA030060404844DFF8C090484440443F
:106F80000544CDF81880900740EA9202DDF83C8075
:106F9000049880EA0800DDF8248080EA0800DDF823
:106FA0001C8080EA0806700040EAD678680140EA52
:106FB000D56981EA020058404844DFF8809048448F
:106FC00040440444CDF81C80880740EA9101DDF874
:106FD0000080059880EA0800DDF8288080EA080033
:106FE000DDF8208080EA0806700040EAD67860016B
:106FF00040EAD46985EA010050404844DFF83C90FB
:10700000484440440344CDF82080A80740EA950551
:10701000DDF80480069880EA0800DDF82C8080EA1C
:107020000800DDF8248080EA0806700008E000000F
:107030009979825AA1EBD96EDCBC1B8FD6C162CA8A
:1070400040EAD678580140EAD36984EA050048400E
:107050004844DFF84094484440440244CDF824803A
:10706000A00740EA9404DDF80880079880EA080049
:10707000DDF8308080EA0800DDF8288080EA080624
:10708000700040EAD678500140EAD26983EA0400F1
:1070900068404844DFF8FC93484440440144CDF83C
:1070A0002880980740EA9303DDF80C80089880EA6E
:1070B0000800DDF8348080EA0800DDF82C8080EAE2
:1070C0000806700040EAD678480140EAD16982EAB1
:1070D000030060404844DFF8BC9348444044054402
:1070E000CDF82C80900740EA9202DDF810800998D4
:1070F00080EA0800DDF8388080EA0800DDF830809A
:1071000080EA0806700040EAD678680140EAD5694E
:1071100081EA020058404844DFF8789348444044EC
:107120000444CDF83080880740EA9101DDF81480EE
:107130000A9880EA0800DDF83C8080EA0800DDF863
:10714000348080EA0806700040EAD678600140EAA0
:10715000D46985EA010050404844DFF83893484438
:1071600040440344CDF83480A80740EA9505DDF893
:1071700018800B9880EA0800DDF8008080EA08009B
:10718000DDF8388080EA0806700040EAD6785801B9
:1071900040EAD36984EA050048404844DFF8F492A5
:1071A000484440440244CDF83880A00740EA9404A3
:1071B000DDF81C800C9880EA0800DDF8048080EA85
:1071C0000800DDF83C8080EA0806700040EAD678C6
:1071D000500140EAD26983EA040068404844DFF87D
:1071E000B492484440440144CDF83C80980740EABA
:1071F0009303DCF808000844CCF80800DCF80C0025
:1072000000EB0208CCF80C80DCF8100000EB03085F
:10721000CCF81080DCF8140000EB0408CCF81480E3
:10722000DCF8180000EB0508CCF81880002010B03E
:10723000BDE8F08330B504460D4629462046FEF7EA
:1072400006FD30BD2DE9F04704468846154600BFCF
:1072500000BF00BF00BF15B90020BDE8F08720784F
:1072600000F03F07C7F140062068284420602068EE
:1072700020602068A84202D26068401C6060AFB104
:10728000B54213D304F11C01C8193246414600F03F
:1072900034F904F11C012046FEF7D9FC5FEA00092D
:1072A00001D04846D9E7B044AD1B00270BE041466A
:1072B0002046FEF7CCFC5FEA000901D04846CCE747
:1072C00008F14008403D402DF1D235B104F11C01D8
:1072D000C8192A46414600F010F90020BDE770B5F4
:1072E00004460D461646324629462046FFF7AAFFB9
:1072F00070BD2DE9F04704460D4600BF00BF00BF3A
:1073000000BF207800F03F0680223046761C04F152
:107310001C010A54382E07D8C6F1380104F11C02AA
:10732000901900F003F916E0C6F1400104F11C02C7
:10733000901900F0FBF804F11C012046FEF787FCD1
:107340005FEA000902D04846BDE8F087382104F121
:107350001C0000F0EBF82068400F616840EAC107AC
:1073600020684FEAC008390E84F85410390C84F8AC
:107370005510390A84F8561084F857704FEA18618E
:1073800084F858104FEA184184F859104FEA182130
:1073900084F85A1084F85B8004F11C012046FEF743
:1073A00056FC5FEA000901D04846CDE7A068000E10
:1073B0002870A068000C68702089000AA870207AE4
:1073C000E870E068000E2871E068000C6871A08920
:1073D000000AA871207BE8712069000E28722069DC
:1073E000000C6872208A000AA872207CE87260692A
:1073F000000E28736069000C6873A08A000AA873E5
:10740000207DE873A069000E2874A069000C6874E0
:10741000208B000AA874207EE874002094E770B5E1
:1074200004460D4629462046FFF763FF70BDF0B5C0
:1074300097B004460D46164600BF00BF00BF00BF10
:107440006846FEF7CBFB6846FEF7E8FB070000D076
:107450000FE02A4621466846FFF7F4FE070000D0F9
:1074600007E031466846FFF744FF070000D000E020
:1074700000BF6846FEF7BBFB384617B0F0BD70B5DD
:1074800004460D461646324629462046FFF7CFFFF2
:1074900070BD0000D6C162CA2DE9F05F054600202C
:1074A00092469B4688460646814640241BE0284675
:1074B00041464746224600F0C6F853465A46C01A8F
:1074C000914110D311461846224600F0ADF82D1A0E
:1074D00067EB01084F4622460120002100F0A4F886
:1074E00017EB00094E41201EA4F10104DFDC4846E1
:1074F00031462A464346BDE8F09F40EA01039B0718
:1075000003D009E008C9121F08C0042AFAD203E018
:1075100011F8013B00F8013B521EF9D27047D2B27C
:1075200001E000F8012B491EFBD270470022F6E76C
:1075300010B513460A4604461946FFF7F0FF2046E9
:1075400010BD30B505462A460B4612F8010B13F85C
:10755000014B08B1A042F8D01CB1002802D06D1C2C
:10756000F1E7284630BD10B5044604E00B7800F87A
:10757000013B03B1491C521EF8D2204610BD421CEB
:1075800010F8011B0029FBD1801A704730B5044662
:107590000020034600E05B1C934203D2E05CCD5C1C
:1075A000401BF8D030BD034611F8012B00F8012B29
:1075B000002AF9D11846704770B50F4D00B92868F8
:1075C000002412E00A4602E09E4203D0521C1378C7
:1075D000002BF9D1DAB2224305D02BB124B100211E
:1075E00000F8011B04E00446401C0678002EE9D197
:1075F0002860204670BD00003001002030B50B46E9
:10760000014600202022012409E021FA02F59D42D2
:1076100005D303FA02F5491B04FA02F52844151EA6
:10762000A2F10102F1DC30BD202A04DB203A00FA8D
:1076300002F1002070479140C2F1200320FA03F3C9
:10764000194390407047202A04DB203A21FA02F0C7
:107650000021704721FA02F3D040C2F1200291408C
:107660000843194670472DE9FE4F804681EA030022
:10767000C00F0C46009021F0004123F00045B8EB0C
:107680000200A94105D24046214690461C460B46C1
:10769000024623F00040104347D0270DC7F30A00ED
:1076A000C3F30A510290401A019040286BDAC3F3E9
:1076B000130040F4801B0098924620B10023D2EBC7
:1076C000030A63EB0B0B01985946C0F14002504688
:1076D000FFF7AAFF06460D4650465946019A00F0AC
:1076E0008DF910EB08006141002487EA115284EA09
:1076F000E7731A4340D0009A62B3019A012A4FEA15
:10770000075215DC001B61EB02014FF0004202EA58
:107710000752CDE90042001C41F5801132462B464C
:1077200000F08DF903B0BDE8F08F40462146F9E73F
:10773000001B61EB0201001C41F5801300185B4146
:107740002018A2F5001747EB030140EAD570B619DF
:107750006D4111E06D084FEA360645EAC0754FEA03
:107760000752001B61EB0201001C41F58011490822
:107770004FEA30000019514132462B4603B0BDE8B4
:10778000F04F00F04DB90098012240000023D0EBEB
:10779000020263EBE073009821464FEAE074B8EB15
:1077A000000061EB0401E9E783F000435BE781F04F
:1077B000004158E72DE9FE4F81EA030404F000443C
:1077C00021F0004100944FF0000B23F0004350EAF9
:1077D00001045ED052EA03045BD0C3F30A54C1F340
:1077E0000A552C44A4F2F3340194A0FB0254C1F3D3
:1077F000130141F48011C3F3130343F4801301FB1D
:10780000024400FB034E840A970A44EA815447EA83
:107810008357A4FB076802958D0A05FB07854FEA8D
:10782000932C04FB0C542705029D4FEA065847EAA7
:107830001637B5EB08056EEB070C870E920E47EA7C
:10784000811742EA8312A7FB0201B6EB0B0164EB3E
:1078500000042B0D43EA0C335E1844EB1C50DA464F
:107860005146E7FB0201C5F313044FEA0B3343EA29
:1078700014534FEA0432019C43EA0603A4F10C04BA
:107880000294009CCDE900B400F0D9F803B0BDE843
:10789000F08F00200146F9E72DE9F04D81EA03045D
:1078A00004F0004B21F0004514464FF0000A23F08D
:1078B000004150EA050220D054EA01021DD0C5F370
:1078C0000A570246C5F31303C1F31300C1F30A5666
:1078D00040F4801543F48013A7EB0608101BD6462E
:1078E00008F2FD3873EB050002D308F1010801E04E
:1078F00092185B41B8F1000F03DA00200146BDE8A1
:10790000F08D00204FF48011064684460EE0171BD0
:1079100073EB050705D3121B63EB050306434CEA23
:10792000010C49084FEA300092185B4150EA010708
:10793000EDD152EA030012D082EA040083EA050185
:10794000084305D0101BAB4106D20122002306E0FC
:1079500000224FF0004302E06FF0010253101AEBD7
:1079600006004CEB085110EB0A0041EB0B01BDE89F
:10797000F04D00F055B8C1F30A52C1F3130140F2C3
:10798000FF3341F480119A4202DA00200146704729
:1079900040F233439A42A2F2334202DC5242FFF7F2
:1079A00052BEFFF741BE000030B5041E71F1000465
:1079B00004DB4FF00044404264EB0101141E73F1FC
:1079C000000405DB1C464FF00043524263EB040306
:1079D000994208BF904230BD064C074D06E0E06872
:1079E00040F0010394E8070098471034AC42F6D306
:1079F000F8F7A2FB7C8900089C890008202A06DB96
:107A0000CB17203A41FA02F043EAE07306E041FA6C
:107A100002F3D040C2F1200291400843194670475A
:107A200010B5141E73F1000408DA401C41F1000186
:107A300092185B411A4301D120F0010010BD2DE9DD
:107A4000F04D92469B4611B1B1FA81F202E0B0FAD4
:107A500080F220329046FFF7E7FD04460F4640EAE9
:107A60000A0041EA0B0153465A46084313D0114617
:107A700053EA010019D0C8F140025046FFF7E3FD78
:107A800005460E46504659464246FFF7CDFD08438F
:107A900005D0012004E020463946BDE8F08D0020E5
:107AA000054346EAE0762C4337430A986305E40A27
:107AB000A0EB08000022FD0A44EA47540A3002D530
:107AC00000200146E9E7010510196941DDE9084593
:107AD00000196941BDE8F04DA2E770B58C1810F8A7
:107AE000015B15F0070301D110F8013B2A1106D103
:107AF00010F8012B03E010F8016B01F8016B5B1E1D
:107B0000F9D12B0705D40023521E0DD401F8013BF7
:107B1000FAE710F8013BCB1A921C03E013F8015B63
:107B200001F8015B521EF9D5A142D8D3002070BDE7
:107B30000FB4054B10B503A9044A029800F0F6FAF9
:107B400010BC5DF814FB0000D70C000834010020C5
:107B50000FB4054B10B503A9044A029800F0DEF8F3
:107B600010BC5DF814FB0000D70C000834010020A5
:107B70000FB4084B10B504A902AA039800F0CEF880
:107B8000044602A9002000F091FE204610BC5DF8DA
:107B900014FB0000AD88000802E008C8121F08C1ED
:107BA000002AFAD170477047002001E001C1121F7E
:107BB000002AFBD1704700002DE9FF5FDDE90220BC
:107BC000010DDDF838B0024318D044F61050A1F290
:107BD000FF3141430D140F98012820D0A5EB0B0075
:107BE000401C5FEA000A4FF00004474EDFF81C918A
:107BF000A046504616D5CAF1000728E00F98012488
:107C000043A2012808D0002100980F9BC0E9002161
:107C1000C0E90243BDE8FF9F6FEA0B01F4E7CBF137
:107C20000000DEE7074612E0F80707D02246334699
:107C300040464946FFF7BEFD804689462246334608
:107C400010461946FFF7B6FD04460E467F10002F7A
:107C5000EAD1DDE90201BAF1000F42464B4602DAF1
:107C6000FFF7A8FD01E0FFF717FE04460E460022CD
:107C7000284BFFF799FE03D84FF0FF30014607E08D
:107C80000022254B20463146FFF7EDFCFFF773FE3F
:107C9000102409E0002C0ADB0A220023FFF7FCFB7A
:107CA000019B30321A55641E50EA0102F2D1641C65
:107CB000019AC4F1110314440F9A012A03D001223E
:107CC00008430DD10AE0084304D000204FF0110B07
:107CD0000F9080E7A3EB0B056D1E0DE05B4504DD07
:107CE0004FF0000205F1010504E003DA4FF0000255
:107CF000A5F10105002AECD000980F99C0E90231E6
:107D0000C0E9004586E70000000024400000F03F85
:107D1000300000000000F0430000E03F2DE9FF4F7D
:107D20008DB00F460546002606E025280BD0DDE97C
:107D30000F1290476D1C761C28780028F5D111B0E1
:107D40003046BDE8F08F0024A246A1460122EC494E
:107D500000E0044315F8013F203B02FA03F008421B
:107D6000F7D128782A2810D06FF02F022878A0F1B8
:107D70003001092914D80AEB8A0102EB410144F0D1
:107D8000020400EB010A6D1CF0E701CF5FEA000A74
:107D900003D544F40054CAF1000A44F002046D1CF7
:107DA00028782E2817D115F8010F44F004042A284A
:107DB0000ED06FF02F022878A0F1300109290AD8DF
:107DC00009EB890102EB410100EB01096D1CF2E7AF
:107DD00057F8049B6D1C28786C280FD006DC4C28C3
:107DE00017D068280DD06A2814D104E0742810D068
:107DF0007A280FD10DE044F400140AE044F4801412
:107E000001E044F440146978814202D104F5801401
:107E10006D1C6D1C2A786E2A1FD00CDC632A31D0B1
:107E200004DC002A8BD0582A11D1A3E0642A68D040
:107E3000692A0CD165E0732A2ED004DC6F2A73D036
:107E4000702A04D19BE0752A6FD0782A6ED0104634
:107E5000DDE90F129047761C50E1C4F3025002286E
:107E600006D0032809D0042801CF09D0066045E1D7
:107E700001CFF117C0E9006140E101CF06803DE18B
:107E800006703BE117F8040B8DF8000000208DF818
:107E90000100EB46012003E057F804BB4FF0FF3030
:107EA00061074FF0000102D40DE008F1010188469E
:107EB00049450FDA8045F8DB1BF808100029F4D19A
:107EC00008E008F1010188468142FADB1BF808103E
:107ED0000029F6D1DDE90F23AAEB080081462146EF
:107EE00000F0B6FC304400EB080604E0DDE90F12B8
:107EF0001BF8010B9047B8F10108F7D2214648461C
:107F0000F7E00A21C4F302534FF0000B0891022B53
:107F100004D001CFC117032B09D00AE0FF1D27F0C1
:107F20000707F7E8020108E032E01FE020E000B2B6
:107F3000C117042B01D140B2C117031E71F1000318
:107F400007DA4FF0000CD0EB0C006CEB01012D2395
:107F500002E0230504D52B238DF82430012303E010
:107F6000E30701D02023F7E7984658E00A2110E004
:107F700010210EE010204FF0000B08900CE01021B3
:107F80004FF0000B44F004044FF00809089103E09F
:107F900008214FF0000B0891C4F30253022B04D0C8
:107FA00001CF0021032B06D006E0FF1D27F00707B5
:107FB000F7E8020103E080B2042B00D1C0B24FF019
:107FC000000823072BD5702A07D0DDF820C08CF0DD
:107FD000100C5CEA0B0C05D00EE040238DF8243029
:107FE000012308E050EA010306D030238DF8243045
:107FF0008DF8252002239846DDF820C08CF0080C6F
:108000005CEA0B0C0BD150EA010301D1630706D5E2
:1080100030238DF824304FF00108A9F10109582AC6
:1080200004D038A20B9208AA0A920BE03AA2F9E710
:108030005B46089AFFF730FA0B9B9B5C0A9A521E2C
:108040000A92137050EA0102F2D10A98ADEB0000D7
:1080500000F1200B600702D524F4803401E04FF0DA
:108060000109D94502DDA9EB0B0000E0002000EB7F
:108070000B0141440890AAEB010AE00306D4DDE9B4
:108080000F232146504600F0E3FB06444FF0000961
:1080900008E009A911F80900DDE90F12904709F17C
:1080A0000109761CC145F4DBE0030CD5DDE90F23A3
:1080B0002146504600F0CCFB064404E0DDE90F12F7
:1080C00030209047761C0899481E08900029F5DC5E
:1080D00008E00A980A990078491C0A91DDE90F1214
:1080E0009047761CBBF10001ABF1010BF1DC21469E
:1080F0005046DDE90F2300F087FB06446D1C1BE6AC
:10810000092801003031323334353637383961626D
:108110006364656600000000303132333435363731
:108120003839414243444546000000002DE9FF4FE5
:1081300095B09B468946064600250FE2252877D153
:1081400000242746F84A0121059400E0044316F86C
:10815000013F203B01FA03F01042F7D130782A2882
:1081600011D06FF02F033078A0F13002092A16D811
:10817000059A44F0020402EB820203EB420210442F
:10818000761C0590EFE759F8042B0592002A03DAD4
:10819000504244F40054059044F00204761C3078B8
:1081A0002E2816D116F8010F44F004042A280DD009
:1081B0006FF02F023078A0F13003092B09D807EBBC
:1081C000870302EB4303C718761CF3E759F8047BD7
:1081D000761C30786C280FD006DC4C2817D0682825
:1081E0000DD06A2814D104E0742810D07A280FD159
:1081F0000DE044F400140AE044F4801401E044F477
:1082000040147278824202D104F58014761C761CE8
:10821000307866280BD013DC582877D009DC00288A
:1082200075D04528F6D04628F4D047281AD19DE1CC
:1082300018E0632835D0642879D0652812D195E1FB
:10824000702873D008DC6728F1D069286FD06E28B9
:108250000DD06F2806D1B5E073282CD0752875D0C5
:10826000782874D05A46179990476D1C75E1C4F36D
:108270000250022809D003280DD0D9F80010042894
:108280000DD00D6009F1040967E1D9F80010EA1773
:10829000C1E90052F6E7D9F800100D80F2E70D7041
:1082A000F0E719F8041B8DF8001000208DF801008C
:1082B000EA46012003E059F804AB4FF0FF306107B4
:1082C0004FF0000102D40DE008F101018846B942E7
:1082D0000FDA8045F8DB1AF808100029F4D108E01D
:1082E00008F1010188468142FADB1AF808100029DA
:1082F000F6D105985B46A0EB080721463846179A49
:1083000000F0BDFA284400EB080507E04DE029E144
:108310000DE01AF8010B5A4617999047B8F1010879
:10832000F7D25B4621463846179A13E142E00A220B
:108330000092C4F302524FF0000A022A08D059F802
:1083400004CB032A4FEAEC710AD00DE029E02AE0C1
:1083500009F1070121F00702F2E802C1914609E0A4
:108360000FFA8CFC4FEAEC71042A03D14FFA8CFC13
:108370004FEAEC71002907DA0A460021DCF1000C13
:1083800061EB02012D2202E0220504D52B228DF89B
:108390000420012203E0E20701D02022F7E7904603
:1083A00059E00A2102E010220DE010214FF0000AEE
:1083B00000910BE010224FF0000A44F0040408275B
:1083C000009203E008224FF0000A0092C4F3025228
:1083D000022A05D059F804CB0021032A08D009E06D
:1083E00009F1070121F00702F2E802C1914605E018
:1083F0001FFA8CFC042A01D10CF0FF0C4FF000088E
:10840000220728D5702806D0009B83F0100353EA7A
:108410000A0305D00EE040228DF80420012208E076
:108420005CEA010206D030228DF804208DF80500A8
:1084300002229046009B83F0080353EA0A030AD104
:108440005CEA010201D1620705D530228DF80420D3
:108450004FF001087F1E582804D034A003900EA8C6
:1084600002900DE036A0F9E753466046009AFFF708
:1084700013F884460398825C0298401E02900270B2
:108480005CEA0100F0D1029806A9081A00F1200A5E
:10849000600702D524F4803400E00127574502DD4F
:1084A000A7EB0A0000E0002000EB0A01009005980D
:1084B0004144401A0590E00306D45B462146179AD2
:1084C000059800F0DCF90544002706E001A85A46AB
:1084D000C05D179990476D1C7F1C4745F6DBE00394
:1084E0000CD55B462146179A059800F0C8F905445B
:1084F00004E030205A46179990476D1C0099481E99
:1085000000900029F5DC08E0029802995A460078AC
:10851000491C0291179990476D1CBAF10001AAF10C
:10852000010AF1DC65E10000092801003031323335
:10853000343536373839616263646566000000009F
:108540003031323334353637383941424344454689
:108550000000000000F06AF90544761C307800281D
:108560007FF4ECAD19B02846BDE8F08F620700D467
:10857000062709F1070222F0070CFCE80223E14676
:1085800003F000485FEA080C02D00FF2702C0DE0F7
:108590005FEA045C02D50FF2682C07E05FEAC47C56
:1085A00002D00FF2602C01E0AFF2700C4FF0FF38F8
:1085B00023F00043CDF850C065280CD006DC4528D8
:1085C00009D046281DD047283DD13DE0662818D067
:1085D00067287ED138E00021112F01DB112000E057
:1085E000781CCDE9000106A90EA8FFF7E5FADDE940
:1085F0000F010E9A03910021009207F1010A0491E4
:108600004DE04FF000400097CDE9011006A90EA8FB
:10861000FFF7D2FADDE90F0203920E9B11990022B7
:10862000DDF80CA00093049211B9791C00EB010A4B
:10863000B7EB0A0004D4C0F1FF3007F1010A04903F
:10864000AAEB0700019044E0012F00DA0127002186
:10865000112F01DD112000E03846CDE9000106A907
:108660000EA8FFF7A9FADDE90F010E9A0391002188
:1086700004910092BA4621070CD40399514500DABF
:108680008A46BAF1010F05DD009AAAF10101515C99
:10869000302908D0B84202DA10F1040F06DA0121BD
:1086A000CDE9011015E0AAF10101E9E7002805DC98
:1086B000049901440491AAEB000102E0411C5145D8
:1086C00000DD8A460499401A401C01904FF000409A
:1086D0000290200704D40198504501DBCDF80480B6
:1086E00000208DF84F0002980DF14F07B0F1004FB8
:1086F00025D02B200E9002984FF0020800280CDAAB
:10870000404202902D200E9007E00A210298FEF7C9
:1087100075FF3031029007F8011DB8F10001A8F192
:108720000108F2DC02980028EFD1791E0E9808703B
:10873000307800F0200040F0450007F8020D12A844
:10874000C01B00F107081498007800B1012000EB6D
:108750000A01019801EBE07105984144401A401E5E
:108760000590E00306D45B462146179A059800F071
:1087700086F805441498007818B15A46179990471E
:108780006D1CE00324D55B462146179A059800F03E
:1087900076F805441CE00498002807DBDDE90301B6
:1087A000884203DD0098405C179901E0179930205A
:1087B0005A469047049805F10105401C0490019821
:1087C000401E019004D12E205A46179990476D1CE7
:1087D000BAF10001AAF1010ADDDC05E017F8010B8E
:1087E0005A46179990476D1CB8F10001A8F101088D
:1087F000F4DC5B462146179A0598ABE62D00000095
:108800002B000000200000002DE9F0410446002567
:108810001E461746880404D405E039462020B04798
:108820006D1C641EF9D52846BDE8F0812DE9F041A4
:10883000044600251E461746880404D405E0394640
:108840002020B0476D1C641EF9D52846BDE8F08194
:108850002DE9F041044600251E469046C80301D587
:10886000302700E02027880404D505E0414638463B
:10887000B0476D1C641EF9D52846BDE8F0812DE98E
:10888000F041044600251E469046C80301D5302716
:1088900000E02027880404D505E041463846B0476B
:1088A0006D1C641EF9D52846BDE8F0810A68531C8A
:1088B0000B6010707047000010B5002821D0114BDC
:1088C0000022001F196803E0814203D80A46496864
:1088D0000029F9D152B11368841A9C4204D100686E
:1088E00018441060104602E0506000E0186039B192
:1088F00002680B1A934203D10B681A44026049685C
:10890000416010BD38010020F0B50B30154D20F04E
:1089100007010024144A0FE003688B420BD38B42FB
:1089200005D95E1A43184768C3E9006700E0436849
:10893000136002C004E0021D10680028ECD120463C
:10894000002802D1286808B10020F0BD064A074877
:108950001060074A121A22F00702C0E90024012021
:108960002860D7E73C010020380100203C3300207C
:108970003835002069776562000000009C89000896
:108980000000002040010000DA7A0008208A000878
:1089900040010020F8370000A87B000881A7C0A88C
:1089A000015D901F4579616E671EACF7FF1FE804FB
:1089B0002D107AFF1F0C29081620F4F01F503AF8EA
:1089C000044B907510014184A24A04680901020316
:1089D00004060708090C69101702040608A42E1BD8
:1089E00020AE041AB2041AB6041374891B08AA082C
:1089F00001201E78563412BA28DA0201111E08DC52
:108A0000111111FE1558FFFFFF19081B0172011B00
:108A100088130AE4668813133175021008000000F9
:0400000508000131BD
:00000001FF
