Component: ARM Compiler 5.05 update 1 (build 106) Tool: armlink [4d0efa]

==============================================================================

Section Cross References

    main.o(.text) refers to w5500.o(.text) for getSn_SR
    main.o(.text) refers to socket.o(.text) for socket
    main.o(.text) refers to printf8.o(i.__0printf$8) for __2printf
    main.o(.text) refers to usart.o(.text) for UsartOutStrIT
    main.o(.text) refers to buffermanage.o(.text) for BufferManageWrite
    main.o(.text) refers to system.o(.text) for NVIC_Configuration
    main.o(.text) refers to gpio.o(.text) for GpioInit
    main.o(.text) refers to sha1.o(.text) for mbedtls_sha1_init
    main.o(.text) refers to delay.o(.text) for DelayInit
    main.o(.text) refers to timer.o(.text) for Timer2_Config
    main.o(.text) refers to iwdg.o(.text) for IWDG_Init
    main.o(.text) refers to cstring.o(.text) for HexToAscii
    main.o(.text) refers to w5500_conf.o(.text) for gpio_for_w5500_config
    main.o(.text) refers to dhcp.o(.text) for get_DHCP_state
    main.o(.text) refers to w5500_conf.o(.data) for local_port
    main.o(.text) refers to main.o(.data) for Port
    main.o(.text) refers to main.o(.bss) for MainBuffer
    main.o(.text) refers to usart.o(.bss) for send_manage_struct3
==============================================================================

Removing Unused input sections from the image.

    Removing key.o(.text), (104 bytes).
    Removing core_cm3.o(.emb_text), (32 bytes).
    Removing stm32f10x_flash.o(.text), (1468 bytes).
    Removing dns.o(.text), (1528 bytes).
    Removing dns.o(.bss), (1024 bytes).
    Removing dns.o(.data), (20 bytes).
    Removing smtp.o(.text), (1282 bytes).
    Removing smtp.o(.bss), (2348 bytes).
    Removing smtp.o(.conststring), (65 bytes).
    Removing smtp.o(.data), (1019 bytes).
    Removing ntp.o(.text), (2064 bytes).
    Removing ntp.o(.bss), (2156 bytes).
    Removing ntp.o(.data), (16 bytes).
    Removing arp.o(.text), (1204 bytes).
    Removing arp.o(.bss), (1656 bytes).
    Removing arp.o(.data), (16 bytes).

16 unused section(s) (total 16002 bytes) removed from the image.
==============================================================================

Image Symbol Table

    Local Symbols

    Symbol Name                              Value     Ov Type        Size  Object(Section)

    ../clib/../cmprslib/zerorunl2.c          0x00000000   Number         0  __dczerorl2.o ABSOLUTE
    ../clib/microlib/division.c              0x00000000   Number         0  uidiv.o ABSOLUTE
    ../clib/microlib/division.c              0x00000000   Number         0  uldiv.o ABSOLUTE
    ../clib/microlib/init/entry.s            0x00000000   Number         0  entry7a.o ABSOLUTE
    ../clib/microlib/init/entry.s            0x00000000   Number         0  entry.o ABSOLUTE
    ../clib/microlib/init/entry.s            0x00000000   Number         0  entry9a.o ABSOLUTE
    ../clib/microlib/init/entry.s            0x00000000   Number         0  entry8a.o ABSOLUTE
    ../clib/microlib/init/entry.s            0x00000000   Number         0  entry8b.o ABSOLUTE
    ../clib/microlib/init/entry.s            0x00000000   Number         0  entry9b.o ABSOLUTE
    ../clib/microlib/init/entry.s            0x00000000   Number         0  entry7b.o ABSOLUTE
    ../clib/microlib/init/entry.s            0x00000000   Number         0  entry10a.o ABSOLUTE
    ../clib/microlib/init/entry.s            0x00000000   Number         0  entry11a.o ABSOLUTE
    ../clib/microlib/init/entry.s            0x00000000   Number         0  entry10b.o ABSOLUTE
    ../clib/microlib/init/entry.s            0x00000000   Number         0  entry11b.o ABSOLUTE
    ../clib/microlib/init/entry.s            0x00000000   Number         0  entry2.o ABSOLUTE
    ../clib/microlib/init/entry.s            0x00000000   Number         0  entry5.o ABSOLUTE
    ../clib/microlib/longlong.c              0x00000000   Number         0  llshl.o ABSOLUTE
    ../clib/microlib/longlong.c              0x00000000   Number         0  llsshr.o ABSOLUTE
    ../clib/microlib/longlong.c              0x00000000   Number         0  llushr.o ABSOLUTE
    ../clib/microlib/malloc/malloc.c         0x00000000   Number         0  mallocra.o ABSOLUTE
    ../clib/microlib/malloc/malloc.c         0x00000000   Number         0  mallocr.o ABSOLUTE
    ../clib/microlib/malloc/malloc.c         0x00000000   Number         0  malloc.o ABSOLUTE
    ../clib/microlib/malloc/malloc.c         0x00000000   Number         0  malloca.o ABSOLUTE
    ../clib/microlib/malloc/mvars.c          0x00000000   Number         0  mvars.o ABSOLUTE
    ../clib/microlib/printf/printf.c         0x00000000   Number         0  printfb.o ABSOLUTE
    ../clib/microlib/printf/printf.c         0x00000000   Number         0  printf5.o ABSOLUTE
    ../clib/microlib/printf/printf.c         0x00000000   Number         0  printf8.o ABSOLUTE
    ../clib/microlib/printf/printf.c         0x00000000   Number         0  printf2.o ABSOLUTE
    ../clib/microlib/printf/printf.c         0x00000000   Number         0  printf1.o ABSOLUTE
    ../clib/microlib/printf/printf.c         0x00000000   Number         0  printf7.o ABSOLUTE
    ../clib/microlib/printf/printf.c         0x00000000   Number         0  printf4.o ABSOLUTE
    ../clib/microlib/printf/printf.c         0x00000000   Number         0  printf3.o ABSOLUTE
    ../clib/microlib/printf/printf.c         0x00000000   Number         0  printf6.o ABSOLUTE
    ../clib/microlib/printf/printf.c         0x00000000   Number         0  printfa.o ABSOLUTE
    ../clib/microlib/printf/printf.c         0x00000000   Number         0  printf0.o ABSOLUTE
    ../clib/microlib/printf/stubs.s          0x00000000   Number         0  stubs.o ABSOLUTE
    ../clib/microlib/stdio/streams.c         0x00000000   Number         0  stdout.o ABSOLUTE
    ../clib/microlib/string/memcmp.c         0x00000000   Number         0  memcmp.o ABSOLUTE
    ../clib/microlib/string/memcpy.c         0x00000000   Number         0  memcpyb.o ABSOLUTE
    ../clib/microlib/string/memcpy.c         0x00000000   Number         0  memcpya.o ABSOLUTE
    ../clib/microlib/string/memset.c         0x00000000   Number         0  memseta.o ABSOLUTE
    ../clib/microlib/string/memset.c         0x00000000   Number         0  memset.o ABSOLUTE
    ../clib/microlib/string/strcat.c         0x00000000   Number         0  strcat.o ABSOLUTE
    ../clib/microlib/string/strchr.c         0x00000000   Number         0  strchr.o ABSOLUTE
    ../clib/microlib/string/strcpy.c         0x00000000   Number         0  strcpy.o ABSOLUTE
    ../clib/microlib/string/strlen.c         0x00000000   Number         0  strlen.o ABSOLUTE
    ../clib/microlib/string/strncpy.c        0x00000000   Number         0  strncpy.o ABSOLUTE
    ../clib/microlib/string/strstr.c         0x00000000   Number         0  strstr.o ABSOLUTE
    ../clib/microlib/string/strtok.c         0x00000000   Number         0  strtok_r.o ABSOLUTE
    ../clib/microlib/string/strtok.c         0x00000000   Number         0  strtok.o ABSOLUTE
    ../clib/microlib/stubs.s                 0x00000000   Number         0  iusefp.o ABSOLUTE
    ../fplib/microlib/fpadd.c                0x00000000   Number         0  dadd.o ABSOLUTE
    ../fplib/microlib/fpdiv.c                0x00000000   Number         0  ddiv.o ABSOLUTE
    ../fplib/microlib/fpepilogue.c           0x00000000   Number         0  depilogue.o ABSOLUTE
    ../fplib/microlib/fpfix.c                0x00000000   Number         0  dfixul.o ABSOLUTE
    ../fplib/microlib/fpmul.c                0x00000000   Number         0  dmul.o ABSOLUTE
    ..\CMSIS\core_cm3.c                      0x00000000   Number         0  core_cm3.o ABSOLUTE
    ..\CMSIS\system_stm32f10x.c              0x00000000   Number         0  system_stm32f10x.o ABSOLUTE
    ..\Libraries\src\misc.c                  0x00000000   Number         0  misc.o ABSOLUTE
    ..\Libraries\src\stm32f10x_flash.c       0x00000000   Number         0  stm32f10x_flash.o ABSOLUTE
    ..\Libraries\src\stm32f10x_gpio.c        0x00000000   Number         0  stm32f10x_gpio.o ABSOLUTE
    ..\Libraries\src\stm32f10x_iwdg.c        0x00000000   Number         0  stm32f10x_iwdg.o ABSOLUTE
    ..\Libraries\src\stm32f10x_rcc.c         0x00000000   Number         0  stm32f10x_rcc.o ABSOLUTE
    ..\Libraries\src\stm32f10x_spi.c         0x00000000   Number         0  stm32f10x_spi.o ABSOLUTE
    ..\Libraries\src\stm32f10x_tim.c         0x00000000   Number         0  stm32f10x_tim.o ABSOLUTE
    ..\Libraries\src\stm32f10x_usart.c       0x00000000   Number         0  stm32f10x_usart.o ABSOLUTE
    ..\Startup\startup_stm32f10x_hd.s        0x00000000   Number         0  startup_stm32f10x_hd.o ABSOLUTE
    ..\User\BufferManage.c                   0x00000000   Number         0  buffermanage.o ABSOLUTE
    ..\User\LoopList.c                       0x00000000   Number         0  looplist.o ABSOLUTE
    ..\User\System.c                         0x00000000   Number         0  system.o ABSOLUTE
    ..\User\cString.c                        0x00000000   Number         0  cstring.o ABSOLUTE
    ..\User\delay.c                          0x00000000   Number         0  delay.o ABSOLUTE
    ..\User\gpio.c                           0x00000000   Number         0  gpio.o ABSOLUTE
    ..\User\iwdg.c                           0x00000000   Number         0  iwdg.o ABSOLUTE
    ..\User\key.c                            0x00000000   Number         0  key.o ABSOLUTE
    ..\User\main.c                           0x00000000   Number         0  main.o ABSOLUTE
    ..\User\stm32f10x_it.c                   0x00000000   Number         0  stm32f10x_it.o ABSOLUTE
    ..\User\timer.c                          0x00000000   Number         0  timer.o ABSOLUTE
    ..\User\usart.c                          0x00000000   Number         0  usart.o ABSOLUTE
    ..\W5500\arp.c                           0x00000000   Number         0  arp.o ABSOLUTE
    ..\W5500\dhcp.c                          0x00000000   Number         0  dhcp.o ABSOLUTE
    ..\W5500\dns.c                           0x00000000   Number         0  dns.o ABSOLUTE
    ..\W5500\ntp.c                           0x00000000   Number         0  ntp.o ABSOLUTE
    ..\W5500\smtp.c                          0x00000000   Number         0  smtp.o ABSOLUTE
    ..\W5500\socket.c                        0x00000000   Number         0  socket.o ABSOLUTE
    ..\W5500\utility.c                       0x00000000   Number         0  utility.o ABSOLUTE
    ..\W5500\w5500.c                         0x00000000   Number         0  w5500.o ABSOLUTE
    ..\W5500\w5500_conf.c                    0x00000000   Number         0  w5500_conf.o ABSOLUTE
    ..\\CMSIS\\core_cm3.c                    0x00000000   Number         0  core_cm3.o ABSOLUTE
    E:\MDK5\ARM\PACK\ARM\mbedTLS\1.6.0\MDK\library\entropy_poll_hw.c 0x00000000   Number         0  entropy_poll_hw.o ABSOLUTE
    E:\MDK5\ARM\PACK\ARM\mbedTLS\1.6.0\MDK\library\iot_socket\net_sockets.c 0x00000000   Number         0  net_sockets.o ABSOLUTE
    E:\MDK5\ARM\PACK\ARM\mbedTLS\1.6.0\MDK\library\mw_network\net_sockets.c 0x00000000   Number         0  net_sockets_1.o ABSOLUTE
    E:\MDK5\ARM\PACK\ARM\mbedTLS\1.6.0\library\aes.c 0x00000000   Number         0  aes.o ABSOLUTE
    E:\MDK5\ARM\PACK\ARM\mbedTLS\1.6.0\library\arc4.c 0x00000000   Number         0  arc4.o ABSOLUTE
    E:\MDK5\ARM\PACK\ARM\mbedTLS\1.6.0\library\aria.c 0x00000000   Number         0  aria.o ABSOLUTE
    E:\MDK5\ARM\PACK\ARM\mbedTLS\1.6.0\library\asn1parse.c 0x00000000   Number         0  asn1parse.o ABSOLUTE
    E:\MDK5\ARM\PACK\ARM\mbedTLS\1.6.0\library\asn1write.c 0x00000000   Number         0  asn1write.o ABSOLUTE
    E:\MDK5\ARM\PACK\ARM\mbedTLS\1.6.0\library\base64.c 0x00000000   Number         0  base64.o ABSOLUTE
    E:\MDK5\ARM\PACK\ARM\mbedTLS\1.6.0\library\bignum.c 0x00000000   Number         0  bignum.o ABSOLUTE
    E:\MDK5\ARM\PACK\ARM\mbedTLS\1.6.0\library\blowfish.c 0x00000000   Number         0  blowfish.o ABSOLUTE
    E:\MDK5\ARM\PACK\ARM\mbedTLS\1.6.0\library\camellia.c 0x00000000   Number         0  camellia.o ABSOLUTE
    E:\MDK5\ARM\PACK\ARM\mbedTLS\1.6.0\library\ccm.c 0x00000000   Number         0  ccm.o ABSOLUTE
    E:\MDK5\ARM\PACK\ARM\mbedTLS\1.6.0\library\certs.c 0x00000000   Number         0  certs.o ABSOLUTE
    E:\MDK5\ARM\PACK\ARM\mbedTLS\1.6.0\library\chacha20.c 0x00000000   Number         0  chacha20.o ABSOLUTE
    E:\MDK5\ARM\PACK\ARM\mbedTLS\1.6.0\library\chachapoly.c 0x00000000   Number         0  chachapoly.o ABSOLUTE
    E:\MDK5\ARM\PACK\ARM\mbedTLS\1.6.0\library\cipher.c 0x00000000   Number         0  cipher.o ABSOLUTE
    E:\MDK5\ARM\PACK\ARM\mbedTLS\1.6.0\library\cipher_wrap.c 0x00000000   Number         0  cipher_wrap.o ABSOLUTE
    E:\MDK5\ARM\PACK\ARM\mbedTLS\1.6.0\library\cmac.c 0x00000000   Number         0  cmac.o ABSOLUTE
    E:\MDK5\ARM\PACK\ARM\mbedTLS\1.6.0\library\ctr_drbg.c 0x00000000   Number         0  ctr_drbg.o ABSOLUTE
    E:\MDK5\ARM\PACK\ARM\mbedTLS\1.6.0\library\debug.c 0x00000000   Number         0  debug.o ABSOLUTE
    E:\MDK5\ARM\PACK\ARM\mbedTLS\1.6.0\library\des.c 0x00000000   Number         0  des.o ABSOLUTE
    E:\MDK5\ARM\PACK\ARM\mbedTLS\1.6.0\library\dhm.c 0x00000000   Number         0  dhm.o ABSOLUTE
    E:\MDK5\ARM\PACK\ARM\mbedTLS\1.6.0\library\ecdh.c 0x00000000   Number         0  ecdh.o ABSOLUTE
    E:\MDK5\ARM\PACK\ARM\mbedTLS\1.6.0\library\ecdsa.c 0x00000000   Number         0  ecdsa.o ABSOLUTE
    E:\MDK5\ARM\PACK\ARM\mbedTLS\1.6.0\library\ecjpake.c 0x00000000   Number         0  ecjpake.o ABSOLUTE
    E:\MDK5\ARM\PACK\ARM\mbedTLS\1.6.0\library\ecp.c 0x00000000   Number         0  ecp.o ABSOLUTE
    E:\MDK5\ARM\PACK\ARM\mbedTLS\1.6.0\library\ecp_curves.c 0x00000000   Number         0  ecp_curves.o ABSOLUTE
    E:\MDK5\ARM\PACK\ARM\mbedTLS\1.6.0\library\entropy.c 0x00000000   Number         0  entropy.o ABSOLUTE
    E:\MDK5\ARM\PACK\ARM\mbedTLS\1.6.0\library\entropy_poll.c 0x00000000   Number         0  entropy_poll.o ABSOLUTE
    E:\MDK5\ARM\PACK\ARM\mbedTLS\1.6.0\library\error.c 0x00000000   Number         0  error.o ABSOLUTE
    E:\MDK5\ARM\PACK\ARM\mbedTLS\1.6.0\library\gcm.c 0x00000000   Number         0  gcm.o ABSOLUTE
    E:\MDK5\ARM\PACK\ARM\mbedTLS\1.6.0\library\havege.c 0x00000000   Number         0  havege.o ABSOLUTE
    E:\MDK5\ARM\PACK\ARM\mbedTLS\1.6.0\library\hkdf.c 0x00000000   Number         0  hkdf.o ABSOLUTE
    E:\MDK5\ARM\PACK\ARM\mbedTLS\1.6.0\library\hmac_drbg.c 0x00000000   Number         0  hmac_drbg.o ABSOLUTE
    E:\MDK5\ARM\PACK\ARM\mbedTLS\1.6.0\library\md.c 0x00000000   Number         0  md.o ABSOLUTE
    E:\MDK5\ARM\PACK\ARM\mbedTLS\1.6.0\library\md2.c 0x00000000   Number         0  md2.o ABSOLUTE
    E:\MDK5\ARM\PACK\ARM\mbedTLS\1.6.0\library\md4.c 0x00000000   Number         0  md4.o ABSOLUTE
    E:\MDK5\ARM\PACK\ARM\mbedTLS\1.6.0\library\md5.c 0x00000000   Number         0  md5.o ABSOLUTE
    E:\MDK5\ARM\PACK\ARM\mbedTLS\1.6.0\library\md_wrap.c 0x00000000   Number         0  md_wrap.o ABSOLUTE
    E:\MDK5\ARM\PACK\ARM\mbedTLS\1.6.0\library\memory_buffer_alloc.c 0x00000000   Number         0  memory_buffer_alloc.o ABSOLUTE
    E:\MDK5\ARM\PACK\ARM\mbedTLS\1.6.0\library\net_sockets.c 0x00000000   Number         0  net_sockets_2.o ABSOLUTE
    E:\MDK5\ARM\PACK\ARM\mbedTLS\1.6.0\library\nist_kw.c 0x00000000   Number         0  nist_kw.o ABSOLUTE
    E:\MDK5\ARM\PACK\ARM\mbedTLS\1.6.0\library\oid.c 0x00000000   Number         0  oid.o ABSOLUTE
    E:\MDK5\ARM\PACK\ARM\mbedTLS\1.6.0\library\pem.c 0x00000000   Number         0  pem.o ABSOLUTE
    E:\MDK5\ARM\PACK\ARM\mbedTLS\1.6.0\library\pk.c 0x00000000   Number         0  pk.o ABSOLUTE
    E:\MDK5\ARM\PACK\ARM\mbedTLS\1.6.0\library\pk_wrap.c 0x00000000   Number         0  pk_wrap.o ABSOLUTE
    E:\MDK5\ARM\PACK\ARM\mbedTLS\1.6.0\library\pkcs11.c 0x00000000   Number         0  pkcs11.o ABSOLUTE
    E:\MDK5\ARM\PACK\ARM\mbedTLS\1.6.0\library\pkcs12.c 0x00000000   Number         0  pkcs12.o ABSOLUTE
    E:\MDK5\ARM\PACK\ARM\mbedTLS\1.6.0\library\pkcs5.c 0x00000000   Number         0  pkcs5.o ABSOLUTE
    E:\MDK5\ARM\PACK\ARM\mbedTLS\1.6.0\library\pkparse.c 0x00000000   Number         0  pkparse.o ABSOLUTE
    E:\MDK5\ARM\PACK\ARM\mbedTLS\1.6.0\library\pkwrite.c 0x00000000   Number         0  pkwrite.o ABSOLUTE
    E:\MDK5\ARM\PACK\ARM\mbedTLS\1.6.0\library\platform.c 0x00000000   Number         0  platform.o ABSOLUTE
    E:\MDK5\ARM\PACK\ARM\mbedTLS\1.6.0\library\platform_util.c 0x00000000   Number         0  platform_util.o ABSOLUTE
    E:\MDK5\ARM\PACK\ARM\mbedTLS\1.6.0\library\poly1305.c 0x00000000   Number         0  poly1305.o ABSOLUTE
    E:\MDK5\ARM\PACK\ARM\mbedTLS\1.6.0\library\ripemd160.c 0x00000000   Number         0  ripemd160.o ABSOLUTE
    E:\MDK5\ARM\PACK\ARM\mbedTLS\1.6.0\library\rsa.c 0x00000000   Number         0  rsa.o ABSOLUTE
    E:\MDK5\ARM\PACK\ARM\mbedTLS\1.6.0\library\rsa_internal.c 0x00000000   Number         0  rsa_internal.o ABSOLUTE
    E:\MDK5\ARM\PACK\ARM\mbedTLS\1.6.0\library\sha1.c 0x00000000   Number         0  sha1.o ABSOLUTE
    E:\MDK5\ARM\PACK\ARM\mbedTLS\1.6.0\library\sha256.c 0x00000000   Number         0  sha256.o ABSOLUTE
    E:\MDK5\ARM\PACK\ARM\mbedTLS\1.6.0\library\sha512.c 0x00000000   Number         0  sha512.o ABSOLUTE
    E:\MDK5\ARM\PACK\ARM\mbedTLS\1.6.0\library\ssl_cache.c 0x00000000   Number         0  ssl_cache.o ABSOLUTE
    E:\MDK5\ARM\PACK\ARM\mbedTLS\1.6.0\library\ssl_ciphersuites.c 0x00000000   Number         0  ssl_ciphersuites.o ABSOLUTE
    E:\MDK5\ARM\PACK\ARM\mbedTLS\1.6.0\library\ssl_cli.c 0x00000000   Number         0  ssl_cli.o ABSOLUTE
    E:\MDK5\ARM\PACK\ARM\mbedTLS\1.6.0\library\ssl_cookie.c 0x00000000   Number         0  ssl_cookie.o ABSOLUTE
    E:\MDK5\ARM\PACK\ARM\mbedTLS\1.6.0\library\ssl_srv.c 0x00000000   Number         0  ssl_srv.o ABSOLUTE
    E:\MDK5\ARM\PACK\ARM\mbedTLS\1.6.0\library\ssl_ticket.c 0x00000000   Number         0  ssl_ticket.o ABSOLUTE
    E:\MDK5\ARM\PACK\ARM\mbedTLS\1.6.0\library\ssl_tls.c 0x00000000   Number         0  ssl_tls.o ABSOLUTE
    E:\MDK5\ARM\PACK\ARM\mbedTLS\1.6.0\library\threading.c 0x00000000   Number         0  threading.o ABSOLUTE
    E:\MDK5\ARM\PACK\ARM\mbedTLS\1.6.0\library\timing.c 0x00000000   Number         0  timing.o ABSOLUTE
    E:\MDK5\ARM\PACK\ARM\mbedTLS\1.6.0\library\version.c 0x00000000   Number         0  version.o ABSOLUTE
    E:\MDK5\ARM\PACK\ARM\mbedTLS\1.6.0\library\version_features.c 0x00000000   Number         0  version_features.o ABSOLUTE
    E:\MDK5\ARM\PACK\ARM\mbedTLS\1.6.0\library\x509.c 0x00000000   Number         0  x509.o ABSOLUTE
    E:\MDK5\ARM\PACK\ARM\mbedTLS\1.6.0\library\x509_create.c 0x00000000   Number         0  x509_create.o ABSOLUTE
    E:\MDK5\ARM\PACK\ARM\mbedTLS\1.6.0\library\x509_crl.c 0x00000000   Number         0  x509_crl.o ABSOLUTE
    E:\MDK5\ARM\PACK\ARM\mbedTLS\1.6.0\library\x509_crt.c 0x00000000   Number         0  x509_crt.o ABSOLUTE
    E:\MDK5\ARM\PACK\ARM\mbedTLS\1.6.0\library\x509_csr.c 0x00000000   Number         0  x509_csr.o ABSOLUTE
    E:\MDK5\ARM\PACK\ARM\mbedTLS\1.6.0\library\x509write_crt.c 0x00000000   Number         0  x509write_crt.o ABSOLUTE
    E:\MDK5\ARM\PACK\ARM\mbedTLS\1.6.0\library\x509write_csr.c 0x00000000   Number         0  x509write_csr.o ABSOLUTE
    E:\MDK5\ARM\PACK\ARM\mbedTLS\1.6.0\library\xtea.c 0x00000000   Number         0  xtea.o ABSOLUTE
    cdrcmple.s                               0x00000000   Number         0  cdrcmple.o ABSOLUTE
    dc.s                                     0x00000000   Number         0  dc.o ABSOLUTE
    handlers.s                               0x00000000   Number         0  handlers.o ABSOLUTE
    init.s                                   0x00000000   Number         0  init.o ABSOLUTE
    RESET                                    0x08000000   Section      304  startup_stm32f10x_hd.o(RESET)
    .ARM.Collect$$$$00000000                 0x08000130   Section        0  entry.o(.ARM.Collect$$$$00000000)
    .ARM.Collect$$$$00000001                 0x08000130   Section        4  entry2.o(.ARM.Collect$$$$00000001)
    .ARM.Collect$$$$00000004                 0x08000134   Section        4  entry5.o(.ARM.Collect$$$$00000004)
    .ARM.Collect$$$$00000008                 0x08000138   Section        0  entry7b.o(.ARM.Collect$$$$00000008)
    .ARM.Collect$$$$0000000A                 0x08000138   Section        0  entry8b.o(.ARM.Collect$$$$0000000A)
    .ARM.Collect$$$$0000000B                 0x08000138   Section        8  entry9a.o(.ARM.Collect$$$$0000000B)
    .ARM.Collect$$$$0000000D                 0x08000140   Section        0  entry10a.o(.ARM.Collect$$$$0000000D)
    .ARM.Collect$$$$0000000F                 0x08000140   Section        0  entry11a.o(.ARM.Collect$$$$0000000F)
    .ARM.Collect$$$$00002712                 0x08000140   Section        4  entry2.o(.ARM.Collect$$$$00002712)
    __lit__00000000                          0x08000140   Data           4  entry2.o(.ARM.Collect$$$$00002712)
    .text                                    0x08000144   Section        0  stm32f10x_it.o(.text)
    .text                                    0x08000184   Section        0  main.o(.text)
    .text                                    0x080005bc   Section        0  system.o(.text)
    .text                                    0x080006b4   Section        0  delay.o(.text)
    .text                                    0x08000788   Section        0  usart.o(.text)
    .text                                    0x08000d38   Section        0  gpio.o(.text)
    .text                                    0x08000d84   Section        0  cstring.o(.text)
    .text                                    0x08000f40   Section        0  iwdg.o(.text)
    .text                                    0x08000f6c   Section        0  timer.o(.text)
    .text                                    0x0800101c   Section        0  buffermanage.o(.text)
    .text                                    0x080010f0   Section        0  looplist.o(.text)
    .text                                    0x080012e8   Section        0  system_stm32f10x.o(.text)
    SetSysClockTo72                          0x080012e9   Thumb Code   214  system_stm32f10x.o(.text)
    SetSysClock                              0x080013bf   Thumb Code     8  system_stm32f10x.o(.text)
    .text                                    0x080014c8   Section        0  misc.o(.text)
    .text                                    0x080015a4   Section        0  stm32f10x_rcc.o(.text)
    .text                                    0x08001948   Section        0  stm32f10x_usart.o(.text)
    .text                                    0x08001d50   Section        0  stm32f10x_gpio.o(.text)
    .text                                    0x080020ac   Section        0  stm32f10x_tim.o(.text)
    TI4_Config                               0x08002553   Thumb Code   130  stm32f10x_tim.o(.text)
    TI3_Config                               0x080025e7   Thumb Code   122  stm32f10x_tim.o(.text)
    TI2_Config                               0x0800267b   Thumb Code   130  stm32f10x_tim.o(.text)
    TI1_Config                               0x0800270f   Thumb Code   108  stm32f10x_tim.o(.text)
    .text                                    0x08002ec8   Section        0  stm32f10x_iwdg.o(.text)
    .text                                    0x08002f08   Section        0  stm32f10x_spi.o(.text)
    .text                                    0x08003214   Section       36  startup_stm32f10x_hd.o(.text)
    .text                                    0x08003238   Section        0  dhcp.o(.text)
    .text                                    0x08004870   Section        0  socket.o(.text)
    .text                                    0x08004efc   Section        0  utility.o(.text)
    .text                                    0x08005288   Section        0  w5500.o(.text)
    .text                                    0x0800566c   Section        0  w5500_conf.o(.text)
    .text                                    0x08005bc4   Section        0  platform_util.o(.text)
    .text                                    0x08005bdc   Section        0  sha1.o(.text)
    .text                                    0x08007498   Section        0  uldiv.o(.text)
    .text                                    0x080074fa   Section        0  memcpya.o(.text)
    .text                                    0x0800751e   Section        0  memseta.o(.text)
    .text                                    0x08007542   Section        0  strstr.o(.text)
    .text                                    0x08007566   Section        0  strncpy.o(.text)
    .text                                    0x0800757e   Section        0  strlen.o(.text)
    .text                                    0x0800758c   Section        0  memcmp.o(.text)
    .text                                    0x080075a6   Section        0  strcpy.o(.text)
    .text                                    0x080075b8   Section        0  strtok.o(.text)
    .text                                    0x080075fc   Section        0  uidiv.o(.text)
    .text                                    0x08007628   Section        0  llshl.o(.text)
    .text                                    0x08007646   Section        0  llushr.o(.text)
    .text                                    0x08007666   Section        0  dadd.o(.text)
    .text                                    0x08007666   Section        0  iusefp.o(.text)
    .text                                    0x080077b4   Section        0  dmul.o(.text)
    .text                                    0x08007898   Section        0  ddiv.o(.text)
    .text                                    0x08007976   Section        0  dfixul.o(.text)
    .text                                    0x080079a8   Section       48  cdrcmple.o(.text)
    .text                                    0x080079d8   Section       36  init.o(.text)
    .text                                    0x080079fc   Section        0  llsshr.o(.text)
    .text                                    0x08007a20   Section        0  depilogue.o(.text)
    .text                                    0x08007ada   Section        0  __dczerorl2.o(.text)
    i.__0printf                              0x08007b30   Section        0  printfa.o(i.__0printf)
    i.__0printf$8                            0x08007b50   Section        0  printf8.o(i.__0printf$8)
    i.__0sprintf$8                           0x08007b70   Section        0  printf8.o(i.__0sprintf$8)
    i.__scatterload_copy                     0x08007b98   Section       14  handlers.o(i.__scatterload_copy)
    i.__scatterload_null                     0x08007ba6   Section        2  handlers.o(i.__scatterload_null)
    i.__scatterload_zeroinit                 0x08007ba8   Section       14  handlers.o(i.__scatterload_zeroinit)
    i._fp_digits                             0x08007bb8   Section        0  printfa.o(i._fp_digits)
    _fp_digits                               0x08007bb9   Thumb Code   334  printfa.o(i._fp_digits)
    i._printf_core                           0x08007d1c   Section        0  printf8.o(i._printf_core)
    _printf_core                             0x08007d1d   Thumb Code   996  printf8.o(i._printf_core)
    i._printf_core                           0x0800812c   Section        0  printfa.o(i._printf_core)
    _printf_core                             0x0800812d   Thumb Code  1744  printfa.o(i._printf_core)
    i._printf_post_padding                   0x08008808   Section        0  printf8.o(i._printf_post_padding)
    _printf_post_padding                     0x08008809   Thumb Code    36  printf8.o(i._printf_post_padding)
    i._printf_post_padding                   0x0800882c   Section        0  printfa.o(i._printf_post_padding)
    _printf_post_padding                     0x0800882d   Thumb Code    36  printfa.o(i._printf_post_padding)
    i._printf_pre_padding                    0x08008850   Section        0  printf8.o(i._printf_pre_padding)
    _printf_pre_padding                      0x08008851   Thumb Code    46  printf8.o(i._printf_pre_padding)
    i._printf_pre_padding                    0x0800887e   Section        0  printfa.o(i._printf_pre_padding)
    _printf_pre_padding                      0x0800887f   Thumb Code    46  printfa.o(i._printf_pre_padding)
    i._sputc                                 0x080088ac   Section        0  printf8.o(i._sputc)
    _sputc                                   0x080088ad   Thumb Code    10  printf8.o(i._sputc)
    i.free                                   0x080088b8   Section        0  malloc.o(i.free)
    i.malloc                                 0x08008908   Section        0  malloc.o(i.malloc)
    .conststring                             0x08008974   Section        5  dhcp.o(.conststring)
    .data                                    0x20000000   Section       29  main.o(.data)
    .data                                    0x20000020   Section       40  system.o(.data)
    .data                                    0x20000048   Section        4  delay.o(.data)
    fac_us                                   0x20000048   Data           1  delay.o(.data)
    fac_ms                                   0x2000004a   Data           2  delay.o(.data)
    .data                                    0x2000004c   Section       45  usart.o(.data)
    flage                                    0x20000078   Data           1  usart.o(.data)
    .data                                    0x2000007c   Section        9  cstring.o(.data)
    .data                                    0x20000088   Section       20  system_stm32f10x.o(.data)
    .data                                    0x2000009c   Section       20  stm32f10x_rcc.o(.data)
    APBAHBPrescTable                         0x2000009c   Data          16  stm32f10x_rcc.o(.data)
    ADCPrescTable                            0x200000ac   Data           4  stm32f10x_rcc.o(.data)
    .data                                    0x200000b0   Section       64  dhcp.o(.data)
    .data                                    0x200000f0   Section       16  w5500.o(.data)
    .data                                    0x20000100   Section       41  w5500_conf.o(.data)
    .data                                    0x2000012c   Section        4  platform_util.o(.data)
    memset_func                              0x2000012c   Data           4  platform_util.o(.data)
    .data                                    0x20000130   Section        4  strtok.o(.data)
    state                                    0x20000130   Data           4  strtok.o(.data)
    .data                                    0x20000134   Section        4  stdout.o(.data)
    .data                                    0x20000138   Section        4  mvars.o(.data)
    .data                                    0x2000013c   Section        4  mvars.o(.data)
    .bss                                     0x20000140   Section      344  main.o(.bss)
    .bss                                     0x20000298   Section    11248  usart.o(.bss)
    .bss                                     0x20002e88   Section       28  key.o(.bss)
    .bss                                     0x20002ea4   Section     1046  dhcp.o(.bss)
    .bss                                     0x200032ba   Section       48  utility.o(.bss)
    addr_str                                 0x200032ba   Data          32  utility.o(.bss)
    addr_str                                 0x200032da   Data          16  utility.o(.bss)
    .bss                                     0x200032ea   Section       32  w5500.o(.bss)
    .bss                                     0x2000330a   Section       46  w5500_conf.o(.bss)
    HEAP                                     0x20003338   Section      512  startup_stm32f10x_hd.o(HEAP)
    STACK                                    0x20003538   Section     1024  startup_stm32f10x_hd.o(STACK)

    Global Symbols

    Symbol Name                              Value     Ov Type        Size  Object(Section)

    BuildAttributes$$THM_ISAv4$P$D$K$B$S$PE$A:L22UL41UL21$X:L11$S22US41US21$IEEE1$IW$USESV6$~STKCKD$USESV7$~SHL$OSPACE$ROPI$EBA8$MICROLIB$REQ8$PRES8$EABIv2 0x00000000   Number         0  anon$$obj.o ABSOLUTE
    __ARM_use_no_argv                        0x00000000   Number         0  main.o ABSOLUTE
    _printf_a                                0x00000000   Number         0  stubs.o ABSOLUTE
    _printf_c                                0x00000000   Number         0  stubs.o ABSOLUTE
    _printf_charcount                        0x00000000   Number         0  stubs.o ABSOLUTE
    _printf_d                                0x00000000   Number         0  stubs.o ABSOLUTE
    _printf_e                                0x00000000   Number         0  stubs.o ABSOLUTE
    _printf_f                                0x00000000   Number         0  stubs.o ABSOLUTE
    _printf_flags                            0x00000000   Number         0  stubs.o ABSOLUTE
    _printf_fp_dec                           0x00000000   Number         0  stubs.o ABSOLUTE
    _printf_fp_hex                           0x00000000   Number         0  stubs.o ABSOLUTE
    _printf_g                                0x00000000   Number         0  stubs.o ABSOLUTE
    _printf_i                                0x00000000   Number         0  stubs.o ABSOLUTE
    _printf_int_dec                          0x00000000   Number         0  stubs.o ABSOLUTE
    _printf_l                                0x00000000   Number         0  stubs.o ABSOLUTE
    _printf_lc                               0x00000000   Number         0  stubs.o ABSOLUTE
    _printf_ll                               0x00000000   Number         0  stubs.o ABSOLUTE
    _printf_lld                              0x00000000   Number         0  stubs.o ABSOLUTE
    _printf_lli                              0x00000000   Number         0  stubs.o ABSOLUTE
    _printf_llo                              0x00000000   Number         0  stubs.o ABSOLUTE
    _printf_llu                              0x00000000   Number         0  stubs.o ABSOLUTE
    _printf_llx                              0x00000000   Number         0  stubs.o ABSOLUTE
    _printf_longlong_dec                     0x00000000   Number         0  stubs.o ABSOLUTE
    _printf_longlong_hex                     0x00000000   Number         0  stubs.o ABSOLUTE
    _printf_longlong_oct                     0x00000000   Number         0  stubs.o ABSOLUTE
    _printf_ls                               0x00000000   Number         0  stubs.o ABSOLUTE
    _printf_mbtowc                           0x00000000   Number         0  stubs.o ABSOLUTE
    _printf_n                                0x00000000   Number         0  stubs.o ABSOLUTE
    _printf_o                                0x00000000   Number         0  stubs.o ABSOLUTE
    _printf_p                                0x00000000   Number         0  stubs.o ABSOLUTE
    _printf_percent                          0x00000000   Number         0  stubs.o ABSOLUTE
    _printf_pre_padding                      0x00000000   Number         0  stubs.o ABSOLUTE
    _printf_return_value                     0x00000000   Number         0  stubs.o ABSOLUTE
    _printf_s                                0x00000000   Number         0  stubs.o ABSOLUTE
    _printf_sizespec                         0x00000000   Number         0  stubs.o ABSOLUTE
    _printf_str                              0x00000000   Number         0  stubs.o ABSOLUTE
    _printf_truncate_signed                  0x00000000   Number         0  stubs.o ABSOLUTE
    _printf_truncate_unsigned                0x00000000   Number         0  stubs.o ABSOLUTE
    _printf_u                                0x00000000   Number         0  stubs.o ABSOLUTE
    _printf_wc                               0x00000000   Number         0  stubs.o ABSOLUTE
    _printf_wctomb                           0x00000000   Number         0  stubs.o ABSOLUTE
    _printf_widthprec                        0x00000000   Number         0  stubs.o ABSOLUTE
    _printf_x                                0x00000000   Number         0  stubs.o ABSOLUTE
    __cpp_initialize__aeabi_                  - Undefined Weak Reference
    __cxa_finalize                            - Undefined Weak Reference
    _clock_init                               - Undefined Weak Reference
    _microlib_exit                            - Undefined Weak Reference
    __Vectors_Size                           0x00000130   Number         0  startup_stm32f10x_hd.o ABSOLUTE
    __Vectors                                0x08000000   Data           4  startup_stm32f10x_hd.o(RESET)
    __Vectors_End                            0x08000130   Data           0  startup_stm32f10x_hd.o(RESET)
    __main                                   0x08000131   Thumb Code     0  entry.o(.ARM.Collect$$$$00000000)
    _main_stk                                0x08000131   Thumb Code     0  entry2.o(.ARM.Collect$$$$00000001)
    _main_scatterload                        0x08000135   Thumb Code     0  entry5.o(.ARM.Collect$$$$00000004)
    __main_after_scatterload                 0x08000139   Thumb Code     0  entry5.o(.ARM.Collect$$$$00000004)
    _main_clock                              0x08000139   Thumb Code     0  entry7b.o(.ARM.Collect$$$$00000008)
    _main_cpp_init                           0x08000139   Thumb Code     0  entry8b.o(.ARM.Collect$$$$0000000A)
    _main_init                               0x08000139   Thumb Code     0  entry9a.o(.ARM.Collect$$$$0000000B)
    __rt_final_cpp                           0x08000141   Thumb Code     0  entry10a.o(.ARM.Collect$$$$0000000D)
    __rt_final_exit                          0x08000141   Thumb Code     0  entry11a.o(.ARM.Collect$$$$0000000F)
    NMI_Handler                              0x08000145   Thumb Code     2  stm32f10x_it.o(.text)
    HardFault_Handler                        0x08000147   Thumb Code    36  stm32f10x_it.o(.text)
    MemManage_Handler                        0x0800016b   Thumb Code     4  stm32f10x_it.o(.text)
    BusFault_Handler                         0x0800016f   Thumb Code     4  stm32f10x_it.o(.text)
    UsageFault_Handler                       0x08000173   Thumb Code     4  stm32f10x_it.o(.text)
    SVC_Handler                              0x08000177   Thumb Code     2  stm32f10x_it.o(.text)
    DebugMon_Handler                         0x08000179   Thumb Code     2  stm32f10x_it.o(.text)
    PendSV_Handler                           0x0800017b   Thumb Code     2  stm32f10x_it.o(.text)
    do_tcpc                                  0x08000185   Thumb Code   170  main.o(.text)
    main                                     0x0800022f   Thumb Code   680  main.o(.text)
    NVIC_Configuration                       0x080005bd   Thumb Code   126  system.o(.text)
    Reset_MCU                                0x0800063b   Thumb Code    32  system.o(.text)
    GetSTM32MCUID                            0x0800065b   Thumb Code    50  system.o(.text)
    DelayInit                                0x080006b5   Thumb Code    50  delay.o(.text)
    delay_us                                 0x080006e7   Thumb Code    72  delay.o(.text)
    delay_ms                                 0x0800072f   Thumb Code    72  delay.o(.text)
    uart_init                                0x08000789   Thumb Code   414  usart.o(.text)
    UsartOutStrIT                            0x08000927   Thumb Code    94  usart.o(.text)
    UsartOutStr                              0x08000985   Thumb Code    42  usart.o(.text)
    UsartOutChar                             0x080009af   Thumb Code    28  usart.o(.text)
    USART1_IRQHandler                        0x080009cb   Thumb Code   214  usart.o(.text)
    USART2_IRQHandler                        0x08000aa1   Thumb Code   336  usart.o(.text)
    USART3_IRQHandler                        0x08000bf1   Thumb Code   230  usart.o(.text)
    fputc                                    0x08000cd7   Thumb Code    58  usart.o(.text)
    GpioInit                                 0x08000d39   Thumb Code    66  gpio.o(.text)
    cStringFree                              0x08000d85   Thumb Code    12  cstring.o(.text)
    StrBetwStringMalloc                      0x08000d91   Thumb Code   108  cstring.o(.text)
    cStringRestore                           0x08000dfd   Thumb Code    18  cstring.o(.text)
    StrBetwString                            0x08000e0f   Thumb Code    86  cstring.o(.text)
    split                                    0x08000e65   Thumb Code    84  cstring.o(.text)
    HexToAscii                               0x08000eb9   Thumb Code    96  cstring.o(.text)
    insert                                   0x08000f19   Thumb Code    26  cstring.o(.text)
    IWDG_Init                                0x08000f41   Thumb Code    36  iwdg.o(.text)
    IWDG_Feed                                0x08000f65   Thumb Code     8  iwdg.o(.text)
    Timer2_Config                            0x08000f6d   Thumb Code    80  timer.o(.text)
    TIM2_IRQHandler                          0x08000fbd   Thumb Code    86  timer.o(.text)
    BufferManageCreate                       0x0800101d   Thumb Code    64  buffermanage.o(.text)
    BufferManageWrite                        0x0800105d   Thumb Code    84  buffermanage.o(.text)
    BufferManageRead                         0x080010b1   Thumb Code    64  buffermanage.o(.text)
    rbCreate                                 0x080010f1   Thumb Code    20  looplist.o(.text)
    rbDelete                                 0x08001105   Thumb Code    18  looplist.o(.text)
    rbCapacity                               0x08001117   Thumb Code    14  looplist.o(.text)
    rbCanRead                                0x08001125   Thumb Code    56  looplist.o(.text)
    rbCanWrite                               0x0800115d   Thumb Code    30  looplist.o(.text)
    rbRead                                   0x0800117b   Thumb Code   162  looplist.o(.text)
    rbWrite                                  0x0800121d   Thumb Code   158  looplist.o(.text)
    PutData                                  0x080012bb   Thumb Code    46  looplist.o(.text)
    SystemInit                               0x080013c7   Thumb Code    78  system_stm32f10x.o(.text)
    SystemCoreClockUpdate                    0x08001415   Thumb Code   142  system_stm32f10x.o(.text)
    NVIC_PriorityGroupConfig                 0x080014c9   Thumb Code    10  misc.o(.text)
    NVIC_Init                                0x080014d3   Thumb Code   100  misc.o(.text)
    NVIC_SetVectorTable                      0x08001537   Thumb Code    14  misc.o(.text)
    NVIC_SystemLPConfig                      0x08001545   Thumb Code    34  misc.o(.text)
    SysTick_CLKSourceConfig                  0x08001567   Thumb Code    40  misc.o(.text)
    RCC_DeInit                               0x080015a5   Thumb Code    64  stm32f10x_rcc.o(.text)
    RCC_HSEConfig                            0x080015e5   Thumb Code    70  stm32f10x_rcc.o(.text)
    RCC_GetFlagStatus                        0x0800162b   Thumb Code    56  stm32f10x_rcc.o(.text)
    RCC_WaitForHSEStartUp                    0x08001663   Thumb Code    56  stm32f10x_rcc.o(.text)
    RCC_AdjustHSICalibrationValue            0x0800169b   Thumb Code    20  stm32f10x_rcc.o(.text)
    RCC_HSICmd                               0x080016af   Thumb Code     6  stm32f10x_rcc.o(.text)
    RCC_PLLConfig                            0x080016b5   Thumb Code    24  stm32f10x_rcc.o(.text)
    RCC_PLLCmd                               0x080016cd   Thumb Code     6  stm32f10x_rcc.o(.text)
    RCC_SYSCLKConfig                         0x080016d3   Thumb Code    18  stm32f10x_rcc.o(.text)
    RCC_GetSYSCLKSource                      0x080016e5   Thumb Code    10  stm32f10x_rcc.o(.text)
    RCC_HCLKConfig                           0x080016ef   Thumb Code    18  stm32f10x_rcc.o(.text)
    RCC_PCLK1Config                          0x08001701   Thumb Code    18  stm32f10x_rcc.o(.text)
    RCC_PCLK2Config                          0x08001713   Thumb Code    20  stm32f10x_rcc.o(.text)
    RCC_ITConfig                             0x08001727   Thumb Code    26  stm32f10x_rcc.o(.text)
    RCC_USBCLKConfig                         0x08001741   Thumb Code     8  stm32f10x_rcc.o(.text)
    RCC_ADCCLKConfig                         0x08001749   Thumb Code    18  stm32f10x_rcc.o(.text)
    RCC_LSEConfig                            0x0800175b   Thumb Code    50  stm32f10x_rcc.o(.text)
    RCC_LSICmd                               0x0800178d   Thumb Code     6  stm32f10x_rcc.o(.text)
    RCC_RTCCLKConfig                         0x08001793   Thumb Code    12  stm32f10x_rcc.o(.text)
    RCC_RTCCLKCmd                            0x0800179f   Thumb Code     8  stm32f10x_rcc.o(.text)
    RCC_GetClocksFreq                        0x080017a7   Thumb Code   192  stm32f10x_rcc.o(.text)
    RCC_AHBPeriphClockCmd                    0x08001867   Thumb Code    26  stm32f10x_rcc.o(.text)
    RCC_APB2PeriphClockCmd                   0x08001881   Thumb Code    26  stm32f10x_rcc.o(.text)
    RCC_APB1PeriphClockCmd                   0x0800189b   Thumb Code    26  stm32f10x_rcc.o(.text)
    RCC_APB2PeriphResetCmd                   0x080018b5   Thumb Code    26  stm32f10x_rcc.o(.text)
    RCC_APB1PeriphResetCmd                   0x080018cf   Thumb Code    26  stm32f10x_rcc.o(.text)
    RCC_BackupResetCmd                       0x080018e9   Thumb Code     8  stm32f10x_rcc.o(.text)
    RCC_ClockSecuritySystemCmd               0x080018f1   Thumb Code     6  stm32f10x_rcc.o(.text)
    RCC_MCOConfig                            0x080018f7   Thumb Code     6  stm32f10x_rcc.o(.text)
    RCC_ClearFlag                            0x080018fd   Thumb Code    14  stm32f10x_rcc.o(.text)
    RCC_GetITStatus                          0x0800190b   Thumb Code    20  stm32f10x_rcc.o(.text)
    RCC_ClearITPendingBit                    0x0800191f   Thumb Code     6  stm32f10x_rcc.o(.text)
    USART_DeInit                             0x08001949   Thumb Code   134  stm32f10x_usart.o(.text)
    USART_Init                               0x080019cf   Thumb Code   210  stm32f10x_usart.o(.text)
    USART_StructInit                         0x08001aa1   Thumb Code    24  stm32f10x_usart.o(.text)
    USART_ClockInit                          0x08001ab9   Thumb Code    34  stm32f10x_usart.o(.text)
    USART_ClockStructInit                    0x08001adb   Thumb Code    12  stm32f10x_usart.o(.text)
    USART_Cmd                                0x08001ae7   Thumb Code    24  stm32f10x_usart.o(.text)
    USART_ITConfig                           0x08001aff   Thumb Code    74  stm32f10x_usart.o(.text)
    USART_DMACmd                             0x08001b49   Thumb Code    18  stm32f10x_usart.o(.text)
    USART_SetAddress                         0x08001b5b   Thumb Code    18  stm32f10x_usart.o(.text)
    USART_WakeUpConfig                       0x08001b6d   Thumb Code    18  stm32f10x_usart.o(.text)
    USART_ReceiverWakeUpCmd                  0x08001b7f   Thumb Code    24  stm32f10x_usart.o(.text)
    USART_LINBreakDetectLengthConfig         0x08001b97   Thumb Code    18  stm32f10x_usart.o(.text)
    USART_LINCmd                             0x08001ba9   Thumb Code    24  stm32f10x_usart.o(.text)
    USART_SendData                           0x08001bc1   Thumb Code     8  stm32f10x_usart.o(.text)
    USART_ReceiveData                        0x08001bc9   Thumb Code    10  stm32f10x_usart.o(.text)
    USART_SendBreak                          0x08001bd3   Thumb Code    10  stm32f10x_usart.o(.text)
    USART_SetGuardTime                       0x08001bdd   Thumb Code    16  stm32f10x_usart.o(.text)
    USART_SetPrescaler                       0x08001bed   Thumb Code    16  stm32f10x_usart.o(.text)
    USART_SmartCardCmd                       0x08001bfd   Thumb Code    24  stm32f10x_usart.o(.text)
    USART_SmartCardNACKCmd                   0x08001c15   Thumb Code    24  stm32f10x_usart.o(.text)
    USART_HalfDuplexCmd                      0x08001c2d   Thumb Code    24  stm32f10x_usart.o(.text)
    USART_OverSampling8Cmd                   0x08001c45   Thumb Code    22  stm32f10x_usart.o(.text)
    USART_OneBitMethodCmd                    0x08001c5b   Thumb Code    24  stm32f10x_usart.o(.text)
    USART_IrDAConfig                         0x08001c73   Thumb Code    18  stm32f10x_usart.o(.text)
    USART_IrDACmd                            0x08001c85   Thumb Code    24  stm32f10x_usart.o(.text)
    USART_GetFlagStatus                      0x08001c9d   Thumb Code    26  stm32f10x_usart.o(.text)
    USART_ClearFlag                          0x08001cb7   Thumb Code    18  stm32f10x_usart.o(.text)
    USART_GetITStatus                        0x08001cc9   Thumb Code    84  stm32f10x_usart.o(.text)
    USART_ClearITPendingBit                  0x08001d1d   Thumb Code    52  stm32f10x_usart.o(.text)
    GPIO_DeInit                              0x08001d51   Thumb Code   172  stm32f10x_gpio.o(.text)
    GPIO_AFIODeInit                          0x08001dfd   Thumb Code    20  stm32f10x_gpio.o(.text)
    GPIO_Init                                0x08001e11   Thumb Code   278  stm32f10x_gpio.o(.text)
    GPIO_StructInit                          0x08001f27   Thumb Code    16  stm32f10x_gpio.o(.text)
    GPIO_ReadInputDataBit                    0x08001f37   Thumb Code    18  stm32f10x_gpio.o(.text)
    GPIO_ReadInputData                       0x08001f49   Thumb Code     8  stm32f10x_gpio.o(.text)
    GPIO_ReadOutputDataBit                   0x08001f51   Thumb Code    18  stm32f10x_gpio.o(.text)
    GPIO_ReadOutputData                      0x08001f63   Thumb Code     8  stm32f10x_gpio.o(.text)
    GPIO_SetBits                             0x08001f6b   Thumb Code     4  stm32f10x_gpio.o(.text)
    GPIO_ResetBits                           0x08001f6f   Thumb Code     4  stm32f10x_gpio.o(.text)
    GPIO_WriteBit                            0x08001f73   Thumb Code    10  stm32f10x_gpio.o(.text)
    GPIO_Write                               0x08001f7d   Thumb Code     4  stm32f10x_gpio.o(.text)
    GPIO_PinLockConfig                       0x08001f81   Thumb Code    18  stm32f10x_gpio.o(.text)
    GPIO_EventOutputConfig                   0x08001f93   Thumb Code    26  stm32f10x_gpio.o(.text)
    GPIO_EventOutputCmd                      0x08001fad   Thumb Code     6  stm32f10x_gpio.o(.text)
    GPIO_PinRemapConfig                      0x08001fb3   Thumb Code   138  stm32f10x_gpio.o(.text)
    GPIO_EXTILineConfig                      0x0800203d   Thumb Code    66  stm32f10x_gpio.o(.text)
    GPIO_ETH_MediaInterfaceConfig            0x0800207f   Thumb Code     8  stm32f10x_gpio.o(.text)
    TIM_DeInit                               0x080020ad   Thumb Code   424  stm32f10x_tim.o(.text)
    TIM_TimeBaseInit                         0x08002255   Thumb Code   122  stm32f10x_tim.o(.text)
    TIM_OC1Init                              0x080022cf   Thumb Code   132  stm32f10x_tim.o(.text)
    TIM_OC2Init                              0x08002353   Thumb Code   154  stm32f10x_tim.o(.text)
    TIM_OC3Init                              0x080023ed   Thumb Code   150  stm32f10x_tim.o(.text)
    TIM_OC4Init                              0x08002483   Thumb Code   182  stm32f10x_tim.o(.text)
    TIM_SetIC4Prescaler                      0x08002539   Thumb Code    26  stm32f10x_tim.o(.text)
    TIM_SetIC3Prescaler                      0x080025d5   Thumb Code    18  stm32f10x_tim.o(.text)
    TIM_SetIC2Prescaler                      0x08002661   Thumb Code    26  stm32f10x_tim.o(.text)
    TIM_SetIC1Prescaler                      0x080026fd   Thumb Code    18  stm32f10x_tim.o(.text)
    TIM_ICInit                               0x0800277b   Thumb Code   150  stm32f10x_tim.o(.text)
    TIM_PWMIConfig                           0x08002811   Thumb Code   124  stm32f10x_tim.o(.text)
    TIM_BDTRConfig                           0x0800288d   Thumb Code    32  stm32f10x_tim.o(.text)
    TIM_TimeBaseStructInit                   0x080028ad   Thumb Code    18  stm32f10x_tim.o(.text)
    TIM_OCStructInit                         0x080028bf   Thumb Code    20  stm32f10x_tim.o(.text)
    TIM_ICStructInit                         0x080028d3   Thumb Code    18  stm32f10x_tim.o(.text)
    TIM_BDTRStructInit                       0x080028e5   Thumb Code    40  stm32f10x_tim.o(.text)
    TIM_Cmd                                  0x0800290d   Thumb Code    24  stm32f10x_tim.o(.text)
    TIM_CtrlPWMOutputs                       0x08002925   Thumb Code    30  stm32f10x_tim.o(.text)
    TIM_ITConfig                             0x08002943   Thumb Code    18  stm32f10x_tim.o(.text)
    TIM_GenerateEvent                        0x08002955   Thumb Code     4  stm32f10x_tim.o(.text)
    TIM_DMAConfig                            0x08002959   Thumb Code    10  stm32f10x_tim.o(.text)
    TIM_DMACmd                               0x08002963   Thumb Code    18  stm32f10x_tim.o(.text)
    TIM_InternalClockConfig                  0x08002975   Thumb Code    12  stm32f10x_tim.o(.text)
    TIM_SelectInputTrigger                   0x08002981   Thumb Code    18  stm32f10x_tim.o(.text)
    TIM_ITRxExternalClockConfig              0x08002993   Thumb Code    24  stm32f10x_tim.o(.text)
    TIM_TIxExternalClockConfig               0x080029ab   Thumb Code    62  stm32f10x_tim.o(.text)
    TIM_ETRConfig                            0x080029e9   Thumb Code    28  stm32f10x_tim.o(.text)
    TIM_ETRClockMode1Config                  0x08002a05   Thumb Code    54  stm32f10x_tim.o(.text)
    TIM_ETRClockMode2Config                  0x08002a3b   Thumb Code    32  stm32f10x_tim.o(.text)
    TIM_PrescalerConfig                      0x08002a5b   Thumb Code     6  stm32f10x_tim.o(.text)
    TIM_CounterModeConfig                    0x08002a61   Thumb Code    18  stm32f10x_tim.o(.text)
    TIM_EncoderInterfaceConfig               0x08002a73   Thumb Code    66  stm32f10x_tim.o(.text)
    TIM_ForcedOC1Config                      0x08002ab5   Thumb Code    18  stm32f10x_tim.o(.text)
    TIM_ForcedOC2Config                      0x08002ac7   Thumb Code    26  stm32f10x_tim.o(.text)
    TIM_ForcedOC3Config                      0x08002ae1   Thumb Code    18  stm32f10x_tim.o(.text)
    TIM_ForcedOC4Config                      0x08002af3   Thumb Code    26  stm32f10x_tim.o(.text)
    TIM_ARRPreloadConfig                     0x08002b0d   Thumb Code    24  stm32f10x_tim.o(.text)
    TIM_SelectCOM                            0x08002b25   Thumb Code    24  stm32f10x_tim.o(.text)
    TIM_SelectCCDMA                          0x08002b3d   Thumb Code    24  stm32f10x_tim.o(.text)
    TIM_CCPreloadControl                     0x08002b55   Thumb Code    24  stm32f10x_tim.o(.text)
    TIM_OC1PreloadConfig                     0x08002b6d   Thumb Code    18  stm32f10x_tim.o(.text)
    TIM_OC2PreloadConfig                     0x08002b7f   Thumb Code    26  stm32f10x_tim.o(.text)
    TIM_OC3PreloadConfig                     0x08002b99   Thumb Code    18  stm32f10x_tim.o(.text)
    TIM_OC4PreloadConfig                     0x08002bab   Thumb Code    26  stm32f10x_tim.o(.text)
    TIM_OC1FastConfig                        0x08002bc5   Thumb Code    18  stm32f10x_tim.o(.text)
    TIM_OC2FastConfig                        0x08002bd7   Thumb Code    26  stm32f10x_tim.o(.text)
    TIM_OC3FastConfig                        0x08002bf1   Thumb Code    18  stm32f10x_tim.o(.text)
    TIM_OC4FastConfig                        0x08002c03   Thumb Code    26  stm32f10x_tim.o(.text)
    TIM_ClearOC1Ref                          0x08002c1d   Thumb Code    18  stm32f10x_tim.o(.text)
    TIM_ClearOC2Ref                          0x08002c2f   Thumb Code    24  stm32f10x_tim.o(.text)
    TIM_ClearOC3Ref                          0x08002c47   Thumb Code    18  stm32f10x_tim.o(.text)
    TIM_ClearOC4Ref                          0x08002c59   Thumb Code    24  stm32f10x_tim.o(.text)
    TIM_OC1PolarityConfig                    0x08002c71   Thumb Code    18  stm32f10x_tim.o(.text)
    TIM_OC1NPolarityConfig                   0x08002c83   Thumb Code    18  stm32f10x_tim.o(.text)
    TIM_OC2PolarityConfig                    0x08002c95   Thumb Code    26  stm32f10x_tim.o(.text)
    TIM_OC2NPolarityConfig                   0x08002caf   Thumb Code    26  stm32f10x_tim.o(.text)
    TIM_OC3PolarityConfig                    0x08002cc9   Thumb Code    26  stm32f10x_tim.o(.text)
    TIM_OC3NPolarityConfig                   0x08002ce3   Thumb Code    26  stm32f10x_tim.o(.text)
    TIM_OC4PolarityConfig                    0x08002cfd   Thumb Code    26  stm32f10x_tim.o(.text)
    TIM_CCxCmd                               0x08002d17   Thumb Code    30  stm32f10x_tim.o(.text)
    TIM_CCxNCmd                              0x08002d35   Thumb Code    30  stm32f10x_tim.o(.text)
    TIM_SelectOCxM                           0x08002d53   Thumb Code    82  stm32f10x_tim.o(.text)
    TIM_UpdateDisableConfig                  0x08002da5   Thumb Code    24  stm32f10x_tim.o(.text)
    TIM_UpdateRequestConfig                  0x08002dbd   Thumb Code    24  stm32f10x_tim.o(.text)
    TIM_SelectHallSensor                     0x08002dd5   Thumb Code    24  stm32f10x_tim.o(.text)
    TIM_SelectOnePulseMode                   0x08002ded   Thumb Code    18  stm32f10x_tim.o(.text)
    TIM_SelectOutputTrigger                  0x08002dff   Thumb Code    18  stm32f10x_tim.o(.text)
    TIM_SelectSlaveMode                      0x08002e11   Thumb Code    18  stm32f10x_tim.o(.text)
    TIM_SelectMasterSlaveMode                0x08002e23   Thumb Code    18  stm32f10x_tim.o(.text)
    TIM_SetCounter                           0x08002e35   Thumb Code     4  stm32f10x_tim.o(.text)
    TIM_SetAutoreload                        0x08002e39   Thumb Code     4  stm32f10x_tim.o(.text)
    TIM_SetCompare1                          0x08002e3d   Thumb Code     4  stm32f10x_tim.o(.text)
    TIM_SetCompare2                          0x08002e41   Thumb Code     4  stm32f10x_tim.o(.text)
    TIM_SetCompare3                          0x08002e45   Thumb Code     4  stm32f10x_tim.o(.text)
    TIM_SetCompare4                          0x08002e49   Thumb Code     6  stm32f10x_tim.o(.text)
    TIM_SetClockDivision                     0x08002e4f   Thumb Code    18  stm32f10x_tim.o(.text)
    TIM_GetCapture1                          0x08002e61   Thumb Code     6  stm32f10x_tim.o(.text)
    TIM_GetCapture2                          0x08002e67   Thumb Code     6  stm32f10x_tim.o(.text)
    TIM_GetCapture3                          0x08002e6d   Thumb Code     6  stm32f10x_tim.o(.text)
    TIM_GetCapture4                          0x08002e73   Thumb Code     8  stm32f10x_tim.o(.text)
    TIM_GetCounter                           0x08002e7b   Thumb Code     6  stm32f10x_tim.o(.text)
    TIM_GetPrescaler                         0x08002e81   Thumb Code     6  stm32f10x_tim.o(.text)
    TIM_GetFlagStatus                        0x08002e87   Thumb Code    18  stm32f10x_tim.o(.text)
    TIM_ClearFlag                            0x08002e99   Thumb Code     6  stm32f10x_tim.o(.text)
    TIM_GetITStatus                          0x08002e9f   Thumb Code    34  stm32f10x_tim.o(.text)
    TIM_ClearITPendingBit                    0x08002ec1   Thumb Code     6  stm32f10x_tim.o(.text)
    IWDG_WriteAccessCmd                      0x08002ec9   Thumb Code     6  stm32f10x_iwdg.o(.text)
    IWDG_SetPrescaler                        0x08002ecf   Thumb Code     6  stm32f10x_iwdg.o(.text)
    IWDG_SetReload                           0x08002ed5   Thumb Code     6  stm32f10x_iwdg.o(.text)
    IWDG_ReloadCounter                       0x08002edb   Thumb Code    10  stm32f10x_iwdg.o(.text)
    IWDG_Enable                              0x08002ee5   Thumb Code    10  stm32f10x_iwdg.o(.text)
    IWDG_GetFlagStatus                       0x08002eef   Thumb Code    20  stm32f10x_iwdg.o(.text)
    SPI_I2S_DeInit                           0x08002f09   Thumb Code    76  stm32f10x_spi.o(.text)
    SPI_Init                                 0x08002f55   Thumb Code    60  stm32f10x_spi.o(.text)
    I2S_Init                                 0x08002f91   Thumb Code   226  stm32f10x_spi.o(.text)
    SPI_StructInit                           0x08003073   Thumb Code    24  stm32f10x_spi.o(.text)
    I2S_StructInit                           0x0800308b   Thumb Code    20  stm32f10x_spi.o(.text)
    SPI_Cmd                                  0x0800309f   Thumb Code    24  stm32f10x_spi.o(.text)
    I2S_Cmd                                  0x080030b7   Thumb Code    24  stm32f10x_spi.o(.text)
    SPI_I2S_ITConfig                         0x080030cf   Thumb Code    32  stm32f10x_spi.o(.text)
    SPI_I2S_DMACmd                           0x080030ef   Thumb Code    18  stm32f10x_spi.o(.text)
    SPI_I2S_SendData                         0x08003101   Thumb Code     4  stm32f10x_spi.o(.text)
    SPI_I2S_ReceiveData                      0x08003105   Thumb Code     6  stm32f10x_spi.o(.text)
    SPI_NSSInternalSoftwareConfig            0x0800310b   Thumb Code    30  stm32f10x_spi.o(.text)
    SPI_SSOutputCmd                          0x08003129   Thumb Code    24  stm32f10x_spi.o(.text)
    SPI_DataSizeConfig                       0x08003141   Thumb Code    18  stm32f10x_spi.o(.text)
    SPI_TransmitCRC                          0x08003153   Thumb Code    10  stm32f10x_spi.o(.text)
    SPI_CalculateCRC                         0x0800315d   Thumb Code    24  stm32f10x_spi.o(.text)
    SPI_GetCRC                               0x08003175   Thumb Code    16  stm32f10x_spi.o(.text)
    SPI_GetCRCPolynomial                     0x08003185   Thumb Code     6  stm32f10x_spi.o(.text)
    SPI_BiDirectionalLineConfig              0x0800318b   Thumb Code    28  stm32f10x_spi.o(.text)
    SPI_I2S_GetFlagStatus                    0x080031a7   Thumb Code    18  stm32f10x_spi.o(.text)
    SPI_I2S_ClearFlag                        0x080031b9   Thumb Code     6  stm32f10x_spi.o(.text)
    SPI_I2S_GetITStatus                      0x080031bf   Thumb Code    52  stm32f10x_spi.o(.text)
    SPI_I2S_ClearITPendingBit                0x080031f3   Thumb Code    20  stm32f10x_spi.o(.text)
    Reset_Handler                            0x08003215   Thumb Code     8  startup_stm32f10x_hd.o(.text)
    SysTick_Handler                          0x0800322d   Thumb Code     2  startup_stm32f10x_hd.o(.text)
    ADC1_2_IRQHandler                        0x0800322f   Thumb Code     0  startup_stm32f10x_hd.o(.text)
    ADC3_IRQHandler                          0x0800322f   Thumb Code     0  startup_stm32f10x_hd.o(.text)
    CAN1_RX1_IRQHandler                      0x0800322f   Thumb Code     0  startup_stm32f10x_hd.o(.text)
    CAN1_SCE_IRQHandler                      0x0800322f   Thumb Code     0  startup_stm32f10x_hd.o(.text)
    DMA1_Channel1_IRQHandler                 0x0800322f   Thumb Code     0  startup_stm32f10x_hd.o(.text)
    DMA1_Channel2_IRQHandler                 0x0800322f   Thumb Code     0  startup_stm32f10x_hd.o(.text)
    DMA1_Channel3_IRQHandler                 0x0800322f   Thumb Code     0  startup_stm32f10x_hd.o(.text)
    DMA1_Channel4_IRQHandler                 0x0800322f   Thumb Code     0  startup_stm32f10x_hd.o(.text)
    DMA1_Channel5_IRQHandler                 0x0800322f   Thumb Code     0  startup_stm32f10x_hd.o(.text)
    DMA1_Channel6_IRQHandler                 0x0800322f   Thumb Code     0  startup_stm32f10x_hd.o(.text)
    DMA1_Channel7_IRQHandler                 0x0800322f   Thumb Code     0  startup_stm32f10x_hd.o(.text)
    DMA2_Channel1_IRQHandler                 0x0800322f   Thumb Code     0  startup_stm32f10x_hd.o(.text)
    DMA2_Channel2_IRQHandler                 0x0800322f   Thumb Code     0  startup_stm32f10x_hd.o(.text)
    DMA2_Channel3_IRQHandler                 0x0800322f   Thumb Code     0  startup_stm32f10x_hd.o(.text)
    DMA2_Channel4_5_IRQHandler               0x0800322f   Thumb Code     0  startup_stm32f10x_hd.o(.text)
    EXTI0_IRQHandler                         0x0800322f   Thumb Code     0  startup_stm32f10x_hd.o(.text)
    EXTI15_10_IRQHandler                     0x0800322f   Thumb Code     0  startup_stm32f10x_hd.o(.text)
    EXTI1_IRQHandler                         0x0800322f   Thumb Code     0  startup_stm32f10x_hd.o(.text)
    EXTI2_IRQHandler                         0x0800322f   Thumb Code     0  startup_stm32f10x_hd.o(.text)
    EXTI3_IRQHandler                         0x0800322f   Thumb Code     0  startup_stm32f10x_hd.o(.text)
    EXTI4_IRQHandler                         0x0800322f   Thumb Code     0  startup_stm32f10x_hd.o(.text)
    EXTI9_5_IRQHandler                       0x0800322f   Thumb Code     0  startup_stm32f10x_hd.o(.text)
    FLASH_IRQHandler                         0x0800322f   Thumb Code     0  startup_stm32f10x_hd.o(.text)
    FSMC_IRQHandler                          0x0800322f   Thumb Code     0  startup_stm32f10x_hd.o(.text)
    I2C1_ER_IRQHandler                       0x0800322f   Thumb Code     0  startup_stm32f10x_hd.o(.text)
    I2C1_EV_IRQHandler                       0x0800322f   Thumb Code     0  startup_stm32f10x_hd.o(.text)
    I2C2_ER_IRQHandler                       0x0800322f   Thumb Code     0  startup_stm32f10x_hd.o(.text)
    I2C2_EV_IRQHandler                       0x0800322f   Thumb Code     0  startup_stm32f10x_hd.o(.text)
    PVD_IRQHandler                           0x0800322f   Thumb Code     0  startup_stm32f10x_hd.o(.text)
    RCC_IRQHandler                           0x0800322f   Thumb Code     0  startup_stm32f10x_hd.o(.text)
    RTCAlarm_IRQHandler                      0x0800322f   Thumb Code     0  startup_stm32f10x_hd.o(.text)
    RTC_IRQHandler                           0x0800322f   Thumb Code     0  startup_stm32f10x_hd.o(.text)
    SDIO_IRQHandler                          0x0800322f   Thumb Code     0  startup_stm32f10x_hd.o(.text)
    SPI1_IRQHandler                          0x0800322f   Thumb Code     0  startup_stm32f10x_hd.o(.text)
    SPI2_IRQHandler                          0x0800322f   Thumb Code     0  startup_stm32f10x_hd.o(.text)
    SPI3_IRQHandler                          0x0800322f   Thumb Code     0  startup_stm32f10x_hd.o(.text)
    TAMPER_IRQHandler                        0x0800322f   Thumb Code     0  startup_stm32f10x_hd.o(.text)
    TIM1_BRK_IRQHandler                      0x0800322f   Thumb Code     0  startup_stm32f10x_hd.o(.text)
    TIM1_CC_IRQHandler                       0x0800322f   Thumb Code     0  startup_stm32f10x_hd.o(.text)
    TIM1_TRG_COM_IRQHandler                  0x0800322f   Thumb Code     0  startup_stm32f10x_hd.o(.text)
    TIM1_UP_IRQHandler                       0x0800322f   Thumb Code     0  startup_stm32f10x_hd.o(.text)
    TIM3_IRQHandler                          0x0800322f   Thumb Code     0  startup_stm32f10x_hd.o(.text)
    TIM4_IRQHandler                          0x0800322f   Thumb Code     0  startup_stm32f10x_hd.o(.text)
    TIM5_IRQHandler                          0x0800322f   Thumb Code     0  startup_stm32f10x_hd.o(.text)
    TIM6_IRQHandler                          0x0800322f   Thumb Code     0  startup_stm32f10x_hd.o(.text)
    TIM7_IRQHandler                          0x0800322f   Thumb Code     0  startup_stm32f10x_hd.o(.text)
    TIM8_BRK_IRQHandler                      0x0800322f   Thumb Code     0  startup_stm32f10x_hd.o(.text)
    TIM8_CC_IRQHandler                       0x0800322f   Thumb Code     0  startup_stm32f10x_hd.o(.text)
    TIM8_TRG_COM_IRQHandler                  0x0800322f   Thumb Code     0  startup_stm32f10x_hd.o(.text)
    TIM8_UP_IRQHandler                       0x0800322f   Thumb Code     0  startup_stm32f10x_hd.o(.text)
    UART4_IRQHandler                         0x0800322f   Thumb Code     0  startup_stm32f10x_hd.o(.text)
    UART5_IRQHandler                         0x0800322f   Thumb Code     0  startup_stm32f10x_hd.o(.text)
    USBWakeUp_IRQHandler                     0x0800322f   Thumb Code     0  startup_stm32f10x_hd.o(.text)
    USB_HP_CAN1_TX_IRQHandler                0x0800322f   Thumb Code     0  startup_stm32f10x_hd.o(.text)
    USB_LP_CAN1_RX0_IRQHandler               0x0800322f   Thumb Code     0  startup_stm32f10x_hd.o(.text)
    WWDG_IRQHandler                          0x0800322f   Thumb Code     0  startup_stm32f10x_hd.o(.text)
    get_DHCP_state                           0x08003239   Thumb Code     6  dhcp.o(.text)
    reset_DHCP_time                          0x0800323f   Thumb Code    28  dhcp.o(.text)
    send_DHCP_DISCOVER                       0x0800325b   Thumb Code   686  dhcp.o(.text)
    send_DHCP_REQUEST                        0x08003509   Thumb Code  1060  dhcp.o(.text)
    send_DHCP_RELEASE_DECLINE                0x0800392d   Thumb Code   708  dhcp.o(.text)
    parseDHCPMSG                             0x08003bf1   Thumb Code  1528  dhcp.o(.text)
    check_DHCP_Timeout                       0x080041e9   Thumb Code   134  dhcp.o(.text)
    check_leasedIP                           0x0800426f   Thumb Code    82  dhcp.o(.text)
    check_DHCP_state                         0x080042c1   Thumb Code   452  dhcp.o(.text)
    DHCP_timer_handler                       0x08004485   Thumb Code    36  dhcp.o(.text)
    init_dhcp                                0x080044a9   Thumb Code    22  dhcp.o(.text)
    do_dhcp                                  0x080044bf   Thumb Code   850  dhcp.o(.text)
    close                                    0x08004871   Thumb Code    52  socket.o(.text)
    socket                                   0x080048a5   Thumb Code   192  socket.o(.text)
    listen                                   0x08004965   Thumb Code    62  socket.o(.text)
    connect                                  0x080049a3   Thumb Code   248  socket.o(.text)
    disconnect                               0x08004a9b   Thumb Code    38  socket.o(.text)
    send                                     0x08004ac1   Thumb Code   216  socket.o(.text)
    recv                                     0x08004b99   Thumb Code    66  socket.o(.text)
    sendto                                   0x08004bdb   Thumb Code   268  socket.o(.text)
    recvfrom                                 0x08004ce7   Thumb Code   510  socket.o(.text)
    c2d                                      0x08004efd   Thumb Code    54  utility.o(.text)
    atoi16                                   0x08004f33   Thumb Code    32  utility.o(.text)
    atoi32                                   0x08004f53   Thumb Code    32  utility.o(.text)
    itoa                                     0x08004f73   Thumb Code    64  utility.o(.text)
    validatoi                                0x08004fb3   Thumb Code    72  utility.o(.text)
    replacetochar                            0x08004ffb   Thumb Code    26  utility.o(.text)
    swaps                                    0x08005015   Thumb Code    14  utility.o(.text)
    swapl                                    0x08005023   Thumb Code    28  utility.o(.text)
    mid                                      0x0800503f   Thumb Code    68  utility.o(.text)
    inet_addr_                               0x08005083   Thumb Code    90  utility.o(.text)
    inet_ntoa                                0x080050dd   Thumb Code    40  utility.o(.text)
    inet_ntoa_pad                            0x08005105   Thumb Code    40  utility.o(.text)
    verify_ip_address                        0x0800512d   Thumb Code   116  utility.o(.text)
    htons                                    0x080051a1   Thumb Code    12  utility.o(.text)
    htonl                                    0x080051ad   Thumb Code    12  utility.o(.text)
    ntohs                                    0x080051b9   Thumb Code    12  utility.o(.text)
    ntohl                                    0x080051c5   Thumb Code    12  utility.o(.text)
    checksum                                 0x080051d1   Thumb Code    76  utility.o(.text)
    check_dest_in_local                      0x0800521d   Thumb Code    62  utility.o(.text)
    getNetworkCableState                     0x08005289   Thumb Code    16  w5500.o(.text)
    setMR                                    0x08005299   Thumb Code    14  w5500.o(.text)
    iinchip_init                             0x080052a7   Thumb Code    10  w5500.o(.text)
    getIINCHIP_RxMAX                         0x080052b1   Thumb Code    10  w5500.o(.text)
    getIINCHIP_TxMAX                         0x080052bb   Thumb Code    10  w5500.o(.text)
    setGAR                                   0x080052c5   Thumb Code    16  w5500.o(.text)
    getGAR                                   0x080052d5   Thumb Code    16  w5500.o(.text)
    setSUBR                                  0x080052e5   Thumb Code    18  w5500.o(.text)
    setSHAR                                  0x080052f7   Thumb Code    18  w5500.o(.text)
    setSIPR                                  0x08005309   Thumb Code    18  w5500.o(.text)
    getSUBR                                  0x0800531b   Thumb Code    18  w5500.o(.text)
    getSHAR                                  0x0800532d   Thumb Code    18  w5500.o(.text)
    getSIPR                                  0x0800533f   Thumb Code    18  w5500.o(.text)
    getIR                                    0x08005351   Thumb Code    12  w5500.o(.text)
    setRTR                                   0x0800535d   Thumb Code    26  w5500.o(.text)
    setRCR                                   0x08005377   Thumb Code    16  w5500.o(.text)
    clearIR                                  0x08005387   Thumb Code    26  w5500.o(.text)
    setSn_MSS                                0x080053a1   Thumb Code    36  w5500.o(.text)
    setSn_TTL                                0x080053c5   Thumb Code    22  w5500.o(.text)
    getSn_IR                                 0x080053db   Thumb Code    18  w5500.o(.text)
    setSn_IR                                 0x080053ed   Thumb Code    22  w5500.o(.text)
    getSn_SR                                 0x08005403   Thumb Code    18  w5500.o(.text)
    getSn_TX_FSR                             0x08005415   Thumb Code    84  w5500.o(.text)
    getSn_RX_RSR                             0x08005469   Thumb Code    84  w5500.o(.text)
    send_data_processing                     0x080054bd   Thumb Code   116  w5500.o(.text)
    recv_data_processing                     0x08005531   Thumb Code   116  w5500.o(.text)
    socket_buf_init                          0x080055a5   Thumb Code   128  w5500.o(.text)
    write_config_to_eeprom                   0x0800566d   Thumb Code    12  w5500_conf.o(.text)
    read_config_from_eeprom                  0x08005679   Thumb Code    10  w5500_conf.o(.text)
    set_w5500_ip                             0x08005683   Thumb Code   334  w5500_conf.o(.text)
    set_w5500_mac                            0x080057d1   Thumb Code    32  w5500_conf.o(.text)
    gpio_for_w5500_config                    0x080057f1   Thumb Code   240  w5500_conf.o(.text)
    wiz_cs                                   0x080058e1   Thumb Code    30  w5500_conf.o(.text)
    iinchip_csoff                            0x080058ff   Thumb Code    10  w5500_conf.o(.text)
    iinchip_cson                             0x08005909   Thumb Code    10  w5500_conf.o(.text)
    reset_w5500                              0x08005913   Thumb Code    38  w5500_conf.o(.text)
    SPI_SendByte                             0x08005939   Thumb Code    50  w5500_conf.o(.text)
    IINCHIP_SpiSendData                      0x0800596b   Thumb Code    12  w5500_conf.o(.text)
    IINCHIP_WRITE                            0x08005977   Thumb Code    50  w5500_conf.o(.text)
    IINCHIP_READ                             0x080059a9   Thumb Code    50  w5500_conf.o(.text)
    wiz_write_buf                            0x080059db   Thumb Code    80  w5500_conf.o(.text)
    wiz_read_buf                             0x08005a2b   Thumb Code   408  w5500_conf.o(.text)
    mbedtls_platform_zeroize                 0x08005bc5   Thumb Code    20  platform_util.o(.text)
    mbedtls_sha1_init                        0x08005bdd   Thumb Code    18  sha1.o(.text)
    mbedtls_sha1_free                        0x08005bef   Thumb Code    20  sha1.o(.text)
    mbedtls_sha1_clone                       0x08005c03   Thumb Code    26  sha1.o(.text)
    mbedtls_sha1_starts_ret                  0x08005c1d   Thumb Code    38  sha1.o(.text)
    mbedtls_sha1_starts                      0x08005c43   Thumb Code    12  sha1.o(.text)
    mbedtls_internal_sha1_process            0x08005c4f   Thumb Code  5606  sha1.o(.text)
    mbedtls_sha1_process                     0x08007235   Thumb Code    16  sha1.o(.text)
    mbedtls_sha1_update_ret                  0x08007245   Thumb Code   154  sha1.o(.text)
    mbedtls_sha1_update                      0x080072df   Thumb Code    20  sha1.o(.text)
    mbedtls_sha1_finish_ret                  0x080072f3   Thumb Code   300  sha1.o(.text)
    mbedtls_sha1_finish                      0x0800741f   Thumb Code    16  sha1.o(.text)
    mbedtls_sha1_ret                         0x0800742f   Thumb Code    80  sha1.o(.text)
    mbedtls_sha1                             0x0800747f   Thumb Code    20  sha1.o(.text)
    __aeabi_uldivmod                         0x08007499   Thumb Code    98  uldiv.o(.text)
    __aeabi_memcpy                           0x080074fb   Thumb Code    36  memcpya.o(.text)
    __aeabi_memcpy4                          0x080074fb   Thumb Code     0  memcpya.o(.text)
    __aeabi_memcpy8                          0x080074fb   Thumb Code     0  memcpya.o(.text)
    __aeabi_memset                           0x0800751f   Thumb Code    14  memseta.o(.text)
    __aeabi_memset4                          0x0800751f   Thumb Code     0  memseta.o(.text)
    __aeabi_memset8                          0x0800751f   Thumb Code     0  memseta.o(.text)
    __aeabi_memclr                           0x0800752d   Thumb Code     4  memseta.o(.text)
    __aeabi_memclr4                          0x0800752d   Thumb Code     0  memseta.o(.text)
    __aeabi_memclr8                          0x0800752d   Thumb Code     0  memseta.o(.text)
    memset                                   0x08007531   Thumb Code    18  memseta.o(.text)
    strstr                                   0x08007543   Thumb Code    36  strstr.o(.text)
    strncpy                                  0x08007567   Thumb Code    24  strncpy.o(.text)
    strlen                                   0x0800757f   Thumb Code    14  strlen.o(.text)
    memcmp                                   0x0800758d   Thumb Code    26  memcmp.o(.text)
    strcpy                                   0x080075a7   Thumb Code    18  strcpy.o(.text)
    strtok                                   0x080075b9   Thumb Code    62  strtok.o(.text)
    __aeabi_uidiv                            0x080075fd   Thumb Code     0  uidiv.o(.text)
    __aeabi_uidivmod                         0x080075fd   Thumb Code    44  uidiv.o(.text)
    __aeabi_llsl                             0x08007629   Thumb Code    30  llshl.o(.text)
    _ll_shift_l                              0x08007629   Thumb Code     0  llshl.o(.text)
    __aeabi_llsr                             0x08007647   Thumb Code    32  llushr.o(.text)
    _ll_ushift_r                             0x08007647   Thumb Code     0  llushr.o(.text)
    __I$use$fp                               0x08007667   Thumb Code     0  iusefp.o(.text)
    __aeabi_dadd                             0x08007667   Thumb Code   322  dadd.o(.text)
    __aeabi_dsub                             0x080077a9   Thumb Code     6  dadd.o(.text)
    __aeabi_drsub                            0x080077af   Thumb Code     6  dadd.o(.text)
    __aeabi_dmul                             0x080077b5   Thumb Code   228  dmul.o(.text)
    __aeabi_ddiv                             0x08007899   Thumb Code   222  ddiv.o(.text)
    __aeabi_d2ulz                            0x08007977   Thumb Code    48  dfixul.o(.text)
    __aeabi_cdrcmple                         0x080079a9   Thumb Code    48  cdrcmple.o(.text)
    __scatterload                            0x080079d9   Thumb Code    28  init.o(.text)
    __scatterload_rt2                        0x080079d9   Thumb Code     0  init.o(.text)
    __aeabi_lasr                             0x080079fd   Thumb Code    36  llsshr.o(.text)
    _ll_sshift_r                             0x080079fd   Thumb Code     0  llsshr.o(.text)
    _double_round                            0x08007a21   Thumb Code    30  depilogue.o(.text)
    _double_epilogue                         0x08007a3f   Thumb Code   156  depilogue.o(.text)
    __decompress                             0x08007adb   Thumb Code     0  __dczerorl2.o(.text)
    __decompress1                            0x08007adb   Thumb Code    86  __dczerorl2.o(.text)
    __0printf                                0x08007b31   Thumb Code    22  printfa.o(i.__0printf)
    __1printf                                0x08007b31   Thumb Code     0  printfa.o(i.__0printf)
    __2printf$full                           0x08007b31   Thumb Code     0  printfa.o(i.__0printf)
    __c89printf                              0x08007b31   Thumb Code     0  printfa.o(i.__0printf)
    printf                                   0x08007b31   Thumb Code     0  printfa.o(i.__0printf)
    __0printf$8                              0x08007b51   Thumb Code    22  printf8.o(i.__0printf$8)
    __1printf$8                              0x08007b51   Thumb Code     0  printf8.o(i.__0printf$8)
    __2printf                                0x08007b51   Thumb Code     0  printf8.o(i.__0printf$8)
    __0sprintf$8                             0x08007b71   Thumb Code    34  printf8.o(i.__0sprintf$8)
    __1sprintf$8                             0x08007b71   Thumb Code     0  printf8.o(i.__0sprintf$8)
    __2sprintf                               0x08007b71   Thumb Code     0  printf8.o(i.__0sprintf$8)
    __scatterload_copy                       0x08007b99   Thumb Code    14  handlers.o(i.__scatterload_copy)
    __scatterload_null                       0x08007ba7   Thumb Code     2  handlers.o(i.__scatterload_null)
    __scatterload_zeroinit                   0x08007ba9   Thumb Code    14  handlers.o(i.__scatterload_zeroinit)
    free                                     0x080088b9   Thumb Code    76  malloc.o(i.free)
    malloc                                   0x08008909   Thumb Code    92  malloc.o(i.malloc)
    Region$$Table$$Base                      0x0800897c   Number         0  anon$$obj.o(Region$$Table)
    Region$$Table$$Limit                     0x0800899c   Number         0  anon$$obj.o(Region$$Table)
    MainLen                                  0x20000000   Data           4  main.o(.data)
    MainString                               0x20000004   Data           4  main.o(.data)
    IP                                       0x20000008   Data           4  main.o(.data)
    Port                                     0x2000000c   Data           4  main.o(.data)
    NetworkCableState                        0x20000010   Data           1  main.o(.data)
    NetworkCableStateCopy                    0x20000011   Data           1  main.o(.data)
    i                                        0x20000014   Data           4  main.o(.data)
    encrypt                                  0x20000018   Data           5  main.o(.data)
    idAddr                                   0x20000020   Data          40  system.o(.data)
    Usart2SendData                           0x2000004c   Data           4  usart.o(.data)
    Usart3SendData                           0x20000050   Data           4  usart.o(.data)
    Usart1ReadCnt                            0x20000054   Data           4  usart.o(.data)
    Usart1SendBits                           0x20000058   Data           1  usart.o(.data)
    Usart1SendData                           0x2000005c   Data           4  usart.o(.data)
    Usart1SendDataCnt                        0x20000060   Data           4  usart.o(.data)
    Usart2ReadCnt                            0x20000064   Data           4  usart.o(.data)
    Usart2SendDataCnt                        0x20000068   Data           4  usart.o(.data)
    Usart3ReadCnt                            0x2000006c   Data           4  usart.o(.data)
    Usart3SendDataCnt                        0x20000070   Data           4  usart.o(.data)
    Usart3SendDataDelay                      0x20000074   Data           4  usart.o(.data)
    StringStr                                0x2000007c   Data           4  cstring.o(.data)
    StrStop                                  0x20000080   Data           4  cstring.o(.data)
    StringValue                              0x20000084   Data           1  cstring.o(.data)
    SystemCoreClock                          0x20000088   Data           4  system_stm32f10x.o(.data)
    AHBPrescTable                            0x2000008c   Data          16  system_stm32f10x.o(.data)
    SRC_MAC_ADDR                             0x200000b0   Data           4  dhcp.o(.data)
    GET_SN_MASK                              0x200000b4   Data           4  dhcp.o(.data)
    GET_GW_IP                                0x200000b8   Data           4  dhcp.o(.data)
    GET_DNS_IP                               0x200000bc   Data           4  dhcp.o(.data)
    DHCP_HOST_NAME                           0x200000c0   Data           4  dhcp.o(.data)
    GET_SIP                                  0x200000c4   Data           4  dhcp.o(.data)
    DHCP_SIP                                 0x200000c8   Data           4  dhcp.o(.data)
    DHCP_REAL_SIP                            0x200000cc   Data           4  dhcp.o(.data)
    OLD_SIP                                  0x200000d0   Data           4  dhcp.o(.data)
    dhcp_state                               0x200000d4   Data           1  dhcp.o(.data)
    dhcp_retry_count                         0x200000d5   Data           1  dhcp.o(.data)
    DHCP_timeout                             0x200000d6   Data           1  dhcp.o(.data)
    dhcp_lease_time                          0x200000d8   Data           4  dhcp.o(.data)
    next_dhcp_time                           0x200000dc   Data           4  dhcp.o(.data)
    dhcp_tick_cnt                            0x200000e0   Data           4  dhcp.o(.data)
    DHCP_timer                               0x200000e4   Data           1  dhcp.o(.data)
    Conflict_flag                            0x200000e5   Data           1  dhcp.o(.data)
    DHCP_XID                                 0x200000e8   Data           4  dhcp.o(.data)
    pRIPMSG                                  0x200000ec   Data           4  dhcp.o(.data)
    txsize                                   0x200000f0   Data           8  w5500.o(.data)
    rxsize                                   0x200000f8   Data           8  w5500.o(.data)
    local_mac                                0x20000100   Data           6  w5500_conf.o(.data)
    local_ip                                 0x20000106   Data           4  w5500_conf.o(.data)
    subnet                                   0x2000010a   Data           4  w5500_conf.o(.data)
    gateway                                  0x2000010e   Data           4  w5500_conf.o(.data)
    dns_server                               0x20000112   Data           4  w5500_conf.o(.data)
    local_port                               0x20000116   Data           2  w5500_conf.o(.data)
    remote_ip                                0x20000118   Data           4  w5500_conf.o(.data)
    remote_port                              0x2000011c   Data           2  w5500_conf.o(.data)
    ip_from                                  0x2000011e   Data           1  w5500_conf.o(.data)
    dhcp_ok                                  0x2000011f   Data           1  w5500_conf.o(.data)
    ms                                       0x20000120   Data           4  w5500_conf.o(.data)
    dhcp_time                                0x20000124   Data           4  w5500_conf.o(.data)
    ntptimer                                 0x20000128   Data           1  w5500_conf.o(.data)
    __stdout                                 0x20000134   Data           4  stdout.o(.data)
    __microlib_freelist                      0x20000138   Data           4  mvars.o(.data)
    __microlib_freelist_initialised          0x2000013c   Data           4  mvars.o(.data)
    MainBuffer                               0x20000140   Data         200  main.o(.bss)
    MCUID                                    0x20000208   Data          12  main.o(.bss)
    MAC                                      0x20000214   Data          20  main.o(.bss)
    decrypt                                  0x20000228   Data          20  main.o(.bss)
    sha1_ctx                                 0x2000023c   Data          92  main.o(.bss)
    buff_manage_struct1                      0x20000298   Data          60  usart.o(.bss)
    Usart1Sendrb                             0x200002d4   Data          16  usart.o(.bss)
    Usart1BufferMemory                       0x200002e4   Data        1024  usart.o(.bss)
    Usart1BufferMemoryRead                   0x200006e4   Data         500  usart.o(.bss)
    Usart1BufferMemoryManage                 0x200008d8   Data         200  usart.o(.bss)
    Usart1SendBuff                           0x200009a0   Data        1024  usart.o(.bss)
    buff_manage_struct2                      0x20000da0   Data          60  usart.o(.bss)
    Usart2BufferMemory                       0x20000ddc   Data        1024  usart.o(.bss)
    Usart2BufferMemoryRead                   0x200011dc   Data         500  usart.o(.bss)
    Usart2BufferMemoryManage                 0x200013d0   Data         200  usart.o(.bss)
    buff_manage_struct3                      0x20001498   Data          60  usart.o(.bss)
    Usart3BufferMemory                       0x200014d4   Data        1024  usart.o(.bss)
    Usart3BufferMemoryRead                   0x200018d4   Data         500  usart.o(.bss)
    Usart3BufferMemoryManage                 0x20001ac8   Data         200  usart.o(.bss)
    send_manage_struct3                      0x20001b90   Data          60  usart.o(.bss)
    Usart3SendMemory                         0x20001bcc   Data        1024  usart.o(.bss)
    Usart3SendMemoryRead                     0x20001fcc   Data         500  usart.o(.bss)
    Usart3SendMemoryManage                   0x200021c0   Data         200  usart.o(.bss)
    Usart1ReadBuff                           0x20002288   Data        1024  usart.o(.bss)
    Usart2ReadBuff                           0x20002688   Data        1024  usart.o(.bss)
    Usart3ReadBuff                           0x20002a88   Data        1024  usart.o(.bss)
    KeySmartConfig                           0x20002e88   Data          28  key.o(.bss)
    DHCP_GET                                 0x20002ea4   Data          22  dhcp.o(.bss)
    EXTERN_DHCPBUF                           0x20002eba   Data        1024  dhcp.o(.bss)
    SSIZE                                    0x200032ea   Data          16  w5500.o(.bss)
    RSIZE                                    0x200032fa   Data          16  w5500.o(.bss)
    ConfigMsg                                0x2000330a   Data          28  w5500_conf.o(.bss)
    EEPROM_MSG                               0x20003326   Data          18  w5500_conf.o(.bss)
    __heap_base                              0x20003338   Data           0  startup_stm32f10x_hd.o(HEAP)
    __heap_limit                             0x20003538   Data           0  startup_stm32f10x_hd.o(HEAP)
    __initial_sp                             0x20003938   Data           0  startup_stm32f10x_hd.o(STACK)



==============================================================================

Memory Map of the image

  Image Entry point : 0x08000131

  Load Region LR_IROM1 (Base: 0x08000000, Size: 0x00008adc, Max: 0x00010000, ABSOLUTE, COMPRESSED[0x00008a20])

    Execution Region ER_IROM1 (Base: 0x08000000, Size: 0x0000899c, Max: 0x00010000, ABSOLUTE)

    Base Addr    Size         Type   Attr      Idx    E Section Name        Object

    0x08000000   0x00000130   Data   RO          515    RESET               startup_stm32f10x_hd.o
    0x08000130   0x00000000   Code   RO         1258  * .ARM.Collect$$$$00000000  mc_w.l(entry.o)
    0x08000130   0x00000004   Code   RO         1580    .ARM.Collect$$$$00000001  mc_w.l(entry2.o)
    0x08000134   0x00000004   Code   RO         1583    .ARM.Collect$$$$00000004  mc_w.l(entry5.o)
    0x08000138   0x00000000   Code   RO         1585    .ARM.Collect$$$$00000008  mc_w.l(entry7b.o)
    0x08000138   0x00000000   Code   RO         1587    .ARM.Collect$$$$0000000A  mc_w.l(entry8b.o)
    0x08000138   0x00000008   Code   RO         1588    .ARM.Collect$$$$0000000B  mc_w.l(entry9a.o)
    0x08000140   0x00000000   Code   RO         1590    .ARM.Collect$$$$0000000D  mc_w.l(entry10a.o)
    0x08000140   0x00000000   Code   RO         1592    .ARM.Collect$$$$0000000F  mc_w.l(entry11a.o)
    0x08000140   0x00000004   Code   RO         1581    .ARM.Collect$$$$00002712  mc_w.l(entry2.o)
    0x08000144   0x00000040   Code   RO            1    .text               stm32f10x_it.o
    0x08000184   0x00000438   Code   RO          104    .text               main.o
    0x080005bc   0x000000f8   Code   RO          208    .text               system.o
    0x080006b4   0x000000d4   Code   RO          227    .text               delay.o
    0x08000788   0x000005b0   Code   RO          244    .text               usart.o
    0x08000d38   0x0000004c   Code   RO          263    .text               gpio.o
    0x08000d84   0x000001bc   Code   RO          275    .text               cstring.o
    0x08000f40   0x0000002c   Code   RO          311    .text               iwdg.o
    0x08000f6c   0x000000b0   Code   RO          326    .text               timer.o
    0x0800101c   0x000000d4   Code   RO          349    .text               buffermanage.o
    0x080010f0   0x000001f8   Code   RO          364    .text               looplist.o
    0x080012e8   0x000001e0   Code   RO          397    .text               system_stm32f10x.o
    0x080014c8   0x000000dc   Code   RO          415    .text               misc.o
    0x080015a4   0x000003a4   Code   RO          427    .text               stm32f10x_rcc.o
    0x08001948   0x00000408   Code   RO          441    .text               stm32f10x_usart.o
    0x08001d50   0x0000035c   Code   RO          465    .text               stm32f10x_gpio.o
    0x080020ac   0x00000e1a   Code   RO          477    .text               stm32f10x_tim.o
    0x08002ec6   0x00000002   PAD
    0x08002ec8   0x00000040   Code   RO          489    .text               stm32f10x_iwdg.o
    0x08002f08   0x0000030c   Code   RO          501    .text               stm32f10x_spi.o
    0x08003214   0x00000024   Code   RO          516    .text               startup_stm32f10x_hd.o
    0x08003238   0x00001638   Code   RO          520    .text               dhcp.o
    0x08004870   0x0000068c   Code   RO          598    .text               socket.o
    0x08004efc   0x0000038c   Code   RO          610    .text               utility.o
    0x08005288   0x000003e4   Code   RO          634    .text               w5500.o
    0x0800566c   0x00000556   Code   RO          653    .text               w5500_conf.o
    0x08005bc2   0x00000002   PAD
    0x08005bc4   0x00000018   Code   RO         1051    .text               platform_util.o
    0x08005bdc   0x000018bc   Code   RO         1114    .text               sha1.o
    0x08007498   0x00000062   Code   RO         1261    .text               mc_w.l(uldiv.o)
    0x080074fa   0x00000024   Code   RO         1263    .text               mc_w.l(memcpya.o)
    0x0800751e   0x00000024   Code   RO         1267    .text               mc_w.l(memseta.o)
    0x08007542   0x00000024   Code   RO         1271    .text               mc_w.l(strstr.o)
    0x08007566   0x00000018   Code   RO         1273    .text               mc_w.l(strncpy.o)
    0x0800757e   0x0000000e   Code   RO         1277    .text               mc_w.l(strlen.o)
    0x0800758c   0x0000001a   Code   RO         1279    .text               mc_w.l(memcmp.o)
    0x080075a6   0x00000012   Code   RO         1281    .text               mc_w.l(strcpy.o)
    0x080075b8   0x00000044   Code   RO         1283    .text               mc_w.l(strtok.o)
    0x080075fc   0x0000002c   Code   RO         1595    .text               mc_w.l(uidiv.o)
    0x08007628   0x0000001e   Code   RO         1597    .text               mc_w.l(llshl.o)
    0x08007646   0x00000020   Code   RO         1599    .text               mc_w.l(llushr.o)
    0x08007666   0x00000000   Code   RO         1603    .text               mc_w.l(iusefp.o)
    0x08007666   0x0000014e   Code   RO         1604    .text               mf_w.l(dadd.o)
    0x080077b4   0x000000e4   Code   RO         1606    .text               mf_w.l(dmul.o)
    0x08007898   0x000000de   Code   RO         1608    .text               mf_w.l(ddiv.o)
    0x08007976   0x00000030   Code   RO         1610    .text               mf_w.l(dfixul.o)
    0x080079a6   0x00000002   PAD
    0x080079a8   0x00000030   Code   RO         1612    .text               mf_w.l(cdrcmple.o)
    0x080079d8   0x00000024   Code   RO         1614    .text               mc_w.l(init.o)
    0x080079fc   0x00000024   Code   RO         1616    .text               mc_w.l(llsshr.o)
    0x08007a20   0x000000ba   Code   RO         1618    .text               mf_w.l(depilogue.o)
    0x08007ada   0x00000056   Code   RO         1628    .text               mc_w.l(__dczerorl2.o)
    0x08007b30   0x00000020   Code   RO         1524    i.__0printf         mc_w.l(printfa.o)
    0x08007b50   0x00000020   Code   RO         1498    i.__0printf$8       mc_w.l(printf8.o)
    0x08007b70   0x00000028   Code   RO         1500    i.__0sprintf$8      mc_w.l(printf8.o)
    0x08007b98   0x0000000e   Code   RO         1622    i.__scatterload_copy  mc_w.l(handlers.o)
    0x08007ba6   0x00000002   Code   RO         1623    i.__scatterload_null  mc_w.l(handlers.o)
    0x08007ba8   0x0000000e   Code   RO         1624    i.__scatterload_zeroinit  mc_w.l(handlers.o)
    0x08007bb6   0x00000002   PAD
    0x08007bb8   0x00000164   Code   RO         1531    i._fp_digits        mc_w.l(printfa.o)
    0x08007d1c   0x00000410   Code   RO         1505    i._printf_core      mc_w.l(printf8.o)
    0x0800812c   0x000006dc   Code   RO         1532    i._printf_core      mc_w.l(printfa.o)
    0x08008808   0x00000024   Code   RO         1506    i._printf_post_padding  mc_w.l(printf8.o)
    0x0800882c   0x00000024   Code   RO         1533    i._printf_post_padding  mc_w.l(printfa.o)
    0x08008850   0x0000002e   Code   RO         1507    i._printf_pre_padding  mc_w.l(printf8.o)
    0x0800887e   0x0000002e   Code   RO         1534    i._printf_pre_padding  mc_w.l(printfa.o)
    0x080088ac   0x0000000a   Code   RO         1509    i._sputc            mc_w.l(printf8.o)
    0x080088b6   0x00000002   PAD
    0x080088b8   0x00000050   Code   RO         1552    i.free              mc_w.l(malloc.o)
    0x08008908   0x0000006c   Code   RO         1553    i.malloc            mc_w.l(malloc.o)
    0x08008974   0x00000005   Data   RO          522    .conststring        dhcp.o
    0x08008979   0x00000003   PAD
    0x0800897c   0x00000020   Data   RO         1620    Region$$Table       anon$$obj.o


    Execution Region RW_IRAM1 (Base: 0x20000000, Size: 0x00003938, Max: 0x00005000, ABSOLUTE, COMPRESSED[0x00000084])

    Base Addr    Size         Type   Attr      Idx    E Section Name        Object

    0x20000000   0x0000001d   Data   RW          106    .data               main.o
    0x2000001d   0x00000003   PAD
    0x20000020   0x00000028   Data   RW          209    .data               system.o
    0x20000048   0x00000004   Data   RW          228    .data               delay.o
    0x2000004c   0x0000002d   Data   RW          246    .data               usart.o
    0x20000079   0x00000003   PAD
    0x2000007c   0x00000009   Data   RW          276    .data               cstring.o
    0x20000085   0x00000003   PAD
    0x20000088   0x00000014   Data   RW          398    .data               system_stm32f10x.o
    0x2000009c   0x00000014   Data   RW          428    .data               stm32f10x_rcc.o
    0x200000b0   0x00000040   Data   RW          523    .data               dhcp.o
    0x200000f0   0x00000010   Data   RW          636    .data               w5500.o
    0x20000100   0x00000029   Data   RW          655    .data               w5500_conf.o
    0x20000129   0x00000003   PAD
    0x2000012c   0x00000004   Data   RW         1052    .data               platform_util.o
    0x20000130   0x00000004   Data   RW         1284    .data               mc_w.l(strtok.o)
    0x20000134   0x00000004   Data   RW         1594    .data               mc_w.l(stdout.o)
    0x20000138   0x00000004   Data   RW         1601    .data               mc_w.l(mvars.o)
    0x2000013c   0x00000004   Data   RW         1602    .data               mc_w.l(mvars.o)
    0x20000140   0x00000158   Zero   RW          105    .bss                main.o
    0x20000298   0x00002bf0   Zero   RW          245    .bss                usart.o
    0x20002e88   0x0000001c   Zero   RW          294    .bss                key.o
    0x20002ea4   0x00000416   Zero   RW          521    .bss                dhcp.o
    0x200032ba   0x00000030   Zero   RW          611    .bss                utility.o
    0x200032ea   0x00000020   Zero   RW          635    .bss                w5500.o
    0x2000330a   0x0000002e   Zero   RW          654    .bss                w5500_conf.o
    0x20003338   0x00000200   Zero   RW          514    HEAP                startup_stm32f10x_hd.o
    0x20003538   0x00000400   Zero   RW          513    STACK               startup_stm32f10x_hd.o


==============================================================================

Image component sizes


      Code (inc. data)   RO Data    RW Data    ZI Data      Debug   Object Name

       212          0          0          0          0       2284   buffermanage.o
         0          0          0          0          0        480   certs.o
         0          0          0          0          0         32   core_cm3.o
       444         14          0          9          0       2855   cstring.o
       212         18          0          4          0       1046   delay.o
      5688       1632          5         64       1046       9603   dhcp.o
        76         10          0          0          0        511   gpio.o
        44          0          0          0          0        658   iwdg.o
         0          0          0          0         28        577   key.o
       504          0          0          0          0       3351   looplist.o
      1080        230          0         29        344       5960   main.o
       220         22          0          0          0       1829   misc.o
        24          4          0          4          0       1283   platform_util.o
      6332         40          0          0          0       6498   sha1.o
      1676         48          0          0          0       3911   socket.o
        36          8        304          0       1536        824   startup_stm32f10x_hd.o
       860         38          0          0          0       5677   stm32f10x_gpio.o
        64          8          0          0          0     274797   stm32f10x_it.o
        64          6          0          0          0       1285   stm32f10x_iwdg.o
       932         36          0         20          0       8872   stm32f10x_rcc.o
       780         14          0          0          0       6554   stm32f10x_spi.o
      3610         88          0          0          0      22160   stm32f10x_tim.o
      1032         22          0          0          0       8400   stm32f10x_usart.o
       248         40          0         40          0       1582   system.o
       480         38          0         20          0       1883   system_stm32f10x.o
       176         10          0          0          0        708   timer.o
      1456        152          0         45      11248       6016   usart.o
       908         46          0          0         48       5775   utility.o
       996         72          0         16         32       6081   w5500.o
      1366        330          0         41         46       6280   w5500_conf.o

    ----------------------------------------------------------------------
     29524       2926        344        304      14328     397772   Object Totals
         0          0         32          0          0          0   (incl. Generated)
         4          0          3         12          0          0   (incl. Padding)

    ----------------------------------------------------------------------

      Code (inc. data)   RO Data    RW Data    ZI Data      Debug   Library Member Name

        86          0          0          0          0          0   __dczerorl2.o
         0          0          0          0          0          0   entry.o
         0          0          0          0          0          0   entry10a.o
         0          0          0          0          0          0   entry11a.o
         8          4          0          0          0          0   entry2.o
         4          0          0          0          0          0   entry5.o
         0          0          0          0          0          0   entry7b.o
         0          0          0          0          0          0   entry8b.o
         8          4          0          0          0          0   entry9a.o
        30          0          0          0          0          0   handlers.o
        36          8          0          0          0         68   init.o
         0          0          0          0          0          0   iusefp.o
        30          0          0          0          0         68   llshl.o
        36          0          0          0          0         68   llsshr.o
        32          0          0          0          0         68   llushr.o
       188         20          0          0          0        160   malloc.o
        26          0          0          0          0         80   memcmp.o
        36          0          0          0          0         68   memcpya.o
        36          0          0          0          0        108   memseta.o
         0          0          0          8          0          0   mvars.o
      1204         60          0          0          0        504   printf8.o
      2226         90          0          0          0        444   printfa.o
         0          0          0          4          0          0   stdout.o
        18          0          0          0          0         68   strcpy.o
        14          0          0          0          0         68   strlen.o
        24          0          0          0          0         76   strncpy.o
        36          0          0          0          0         80   strstr.o
        68          6          0          4          0         80   strtok.o
        44          0          0          0          0         80   uidiv.o
        98          0          0          0          0         92   uldiv.o
        48          0          0          0          0         68   cdrcmple.o
       334          0          0          0          0        148   dadd.o
       222          0          0          0          0        100   ddiv.o
       186          0          0          0          0        176   depilogue.o
        48          0          0          0          0         68   dfixul.o
       228          0          0          0          0         96   dmul.o

    ----------------------------------------------------------------------
      5360        192          0         16          0       2836   Library Totals
         6          0          0          0          0          0   (incl. Padding)

    ----------------------------------------------------------------------

      Code (inc. data)   RO Data    RW Data    ZI Data      Debug   Library Name

      4288        192          0         16          0       2180   mc_w.l
      1066          0          0          0          0        656   mf_w.l

    ----------------------------------------------------------------------
      5360        192          0         16          0       2836   Library Totals

    ----------------------------------------------------------------------

==============================================================================


      Code (inc. data)   RO Data    RW Data    ZI Data      Debug   

     34884       3118        344        320      14328     396888   Grand Totals
     34884       3118        344        132      14328     396888   ELF Image Totals (compressed)
     34884       3118        344        132          0          0   ROM Totals

==============================================================================

    Total RO  Size (Code + RO Data)                35228 (  34.40kB)
    Total RW  Size (RW Data + ZI Data)             14648 (  14.30kB)
    Total ROM Size (Code + RO Data + RW Data)      35360 (  34.53kB)

==============================================================================

