Component: ARM Compiler 5.05 update 1 (build 106) Tool: armlink [4d0efa]

==============================================================================

Section Cross References

    main.o(.text) refers to system.o(.text) for NVIC_Configuration
    main.o(.text) refers to usart.o(.text) for uart_init
    main.o(.text) refers to gpio.o(.text) for GpioInit
    main.o(.text) refers to delay.o(.text) for DelayInit
    main.o(.text) refers to timer.o(.text) for Timer2_Config
    main.o(.text) refers to iwdg.o(.text) for IWDG_Init
    main.o(.text) refers to cstring.o(.text) for HexToAscii
    main.o(.text) refers to printf8.o(i.__0printf$8) for __2printf
    main.o(.text) refers to w5500_conf.o(.text) for gpio_for_w5500_config
    main.o(.text) refers to w5500.o(.text) for socket_buf_init
    main.o(.text) refers to socket.o(.text) for close
    main.o(.text) refers to buffermanage.o(.text) for BufferManageRead
    main.o(.text) refers to main.o(.bss) for MCUID
    main.o(.text) refers to w5500_conf.o(.data) for local_mac
    main.o(.text) refers to w5500.o(.data) for rxsize
    main.o(.text) refers to main.o(.data) for NetworkCableState
    main.o(.text) refers to usart.o(.bss) for buff_manage_struct1
    system.o(.text) refers to misc.o(.text) for NVIC_PriorityGroupConfig
==============================================================================

Removing Unused input sections from the image.

    Removing key.o(.text), (104 bytes).
    Removing core_cm3.o(.emb_text), (32 bytes).
    Removing stm32f10x_flash.o(.text), (1468 bytes).
    Removing dhcp.o(.text), (5688 bytes).
    Removing dhcp.o(.conststring), (5 bytes).
    Removing dhcp.o(.data), (64 bytes).
    Removing dns.o(.text), (1528 bytes).
    Removing dns.o(.bss), (1024 bytes).
    Removing dns.o(.data), (20 bytes).
    Removing smtp.o(.text), (1282 bytes).
    Removing smtp.o(.bss), (2348 bytes).
    Removing smtp.o(.conststring), (65 bytes).
    Removing smtp.o(.data), (1019 bytes).
    Removing utility.o(.text), (908 bytes).
    Removing utility.o(.bss), (48 bytes).
    Removing ntp.o(.text), (2064 bytes).
    Removing ntp.o(.bss), (2156 bytes).
    Removing ntp.o(.data), (16 bytes).
==============================================================================

Image Symbol Table

    Local Symbols

    Symbol Name                              Value     Ov Type        Size  Object(Section)

    ../clib/microlib/division.c              0x00000000   Number         0  uldiv.o ABSOLUTE
    ../clib/microlib/division.c              0x00000000   Number         0  uidiv.o ABSOLUTE
    ../clib/microlib/init/entry.s            0x00000000   Number         0  entry2.o ABSOLUTE
    ../clib/microlib/init/entry.s            0x00000000   Number         0  entry11b.o ABSOLUTE
    ../clib/microlib/init/entry.s            0x00000000   Number         0  entry10b.o ABSOLUTE
    ../clib/microlib/init/entry.s            0x00000000   Number         0  entry11a.o ABSOLUTE
    ../clib/microlib/init/entry.s            0x00000000   Number         0  entry5.o ABSOLUTE
    ../clib/microlib/init/entry.s            0x00000000   Number         0  entry10a.o ABSOLUTE
    ../clib/microlib/init/entry.s            0x00000000   Number         0  entry.o ABSOLUTE
    ../clib/microlib/init/entry.s            0x00000000   Number         0  entry7b.o ABSOLUTE
    ../clib/microlib/init/entry.s            0x00000000   Number         0  entry9b.o ABSOLUTE
    ../clib/microlib/init/entry.s            0x00000000   Number         0  entry7a.o ABSOLUTE
    ../clib/microlib/init/entry.s            0x00000000   Number         0  entry9a.o ABSOLUTE
    ../clib/microlib/init/entry.s            0x00000000   Number         0  entry8b.o ABSOLUTE
    ../clib/microlib/init/entry.s            0x00000000   Number         0  entry8a.o ABSOLUTE
    ../clib/microlib/longlong.c              0x00000000   Number         0  llshl.o ABSOLUTE
    ../clib/microlib/longlong.c              0x00000000   Number         0  llsshr.o ABSOLUTE
    ../clib/microlib/longlong.c              0x00000000   Number         0  llushr.o ABSOLUTE
    ../clib/microlib/malloc/malloc.c         0x00000000   Number         0  mallocra.o ABSOLUTE
    ../clib/microlib/malloc/malloc.c         0x00000000   Number         0  malloc.o ABSOLUTE
    ../clib/microlib/malloc/malloc.c         0x00000000   Number         0  mallocr.o ABSOLUTE
    ../clib/microlib/malloc/malloc.c         0x00000000   Number         0  malloca.o ABSOLUTE
    ../clib/microlib/malloc/mvars.c          0x00000000   Number         0  mvars.o ABSOLUTE
    ../clib/microlib/printf/printf.c         0x00000000   Number         0  printf4.o ABSOLUTE
    ../clib/microlib/printf/printf.c         0x00000000   Number         0  printf6.o ABSOLUTE
    ../clib/microlib/printf/printf.c         0x00000000   Number         0  printf8.o ABSOLUTE
    ../clib/microlib/printf/printf.c         0x00000000   Number         0  printf7.o ABSOLUTE
    ../clib/microlib/printf/printf.c         0x00000000   Number         0  printfa.o ABSOLUTE
    ../clib/microlib/printf/printf.c         0x00000000   Number         0  printf2.o ABSOLUTE
    ../clib/microlib/printf/printf.c         0x00000000   Number         0  printfb.o ABSOLUTE
    ../clib/microlib/printf/printf.c         0x00000000   Number         0  printf0.o ABSOLUTE
    ../clib/microlib/printf/printf.c         0x00000000   Number         0  printf5.o ABSOLUTE
    ../clib/microlib/printf/printf.c         0x00000000   Number         0  printf1.o ABSOLUTE
    ../clib/microlib/printf/printf.c         0x00000000   Number         0  printf3.o ABSOLUTE
    ../clib/microlib/printf/stubs.s          0x00000000   Number         0  stubs.o ABSOLUTE
    ../clib/microlib/stdio/streams.c         0x00000000   Number         0  stdout.o ABSOLUTE
    ../clib/microlib/string/memcmp.c         0x00000000   Number         0  memcmp.o ABSOLUTE
    ../clib/microlib/string/memcpy.c         0x00000000   Number         0  memcpyb.o ABSOLUTE
    ../clib/microlib/string/memcpy.c         0x00000000   Number         0  memcpya.o ABSOLUTE
    ../clib/microlib/string/memset.c         0x00000000   Number         0  memseta.o ABSOLUTE
    ../clib/microlib/string/strcat.c         0x00000000   Number         0  strcat.o ABSOLUTE
    ../clib/microlib/string/strchr.c         0x00000000   Number         0  strchr.o ABSOLUTE
    ../clib/microlib/string/strcpy.c         0x00000000   Number         0  strcpy.o ABSOLUTE
    ../clib/microlib/string/strlen.c         0x00000000   Number         0  strlen.o ABSOLUTE
    ../clib/microlib/string/strncpy.c        0x00000000   Number         0  strncpy.o ABSOLUTE
    ../clib/microlib/string/strstr.c         0x00000000   Number         0  strstr.o ABSOLUTE
    ../clib/microlib/string/strtok.c         0x00000000   Number         0  strtok.o ABSOLUTE
    ../clib/microlib/string/strtok.c         0x00000000   Number         0  strtok_r.o ABSOLUTE
    ../clib/microlib/stubs.s                 0x00000000   Number         0  iusefp.o ABSOLUTE
    ../fplib/microlib/fpadd.c                0x00000000   Number         0  dadd.o ABSOLUTE
    ../fplib/microlib/fpdiv.c                0x00000000   Number         0  ddiv.o ABSOLUTE
    ../fplib/microlib/fpepilogue.c           0x00000000   Number         0  depilogue.o ABSOLUTE
    ../fplib/microlib/fpfix.c                0x00000000   Number         0  dfixul.o ABSOLUTE
    ../fplib/microlib/fpmul.c                0x00000000   Number         0  dmul.o ABSOLUTE
    ..\CMSIS\core_cm3.c                      0x00000000   Number         0  core_cm3.o ABSOLUTE
    ..\CMSIS\system_stm32f10x.c              0x00000000   Number         0  system_stm32f10x.o ABSOLUTE
    ..\Libraries\src\misc.c                  0x00000000   Number         0  misc.o ABSOLUTE
    ..\Libraries\src\stm32f10x_flash.c       0x00000000   Number         0  stm32f10x_flash.o ABSOLUTE
    ..\Libraries\src\stm32f10x_gpio.c        0x00000000   Number         0  stm32f10x_gpio.o ABSOLUTE
    ..\Libraries\src\stm32f10x_iwdg.c        0x00000000   Number         0  stm32f10x_iwdg.o ABSOLUTE
    ..\Libraries\src\stm32f10x_rcc.c         0x00000000   Number         0  stm32f10x_rcc.o ABSOLUTE
    ..\Libraries\src\stm32f10x_spi.c         0x00000000   Number         0  stm32f10x_spi.o ABSOLUTE
    ..\Libraries\src\stm32f10x_tim.c         0x00000000   Number         0  stm32f10x_tim.o ABSOLUTE
    ..\Libraries\src\stm32f10x_usart.c       0x00000000   Number         0  stm32f10x_usart.o ABSOLUTE
    ..\Startup\startup_stm32f10x_hd.s        0x00000000   Number         0  startup_stm32f10x_hd.o ABSOLUTE
    ..\User\BufferManage.c                   0x00000000   Number         0  buffermanage.o ABSOLUTE
    ..\User\LoopList.c                       0x00000000   Number         0  looplist.o ABSOLUTE
    ..\User\System.c                         0x00000000   Number         0  system.o ABSOLUTE
    ..\User\cString.c                        0x00000000   Number         0  cstring.o ABSOLUTE
    ..\User\delay.c                          0x00000000   Number         0  delay.o ABSOLUTE
    ..\User\gpio.c                           0x00000000   Number         0  gpio.o ABSOLUTE
    ..\User\iwdg.c                           0x00000000   Number         0  iwdg.o ABSOLUTE
    ..\User\key.c                            0x00000000   Number         0  key.o ABSOLUTE
    ..\User\main.c                           0x00000000   Number         0  main.o ABSOLUTE
    ..\User\stm32f10x_it.c                   0x00000000   Number         0  stm32f10x_it.o ABSOLUTE
    ..\User\timer.c                          0x00000000   Number         0  timer.o ABSOLUTE
    ..\User\usart.c                          0x00000000   Number         0  usart.o ABSOLUTE
    ..\W5500\dhcp.c                          0x00000000   Number         0  dhcp.o ABSOLUTE
    ..\W5500\dns.c                           0x00000000   Number         0  dns.o ABSOLUTE
    ..\W5500\ntp.c                           0x00000000   Number         0  ntp.o ABSOLUTE
    ..\W5500\smtp.c                          0x00000000   Number         0  smtp.o ABSOLUTE
    ..\W5500\socket.c                        0x00000000   Number         0  socket.o ABSOLUTE
    ..\W5500\utility.c                       0x00000000   Number         0  utility.o ABSOLUTE
    ..\W5500\w5500.c                         0x00000000   Number         0  w5500.o ABSOLUTE
    ..\W5500\w5500_conf.c                    0x00000000   Number         0  w5500_conf.o ABSOLUTE
    ..\\CMSIS\\core_cm3.c                    0x00000000   Number         0  core_cm3.o ABSOLUTE
    cdrcmple.s                               0x00000000   Number         0  cdrcmple.o ABSOLUTE
    dc.s                                     0x00000000   Number         0  dc.o ABSOLUTE
    handlers.s                               0x00000000   Number         0  handlers.o ABSOLUTE
    init.s                                   0x00000000   Number         0  init.o ABSOLUTE
    RESET                                    0x08000000   Section      304  startup_stm32f10x_hd.o(RESET)
    .ARM.Collect$$$$00000000                 0x08000130   Section        0  entry.o(.ARM.Collect$$$$00000000)
    .ARM.Collect$$$$00000001                 0x08000130   Section        4  entry2.o(.ARM.Collect$$$$00000001)
    .ARM.Collect$$$$00000004                 0x08000134   Section        4  entry5.o(.ARM.Collect$$$$00000004)
    .ARM.Collect$$$$00000008                 0x08000138   Section        0  entry7b.o(.ARM.Collect$$$$00000008)
    .ARM.Collect$$$$0000000A                 0x08000138   Section        0  entry8b.o(.ARM.Collect$$$$0000000A)
    .ARM.Collect$$$$0000000B                 0x08000138   Section        8  entry9a.o(.ARM.Collect$$$$0000000B)
    .ARM.Collect$$$$0000000D                 0x08000140   Section        0  entry10a.o(.ARM.Collect$$$$0000000D)
    .ARM.Collect$$$$0000000F                 0x08000140   Section        0  entry11a.o(.ARM.Collect$$$$0000000F)
    .ARM.Collect$$$$00002712                 0x08000140   Section        4  entry2.o(.ARM.Collect$$$$00002712)
    __lit__00000000                          0x08000140   Data           4  entry2.o(.ARM.Collect$$$$00002712)
    .text                                    0x08000144   Section        0  stm32f10x_it.o(.text)
    .text                                    0x08000184   Section        0  main.o(.text)
    .text                                    0x080003fc   Section        0  system.o(.text)
    .text                                    0x080004f4   Section        0  delay.o(.text)
    .text                                    0x080005c8   Section        0  usart.o(.text)
    .text                                    0x08000b6c   Section        0  gpio.o(.text)
    .text                                    0x08000bb8   Section        0  cstring.o(.text)
    .text                                    0x08000d74   Section        0  iwdg.o(.text)
    .text                                    0x08000da0   Section        0  timer.o(.text)
    .text                                    0x08000e3c   Section        0  buffermanage.o(.text)
    .text                                    0x08000f10   Section        0  looplist.o(.text)
    .text                                    0x08001108   Section        0  system_stm32f10x.o(.text)
    SetSysClockTo72                          0x08001109   Thumb Code   214  system_stm32f10x.o(.text)
    SetSysClock                              0x080011df   Thumb Code     8  system_stm32f10x.o(.text)
    .text                                    0x080012e8   Section        0  misc.o(.text)
    .text                                    0x080013c4   Section        0  stm32f10x_rcc.o(.text)
    .text                                    0x08001768   Section        0  stm32f10x_usart.o(.text)
    .text                                    0x08001b70   Section        0  stm32f10x_gpio.o(.text)
    .text                                    0x08001ecc   Section        0  stm32f10x_tim.o(.text)
    TI4_Config                               0x08002373   Thumb Code   130  stm32f10x_tim.o(.text)
    TI3_Config                               0x08002407   Thumb Code   122  stm32f10x_tim.o(.text)
    TI2_Config                               0x0800249b   Thumb Code   130  stm32f10x_tim.o(.text)
    TI1_Config                               0x0800252f   Thumb Code   108  stm32f10x_tim.o(.text)
    .text                                    0x08002ce8   Section        0  stm32f10x_iwdg.o(.text)
    .text                                    0x08002d28   Section        0  stm32f10x_spi.o(.text)
    .text                                    0x08003034   Section       36  startup_stm32f10x_hd.o(.text)
    .text                                    0x08003058   Section        0  socket.o(.text)
    .text                                    0x080036e4   Section        0  w5500.o(.text)
    .text                                    0x08003ac8   Section        0  w5500_conf.o(.text)
    .text                                    0x0800401e   Section        0  uldiv.o(.text)
    .text                                    0x08004080   Section        0  memcpya.o(.text)
    .text                                    0x080040a4   Section        0  memseta.o(.text)
    .text                                    0x080040c8   Section        0  strstr.o(.text)
    .text                                    0x080040ec   Section        0  strlen.o(.text)
    .text                                    0x080040fc   Section        0  strtok.o(.text)
    .text                                    0x08004140   Section        0  llshl.o(.text)
    .text                                    0x0800415e   Section        0  llushr.o(.text)
    .text                                    0x08004180   Section       36  init.o(.text)
    i.__0printf$8                            0x080041a4   Section        0  printf8.o(i.__0printf$8)
    i.__scatterload_copy                     0x080041c4   Section       14  handlers.o(i.__scatterload_copy)
    i.__scatterload_null                     0x080041d2   Section        2  handlers.o(i.__scatterload_null)
    i.__scatterload_zeroinit                 0x080041d4   Section       14  handlers.o(i.__scatterload_zeroinit)
    i._printf_core                           0x080041e4   Section        0  printf8.o(i._printf_core)
    _printf_core                             0x080041e5   Thumb Code   996  printf8.o(i._printf_core)
    i._printf_post_padding                   0x080045f4   Section        0  printf8.o(i._printf_post_padding)
    _printf_post_padding                     0x080045f5   Thumb Code    36  printf8.o(i._printf_post_padding)
    i._printf_pre_padding                    0x08004618   Section        0  printf8.o(i._printf_pre_padding)
    _printf_pre_padding                      0x08004619   Thumb Code    46  printf8.o(i._printf_pre_padding)
    i.free                                   0x08004648   Section        0  malloc.o(i.free)
    i.malloc                                 0x08004698   Section        0  malloc.o(i.malloc)
    .data                                    0x20000000   Section       10  main.o(.data)
    .data                                    0x2000000c   Section       40  system.o(.data)
    .data                                    0x20000034   Section        4  delay.o(.data)
    fac_us                                   0x20000034   Data           1  delay.o(.data)
    fac_ms                                   0x20000036   Data           2  delay.o(.data)
    .data                                    0x20000038   Section       41  usart.o(.data)
    flage                                    0x20000060   Data           1  usart.o(.data)
    .data                                    0x20000064   Section        9  cstring.o(.data)
    .data                                    0x20000070   Section       20  system_stm32f10x.o(.data)
    .data                                    0x20000084   Section       20  stm32f10x_rcc.o(.data)
    APBAHBPrescTable                         0x20000084   Data          16  stm32f10x_rcc.o(.data)
    ADCPrescTable                            0x20000094   Data           4  stm32f10x_rcc.o(.data)
    .data                                    0x20000098   Section       16  w5500.o(.data)
    .data                                    0x200000a8   Section       41  w5500_conf.o(.data)
    .data                                    0x200000d4   Section        4  strtok.o(.data)
    state                                    0x200000d4   Data           4  strtok.o(.data)
    .data                                    0x200000d8   Section        4  stdout.o(.data)
    .data                                    0x200000dc   Section        4  mvars.o(.data)
    .data                                    0x200000e0   Section        4  mvars.o(.data)
    .bss                                     0x200000e4   Section      232  main.o(.bss)
    .bss                                     0x200001cc   Section    11248  usart.o(.bss)
    .bss                                     0x20002dbc   Section       28  key.o(.bss)
    .bss                                     0x20002dd8   Section     1046  dhcp.o(.bss)
    .bss                                     0x200031ee   Section       32  w5500.o(.bss)
    .bss                                     0x2000320e   Section       46  w5500_conf.o(.bss)
    HEAP                                     0x20003240   Section      512  startup_stm32f10x_hd.o(HEAP)
    STACK                                    0x20003440   Section     1024  startup_stm32f10x_hd.o(STACK)

    Global Symbols

    Symbol Name                              Value     Ov Type        Size  Object(Section)

    BuildAttributes$$THM_ISAv4$P$D$K$B$S$PE$A:L22UL41UL21$X:L11$S22US41US21$IEEE1$IW$USESV6$~STKCKD$USESV7$~SHL$OSPACE$ROPI$EBA8$MICROLIB$REQ8$PRES8$EABIv2 0x00000000   Number         0  anon$$obj.o ABSOLUTE
    __ARM_use_no_argv                        0x00000000   Number         0  main.o ABSOLUTE
    _printf_a                                0x00000000   Number         0  stubs.o ABSOLUTE
    _printf_c                                0x00000000   Number         0  stubs.o ABSOLUTE
    _printf_charcount                        0x00000000   Number         0  stubs.o ABSOLUTE
    _printf_d                                0x00000000   Number         0  stubs.o ABSOLUTE
    _printf_e                                0x00000000   Number         0  stubs.o ABSOLUTE
    _printf_f                                0x00000000   Number         0  stubs.o ABSOLUTE
    _printf_flags                            0x00000000   Number         0  stubs.o ABSOLUTE
    _printf_fp_dec                           0x00000000   Number         0  stubs.o ABSOLUTE
    _printf_fp_hex                           0x00000000   Number         0  stubs.o ABSOLUTE
    _printf_g                                0x00000000   Number         0  stubs.o ABSOLUTE
    _printf_i                                0x00000000   Number         0  stubs.o ABSOLUTE
    _printf_int_dec                          0x00000000   Number         0  stubs.o ABSOLUTE
    _printf_l                                0x00000000   Number         0  stubs.o ABSOLUTE
    _printf_lc                               0x00000000   Number         0  stubs.o ABSOLUTE
    _printf_ll                               0x00000000   Number         0  stubs.o ABSOLUTE
    _printf_lld                              0x00000000   Number         0  stubs.o ABSOLUTE
    _printf_lli                              0x00000000   Number         0  stubs.o ABSOLUTE
    _printf_llo                              0x00000000   Number         0  stubs.o ABSOLUTE
    _printf_llu                              0x00000000   Number         0  stubs.o ABSOLUTE
    _printf_llx                              0x00000000   Number         0  stubs.o ABSOLUTE
    _printf_longlong_dec                     0x00000000   Number         0  stubs.o ABSOLUTE
    _printf_longlong_hex                     0x00000000   Number         0  stubs.o ABSOLUTE
    _printf_longlong_oct                     0x00000000   Number         0  stubs.o ABSOLUTE
    _printf_ls                               0x00000000   Number         0  stubs.o ABSOLUTE
    _printf_mbtowc                           0x00000000   Number         0  stubs.o ABSOLUTE
    _printf_n                                0x00000000   Number         0  stubs.o ABSOLUTE
    _printf_o                                0x00000000   Number         0  stubs.o ABSOLUTE
    _printf_p                                0x00000000   Number         0  stubs.o ABSOLUTE
    _printf_percent                          0x00000000   Number         0  stubs.o ABSOLUTE
    _printf_pre_padding                      0x00000000   Number         0  stubs.o ABSOLUTE
    _printf_return_value                     0x00000000   Number         0  stubs.o ABSOLUTE
    _printf_s                                0x00000000   Number         0  stubs.o ABSOLUTE
    _printf_sizespec                         0x00000000   Number         0  stubs.o ABSOLUTE
    _printf_str                              0x00000000   Number         0  stubs.o ABSOLUTE
    _printf_truncate_signed                  0x00000000   Number         0  stubs.o ABSOLUTE
    _printf_truncate_unsigned                0x00000000   Number         0  stubs.o ABSOLUTE
    _printf_u                                0x00000000   Number         0  stubs.o ABSOLUTE
    _printf_wc                               0x00000000   Number         0  stubs.o ABSOLUTE
    _printf_wctomb                           0x00000000   Number         0  stubs.o ABSOLUTE
    _printf_widthprec                        0x00000000   Number         0  stubs.o ABSOLUTE
    _printf_x                                0x00000000   Number         0  stubs.o ABSOLUTE
    __cpp_initialize__aeabi_                  - Undefined Weak Reference
    __cxa_finalize                            - Undefined Weak Reference
    __decompress                              - Undefined Weak Reference
    _clock_init                               - Undefined Weak Reference
    _microlib_exit                            - Undefined Weak Reference
    __Vectors_Size                           0x00000130   Number         0  startup_stm32f10x_hd.o ABSOLUTE
    __Vectors                                0x08000000   Data           4  startup_stm32f10x_hd.o(RESET)
    __Vectors_End                            0x08000130   Data           0  startup_stm32f10x_hd.o(RESET)
    __main                                   0x08000131   Thumb Code     0  entry.o(.ARM.Collect$$$$00000000)
    _main_stk                                0x08000131   Thumb Code     0  entry2.o(.ARM.Collect$$$$00000001)
    _main_scatterload                        0x08000135   Thumb Code     0  entry5.o(.ARM.Collect$$$$00000004)
    __main_after_scatterload                 0x08000139   Thumb Code     0  entry5.o(.ARM.Collect$$$$00000004)
    _main_clock                              0x08000139   Thumb Code     0  entry7b.o(.ARM.Collect$$$$00000008)
    _main_cpp_init                           0x08000139   Thumb Code     0  entry8b.o(.ARM.Collect$$$$0000000A)
    _main_init                               0x08000139   Thumb Code     0  entry9a.o(.ARM.Collect$$$$0000000B)
    __rt_final_cpp                           0x08000141   Thumb Code     0  entry10a.o(.ARM.Collect$$$$0000000D)
    __rt_final_exit                          0x08000141   Thumb Code     0  entry11a.o(.ARM.Collect$$$$0000000F)
    NMI_Handler                              0x08000145   Thumb Code     2  stm32f10x_it.o(.text)
    HardFault_Handler                        0x08000147   Thumb Code    36  stm32f10x_it.o(.text)
    MemManage_Handler                        0x0800016b   Thumb Code     4  stm32f10x_it.o(.text)
    BusFault_Handler                         0x0800016f   Thumb Code     4  stm32f10x_it.o(.text)
    UsageFault_Handler                       0x08000173   Thumb Code     4  stm32f10x_it.o(.text)
    SVC_Handler                              0x08000177   Thumb Code     2  stm32f10x_it.o(.text)
    DebugMon_Handler                         0x08000179   Thumb Code     2  stm32f10x_it.o(.text)
    PendSV_Handler                           0x0800017b   Thumb Code     2  stm32f10x_it.o(.text)
    main                                     0x08000185   Thumb Code   502  main.o(.text)
    NVIC_Configuration                       0x080003fd   Thumb Code   126  system.o(.text)
    Reset_MCU                                0x0800047b   Thumb Code    32  system.o(.text)
    GetSTM32MCUID                            0x0800049b   Thumb Code    50  system.o(.text)
    DelayInit                                0x080004f5   Thumb Code    50  delay.o(.text)
    delay_us                                 0x08000527   Thumb Code    72  delay.o(.text)
    delay_ms                                 0x0800056f   Thumb Code    72  delay.o(.text)
    uart_init                                0x080005c9   Thumb Code   414  usart.o(.text)
    UsartOutStrIT                            0x08000767   Thumb Code    94  usart.o(.text)
    UsartOutStr                              0x080007c5   Thumb Code    42  usart.o(.text)
    UsartOutChar                             0x080007ef   Thumb Code    28  usart.o(.text)
    USART1_IRQHandler                        0x0800080b   Thumb Code   214  usart.o(.text)
    USART2_IRQHandler                        0x080008e1   Thumb Code   336  usart.o(.text)
    USART3_IRQHandler                        0x08000a31   Thumb Code   222  usart.o(.text)
    fputc                                    0x08000b0f   Thumb Code    58  usart.o(.text)
    GpioInit                                 0x08000b6d   Thumb Code    66  gpio.o(.text)
    cStringFree                              0x08000bb9   Thumb Code    12  cstring.o(.text)
    StrBetwStringMalloc                      0x08000bc5   Thumb Code   108  cstring.o(.text)
    cStringRestore                           0x08000c31   Thumb Code    18  cstring.o(.text)
    StrBetwString                            0x08000c43   Thumb Code    86  cstring.o(.text)
    split                                    0x08000c99   Thumb Code    84  cstring.o(.text)
    HexToAscii                               0x08000ced   Thumb Code    96  cstring.o(.text)
    insert                                   0x08000d4d   Thumb Code    26  cstring.o(.text)
    IWDG_Init                                0x08000d75   Thumb Code    36  iwdg.o(.text)
    IWDG_Feed                                0x08000d99   Thumb Code     8  iwdg.o(.text)
    Timer2_Config                            0x08000da1   Thumb Code    80  timer.o(.text)
    TIM2_IRQHandler                          0x08000df1   Thumb Code    72  timer.o(.text)
    BufferManageCreate                       0x08000e3d   Thumb Code    64  buffermanage.o(.text)
    BufferManageWrite                        0x08000e7d   Thumb Code    84  buffermanage.o(.text)
    BufferManageRead                         0x08000ed1   Thumb Code    64  buffermanage.o(.text)
    rbCreate                                 0x08000f11   Thumb Code    20  looplist.o(.text)
    rbDelete                                 0x08000f25   Thumb Code    18  looplist.o(.text)
    rbCapacity                               0x08000f37   Thumb Code    14  looplist.o(.text)
    rbCanRead                                0x08000f45   Thumb Code    56  looplist.o(.text)
    rbCanWrite                               0x08000f7d   Thumb Code    30  looplist.o(.text)
    rbRead                                   0x08000f9b   Thumb Code   162  looplist.o(.text)
    rbWrite                                  0x0800103d   Thumb Code   158  looplist.o(.text)
    PutData                                  0x080010db   Thumb Code    46  looplist.o(.text)
    SystemInit                               0x080011e7   Thumb Code    78  system_stm32f10x.o(.text)
    SystemCoreClockUpdate                    0x08001235   Thumb Code   142  system_stm32f10x.o(.text)
    NVIC_PriorityGroupConfig                 0x080012e9   Thumb Code    10  misc.o(.text)
    NVIC_Init                                0x080012f3   Thumb Code   100  misc.o(.text)
    NVIC_SetVectorTable                      0x08001357   Thumb Code    14  misc.o(.text)
    NVIC_SystemLPConfig                      0x08001365   Thumb Code    34  misc.o(.text)
    SysTick_CLKSourceConfig                  0x08001387   Thumb Code    40  misc.o(.text)
    RCC_DeInit                               0x080013c5   Thumb Code    64  stm32f10x_rcc.o(.text)
    RCC_HSEConfig                            0x08001405   Thumb Code    70  stm32f10x_rcc.o(.text)
    RCC_GetFlagStatus                        0x0800144b   Thumb Code    56  stm32f10x_rcc.o(.text)
    RCC_WaitForHSEStartUp                    0x08001483   Thumb Code    56  stm32f10x_rcc.o(.text)
    RCC_AdjustHSICalibrationValue            0x080014bb   Thumb Code    20  stm32f10x_rcc.o(.text)
    RCC_HSICmd                               0x080014cf   Thumb Code     6  stm32f10x_rcc.o(.text)
    RCC_PLLConfig                            0x080014d5   Thumb Code    24  stm32f10x_rcc.o(.text)
    RCC_PLLCmd                               0x080014ed   Thumb Code     6  stm32f10x_rcc.o(.text)
    RCC_SYSCLKConfig                         0x080014f3   Thumb Code    18  stm32f10x_rcc.o(.text)
    RCC_GetSYSCLKSource                      0x08001505   Thumb Code    10  stm32f10x_rcc.o(.text)
    RCC_HCLKConfig                           0x0800150f   Thumb Code    18  stm32f10x_rcc.o(.text)
    RCC_PCLK1Config                          0x08001521   Thumb Code    18  stm32f10x_rcc.o(.text)
    RCC_PCLK2Config                          0x08001533   Thumb Code    20  stm32f10x_rcc.o(.text)
    RCC_ITConfig                             0x08001547   Thumb Code    26  stm32f10x_rcc.o(.text)
    RCC_USBCLKConfig                         0x08001561   Thumb Code     8  stm32f10x_rcc.o(.text)
    RCC_ADCCLKConfig                         0x08001569   Thumb Code    18  stm32f10x_rcc.o(.text)
    RCC_LSEConfig                            0x0800157b   Thumb Code    50  stm32f10x_rcc.o(.text)
    RCC_LSICmd                               0x080015ad   Thumb Code     6  stm32f10x_rcc.o(.text)
    RCC_RTCCLKConfig                         0x080015b3   Thumb Code    12  stm32f10x_rcc.o(.text)
    RCC_RTCCLKCmd                            0x080015bf   Thumb Code     8  stm32f10x_rcc.o(.text)
    RCC_GetClocksFreq                        0x080015c7   Thumb Code   192  stm32f10x_rcc.o(.text)
    RCC_AHBPeriphClockCmd                    0x08001687   Thumb Code    26  stm32f10x_rcc.o(.text)
    RCC_APB2PeriphClockCmd                   0x080016a1   Thumb Code    26  stm32f10x_rcc.o(.text)
    RCC_APB1PeriphClockCmd                   0x080016bb   Thumb Code    26  stm32f10x_rcc.o(.text)
    RCC_APB2PeriphResetCmd                   0x080016d5   Thumb Code    26  stm32f10x_rcc.o(.text)
    RCC_APB1PeriphResetCmd                   0x080016ef   Thumb Code    26  stm32f10x_rcc.o(.text)
    RCC_BackupResetCmd                       0x08001709   Thumb Code     8  stm32f10x_rcc.o(.text)
    RCC_ClockSecuritySystemCmd               0x08001711   Thumb Code     6  stm32f10x_rcc.o(.text)
    RCC_MCOConfig                            0x08001717   Thumb Code     6  stm32f10x_rcc.o(.text)
    RCC_ClearFlag                            0x0800171d   Thumb Code    14  stm32f10x_rcc.o(.text)
    RCC_GetITStatus                          0x0800172b   Thumb Code    20  stm32f10x_rcc.o(.text)
    RCC_ClearITPendingBit                    0x0800173f   Thumb Code     6  stm32f10x_rcc.o(.text)
    USART_DeInit                             0x08001769   Thumb Code   134  stm32f10x_usart.o(.text)
    USART_Init                               0x080017ef   Thumb Code   210  stm32f10x_usart.o(.text)
    USART_StructInit                         0x080018c1   Thumb Code    24  stm32f10x_usart.o(.text)
    USART_ClockInit                          0x080018d9   Thumb Code    34  stm32f10x_usart.o(.text)
    USART_ClockStructInit                    0x080018fb   Thumb Code    12  stm32f10x_usart.o(.text)
    USART_Cmd                                0x08001907   Thumb Code    24  stm32f10x_usart.o(.text)
    USART_ITConfig                           0x0800191f   Thumb Code    74  stm32f10x_usart.o(.text)
    USART_DMACmd                             0x08001969   Thumb Code    18  stm32f10x_usart.o(.text)
    USART_SetAddress                         0x0800197b   Thumb Code    18  stm32f10x_usart.o(.text)
    USART_WakeUpConfig                       0x0800198d   Thumb Code    18  stm32f10x_usart.o(.text)
    USART_ReceiverWakeUpCmd                  0x0800199f   Thumb Code    24  stm32f10x_usart.o(.text)
    USART_LINBreakDetectLengthConfig         0x080019b7   Thumb Code    18  stm32f10x_usart.o(.text)
    USART_LINCmd                             0x080019c9   Thumb Code    24  stm32f10x_usart.o(.text)
    USART_SendData                           0x080019e1   Thumb Code     8  stm32f10x_usart.o(.text)
    USART_ReceiveData                        0x080019e9   Thumb Code    10  stm32f10x_usart.o(.text)
    USART_SendBreak                          0x080019f3   Thumb Code    10  stm32f10x_usart.o(.text)
    USART_SetGuardTime                       0x080019fd   Thumb Code    16  stm32f10x_usart.o(.text)
    USART_SetPrescaler                       0x08001a0d   Thumb Code    16  stm32f10x_usart.o(.text)
    USART_SmartCardCmd                       0x08001a1d   Thumb Code    24  stm32f10x_usart.o(.text)
    USART_SmartCardNACKCmd                   0x08001a35   Thumb Code    24  stm32f10x_usart.o(.text)
    USART_HalfDuplexCmd                      0x08001a4d   Thumb Code    24  stm32f10x_usart.o(.text)
    USART_OverSampling8Cmd                   0x08001a65   Thumb Code    22  stm32f10x_usart.o(.text)
    USART_OneBitMethodCmd                    0x08001a7b   Thumb Code    24  stm32f10x_usart.o(.text)
    USART_IrDAConfig                         0x08001a93   Thumb Code    18  stm32f10x_usart.o(.text)
    USART_IrDACmd                            0x08001aa5   Thumb Code    24  stm32f10x_usart.o(.text)
    USART_GetFlagStatus                      0x08001abd   Thumb Code    26  stm32f10x_usart.o(.text)
    USART_ClearFlag                          0x08001ad7   Thumb Code    18  stm32f10x_usart.o(.text)
    USART_GetITStatus                        0x08001ae9   Thumb Code    84  stm32f10x_usart.o(.text)
    USART_ClearITPendingBit                  0x08001b3d   Thumb Code    52  stm32f10x_usart.o(.text)
    GPIO_DeInit                              0x08001b71   Thumb Code   172  stm32f10x_gpio.o(.text)
    GPIO_AFIODeInit                          0x08001c1d   Thumb Code    20  stm32f10x_gpio.o(.text)
    GPIO_Init                                0x08001c31   Thumb Code   278  stm32f10x_gpio.o(.text)
    GPIO_StructInit                          0x08001d47   Thumb Code    16  stm32f10x_gpio.o(.text)
    GPIO_ReadInputDataBit                    0x08001d57   Thumb Code    18  stm32f10x_gpio.o(.text)
    GPIO_ReadInputData                       0x08001d69   Thumb Code     8  stm32f10x_gpio.o(.text)
    GPIO_ReadOutputDataBit                   0x08001d71   Thumb Code    18  stm32f10x_gpio.o(.text)
    GPIO_ReadOutputData                      0x08001d83   Thumb Code     8  stm32f10x_gpio.o(.text)
    GPIO_SetBits                             0x08001d8b   Thumb Code     4  stm32f10x_gpio.o(.text)
    GPIO_ResetBits                           0x08001d8f   Thumb Code     4  stm32f10x_gpio.o(.text)
    GPIO_WriteBit                            0x08001d93   Thumb Code    10  stm32f10x_gpio.o(.text)
    GPIO_Write                               0x08001d9d   Thumb Code     4  stm32f10x_gpio.o(.text)
    GPIO_PinLockConfig                       0x08001da1   Thumb Code    18  stm32f10x_gpio.o(.text)
    GPIO_EventOutputConfig                   0x08001db3   Thumb Code    26  stm32f10x_gpio.o(.text)
    GPIO_EventOutputCmd                      0x08001dcd   Thumb Code     6  stm32f10x_gpio.o(.text)
    GPIO_PinRemapConfig                      0x08001dd3   Thumb Code   138  stm32f10x_gpio.o(.text)
    GPIO_EXTILineConfig                      0x08001e5d   Thumb Code    66  stm32f10x_gpio.o(.text)
    GPIO_ETH_MediaInterfaceConfig            0x08001e9f   Thumb Code     8  stm32f10x_gpio.o(.text)
    TIM_DeInit                               0x08001ecd   Thumb Code   424  stm32f10x_tim.o(.text)
    TIM_TimeBaseInit                         0x08002075   Thumb Code   122  stm32f10x_tim.o(.text)
    TIM_OC1Init                              0x080020ef   Thumb Code   132  stm32f10x_tim.o(.text)
    TIM_OC2Init                              0x08002173   Thumb Code   154  stm32f10x_tim.o(.text)
    TIM_OC3Init                              0x0800220d   Thumb Code   150  stm32f10x_tim.o(.text)
    TIM_OC4Init                              0x080022a3   Thumb Code   182  stm32f10x_tim.o(.text)
    TIM_SetIC4Prescaler                      0x08002359   Thumb Code    26  stm32f10x_tim.o(.text)
    TIM_SetIC3Prescaler                      0x080023f5   Thumb Code    18  stm32f10x_tim.o(.text)
    TIM_SetIC2Prescaler                      0x08002481   Thumb Code    26  stm32f10x_tim.o(.text)
    TIM_SetIC1Prescaler                      0x0800251d   Thumb Code    18  stm32f10x_tim.o(.text)
    TIM_ICInit                               0x0800259b   Thumb Code   150  stm32f10x_tim.o(.text)
    TIM_PWMIConfig                           0x08002631   Thumb Code   124  stm32f10x_tim.o(.text)
    TIM_BDTRConfig                           0x080026ad   Thumb Code    32  stm32f10x_tim.o(.text)
    TIM_TimeBaseStructInit                   0x080026cd   Thumb Code    18  stm32f10x_tim.o(.text)
    TIM_OCStructInit                         0x080026df   Thumb Code    20  stm32f10x_tim.o(.text)
    TIM_ICStructInit                         0x080026f3   Thumb Code    18  stm32f10x_tim.o(.text)
    TIM_BDTRStructInit                       0x08002705   Thumb Code    40  stm32f10x_tim.o(.text)
    TIM_Cmd                                  0x0800272d   Thumb Code    24  stm32f10x_tim.o(.text)
    TIM_CtrlPWMOutputs                       0x08002745   Thumb Code    30  stm32f10x_tim.o(.text)
    TIM_ITConfig                             0x08002763   Thumb Code    18  stm32f10x_tim.o(.text)
    TIM_GenerateEvent                        0x08002775   Thumb Code     4  stm32f10x_tim.o(.text)
    TIM_DMAConfig                            0x08002779   Thumb Code    10  stm32f10x_tim.o(.text)
    TIM_DMACmd                               0x08002783   Thumb Code    18  stm32f10x_tim.o(.text)
    TIM_InternalClockConfig                  0x08002795   Thumb Code    12  stm32f10x_tim.o(.text)
    TIM_SelectInputTrigger                   0x080027a1   Thumb Code    18  stm32f10x_tim.o(.text)
    TIM_ITRxExternalClockConfig              0x080027b3   Thumb Code    24  stm32f10x_tim.o(.text)
    TIM_TIxExternalClockConfig               0x080027cb   Thumb Code    62  stm32f10x_tim.o(.text)
    TIM_ETRConfig                            0x08002809   Thumb Code    28  stm32f10x_tim.o(.text)
    TIM_ETRClockMode1Config                  0x08002825   Thumb Code    54  stm32f10x_tim.o(.text)
    TIM_ETRClockMode2Config                  0x0800285b   Thumb Code    32  stm32f10x_tim.o(.text)
    TIM_PrescalerConfig                      0x0800287b   Thumb Code     6  stm32f10x_tim.o(.text)
    TIM_CounterModeConfig                    0x08002881   Thumb Code    18  stm32f10x_tim.o(.text)
    TIM_EncoderInterfaceConfig               0x08002893   Thumb Code    66  stm32f10x_tim.o(.text)
    TIM_ForcedOC1Config                      0x080028d5   Thumb Code    18  stm32f10x_tim.o(.text)
    TIM_ForcedOC2Config                      0x080028e7   Thumb Code    26  stm32f10x_tim.o(.text)
    TIM_ForcedOC3Config                      0x08002901   Thumb Code    18  stm32f10x_tim.o(.text)
    TIM_ForcedOC4Config                      0x08002913   Thumb Code    26  stm32f10x_tim.o(.text)
    TIM_ARRPreloadConfig                     0x0800292d   Thumb Code    24  stm32f10x_tim.o(.text)
    TIM_SelectCOM                            0x08002945   Thumb Code    24  stm32f10x_tim.o(.text)
    TIM_SelectCCDMA                          0x0800295d   Thumb Code    24  stm32f10x_tim.o(.text)
    TIM_CCPreloadControl                     0x08002975   Thumb Code    24  stm32f10x_tim.o(.text)
    TIM_OC1PreloadConfig                     0x0800298d   Thumb Code    18  stm32f10x_tim.o(.text)
    TIM_OC2PreloadConfig                     0x0800299f   Thumb Code    26  stm32f10x_tim.o(.text)
    TIM_OC3PreloadConfig                     0x080029b9   Thumb Code    18  stm32f10x_tim.o(.text)
    TIM_OC4PreloadConfig                     0x080029cb   Thumb Code    26  stm32f10x_tim.o(.text)
    TIM_OC1FastConfig                        0x080029e5   Thumb Code    18  stm32f10x_tim.o(.text)
    TIM_OC2FastConfig                        0x080029f7   Thumb Code    26  stm32f10x_tim.o(.text)
    TIM_OC3FastConfig                        0x08002a11   Thumb Code    18  stm32f10x_tim.o(.text)
    TIM_OC4FastConfig                        0x08002a23   Thumb Code    26  stm32f10x_tim.o(.text)
    TIM_ClearOC1Ref                          0x08002a3d   Thumb Code    18  stm32f10x_tim.o(.text)
    TIM_ClearOC2Ref                          0x08002a4f   Thumb Code    24  stm32f10x_tim.o(.text)
    TIM_ClearOC3Ref                          0x08002a67   Thumb Code    18  stm32f10x_tim.o(.text)
    TIM_ClearOC4Ref                          0x08002a79   Thumb Code    24  stm32f10x_tim.o(.text)
    TIM_OC1PolarityConfig                    0x08002a91   Thumb Code    18  stm32f10x_tim.o(.text)
    TIM_OC1NPolarityConfig                   0x08002aa3   Thumb Code    18  stm32f10x_tim.o(.text)
    TIM_OC2PolarityConfig                    0x08002ab5   Thumb Code    26  stm32f10x_tim.o(.text)
    TIM_OC2NPolarityConfig                   0x08002acf   Thumb Code    26  stm32f10x_tim.o(.text)
    TIM_OC3PolarityConfig                    0x08002ae9   Thumb Code    26  stm32f10x_tim.o(.text)
    TIM_OC3NPolarityConfig                   0x08002b03   Thumb Code    26  stm32f10x_tim.o(.text)
    TIM_OC4PolarityConfig                    0x08002b1d   Thumb Code    26  stm32f10x_tim.o(.text)
    TIM_CCxCmd                               0x08002b37   Thumb Code    30  stm32f10x_tim.o(.text)
    TIM_CCxNCmd                              0x08002b55   Thumb Code    30  stm32f10x_tim.o(.text)
    TIM_SelectOCxM                           0x08002b73   Thumb Code    82  stm32f10x_tim.o(.text)
    TIM_UpdateDisableConfig                  0x08002bc5   Thumb Code    24  stm32f10x_tim.o(.text)
    TIM_UpdateRequestConfig                  0x08002bdd   Thumb Code    24  stm32f10x_tim.o(.text)
    TIM_SelectHallSensor                     0x08002bf5   Thumb Code    24  stm32f10x_tim.o(.text)
    TIM_SelectOnePulseMode                   0x08002c0d   Thumb Code    18  stm32f10x_tim.o(.text)
    TIM_SelectOutputTrigger                  0x08002c1f   Thumb Code    18  stm32f10x_tim.o(.text)
    TIM_SelectSlaveMode                      0x08002c31   Thumb Code    18  stm32f10x_tim.o(.text)
    TIM_SelectMasterSlaveMode                0x08002c43   Thumb Code    18  stm32f10x_tim.o(.text)
    TIM_SetCounter                           0x08002c55   Thumb Code     4  stm32f10x_tim.o(.text)
    TIM_SetAutoreload                        0x08002c59   Thumb Code     4  stm32f10x_tim.o(.text)
    TIM_SetCompare1                          0x08002c5d   Thumb Code     4  stm32f10x_tim.o(.text)
    TIM_SetCompare2                          0x08002c61   Thumb Code     4  stm32f10x_tim.o(.text)
    TIM_SetCompare3                          0x08002c65   Thumb Code     4  stm32f10x_tim.o(.text)
    TIM_SetCompare4                          0x08002c69   Thumb Code     6  stm32f10x_tim.o(.text)
    TIM_SetClockDivision                     0x08002c6f   Thumb Code    18  stm32f10x_tim.o(.text)
    TIM_GetCapture1                          0x08002c81   Thumb Code     6  stm32f10x_tim.o(.text)
    TIM_GetCapture2                          0x08002c87   Thumb Code     6  stm32f10x_tim.o(.text)
    TIM_GetCapture3                          0x08002c8d   Thumb Code     6  stm32f10x_tim.o(.text)
    TIM_GetCapture4                          0x08002c93   Thumb Code     8  stm32f10x_tim.o(.text)
    TIM_GetCounter                           0x08002c9b   Thumb Code     6  stm32f10x_tim.o(.text)
    TIM_GetPrescaler                         0x08002ca1   Thumb Code     6  stm32f10x_tim.o(.text)
    TIM_GetFlagStatus                        0x08002ca7   Thumb Code    18  stm32f10x_tim.o(.text)
    TIM_ClearFlag                            0x08002cb9   Thumb Code     6  stm32f10x_tim.o(.text)
    TIM_GetITStatus                          0x08002cbf   Thumb Code    34  stm32f10x_tim.o(.text)
    TIM_ClearITPendingBit                    0x08002ce1   Thumb Code     6  stm32f10x_tim.o(.text)
    IWDG_WriteAccessCmd                      0x08002ce9   Thumb Code     6  stm32f10x_iwdg.o(.text)
    IWDG_SetPrescaler                        0x08002cef   Thumb Code     6  stm32f10x_iwdg.o(.text)
    IWDG_SetReload                           0x08002cf5   Thumb Code     6  stm32f10x_iwdg.o(.text)
    IWDG_ReloadCounter                       0x08002cfb   Thumb Code    10  stm32f10x_iwdg.o(.text)
    IWDG_Enable                              0x08002d05   Thumb Code    10  stm32f10x_iwdg.o(.text)
    IWDG_GetFlagStatus                       0x08002d0f   Thumb Code    20  stm32f10x_iwdg.o(.text)
    SPI_I2S_DeInit                           0x08002d29   Thumb Code    76  stm32f10x_spi.o(.text)
    SPI_Init                                 0x08002d75   Thumb Code    60  stm32f10x_spi.o(.text)
    I2S_Init                                 0x08002db1   Thumb Code   226  stm32f10x_spi.o(.text)
    SPI_StructInit                           0x08002e93   Thumb Code    24  stm32f10x_spi.o(.text)
    I2S_StructInit                           0x08002eab   Thumb Code    20  stm32f10x_spi.o(.text)
    SPI_Cmd                                  0x08002ebf   Thumb Code    24  stm32f10x_spi.o(.text)
    I2S_Cmd                                  0x08002ed7   Thumb Code    24  stm32f10x_spi.o(.text)
    SPI_I2S_ITConfig                         0x08002eef   Thumb Code    32  stm32f10x_spi.o(.text)
    SPI_I2S_DMACmd                           0x08002f0f   Thumb Code    18  stm32f10x_spi.o(.text)
    SPI_I2S_SendData                         0x08002f21   Thumb Code     4  stm32f10x_spi.o(.text)
    SPI_I2S_ReceiveData                      0x08002f25   Thumb Code     6  stm32f10x_spi.o(.text)
    SPI_NSSInternalSoftwareConfig            0x08002f2b   Thumb Code    30  stm32f10x_spi.o(.text)
    SPI_SSOutputCmd                          0x08002f49   Thumb Code    24  stm32f10x_spi.o(.text)
    SPI_DataSizeConfig                       0x08002f61   Thumb Code    18  stm32f10x_spi.o(.text)
    SPI_TransmitCRC                          0x08002f73   Thumb Code    10  stm32f10x_spi.o(.text)
    SPI_CalculateCRC                         0x08002f7d   Thumb Code    24  stm32f10x_spi.o(.text)
    SPI_GetCRC                               0x08002f95   Thumb Code    16  stm32f10x_spi.o(.text)
    SPI_GetCRCPolynomial                     0x08002fa5   Thumb Code     6  stm32f10x_spi.o(.text)
    SPI_BiDirectionalLineConfig              0x08002fab   Thumb Code    28  stm32f10x_spi.o(.text)
    SPI_I2S_GetFlagStatus                    0x08002fc7   Thumb Code    18  stm32f10x_spi.o(.text)
    SPI_I2S_ClearFlag                        0x08002fd9   Thumb Code     6  stm32f10x_spi.o(.text)
    SPI_I2S_GetITStatus                      0x08002fdf   Thumb Code    52  stm32f10x_spi.o(.text)
    SPI_I2S_ClearITPendingBit                0x08003013   Thumb Code    20  stm32f10x_spi.o(.text)
    Reset_Handler                            0x08003035   Thumb Code     8  startup_stm32f10x_hd.o(.text)
    SysTick_Handler                          0x0800304d   Thumb Code     2  startup_stm32f10x_hd.o(.text)
    ADC1_2_IRQHandler                        0x0800304f   Thumb Code     0  startup_stm32f10x_hd.o(.text)
    ADC3_IRQHandler                          0x0800304f   Thumb Code     0  startup_stm32f10x_hd.o(.text)
    CAN1_RX1_IRQHandler                      0x0800304f   Thumb Code     0  startup_stm32f10x_hd.o(.text)
    CAN1_SCE_IRQHandler                      0x0800304f   Thumb Code     0  startup_stm32f10x_hd.o(.text)
    DMA1_Channel1_IRQHandler                 0x0800304f   Thumb Code     0  startup_stm32f10x_hd.o(.text)
    DMA1_Channel2_IRQHandler                 0x0800304f   Thumb Code     0  startup_stm32f10x_hd.o(.text)
    DMA1_Channel3_IRQHandler                 0x0800304f   Thumb Code     0  startup_stm32f10x_hd.o(.text)
    DMA1_Channel4_IRQHandler                 0x0800304f   Thumb Code     0  startup_stm32f10x_hd.o(.text)
    DMA1_Channel5_IRQHandler                 0x0800304f   Thumb Code     0  startup_stm32f10x_hd.o(.text)
    DMA1_Channel6_IRQHandler                 0x0800304f   Thumb Code     0  startup_stm32f10x_hd.o(.text)
    DMA1_Channel7_IRQHandler                 0x0800304f   Thumb Code     0  startup_stm32f10x_hd.o(.text)
    DMA2_Channel1_IRQHandler                 0x0800304f   Thumb Code     0  startup_stm32f10x_hd.o(.text)
    DMA2_Channel2_IRQHandler                 0x0800304f   Thumb Code     0  startup_stm32f10x_hd.o(.text)
    DMA2_Channel3_IRQHandler                 0x0800304f   Thumb Code     0  startup_stm32f10x_hd.o(.text)
    DMA2_Channel4_5_IRQHandler               0x0800304f   Thumb Code     0  startup_stm32f10x_hd.o(.text)
    EXTI0_IRQHandler                         0x0800304f   Thumb Code     0  startup_stm32f10x_hd.o(.text)
    EXTI15_10_IRQHandler                     0x0800304f   Thumb Code     0  startup_stm32f10x_hd.o(.text)
    EXTI1_IRQHandler                         0x0800304f   Thumb Code     0  startup_stm32f10x_hd.o(.text)
    EXTI2_IRQHandler                         0x0800304f   Thumb Code     0  startup_stm32f10x_hd.o(.text)
    EXTI3_IRQHandler                         0x0800304f   Thumb Code     0  startup_stm32f10x_hd.o(.text)
    EXTI4_IRQHandler                         0x0800304f   Thumb Code     0  startup_stm32f10x_hd.o(.text)
    EXTI9_5_IRQHandler                       0x0800304f   Thumb Code     0  startup_stm32f10x_hd.o(.text)
    FLASH_IRQHandler                         0x0800304f   Thumb Code     0  startup_stm32f10x_hd.o(.text)
    FSMC_IRQHandler                          0x0800304f   Thumb Code     0  startup_stm32f10x_hd.o(.text)
    I2C1_ER_IRQHandler                       0x0800304f   Thumb Code     0  startup_stm32f10x_hd.o(.text)
    I2C1_EV_IRQHandler                       0x0800304f   Thumb Code     0  startup_stm32f10x_hd.o(.text)
    I2C2_ER_IRQHandler                       0x0800304f   Thumb Code     0  startup_stm32f10x_hd.o(.text)
    I2C2_EV_IRQHandler                       0x0800304f   Thumb Code     0  startup_stm32f10x_hd.o(.text)
    PVD_IRQHandler                           0x0800304f   Thumb Code     0  startup_stm32f10x_hd.o(.text)
    RCC_IRQHandler                           0x0800304f   Thumb Code     0  startup_stm32f10x_hd.o(.text)
    RTCAlarm_IRQHandler                      0x0800304f   Thumb Code     0  startup_stm32f10x_hd.o(.text)
    RTC_IRQHandler                           0x0800304f   Thumb Code     0  startup_stm32f10x_hd.o(.text)
    SDIO_IRQHandler                          0x0800304f   Thumb Code     0  startup_stm32f10x_hd.o(.text)
    SPI1_IRQHandler                          0x0800304f   Thumb Code     0  startup_stm32f10x_hd.o(.text)
    SPI2_IRQHandler                          0x0800304f   Thumb Code     0  startup_stm32f10x_hd.o(.text)
    SPI3_IRQHandler                          0x0800304f   Thumb Code     0  startup_stm32f10x_hd.o(.text)
    TAMPER_IRQHandler                        0x0800304f   Thumb Code     0  startup_stm32f10x_hd.o(.text)
    TIM1_BRK_IRQHandler                      0x0800304f   Thumb Code     0  startup_stm32f10x_hd.o(.text)
    TIM1_CC_IRQHandler                       0x0800304f   Thumb Code     0  startup_stm32f10x_hd.o(.text)
    TIM1_TRG_COM_IRQHandler                  0x0800304f   Thumb Code     0  startup_stm32f10x_hd.o(.text)
    TIM1_UP_IRQHandler                       0x0800304f   Thumb Code     0  startup_stm32f10x_hd.o(.text)
    TIM3_IRQHandler                          0x0800304f   Thumb Code     0  startup_stm32f10x_hd.o(.text)
    TIM4_IRQHandler                          0x0800304f   Thumb Code     0  startup_stm32f10x_hd.o(.text)
    TIM5_IRQHandler                          0x0800304f   Thumb Code     0  startup_stm32f10x_hd.o(.text)
    TIM6_IRQHandler                          0x0800304f   Thumb Code     0  startup_stm32f10x_hd.o(.text)
    TIM7_IRQHandler                          0x0800304f   Thumb Code     0  startup_stm32f10x_hd.o(.text)
    TIM8_BRK_IRQHandler                      0x0800304f   Thumb Code     0  startup_stm32f10x_hd.o(.text)
    TIM8_CC_IRQHandler                       0x0800304f   Thumb Code     0  startup_stm32f10x_hd.o(.text)
    TIM8_TRG_COM_IRQHandler                  0x0800304f   Thumb Code     0  startup_stm32f10x_hd.o(.text)
    TIM8_UP_IRQHandler                       0x0800304f   Thumb Code     0  startup_stm32f10x_hd.o(.text)
    UART4_IRQHandler                         0x0800304f   Thumb Code     0  startup_stm32f10x_hd.o(.text)
    UART5_IRQHandler                         0x0800304f   Thumb Code     0  startup_stm32f10x_hd.o(.text)
    USBWakeUp_IRQHandler                     0x0800304f   Thumb Code     0  startup_stm32f10x_hd.o(.text)
    USB_HP_CAN1_TX_IRQHandler                0x0800304f   Thumb Code     0  startup_stm32f10x_hd.o(.text)
    USB_LP_CAN1_RX0_IRQHandler               0x0800304f   Thumb Code     0  startup_stm32f10x_hd.o(.text)
    WWDG_IRQHandler                          0x0800304f   Thumb Code     0  startup_stm32f10x_hd.o(.text)
    close                                    0x08003059   Thumb Code    52  socket.o(.text)
    socket                                   0x0800308d   Thumb Code   192  socket.o(.text)
    listen                                   0x0800314d   Thumb Code    62  socket.o(.text)
    connect                                  0x0800318b   Thumb Code   248  socket.o(.text)
    disconnect                               0x08003283   Thumb Code    38  socket.o(.text)
    send                                     0x080032a9   Thumb Code   216  socket.o(.text)
    recv                                     0x08003381   Thumb Code    66  socket.o(.text)
    sendto                                   0x080033c3   Thumb Code   268  socket.o(.text)
    recvfrom                                 0x080034cf   Thumb Code   510  socket.o(.text)
    getNetworkCableState                     0x080036e5   Thumb Code    16  w5500.o(.text)
    setMR                                    0x080036f5   Thumb Code    14  w5500.o(.text)
    iinchip_init                             0x08003703   Thumb Code    10  w5500.o(.text)
    getIINCHIP_RxMAX                         0x0800370d   Thumb Code    10  w5500.o(.text)
    getIINCHIP_TxMAX                         0x08003717   Thumb Code    10  w5500.o(.text)
    setGAR                                   0x08003721   Thumb Code    16  w5500.o(.text)
    getGAR                                   0x08003731   Thumb Code    16  w5500.o(.text)
    setSUBR                                  0x08003741   Thumb Code    18  w5500.o(.text)
    setSHAR                                  0x08003753   Thumb Code    18  w5500.o(.text)
    setSIPR                                  0x08003765   Thumb Code    18  w5500.o(.text)
    getSUBR                                  0x08003777   Thumb Code    18  w5500.o(.text)
    getSHAR                                  0x08003789   Thumb Code    18  w5500.o(.text)
    getSIPR                                  0x0800379b   Thumb Code    18  w5500.o(.text)
    getIR                                    0x080037ad   Thumb Code    12  w5500.o(.text)
    setRTR                                   0x080037b9   Thumb Code    26  w5500.o(.text)
    setRCR                                   0x080037d3   Thumb Code    16  w5500.o(.text)
    clearIR                                  0x080037e3   Thumb Code    26  w5500.o(.text)
    setSn_MSS                                0x080037fd   Thumb Code    36  w5500.o(.text)
    setSn_TTL                                0x08003821   Thumb Code    22  w5500.o(.text)
    getSn_IR                                 0x08003837   Thumb Code    18  w5500.o(.text)
    setSn_IR                                 0x08003849   Thumb Code    22  w5500.o(.text)
    getSn_SR                                 0x0800385f   Thumb Code    18  w5500.o(.text)
    getSn_TX_FSR                             0x08003871   Thumb Code    84  w5500.o(.text)
    getSn_RX_RSR                             0x080038c5   Thumb Code    84  w5500.o(.text)
    send_data_processing                     0x08003919   Thumb Code   116  w5500.o(.text)
    recv_data_processing                     0x0800398d   Thumb Code   116  w5500.o(.text)
    socket_buf_init                          0x08003a01   Thumb Code   128  w5500.o(.text)
    write_config_to_eeprom                   0x08003ac9   Thumb Code    12  w5500_conf.o(.text)
    read_config_from_eeprom                  0x08003ad5   Thumb Code    10  w5500_conf.o(.text)
    set_w5500_ip                             0x08003adf   Thumb Code   334  w5500_conf.o(.text)
    set_w5500_mac                            0x08003c2d   Thumb Code    32  w5500_conf.o(.text)
    gpio_for_w5500_config                    0x08003c4d   Thumb Code   240  w5500_conf.o(.text)
    wiz_cs                                   0x08003d3d   Thumb Code    30  w5500_conf.o(.text)
    iinchip_csoff                            0x08003d5b   Thumb Code    10  w5500_conf.o(.text)
    iinchip_cson                             0x08003d65   Thumb Code    10  w5500_conf.o(.text)
    reset_w5500                              0x08003d6f   Thumb Code    38  w5500_conf.o(.text)
    SPI_SendByte                             0x08003d95   Thumb Code    50  w5500_conf.o(.text)
    IINCHIP_SpiSendData                      0x08003dc7   Thumb Code    12  w5500_conf.o(.text)
    IINCHIP_WRITE                            0x08003dd3   Thumb Code    50  w5500_conf.o(.text)
    IINCHIP_READ                             0x08003e05   Thumb Code    50  w5500_conf.o(.text)
    wiz_write_buf                            0x08003e37   Thumb Code    80  w5500_conf.o(.text)
    wiz_read_buf                             0x08003e87   Thumb Code   408  w5500_conf.o(.text)
    __aeabi_uldivmod                         0x0800401f   Thumb Code    98  uldiv.o(.text)
    __aeabi_memcpy                           0x08004081   Thumb Code    36  memcpya.o(.text)
    __aeabi_memcpy4                          0x08004081   Thumb Code     0  memcpya.o(.text)
    __aeabi_memcpy8                          0x08004081   Thumb Code     0  memcpya.o(.text)
    __aeabi_memset                           0x080040a5   Thumb Code    14  memseta.o(.text)
    __aeabi_memset4                          0x080040a5   Thumb Code     0  memseta.o(.text)
    __aeabi_memset8                          0x080040a5   Thumb Code     0  memseta.o(.text)
    __aeabi_memclr                           0x080040b3   Thumb Code     4  memseta.o(.text)
    __aeabi_memclr4                          0x080040b3   Thumb Code     0  memseta.o(.text)
    __aeabi_memclr8                          0x080040b3   Thumb Code     0  memseta.o(.text)
    _memset$wrapper                          0x080040b7   Thumb Code    18  memseta.o(.text)
    strstr                                   0x080040c9   Thumb Code    36  strstr.o(.text)
    strlen                                   0x080040ed   Thumb Code    14  strlen.o(.text)
    strtok                                   0x080040fd   Thumb Code    62  strtok.o(.text)
    __aeabi_llsl                             0x08004141   Thumb Code    30  llshl.o(.text)
    _ll_shift_l                              0x08004141   Thumb Code     0  llshl.o(.text)
    __aeabi_llsr                             0x0800415f   Thumb Code    32  llushr.o(.text)
    _ll_ushift_r                             0x0800415f   Thumb Code     0  llushr.o(.text)
    __scatterload                            0x08004181   Thumb Code    28  init.o(.text)
    __scatterload_rt2                        0x08004181   Thumb Code     0  init.o(.text)
    __0printf$8                              0x080041a5   Thumb Code    22  printf8.o(i.__0printf$8)
    __1printf$8                              0x080041a5   Thumb Code     0  printf8.o(i.__0printf$8)
    __2printf                                0x080041a5   Thumb Code     0  printf8.o(i.__0printf$8)
    __scatterload_copy                       0x080041c5   Thumb Code    14  handlers.o(i.__scatterload_copy)
    __scatterload_null                       0x080041d3   Thumb Code     2  handlers.o(i.__scatterload_null)
    __scatterload_zeroinit                   0x080041d5   Thumb Code    14  handlers.o(i.__scatterload_zeroinit)
    free                                     0x08004649   Thumb Code    76  malloc.o(i.free)
    malloc                                   0x08004699   Thumb Code    92  malloc.o(i.malloc)
    Region$$Table$$Base                      0x08004704   Number         0  anon$$obj.o(Region$$Table)
    Region$$Table$$Limit                     0x08004724   Number         0  anon$$obj.o(Region$$Table)
    MainLen                                  0x20000000   Data           4  main.o(.data)
    MainString                               0x20000004   Data           4  main.o(.data)
    NetworkCableState                        0x20000008   Data           1  main.o(.data)
    NetworkCableStateCopy                    0x20000009   Data           1  main.o(.data)
    idAddr                                   0x2000000c   Data          40  system.o(.data)
    Usart2SendData                           0x20000038   Data           4  usart.o(.data)
    Usart3SendData                           0x2000003c   Data           4  usart.o(.data)
    Usart1ReadCnt                            0x20000040   Data           4  usart.o(.data)
    Usart1SendBits                           0x20000044   Data           1  usart.o(.data)
    Usart1SendData                           0x20000048   Data           4  usart.o(.data)
    Usart1SendDataCnt                        0x2000004c   Data           4  usart.o(.data)
    Usart2ReadCnt                            0x20000050   Data           4  usart.o(.data)
    Usart2SendDataCnt                        0x20000054   Data           4  usart.o(.data)
    Usart3ReadCnt                            0x20000058   Data           4  usart.o(.data)
    Usart3SendDataCnt                        0x2000005c   Data           4  usart.o(.data)
    StringStr                                0x20000064   Data           4  cstring.o(.data)
    StrStop                                  0x20000068   Data           4  cstring.o(.data)
    StringValue                              0x2000006c   Data           1  cstring.o(.data)
    SystemCoreClock                          0x20000070   Data           4  system_stm32f10x.o(.data)
    AHBPrescTable                            0x20000074   Data          16  system_stm32f10x.o(.data)
    txsize                                   0x20000098   Data           8  w5500.o(.data)
    rxsize                                   0x200000a0   Data           8  w5500.o(.data)
    local_mac                                0x200000a8   Data           6  w5500_conf.o(.data)
    local_ip                                 0x200000ae   Data           4  w5500_conf.o(.data)
    subnet                                   0x200000b2   Data           4  w5500_conf.o(.data)
    gateway                                  0x200000b6   Data           4  w5500_conf.o(.data)
    dns_server                               0x200000ba   Data           4  w5500_conf.o(.data)
    local_port                               0x200000be   Data           2  w5500_conf.o(.data)
    remote_ip                                0x200000c0   Data           4  w5500_conf.o(.data)
    remote_port                              0x200000c4   Data           2  w5500_conf.o(.data)
    ip_from                                  0x200000c6   Data           1  w5500_conf.o(.data)
    dhcp_ok                                  0x200000c7   Data           1  w5500_conf.o(.data)
    ms                                       0x200000c8   Data           4  w5500_conf.o(.data)
    dhcp_time                                0x200000cc   Data           4  w5500_conf.o(.data)
    ntptimer                                 0x200000d0   Data           1  w5500_conf.o(.data)
    __stdout                                 0x200000d8   Data           4  stdout.o(.data)
    __microlib_freelist                      0x200000dc   Data           4  mvars.o(.data)
    __microlib_freelist_initialised          0x200000e0   Data           4  mvars.o(.data)
    MainBuffer                               0x200000e4   Data         200  main.o(.bss)
    MCUID                                    0x200001ac   Data          12  main.o(.bss)
    MAC                                      0x200001b8   Data          20  main.o(.bss)
    buff_manage_struct1                      0x200001cc   Data          60  usart.o(.bss)
    Usart1Sendrb                             0x20000208   Data          16  usart.o(.bss)
    Usart1BufferMemory                       0x20000218   Data        1024  usart.o(.bss)
    Usart1BufferMemoryRead                   0x20000618   Data         500  usart.o(.bss)
    Usart1BufferMemoryManage                 0x2000080c   Data         200  usart.o(.bss)
    Usart1SendBuff                           0x200008d4   Data        1024  usart.o(.bss)
    buff_manage_struct2                      0x20000cd4   Data          60  usart.o(.bss)
    Usart2BufferMemory                       0x20000d10   Data        1024  usart.o(.bss)
    Usart2BufferMemoryRead                   0x20001110   Data         500  usart.o(.bss)
    Usart2BufferMemoryManage                 0x20001304   Data         200  usart.o(.bss)
    buff_manage_struct3                      0x200013cc   Data          60  usart.o(.bss)
    Usart3BufferMemory                       0x20001408   Data        1024  usart.o(.bss)
    Usart3BufferMemoryRead                   0x20001808   Data         500  usart.o(.bss)
    Usart3BufferMemoryManage                 0x200019fc   Data         200  usart.o(.bss)
    send_manage_struct3                      0x20001ac4   Data          60  usart.o(.bss)
    Usart3SendMemory                         0x20001b00   Data        1024  usart.o(.bss)
    Usart3SendMemoryRead                     0x20001f00   Data         500  usart.o(.bss)
    Usart3SendMemoryManage                   0x200020f4   Data         200  usart.o(.bss)
    Usart1ReadBuff                           0x200021bc   Data        1024  usart.o(.bss)
    Usart2ReadBuff                           0x200025bc   Data        1024  usart.o(.bss)
    Usart3ReadBuff                           0x200029bc   Data        1024  usart.o(.bss)
    KeySmartConfig                           0x20002dbc   Data          28  key.o(.bss)
    DHCP_GET                                 0x20002dd8   Data          22  dhcp.o(.bss)
    EXTERN_DHCPBUF                           0x20002dee   Data        1024  dhcp.o(.bss)
    SSIZE                                    0x200031ee   Data          16  w5500.o(.bss)
    RSIZE                                    0x200031fe   Data          16  w5500.o(.bss)
    ConfigMsg                                0x2000320e   Data          28  w5500_conf.o(.bss)
    EEPROM_MSG                               0x2000322a   Data          18  w5500_conf.o(.bss)
    __heap_base                              0x20003240   Data           0  startup_stm32f10x_hd.o(HEAP)
    __heap_limit                             0x20003440   Data           0  startup_stm32f10x_hd.o(HEAP)
    __initial_sp                             0x20003840   Data           0  startup_stm32f10x_hd.o(STACK)



==============================================================================

Memory Map of the image

  Image Entry point : 0x08000131

  Load Region LR_IROM1 (Base: 0x08000000, Size: 0x00004808, Max: 0x00010000, ABSOLUTE)

    Execution Region ER_IROM1 (Base: 0x08000000, Size: 0x00004724, Max: 0x00010000, ABSOLUTE)

    Base Addr    Size         Type   Attr      Idx    E Section Name        Object

    0x08000000   0x00000130   Data   RO          485    RESET               startup_stm32f10x_hd.o
    0x08000130   0x00000000   Code   RO          666  * .ARM.Collect$$$$00000000  mc_w.l(entry.o)
    0x08000130   0x00000004   Code   RO          986    .ARM.Collect$$$$00000001  mc_w.l(entry2.o)
    0x08000134   0x00000004   Code   RO          989    .ARM.Collect$$$$00000004  mc_w.l(entry5.o)
    0x08000138   0x00000000   Code   RO          991    .ARM.Collect$$$$00000008  mc_w.l(entry7b.o)
    0x08000138   0x00000000   Code   RO          993    .ARM.Collect$$$$0000000A  mc_w.l(entry8b.o)
    0x08000138   0x00000008   Code   RO          994    .ARM.Collect$$$$0000000B  mc_w.l(entry9a.o)
    0x08000140   0x00000000   Code   RO          996    .ARM.Collect$$$$0000000D  mc_w.l(entry10a.o)
    0x08000140   0x00000000   Code   RO          998    .ARM.Collect$$$$0000000F  mc_w.l(entry11a.o)
    0x08000140   0x00000004   Code   RO          987    .ARM.Collect$$$$00002712  mc_w.l(entry2.o)
    0x08000144   0x00000040   Code   RO            1    .text               stm32f10x_it.o
    0x08000184   0x00000278   Code   RO          104    .text               main.o
    0x080003fc   0x000000f8   Code   RO          186    .text               system.o
    0x080004f4   0x000000d4   Code   RO          205    .text               delay.o
    0x080005c8   0x000005a4   Code   RO          222    .text               usart.o
    0x08000b6c   0x0000004c   Code   RO          241    .text               gpio.o
    0x08000bb8   0x000001bc   Code   RO          253    .text               cstring.o
    0x08000d74   0x0000002c   Code   RO          289    .text               iwdg.o
    0x08000da0   0x0000009c   Code   RO          304    .text               timer.o
    0x08000e3c   0x000000d4   Code   RO          319    .text               buffermanage.o
    0x08000f10   0x000001f8   Code   RO          334    .text               looplist.o
    0x08001108   0x000001e0   Code   RO          367    .text               system_stm32f10x.o
    0x080012e8   0x000000dc   Code   RO          385    .text               misc.o
    0x080013c4   0x000003a4   Code   RO          397    .text               stm32f10x_rcc.o
    0x08001768   0x00000408   Code   RO          411    .text               stm32f10x_usart.o
    0x08001b70   0x0000035c   Code   RO          435    .text               stm32f10x_gpio.o
    0x08001ecc   0x00000e1a   Code   RO          447    .text               stm32f10x_tim.o
    0x08002ce6   0x00000002   PAD
    0x08002ce8   0x00000040   Code   RO          459    .text               stm32f10x_iwdg.o
    0x08002d28   0x0000030c   Code   RO          471    .text               stm32f10x_spi.o
    0x08003034   0x00000024   Code   RO          486    .text               startup_stm32f10x_hd.o
    0x08003058   0x0000068c   Code   RO          568    .text               socket.o
    0x080036e4   0x000003e4   Code   RO          604    .text               w5500.o
    0x08003ac8   0x00000556   Code   RO          623    .text               w5500_conf.o
    0x0800401e   0x00000062   Code   RO          669    .text               mc_w.l(uldiv.o)
    0x08004080   0x00000024   Code   RO          671    .text               mc_w.l(memcpya.o)
    0x080040a4   0x00000024   Code   RO          673    .text               mc_w.l(memseta.o)
    0x080040c8   0x00000024   Code   RO          677    .text               mc_w.l(strstr.o)
    0x080040ec   0x0000000e   Code   RO          683    .text               mc_w.l(strlen.o)
    0x080040fa   0x00000002   PAD
    0x080040fc   0x00000044   Code   RO          689    .text               mc_w.l(strtok.o)
    0x08004140   0x0000001e   Code   RO         1003    .text               mc_w.l(llshl.o)
    0x0800415e   0x00000020   Code   RO         1005    .text               mc_w.l(llushr.o)
    0x0800417e   0x00000002   PAD
    0x08004180   0x00000024   Code   RO         1020    .text               mc_w.l(init.o)
    0x080041a4   0x00000020   Code   RO          904    i.__0printf$8       mc_w.l(printf8.o)
    0x080041c4   0x0000000e   Code   RO         1028    i.__scatterload_copy  mc_w.l(handlers.o)
    0x080041d2   0x00000002   Code   RO         1029    i.__scatterload_null  mc_w.l(handlers.o)
    0x080041d4   0x0000000e   Code   RO         1030    i.__scatterload_zeroinit  mc_w.l(handlers.o)
    0x080041e2   0x00000002   PAD
    0x080041e4   0x00000410   Code   RO          911    i._printf_core      mc_w.l(printf8.o)
    0x080045f4   0x00000024   Code   RO          912    i._printf_post_padding  mc_w.l(printf8.o)
    0x08004618   0x0000002e   Code   RO          913    i._printf_pre_padding  mc_w.l(printf8.o)
    0x08004646   0x00000002   PAD
    0x08004648   0x00000050   Code   RO          958    i.free              mc_w.l(malloc.o)
    0x08004698   0x0000006c   Code   RO          959    i.malloc            mc_w.l(malloc.o)
    0x08004704   0x00000020   Data   RO         1026    Region$$Table       anon$$obj.o


    Execution Region RW_IRAM1 (Base: 0x20000000, Size: 0x00003840, Max: 0x00005000, ABSOLUTE)

    Base Addr    Size         Type   Attr      Idx    E Section Name        Object

    0x20000000   0x0000000a   Data   RW          106    .data               main.o
    0x2000000a   0x00000002   PAD
    0x2000000c   0x00000028   Data   RW          187    .data               system.o
    0x20000034   0x00000004   Data   RW          206    .data               delay.o
    0x20000038   0x00000029   Data   RW          224    .data               usart.o
    0x20000061   0x00000003   PAD
    0x20000064   0x00000009   Data   RW          254    .data               cstring.o
    0x2000006d   0x00000003   PAD
    0x20000070   0x00000014   Data   RW          368    .data               system_stm32f10x.o
    0x20000084   0x00000014   Data   RW          398    .data               stm32f10x_rcc.o
    0x20000098   0x00000010   Data   RW          606    .data               w5500.o
    0x200000a8   0x00000029   Data   RW          625    .data               w5500_conf.o
    0x200000d1   0x00000003   PAD
    0x200000d4   0x00000004   Data   RW          690    .data               mc_w.l(strtok.o)
    0x200000d8   0x00000004   Data   RW         1000    .data               mc_w.l(stdout.o)
    0x200000dc   0x00000004   Data   RW         1007    .data               mc_w.l(mvars.o)
    0x200000e0   0x00000004   Data   RW         1008    .data               mc_w.l(mvars.o)
    0x200000e4   0x000000e8   Zero   RW          105    .bss                main.o
    0x200001cc   0x00002bf0   Zero   RW          223    .bss                usart.o
    0x20002dbc   0x0000001c   Zero   RW          272    .bss                key.o
    0x20002dd8   0x00000416   Zero   RW          491    .bss                dhcp.o
    0x200031ee   0x00000020   Zero   RW          605    .bss                w5500.o
    0x2000320e   0x0000002e   Zero   RW          624    .bss                w5500_conf.o
    0x2000323c   0x00000004   PAD
    0x20003240   0x00000200   Zero   RW          484    HEAP                startup_stm32f10x_hd.o
    0x20003440   0x00000400   Zero   RW          483    STACK               startup_stm32f10x_hd.o


==============================================================================

Image component sizes


      Code (inc. data)   RO Data    RW Data    ZI Data      Debug   Object Name

       212          0          0          0          0       2404   buffermanage.o
         0          0          0          0          0         32   core_cm3.o
       444         14          0          9          0       2935   cstring.o
       212         18          0          4          0       1126   delay.o
         0          0          0          0       1046       5314   dhcp.o
        76         10          0          0          0        551   gpio.o
        44          0          0          0          0        698   iwdg.o
         0          0          0          0         28        657   key.o
       504          0          0          0          0       3471   looplist.o
       632        130          0         10        232       4833   main.o
       220         22          0          0          0       1909   misc.o
      1676         48          0          0          0       3991   socket.o
        36          8        304          0       1536        848   startup_stm32f10x_hd.o
       860         38          0          0          0       5757   stm32f10x_gpio.o
        64          8          0          0          0     275157   stm32f10x_it.o
        64          6          0          0          0       1325   stm32f10x_iwdg.o
       932         36          0         20          0       8992   stm32f10x_rcc.o
       780         14          0          0          0       6634   stm32f10x_spi.o
      3610         88          0          0          0      22240   stm32f10x_tim.o
      1032         22          0          0          0       8480   stm32f10x_usart.o
       248         40          0         40          0       1702   system.o
       480         38          0         20          0       2003   system_stm32f10x.o
       156          4          0          0          0        740   timer.o
      1444        150          0         41      11248       6112   usart.o
       996         72          0         16         32       6201   w5500.o
      1366        330          0         41         46       6440   w5500_conf.o

    ----------------------------------------------------------------------
     16090       1096        336        212      14172     380552   Object Totals
         0          0         32          0          0          0   (incl. Generated)
         2          0          0         11          4          0   (incl. Padding)

    ----------------------------------------------------------------------

      Code (inc. data)   RO Data    RW Data    ZI Data      Debug   Library Member Name

         0          0          0          0          0          0   entry.o
         0          0          0          0          0          0   entry10a.o
         0          0          0          0          0          0   entry11a.o
         8          4          0          0          0          0   entry2.o
         4          0          0          0          0          0   entry5.o
         0          0          0          0          0          0   entry7b.o
         0          0          0          0          0          0   entry8b.o
         8          4          0          0          0          0   entry9a.o
        30          0          0          0          0          0   handlers.o
        36          8          0          0          0         68   init.o
        30          0          0          0          0         68   llshl.o
        32          0          0          0          0         68   llushr.o
       188         20          0          0          0        160   malloc.o
        36          0          0          0          0         68   memcpya.o
        36          0          0          0          0        108   memseta.o
         0          0          0          8          0          0   mvars.o
      1154         54          0          0          0        352   printf8.o
         0          0          0          4          0          0   stdout.o
        14          0          0          0          0         68   strlen.o
        36          0          0          0          0         80   strstr.o
        68          6          0          4          0         80   strtok.o
        98          0          0          0          0         92   uldiv.o

    ----------------------------------------------------------------------
      1786         96          0         16          0       1212   Library Totals
         8          0          0          0          0          0   (incl. Padding)

    ----------------------------------------------------------------------

      Code (inc. data)   RO Data    RW Data    ZI Data      Debug   Library Name

      1778         96          0         16          0       1212   mc_w.l

    ----------------------------------------------------------------------
      1786         96          0         16          0       1212   Library Totals

    ----------------------------------------------------------------------

==============================================================================


      Code (inc. data)   RO Data    RW Data    ZI Data      Debug   

     17876       1192        336        228      14172     379472   Grand Totals
     17876       1192        336        228      14172     379472   ELF Image Totals
     17876       1192        336        228          0          0   ROM Totals

==============================================================================

    Total RO  Size (Code + RO Data)                18212 (  17.79kB)
    Total RW  Size (RW Data + ZI Data)             14400 (  14.06kB)
    Total ROM Size (Code + RO Data + RW Data)      18440 (  18.01kB)

==============================================================================

