Component: ARM Compiler 5.05 update 1 (build 106) Tool: armlink [4d0efa]

==============================================================================

Section Cross References

    startup_stm32f10x_hd.o(RESET) refers to startup_stm32f10x_hd.o(STACK) for __initial_sp
    startup_stm32f10x_hd.o(RESET) refers to startup_stm32f10x_hd.o(.text) for Reset_Handler
    startup_stm32f10x_hd.o(RESET) refers to stm32f10x_it.o(.text) for NMI_Handler
    startup_stm32f10x_hd.o(.text) refers to system_stm32f10x.o(.text) for SystemInit
    startup_stm32f10x_hd.o(.text) refers to entry.o(.ARM.Collect$$$$00000000) for __main
    system_stm32f10x.o(.text) refers to system_stm32f10x.o(.data) for SystemCoreClock
    stm32f10x_adc.o(.text) refers to stm32f10x_rcc.o(.text) for RCC_APB2PeriphResetCmd
    stm32f10x_bkp.o(.text) refers to stm32f10x_rcc.o(.text) for RCC_BackupResetCmd
    stm32f10x_can.o(.text) refers to stm32f10x_rcc.o(.text) for RCC_APB1PeriphResetCmd
    stm32f10x_cec.o(.text) refers to stm32f10x_rcc.o(.text) for RCC_APB1PeriphResetCmd
    stm32f10x_dac.o(.text) refers to stm32f10x_rcc.o(.text) for RCC_APB1PeriphResetCmd
    stm32f10x_gpio.o(.text) refers to stm32f10x_rcc.o(.text) for RCC_APB2PeriphResetCmd
    stm32f10x_i2c.o(.text) refers to stm32f10x_rcc.o(.text) for RCC_APB1PeriphResetCmd
    stm32f10x_pwr.o(.text) refers to stm32f10x_rcc.o(.text) for RCC_APB1PeriphResetCmd
    stm32f10x_rcc.o(.text) refers to stm32f10x_rcc.o(.data) for APBAHBPrescTable
    stm32f10x_spi.o(.text) refers to stm32f10x_rcc.o(.text) for RCC_APB2PeriphResetCmd
    stm32f10x_tim.o(.text) refers to stm32f10x_rcc.o(.text) for RCC_APB2PeriphResetCmd
    stm32f10x_usart.o(.text) refers to stm32f10x_rcc.o(.text) for RCC_APB2PeriphResetCmd
==============================================================================

Removing Unused input sections from the image.

    Removing startup_stm32f10x_hd.o(HEAP), (512 bytes).
    Removing core_cm3.o(.emb_text), (32 bytes).
    Removing stm32f10x_adc.o(.text), (1102 bytes).
    Removing stm32f10x_bkp.o(.text), (196 bytes).
    Removing stm32f10x_can.o(.text), (2544 bytes).
    Removing stm32f10x_cec.o(.text), (288 bytes).
    Removing stm32f10x_crc.o(.text), (72 bytes).
    Removing stm32f10x_dac.o(.text), (396 bytes).
    Removing stm32f10x_dbgmcu.o(.text), (48 bytes).
    Removing stm32f10x_dma.o(.text), (596 bytes).
    Removing stm32f10x_exti.o(.text), (284 bytes).
    Removing stm32f10x_fsmc.o(.text), (1548 bytes).
    Removing stm32f10x_i2c.o(.text), (1028 bytes).
    Removing stm32f10x_iwdg.o(.text), (64 bytes).
    Removing stm32f10x_pwr.o(.text), (204 bytes).
    Removing stm32f10x_rtc.o(.text), (328 bytes).
    Removing stm32f10x_sdio.o(.text), (468 bytes).
    Removing stm32f10x_wwdg.o(.text), (136 bytes).
==============================================================================

Image Symbol Table

    Local Symbols

    Symbol Name                              Value     Ov Type        Size  Object(Section)

    ../clib/microlib/division.c              0x00000000   Number         0  uidiv.o ABSOLUTE
    ../clib/microlib/division.c              0x00000000   Number         0  uldiv.o ABSOLUTE
    ../clib/microlib/init/entry.s            0x00000000   Number         0  entry9a.o ABSOLUTE
    ../clib/microlib/init/entry.s            0x00000000   Number         0  entry.o ABSOLUTE
    ../clib/microlib/init/entry.s            0x00000000   Number         0  entry8b.o ABSOLUTE
    ../clib/microlib/init/entry.s            0x00000000   Number         0  entry9b.o ABSOLUTE
    ../clib/microlib/init/entry.s            0x00000000   Number         0  entry2.o ABSOLUTE
    ../clib/microlib/init/entry.s            0x00000000   Number         0  entry5.o ABSOLUTE
    ../clib/microlib/init/entry.s            0x00000000   Number         0  entry7b.o ABSOLUTE
    ../clib/microlib/init/entry.s            0x00000000   Number         0  entry8a.o ABSOLUTE
    ../clib/microlib/init/entry.s            0x00000000   Number         0  entry7a.o ABSOLUTE
    ../clib/microlib/init/entry.s            0x00000000   Number         0  entry10a.o ABSOLUTE
    ../clib/microlib/init/entry.s            0x00000000   Number         0  entry10b.o ABSOLUTE
    ../clib/microlib/init/entry.s            0x00000000   Number         0  entry11a.o ABSOLUTE
    ../clib/microlib/init/entry.s            0x00000000   Number         0  entry11b.o ABSOLUTE
    ../clib/microlib/longlong.c              0x00000000   Number         0  llshl.o ABSOLUTE
    ../clib/microlib/longlong.c              0x00000000   Number         0  llushr.o ABSOLUTE
    ../clib/microlib/longlong.c              0x00000000   Number         0  llsshr.o ABSOLUTE
    ../clib/microlib/printf/printf.c         0x00000000   Number         0  printf4.o ABSOLUTE
    ../clib/microlib/printf/printf.c         0x00000000   Number         0  printf7.o ABSOLUTE
    ../clib/microlib/printf/printf.c         0x00000000   Number         0  printf0.o ABSOLUTE
    ../clib/microlib/printf/printf.c         0x00000000   Number         0  printfb.o ABSOLUTE
    ../clib/microlib/printf/printf.c         0x00000000   Number         0  printf8.o ABSOLUTE
    ../clib/microlib/printf/printf.c         0x00000000   Number         0  printfa.o ABSOLUTE
    ../clib/microlib/printf/printf.c         0x00000000   Number         0  printf3.o ABSOLUTE
    ../clib/microlib/printf/printf.c         0x00000000   Number         0  printf1.o ABSOLUTE
    ../clib/microlib/printf/printf.c         0x00000000   Number         0  printf2.o ABSOLUTE
    ../clib/microlib/printf/printf.c         0x00000000   Number         0  printf5.o ABSOLUTE
    ../clib/microlib/printf/printf.c         0x00000000   Number         0  printf6.o ABSOLUTE
    ../clib/microlib/printf/stubs.s          0x00000000   Number         0  stubs.o ABSOLUTE
    ../clib/microlib/stdio/streams.c         0x00000000   Number         0  stdout.o ABSOLUTE
    ../clib/microlib/string/memcpy.c         0x00000000   Number         0  memcpyb.o ABSOLUTE
    ../clib/microlib/string/memcpy.c         0x00000000   Number         0  memcpya.o ABSOLUTE
    ../clib/microlib/string/memset.c         0x00000000   Number         0  memseta.o ABSOLUTE
    ../clib/microlib/string/strcpy.c         0x00000000   Number         0  strcpy.o ABSOLUTE
    ../clib/microlib/string/strlen.c         0x00000000   Number         0  strlen.o ABSOLUTE
    ../clib/microlib/string/strncpy.c        0x00000000   Number         0  strncpy.o ABSOLUTE
    ../clib/microlib/string/strstr.c         0x00000000   Number         0  strstr.o ABSOLUTE
    ../clib/microlib/string/strtok.c         0x00000000   Number         0  strtok.o ABSOLUTE
    ../clib/microlib/string/strtok.c         0x00000000   Number         0  strtok_r.o ABSOLUTE
    ../clib/microlib/stubs.s                 0x00000000   Number         0  iusefp.o ABSOLUTE
    ../fplib/microlib/fpadd.c                0x00000000   Number         0  dadd.o ABSOLUTE
    ../fplib/microlib/fpdiv.c                0x00000000   Number         0  ddiv.o ABSOLUTE
    ../fplib/microlib/fpepilogue.c           0x00000000   Number         0  depilogue.o ABSOLUTE
    ../fplib/microlib/fpfix.c                0x00000000   Number         0  dfixul.o ABSOLUTE
    ../fplib/microlib/fpmul.c                0x00000000   Number         0  dmul.o ABSOLUTE
    ..\Internet\Application\device.c         0x00000000   Number         0  device.o ABSOLUTE
    ..\Internet\Application\dhcp.c           0x00000000   Number         0  dhcp.o ABSOLUTE
    ..\Internet\W5500\SPI2.c                 0x00000000   Number         0  spi2.o ABSOLUTE
    ..\Internet\W5500\md5.c                  0x00000000   Number         0  md5.o ABSOLUTE
    ..\Internet\W5500\socket.c               0x00000000   Number         0  socket.o ABSOLUTE
    ..\Internet\W5500\w5500.c                0x00000000   Number         0  w5500.o ABSOLUTE
    ..\Library\CMSIS\core_cm3.c              0x00000000   Number         0  core_cm3.o ABSOLUTE
    ..\Library\CMSIS\startup\startup_stm32f10x_hd.s 0x00000000   Number         0  startup_stm32f10x_hd.o ABSOLUTE
    ..\Library\CMSIS\system_stm32f10x.c      0x00000000   Number         0  system_stm32f10x.o ABSOLUTE
    ..\Library\FWlib\src\misc.c              0x00000000   Number         0  misc.o ABSOLUTE
    ..\Library\FWlib\src\stm32f10x_adc.c     0x00000000   Number         0  stm32f10x_adc.o ABSOLUTE
    ..\Library\FWlib\src\stm32f10x_bkp.c     0x00000000   Number         0  stm32f10x_bkp.o ABSOLUTE
    ..\Library\FWlib\src\stm32f10x_can.c     0x00000000   Number         0  stm32f10x_can.o ABSOLUTE
    ..\Library\FWlib\src\stm32f10x_cec.c     0x00000000   Number         0  stm32f10x_cec.o ABSOLUTE
    ..\Library\FWlib\src\stm32f10x_crc.c     0x00000000   Number         0  stm32f10x_crc.o ABSOLUTE
    ..\Library\FWlib\src\stm32f10x_dac.c     0x00000000   Number         0  stm32f10x_dac.o ABSOLUTE
    ..\Library\FWlib\src\stm32f10x_dbgmcu.c  0x00000000   Number         0  stm32f10x_dbgmcu.o ABSOLUTE
    ..\Library\FWlib\src\stm32f10x_dma.c     0x00000000   Number         0  stm32f10x_dma.o ABSOLUTE
    ..\Library\FWlib\src\stm32f10x_exti.c    0x00000000   Number         0  stm32f10x_exti.o ABSOLUTE
    ..\Library\FWlib\src\stm32f10x_flash.c   0x00000000   Number         0  stm32f10x_flash.o ABSOLUTE
    ..\Library\FWlib\src\stm32f10x_fsmc.c    0x00000000   Number         0  stm32f10x_fsmc.o ABSOLUTE
    ..\Library\FWlib\src\stm32f10x_gpio.c    0x00000000   Number         0  stm32f10x_gpio.o ABSOLUTE
    ..\Library\FWlib\src\stm32f10x_i2c.c     0x00000000   Number         0  stm32f10x_i2c.o ABSOLUTE
    ..\Library\FWlib\src\stm32f10x_iwdg.c    0x00000000   Number         0  stm32f10x_iwdg.o ABSOLUTE
    ..\Library\FWlib\src\stm32f10x_pwr.c     0x00000000   Number         0  stm32f10x_pwr.o ABSOLUTE
    ..\Library\FWlib\src\stm32f10x_rcc.c     0x00000000   Number         0  stm32f10x_rcc.o ABSOLUTE
    ..\Library\FWlib\src\stm32f10x_rtc.c     0x00000000   Number         0  stm32f10x_rtc.o ABSOLUTE
    ..\Library\FWlib\src\stm32f10x_sdio.c    0x00000000   Number         0  stm32f10x_sdio.o ABSOLUTE
    ..\Library\FWlib\src\stm32f10x_spi.c     0x00000000   Number         0  stm32f10x_spi.o ABSOLUTE
    ..\Library\FWlib\src\stm32f10x_tim.c     0x00000000   Number         0  stm32f10x_tim.o ABSOLUTE
    ..\Library\FWlib\src\stm32f10x_usart.c   0x00000000   Number         0  stm32f10x_usart.o ABSOLUTE
    ..\Library\FWlib\src\stm32f10x_wwdg.c    0x00000000   Number         0  stm32f10x_wwdg.o ABSOLUTE
    ..\User\main.c                           0x00000000   Number         0  main.o ABSOLUTE
    ..\User\stm32f10x_it.c                   0x00000000   Number         0  stm32f10x_it.o ABSOLUTE
    ..\Utility\at24c16.c                     0x00000000   Number         0  at24c16.o ABSOLUTE
    ..\Utility\mcu_init.c                    0x00000000   Number         0  mcu_init.o ABSOLUTE
    ..\Utility\sockutil.c                    0x00000000   Number         0  sockutil.o ABSOLUTE
    ..\Utility\util.c                        0x00000000   Number         0  util.o ABSOLUTE
    ..\\Library\\CMSIS\\core_cm3.c           0x00000000   Number         0  core_cm3.o ABSOLUTE
    cdrcmple.s                               0x00000000   Number         0  cdrcmple.o ABSOLUTE
    dc.s                                     0x00000000   Number         0  dc.o ABSOLUTE
    handlers.s                               0x00000000   Number         0  handlers.o ABSOLUTE
    init.s                                   0x00000000   Number         0  init.o ABSOLUTE
    RESET                                    0x08000000   Section      304  startup_stm32f10x_hd.o(RESET)
    .ARM.Collect$$$$00000000                 0x08000130   Section        0  entry.o(.ARM.Collect$$$$00000000)
    .ARM.Collect$$$$00000001                 0x08000130   Section        4  entry2.o(.ARM.Collect$$$$00000001)
    .ARM.Collect$$$$00000004                 0x08000134   Section        4  entry5.o(.ARM.Collect$$$$00000004)
    .ARM.Collect$$$$00000008                 0x08000138   Section        0  entry7b.o(.ARM.Collect$$$$00000008)
    .ARM.Collect$$$$0000000A                 0x08000138   Section        0  entry8b.o(.ARM.Collect$$$$0000000A)
    .ARM.Collect$$$$0000000B                 0x08000138   Section        8  entry9a.o(.ARM.Collect$$$$0000000B)
    .ARM.Collect$$$$0000000D                 0x08000140   Section        0  entry10a.o(.ARM.Collect$$$$0000000D)
    .ARM.Collect$$$$0000000F                 0x08000140   Section        0  entry11a.o(.ARM.Collect$$$$0000000F)
    .ARM.Collect$$$$00002712                 0x08000140   Section        4  entry2.o(.ARM.Collect$$$$00002712)
    __lit__00000000                          0x08000140   Data           4  entry2.o(.ARM.Collect$$$$00002712)
    .text                                    0x08000144   Section       36  startup_stm32f10x_hd.o(.text)
    .text                                    0x08000168   Section        0  system_stm32f10x.o(.text)
    SetSysClockTo72                          0x08000169   Thumb Code   214  system_stm32f10x.o(.text)
    SetSysClock                              0x0800023f   Thumb Code     8  system_stm32f10x.o(.text)
    .text                                    0x08000348   Section        0  misc.o(.text)
    .text                                    0x08000424   Section        0  stm32f10x_flash.o(.text)
    .text                                    0x080009e0   Section        0  stm32f10x_gpio.o(.text)
    .text                                    0x08000d3c   Section        0  stm32f10x_rcc.o(.text)
    .text                                    0x080010e0   Section        0  stm32f10x_spi.o(.text)
    .text                                    0x080013ec   Section        0  stm32f10x_tim.o(.text)
    TI4_Config                               0x08001893   Thumb Code   130  stm32f10x_tim.o(.text)
    TI3_Config                               0x08001927   Thumb Code   122  stm32f10x_tim.o(.text)
    TI2_Config                               0x080019bb   Thumb Code   130  stm32f10x_tim.o(.text)
    TI1_Config                               0x08001a4f   Thumb Code   108  stm32f10x_tim.o(.text)
    .text                                    0x08002208   Section        0  stm32f10x_usart.o(.text)
    .text                                    0x08002610   Section        0  main.o(.text)
    .text                                    0x08002694   Section        0  stm32f10x_it.o(.text)
    .text                                    0x080026cc   Section        0  at24c16.o(.text)
    .text                                    0x08002940   Section        0  mcu_init.o(.text)
    .text                                    0x08002bb0   Section        0  util.o(.text)
    .text                                    0x08002e8c   Section        0  device.o(.text)
    .text                                    0x080030e4   Section        0  dhcp.o(.text)
    .text                                    0x080043b4   Section        0  spi2.o(.text)
    .text                                    0x0800445c   Section        0  w5500.o(.text)
    .text                                    0x08004a54   Section        0  socket.o(.text)
    .text                                    0x080050e0   Section        0  memseta.o(.text)
    .text                                    0x08005104   Section        0  strstr.o(.text)
    .text                                    0x08005128   Section        0  strncpy.o(.text)
    .text                                    0x08005140   Section        0  strlen.o(.text)
    .text                                    0x0800514e   Section        0  strcpy.o(.text)
    .text                                    0x08005160   Section        0  strtok.o(.text)
    .text                                    0x080051a4   Section        0  uldiv.o(.text)
    .text                                    0x08005208   Section       36  init.o(.text)
    .text                                    0x0800522c   Section        0  llshl.o(.text)
    .text                                    0x0800524a   Section        0  llushr.o(.text)
    i.__0printf$8                            0x0800526c   Section        0  printf8.o(i.__0printf$8)
    i.__0sprintf$8                           0x0800528c   Section        0  printf8.o(i.__0sprintf$8)
    i.__scatterload_copy                     0x080052b4   Section       14  handlers.o(i.__scatterload_copy)
    i.__scatterload_null                     0x080052c2   Section        2  handlers.o(i.__scatterload_null)
    i.__scatterload_zeroinit                 0x080052c4   Section       14  handlers.o(i.__scatterload_zeroinit)
    i._printf_core                           0x080052d4   Section        0  printf8.o(i._printf_core)
    _printf_core                             0x080052d5   Thumb Code   996  printf8.o(i._printf_core)
    i._printf_post_padding                   0x080056e4   Section        0  printf8.o(i._printf_post_padding)
    _printf_post_padding                     0x080056e5   Thumb Code    36  printf8.o(i._printf_post_padding)
    i._printf_pre_padding                    0x08005708   Section        0  printf8.o(i._printf_pre_padding)
    _printf_pre_padding                      0x08005709   Thumb Code    46  printf8.o(i._printf_pre_padding)
    i._sputc                                 0x08005736   Section        0  printf8.o(i._sputc)
    _sputc                                   0x08005737   Thumb Code    10  printf8.o(i._sputc)
    .data                                    0x20000000   Section       20  system_stm32f10x.o(.data)
    .data                                    0x20000014   Section       20  stm32f10x_rcc.o(.data)
    APBAHBPrescTable                         0x20000014   Data          16  stm32f10x_rcc.o(.data)
    ADCPrescTable                            0x20000024   Data           4  stm32f10x_rcc.o(.data)
    .data                                    0x20000028   Section        7  mcu_init.o(.data)
    .data                                    0x20000030   Section        4  util.o(.data)
    fac_us                                   0x20000030   Data           1  util.o(.data)
    fac_ms                                   0x20000032   Data           2  util.o(.data)
    .data                                    0x20000034   Section       16  device.o(.data)
    .data                                    0x20000044   Section      112  dhcp.o(.data)
    .data                                    0x200000b4   Section        8  w5500.o(.data)
    I_STATUS                                 0x200000b4   Data           8  w5500.o(.data)
    .data                                    0x200000bc   Section        2  socket.o(.data)
    local_port                               0x200000bc   Data           2  socket.o(.data)
    .data                                    0x200000c0   Section        4  strtok.o(.data)
    state                                    0x200000c0   Data           4  strtok.o(.data)
    .data                                    0x200000c4   Section        4  stdout.o(.data)
    .bss                                     0x200000c8   Section     1526  device.o(.bss)
    .bss                                     0x200006be   Section     1024  dhcp.o(.bss)
    .bss                                     0x20000abe   Section       32  w5500.o(.bss)
    SSIZE                                    0x20000abe   Data          16  w5500.o(.bss)
    RSIZE                                    0x20000ace   Data          16  w5500.o(.bss)
    STACK                                    0x20000ae0   Section     1024  startup_stm32f10x_hd.o(STACK)

    Global Symbols

    Symbol Name                              Value     Ov Type        Size  Object(Section)

    BuildAttributes$$THM_ISAv4$P$D$K$B$S$PE$A:L22UL41UL21$X:L11$S22US41US21$IEEE1$IW$USESV6$~STKCKD$USESV7$~SHL$OSPACE$ROPI$EBA8$MICROLIB$REQ8$PRES8$EABIv2 0x00000000   Number         0  anon$$obj.o ABSOLUTE
    __ARM_use_no_argv                        0x00000000   Number         0  main.o ABSOLUTE
    _printf_a                                0x00000000   Number         0  stubs.o ABSOLUTE
    _printf_c                                0x00000000   Number         0  stubs.o ABSOLUTE
    _printf_charcount                        0x00000000   Number         0  stubs.o ABSOLUTE
    _printf_d                                0x00000000   Number         0  stubs.o ABSOLUTE
    _printf_e                                0x00000000   Number         0  stubs.o ABSOLUTE
    _printf_f                                0x00000000   Number         0  stubs.o ABSOLUTE
    _printf_flags                            0x00000000   Number         0  stubs.o ABSOLUTE
    _printf_fp_dec                           0x00000000   Number         0  stubs.o ABSOLUTE
    _printf_fp_hex                           0x00000000   Number         0  stubs.o ABSOLUTE
    _printf_g                                0x00000000   Number         0  stubs.o ABSOLUTE
    _printf_i                                0x00000000   Number         0  stubs.o ABSOLUTE
    _printf_int_dec                          0x00000000   Number         0  stubs.o ABSOLUTE
    _printf_l                                0x00000000   Number         0  stubs.o ABSOLUTE
    _printf_lc                               0x00000000   Number         0  stubs.o ABSOLUTE
    _printf_ll                               0x00000000   Number         0  stubs.o ABSOLUTE
    _printf_lld                              0x00000000   Number         0  stubs.o ABSOLUTE
    _printf_lli                              0x00000000   Number         0  stubs.o ABSOLUTE
    _printf_llo                              0x00000000   Number         0  stubs.o ABSOLUTE
    _printf_llu                              0x00000000   Number         0  stubs.o ABSOLUTE
    _printf_llx                              0x00000000   Number         0  stubs.o ABSOLUTE
    _printf_longlong_dec                     0x00000000   Number         0  stubs.o ABSOLUTE
    _printf_longlong_hex                     0x00000000   Number         0  stubs.o ABSOLUTE
    _printf_longlong_oct                     0x00000000   Number         0  stubs.o ABSOLUTE
    _printf_ls                               0x00000000   Number         0  stubs.o ABSOLUTE
    _printf_mbtowc                           0x00000000   Number         0  stubs.o ABSOLUTE
    _printf_n                                0x00000000   Number         0  stubs.o ABSOLUTE
    _printf_o                                0x00000000   Number         0  stubs.o ABSOLUTE
    _printf_p                                0x00000000   Number         0  stubs.o ABSOLUTE
    _printf_percent                          0x00000000   Number         0  stubs.o ABSOLUTE
    _printf_pre_padding                      0x00000000   Number         0  stubs.o ABSOLUTE
    _printf_return_value                     0x00000000   Number         0  stubs.o ABSOLUTE
    _printf_s                                0x00000000   Number         0  stubs.o ABSOLUTE
    _printf_sizespec                         0x00000000   Number         0  stubs.o ABSOLUTE
    _printf_str                              0x00000000   Number         0  stubs.o ABSOLUTE
    _printf_truncate_signed                  0x00000000   Number         0  stubs.o ABSOLUTE
    _printf_truncate_unsigned                0x00000000   Number         0  stubs.o ABSOLUTE
    _printf_u                                0x00000000   Number         0  stubs.o ABSOLUTE
    _printf_wc                               0x00000000   Number         0  stubs.o ABSOLUTE
    _printf_wctomb                           0x00000000   Number         0  stubs.o ABSOLUTE
    _printf_widthprec                        0x00000000   Number         0  stubs.o ABSOLUTE
    _printf_x                                0x00000000   Number         0  stubs.o ABSOLUTE
    __cpp_initialize__aeabi_                  - Undefined Weak Reference
    __cxa_finalize                            - Undefined Weak Reference
    __decompress                              - Undefined Weak Reference
    _clock_init                               - Undefined Weak Reference
    _microlib_exit                            - Undefined Weak Reference
    __Vectors_Size                           0x00000130   Number         0  startup_stm32f10x_hd.o ABSOLUTE
    __Vectors                                0x08000000   Data           4  startup_stm32f10x_hd.o(RESET)
    __Vectors_End                            0x08000130   Data           0  startup_stm32f10x_hd.o(RESET)
    __main                                   0x08000131   Thumb Code     0  entry.o(.ARM.Collect$$$$00000000)
    _main_stk                                0x08000131   Thumb Code     0  entry2.o(.ARM.Collect$$$$00000001)
    _main_scatterload                        0x08000135   Thumb Code     0  entry5.o(.ARM.Collect$$$$00000004)
    __main_after_scatterload                 0x08000139   Thumb Code     0  entry5.o(.ARM.Collect$$$$00000004)
    _main_clock                              0x08000139   Thumb Code     0  entry7b.o(.ARM.Collect$$$$00000008)
    _main_cpp_init                           0x08000139   Thumb Code     0  entry8b.o(.ARM.Collect$$$$0000000A)
    _main_init                               0x08000139   Thumb Code     0  entry9a.o(.ARM.Collect$$$$0000000B)
    __rt_final_cpp                           0x08000141   Thumb Code     0  entry10a.o(.ARM.Collect$$$$0000000D)
    __rt_final_exit                          0x08000141   Thumb Code     0  entry11a.o(.ARM.Collect$$$$0000000F)
    Reset_Handler                            0x08000145   Thumb Code     8  startup_stm32f10x_hd.o(.text)
    SysTick_Handler                          0x0800015d   Thumb Code     2  startup_stm32f10x_hd.o(.text)
    ADC1_2_IRQHandler                        0x0800015f   Thumb Code     0  startup_stm32f10x_hd.o(.text)
    ADC3_IRQHandler                          0x0800015f   Thumb Code     0  startup_stm32f10x_hd.o(.text)
    CAN1_RX1_IRQHandler                      0x0800015f   Thumb Code     0  startup_stm32f10x_hd.o(.text)
    CAN1_SCE_IRQHandler                      0x0800015f   Thumb Code     0  startup_stm32f10x_hd.o(.text)
    DMA1_Channel1_IRQHandler                 0x0800015f   Thumb Code     0  startup_stm32f10x_hd.o(.text)
    DMA1_Channel2_IRQHandler                 0x0800015f   Thumb Code     0  startup_stm32f10x_hd.o(.text)
    DMA1_Channel3_IRQHandler                 0x0800015f   Thumb Code     0  startup_stm32f10x_hd.o(.text)
    DMA1_Channel4_IRQHandler                 0x0800015f   Thumb Code     0  startup_stm32f10x_hd.o(.text)
    DMA1_Channel5_IRQHandler                 0x0800015f   Thumb Code     0  startup_stm32f10x_hd.o(.text)
    DMA1_Channel6_IRQHandler                 0x0800015f   Thumb Code     0  startup_stm32f10x_hd.o(.text)
    DMA1_Channel7_IRQHandler                 0x0800015f   Thumb Code     0  startup_stm32f10x_hd.o(.text)
    DMA2_Channel1_IRQHandler                 0x0800015f   Thumb Code     0  startup_stm32f10x_hd.o(.text)
    DMA2_Channel2_IRQHandler                 0x0800015f   Thumb Code     0  startup_stm32f10x_hd.o(.text)
    DMA2_Channel3_IRQHandler                 0x0800015f   Thumb Code     0  startup_stm32f10x_hd.o(.text)
    DMA2_Channel4_5_IRQHandler               0x0800015f   Thumb Code     0  startup_stm32f10x_hd.o(.text)
    EXTI0_IRQHandler                         0x0800015f   Thumb Code     0  startup_stm32f10x_hd.o(.text)
    EXTI15_10_IRQHandler                     0x0800015f   Thumb Code     0  startup_stm32f10x_hd.o(.text)
    EXTI1_IRQHandler                         0x0800015f   Thumb Code     0  startup_stm32f10x_hd.o(.text)
    EXTI2_IRQHandler                         0x0800015f   Thumb Code     0  startup_stm32f10x_hd.o(.text)
    EXTI3_IRQHandler                         0x0800015f   Thumb Code     0  startup_stm32f10x_hd.o(.text)
    EXTI4_IRQHandler                         0x0800015f   Thumb Code     0  startup_stm32f10x_hd.o(.text)
    EXTI9_5_IRQHandler                       0x0800015f   Thumb Code     0  startup_stm32f10x_hd.o(.text)
    FLASH_IRQHandler                         0x0800015f   Thumb Code     0  startup_stm32f10x_hd.o(.text)
    FSMC_IRQHandler                          0x0800015f   Thumb Code     0  startup_stm32f10x_hd.o(.text)
    I2C1_ER_IRQHandler                       0x0800015f   Thumb Code     0  startup_stm32f10x_hd.o(.text)
    I2C1_EV_IRQHandler                       0x0800015f   Thumb Code     0  startup_stm32f10x_hd.o(.text)
    I2C2_ER_IRQHandler                       0x0800015f   Thumb Code     0  startup_stm32f10x_hd.o(.text)
    I2C2_EV_IRQHandler                       0x0800015f   Thumb Code     0  startup_stm32f10x_hd.o(.text)
    PVD_IRQHandler                           0x0800015f   Thumb Code     0  startup_stm32f10x_hd.o(.text)
    RCC_IRQHandler                           0x0800015f   Thumb Code     0  startup_stm32f10x_hd.o(.text)
    RTCAlarm_IRQHandler                      0x0800015f   Thumb Code     0  startup_stm32f10x_hd.o(.text)
    RTC_IRQHandler                           0x0800015f   Thumb Code     0  startup_stm32f10x_hd.o(.text)
    SDIO_IRQHandler                          0x0800015f   Thumb Code     0  startup_stm32f10x_hd.o(.text)
    SPI1_IRQHandler                          0x0800015f   Thumb Code     0  startup_stm32f10x_hd.o(.text)
    SPI2_IRQHandler                          0x0800015f   Thumb Code     0  startup_stm32f10x_hd.o(.text)
    SPI3_IRQHandler                          0x0800015f   Thumb Code     0  startup_stm32f10x_hd.o(.text)
    TAMPER_IRQHandler                        0x0800015f   Thumb Code     0  startup_stm32f10x_hd.o(.text)
    TIM1_BRK_IRQHandler                      0x0800015f   Thumb Code     0  startup_stm32f10x_hd.o(.text)
    TIM1_CC_IRQHandler                       0x0800015f   Thumb Code     0  startup_stm32f10x_hd.o(.text)
    TIM1_TRG_COM_IRQHandler                  0x0800015f   Thumb Code     0  startup_stm32f10x_hd.o(.text)
    TIM1_UP_IRQHandler                       0x0800015f   Thumb Code     0  startup_stm32f10x_hd.o(.text)
    TIM3_IRQHandler                          0x0800015f   Thumb Code     0  startup_stm32f10x_hd.o(.text)
    TIM4_IRQHandler                          0x0800015f   Thumb Code     0  startup_stm32f10x_hd.o(.text)
    TIM5_IRQHandler                          0x0800015f   Thumb Code     0  startup_stm32f10x_hd.o(.text)
    TIM6_IRQHandler                          0x0800015f   Thumb Code     0  startup_stm32f10x_hd.o(.text)
    TIM7_IRQHandler                          0x0800015f   Thumb Code     0  startup_stm32f10x_hd.o(.text)
    TIM8_BRK_IRQHandler                      0x0800015f   Thumb Code     0  startup_stm32f10x_hd.o(.text)
    TIM8_CC_IRQHandler                       0x0800015f   Thumb Code     0  startup_stm32f10x_hd.o(.text)
    TIM8_TRG_COM_IRQHandler                  0x0800015f   Thumb Code     0  startup_stm32f10x_hd.o(.text)
    TIM8_UP_IRQHandler                       0x0800015f   Thumb Code     0  startup_stm32f10x_hd.o(.text)
    UART4_IRQHandler                         0x0800015f   Thumb Code     0  startup_stm32f10x_hd.o(.text)
    UART5_IRQHandler                         0x0800015f   Thumb Code     0  startup_stm32f10x_hd.o(.text)
    USART2_IRQHandler                        0x0800015f   Thumb Code     0  startup_stm32f10x_hd.o(.text)
    USART3_IRQHandler                        0x0800015f   Thumb Code     0  startup_stm32f10x_hd.o(.text)
    USBWakeUp_IRQHandler                     0x0800015f   Thumb Code     0  startup_stm32f10x_hd.o(.text)
    USB_HP_CAN1_TX_IRQHandler                0x0800015f   Thumb Code     0  startup_stm32f10x_hd.o(.text)
    USB_LP_CAN1_RX0_IRQHandler               0x0800015f   Thumb Code     0  startup_stm32f10x_hd.o(.text)
    WWDG_IRQHandler                          0x0800015f   Thumb Code     0  startup_stm32f10x_hd.o(.text)
    SystemInit                               0x08000247   Thumb Code    78  system_stm32f10x.o(.text)
    SystemCoreClockUpdate                    0x08000295   Thumb Code   142  system_stm32f10x.o(.text)
    NVIC_PriorityGroupConfig                 0x08000349   Thumb Code    10  misc.o(.text)
    NVIC_Init                                0x08000353   Thumb Code   100  misc.o(.text)
    NVIC_SetVectorTable                      0x080003b7   Thumb Code    14  misc.o(.text)
    NVIC_SystemLPConfig                      0x080003c5   Thumb Code    34  misc.o(.text)
    SysTick_CLKSourceConfig                  0x080003e7   Thumb Code    40  misc.o(.text)
    FLASH_SetLatency                         0x08000425   Thumb Code    18  stm32f10x_flash.o(.text)
    FLASH_HalfCycleAccessCmd                 0x08000437   Thumb Code    22  stm32f10x_flash.o(.text)
    FLASH_PrefetchBufferCmd                  0x0800044d   Thumb Code    22  stm32f10x_flash.o(.text)
    FLASH_Unlock                             0x08000463   Thumb Code    12  stm32f10x_flash.o(.text)
    FLASH_UnlockBank1                        0x0800046f   Thumb Code    12  stm32f10x_flash.o(.text)
    FLASH_Lock                               0x0800047b   Thumb Code    14  stm32f10x_flash.o(.text)
    FLASH_LockBank1                          0x08000489   Thumb Code    14  stm32f10x_flash.o(.text)
    FLASH_GetBank1Status                     0x08000497   Thumb Code    48  stm32f10x_flash.o(.text)
    FLASH_WaitForLastOperation               0x080004c7   Thumb Code    38  stm32f10x_flash.o(.text)
    FLASH_ErasePage                          0x080004ed   Thumb Code    72  stm32f10x_flash.o(.text)
    FLASH_EraseAllPages                      0x08000535   Thumb Code    68  stm32f10x_flash.o(.text)
    FLASH_WaitForLastBank1Operation          0x08000579   Thumb Code    38  stm32f10x_flash.o(.text)
    FLASH_EraseAllBank1Pages                 0x0800059f   Thumb Code    68  stm32f10x_flash.o(.text)
    FLASH_GetReadOutProtectionStatus         0x080005e3   Thumb Code    20  stm32f10x_flash.o(.text)
    FLASH_EraseOptionBytes                   0x080005f7   Thumb Code   150  stm32f10x_flash.o(.text)
    FLASH_ProgramWord                        0x0800068d   Thumb Code   102  stm32f10x_flash.o(.text)
    FLASH_ProgramHalfWord                    0x080006f3   Thumb Code    60  stm32f10x_flash.o(.text)
    FLASH_ProgramOptionByteData              0x0800072f   Thumb Code    72  stm32f10x_flash.o(.text)
    FLASH_EnableWriteProtection              0x08000777   Thumb Code   200  stm32f10x_flash.o(.text)
    FLASH_ReadOutProtection                  0x0800083f   Thumb Code   156  stm32f10x_flash.o(.text)
    FLASH_UserOptionByteConfig               0x080008db   Thumb Code    88  stm32f10x_flash.o(.text)
    FLASH_GetUserOptionByte                  0x08000933   Thumb Code     8  stm32f10x_flash.o(.text)
    FLASH_GetWriteProtectionOptionByte       0x0800093b   Thumb Code     6  stm32f10x_flash.o(.text)
    FLASH_GetPrefetchBufferStatus            0x08000941   Thumb Code    20  stm32f10x_flash.o(.text)
    FLASH_ITConfig                           0x08000955   Thumb Code    26  stm32f10x_flash.o(.text)
    FLASH_GetFlagStatus                      0x0800096f   Thumb Code    42  stm32f10x_flash.o(.text)
    FLASH_ClearFlag                          0x08000999   Thumb Code     6  stm32f10x_flash.o(.text)
    FLASH_GetStatus                          0x0800099f   Thumb Code    48  stm32f10x_flash.o(.text)
    GPIO_DeInit                              0x080009e1   Thumb Code   172  stm32f10x_gpio.o(.text)
    GPIO_AFIODeInit                          0x08000a8d   Thumb Code    20  stm32f10x_gpio.o(.text)
    GPIO_Init                                0x08000aa1   Thumb Code   278  stm32f10x_gpio.o(.text)
    GPIO_StructInit                          0x08000bb7   Thumb Code    16  stm32f10x_gpio.o(.text)
    GPIO_ReadInputDataBit                    0x08000bc7   Thumb Code    18  stm32f10x_gpio.o(.text)
    GPIO_ReadInputData                       0x08000bd9   Thumb Code     8  stm32f10x_gpio.o(.text)
    GPIO_ReadOutputDataBit                   0x08000be1   Thumb Code    18  stm32f10x_gpio.o(.text)
    GPIO_ReadOutputData                      0x08000bf3   Thumb Code     8  stm32f10x_gpio.o(.text)
    GPIO_SetBits                             0x08000bfb   Thumb Code     4  stm32f10x_gpio.o(.text)
    GPIO_ResetBits                           0x08000bff   Thumb Code     4  stm32f10x_gpio.o(.text)
    GPIO_WriteBit                            0x08000c03   Thumb Code    10  stm32f10x_gpio.o(.text)
    GPIO_Write                               0x08000c0d   Thumb Code     4  stm32f10x_gpio.o(.text)
    GPIO_PinLockConfig                       0x08000c11   Thumb Code    18  stm32f10x_gpio.o(.text)
    GPIO_EventOutputConfig                   0x08000c23   Thumb Code    26  stm32f10x_gpio.o(.text)
    GPIO_EventOutputCmd                      0x08000c3d   Thumb Code     6  stm32f10x_gpio.o(.text)
    GPIO_PinRemapConfig                      0x08000c43   Thumb Code   138  stm32f10x_gpio.o(.text)
    GPIO_EXTILineConfig                      0x08000ccd   Thumb Code    66  stm32f10x_gpio.o(.text)
    GPIO_ETH_MediaInterfaceConfig            0x08000d0f   Thumb Code     8  stm32f10x_gpio.o(.text)
    RCC_DeInit                               0x08000d3d   Thumb Code    64  stm32f10x_rcc.o(.text)
    RCC_HSEConfig                            0x08000d7d   Thumb Code    70  stm32f10x_rcc.o(.text)
    RCC_GetFlagStatus                        0x08000dc3   Thumb Code    56  stm32f10x_rcc.o(.text)
    RCC_WaitForHSEStartUp                    0x08000dfb   Thumb Code    56  stm32f10x_rcc.o(.text)
    RCC_AdjustHSICalibrationValue            0x08000e33   Thumb Code    20  stm32f10x_rcc.o(.text)
    RCC_HSICmd                               0x08000e47   Thumb Code     6  stm32f10x_rcc.o(.text)
    RCC_PLLConfig                            0x08000e4d   Thumb Code    24  stm32f10x_rcc.o(.text)
    RCC_PLLCmd                               0x08000e65   Thumb Code     6  stm32f10x_rcc.o(.text)
    RCC_SYSCLKConfig                         0x08000e6b   Thumb Code    18  stm32f10x_rcc.o(.text)
    RCC_GetSYSCLKSource                      0x08000e7d   Thumb Code    10  stm32f10x_rcc.o(.text)
    RCC_HCLKConfig                           0x08000e87   Thumb Code    18  stm32f10x_rcc.o(.text)
    RCC_PCLK1Config                          0x08000e99   Thumb Code    18  stm32f10x_rcc.o(.text)
    RCC_PCLK2Config                          0x08000eab   Thumb Code    20  stm32f10x_rcc.o(.text)
    RCC_ITConfig                             0x08000ebf   Thumb Code    26  stm32f10x_rcc.o(.text)
    RCC_USBCLKConfig                         0x08000ed9   Thumb Code     8  stm32f10x_rcc.o(.text)
    RCC_ADCCLKConfig                         0x08000ee1   Thumb Code    18  stm32f10x_rcc.o(.text)
    RCC_LSEConfig                            0x08000ef3   Thumb Code    50  stm32f10x_rcc.o(.text)
    RCC_LSICmd                               0x08000f25   Thumb Code     6  stm32f10x_rcc.o(.text)
    RCC_RTCCLKConfig                         0x08000f2b   Thumb Code    12  stm32f10x_rcc.o(.text)
    RCC_RTCCLKCmd                            0x08000f37   Thumb Code     8  stm32f10x_rcc.o(.text)
    RCC_GetClocksFreq                        0x08000f3f   Thumb Code   192  stm32f10x_rcc.o(.text)
    RCC_AHBPeriphClockCmd                    0x08000fff   Thumb Code    26  stm32f10x_rcc.o(.text)
    RCC_APB2PeriphClockCmd                   0x08001019   Thumb Code    26  stm32f10x_rcc.o(.text)
    RCC_APB1PeriphClockCmd                   0x08001033   Thumb Code    26  stm32f10x_rcc.o(.text)
    RCC_APB2PeriphResetCmd                   0x0800104d   Thumb Code    26  stm32f10x_rcc.o(.text)
    RCC_APB1PeriphResetCmd                   0x08001067   Thumb Code    26  stm32f10x_rcc.o(.text)
    RCC_BackupResetCmd                       0x08001081   Thumb Code     8  stm32f10x_rcc.o(.text)
    RCC_ClockSecuritySystemCmd               0x08001089   Thumb Code     6  stm32f10x_rcc.o(.text)
    RCC_MCOConfig                            0x0800108f   Thumb Code     6  stm32f10x_rcc.o(.text)
    RCC_ClearFlag                            0x08001095   Thumb Code    14  stm32f10x_rcc.o(.text)
    RCC_GetITStatus                          0x080010a3   Thumb Code    20  stm32f10x_rcc.o(.text)
    RCC_ClearITPendingBit                    0x080010b7   Thumb Code     6  stm32f10x_rcc.o(.text)
    SPI_I2S_DeInit                           0x080010e1   Thumb Code    76  stm32f10x_spi.o(.text)
    SPI_Init                                 0x0800112d   Thumb Code    60  stm32f10x_spi.o(.text)
    I2S_Init                                 0x08001169   Thumb Code   226  stm32f10x_spi.o(.text)
    SPI_StructInit                           0x0800124b   Thumb Code    24  stm32f10x_spi.o(.text)
    I2S_StructInit                           0x08001263   Thumb Code    20  stm32f10x_spi.o(.text)
    SPI_Cmd                                  0x08001277   Thumb Code    24  stm32f10x_spi.o(.text)
    I2S_Cmd                                  0x0800128f   Thumb Code    24  stm32f10x_spi.o(.text)
    SPI_I2S_ITConfig                         0x080012a7   Thumb Code    32  stm32f10x_spi.o(.text)
    SPI_I2S_DMACmd                           0x080012c7   Thumb Code    18  stm32f10x_spi.o(.text)
    SPI_I2S_SendData                         0x080012d9   Thumb Code     4  stm32f10x_spi.o(.text)
    SPI_I2S_ReceiveData                      0x080012dd   Thumb Code     6  stm32f10x_spi.o(.text)
    SPI_NSSInternalSoftwareConfig            0x080012e3   Thumb Code    30  stm32f10x_spi.o(.text)
    SPI_SSOutputCmd                          0x08001301   Thumb Code    24  stm32f10x_spi.o(.text)
    SPI_DataSizeConfig                       0x08001319   Thumb Code    18  stm32f10x_spi.o(.text)
    SPI_TransmitCRC                          0x0800132b   Thumb Code    10  stm32f10x_spi.o(.text)
    SPI_CalculateCRC                         0x08001335   Thumb Code    24  stm32f10x_spi.o(.text)
    SPI_GetCRC                               0x0800134d   Thumb Code    16  stm32f10x_spi.o(.text)
    SPI_GetCRCPolynomial                     0x0800135d   Thumb Code     6  stm32f10x_spi.o(.text)
    SPI_BiDirectionalLineConfig              0x08001363   Thumb Code    28  stm32f10x_spi.o(.text)
    SPI_I2S_GetFlagStatus                    0x0800137f   Thumb Code    18  stm32f10x_spi.o(.text)
    SPI_I2S_ClearFlag                        0x08001391   Thumb Code     6  stm32f10x_spi.o(.text)
    SPI_I2S_GetITStatus                      0x08001397   Thumb Code    52  stm32f10x_spi.o(.text)
    SPI_I2S_ClearITPendingBit                0x080013cb   Thumb Code    20  stm32f10x_spi.o(.text)
    TIM_DeInit                               0x080013ed   Thumb Code   424  stm32f10x_tim.o(.text)
    TIM_TimeBaseInit                         0x08001595   Thumb Code   122  stm32f10x_tim.o(.text)
    TIM_OC1Init                              0x0800160f   Thumb Code   132  stm32f10x_tim.o(.text)
    TIM_OC2Init                              0x08001693   Thumb Code   154  stm32f10x_tim.o(.text)
    TIM_OC3Init                              0x0800172d   Thumb Code   150  stm32f10x_tim.o(.text)
    TIM_OC4Init                              0x080017c3   Thumb Code   182  stm32f10x_tim.o(.text)
    TIM_SetIC4Prescaler                      0x08001879   Thumb Code    26  stm32f10x_tim.o(.text)
    TIM_SetIC3Prescaler                      0x08001915   Thumb Code    18  stm32f10x_tim.o(.text)
    TIM_SetIC2Prescaler                      0x080019a1   Thumb Code    26  stm32f10x_tim.o(.text)
    TIM_SetIC1Prescaler                      0x08001a3d   Thumb Code    18  stm32f10x_tim.o(.text)
    TIM_ICInit                               0x08001abb   Thumb Code   150  stm32f10x_tim.o(.text)
    TIM_PWMIConfig                           0x08001b51   Thumb Code   124  stm32f10x_tim.o(.text)
    TIM_BDTRConfig                           0x08001bcd   Thumb Code    32  stm32f10x_tim.o(.text)
    TIM_TimeBaseStructInit                   0x08001bed   Thumb Code    18  stm32f10x_tim.o(.text)
    TIM_OCStructInit                         0x08001bff   Thumb Code    20  stm32f10x_tim.o(.text)
    TIM_ICStructInit                         0x08001c13   Thumb Code    18  stm32f10x_tim.o(.text)
    TIM_BDTRStructInit                       0x08001c25   Thumb Code    40  stm32f10x_tim.o(.text)
    TIM_Cmd                                  0x08001c4d   Thumb Code    24  stm32f10x_tim.o(.text)
    TIM_CtrlPWMOutputs                       0x08001c65   Thumb Code    30  stm32f10x_tim.o(.text)
    TIM_ITConfig                             0x08001c83   Thumb Code    18  stm32f10x_tim.o(.text)
    TIM_GenerateEvent                        0x08001c95   Thumb Code     4  stm32f10x_tim.o(.text)
    TIM_DMAConfig                            0x08001c99   Thumb Code    10  stm32f10x_tim.o(.text)
    TIM_DMACmd                               0x08001ca3   Thumb Code    18  stm32f10x_tim.o(.text)
    TIM_InternalClockConfig                  0x08001cb5   Thumb Code    12  stm32f10x_tim.o(.text)
    TIM_SelectInputTrigger                   0x08001cc1   Thumb Code    18  stm32f10x_tim.o(.text)
    TIM_ITRxExternalClockConfig              0x08001cd3   Thumb Code    24  stm32f10x_tim.o(.text)
    TIM_TIxExternalClockConfig               0x08001ceb   Thumb Code    62  stm32f10x_tim.o(.text)
    TIM_ETRConfig                            0x08001d29   Thumb Code    28  stm32f10x_tim.o(.text)
    TIM_ETRClockMode1Config                  0x08001d45   Thumb Code    54  stm32f10x_tim.o(.text)
    TIM_ETRClockMode2Config                  0x08001d7b   Thumb Code    32  stm32f10x_tim.o(.text)
    TIM_PrescalerConfig                      0x08001d9b   Thumb Code     6  stm32f10x_tim.o(.text)
    TIM_CounterModeConfig                    0x08001da1   Thumb Code    18  stm32f10x_tim.o(.text)
    TIM_EncoderInterfaceConfig               0x08001db3   Thumb Code    66  stm32f10x_tim.o(.text)
    TIM_ForcedOC1Config                      0x08001df5   Thumb Code    18  stm32f10x_tim.o(.text)
    TIM_ForcedOC2Config                      0x08001e07   Thumb Code    26  stm32f10x_tim.o(.text)
    TIM_ForcedOC3Config                      0x08001e21   Thumb Code    18  stm32f10x_tim.o(.text)
    TIM_ForcedOC4Config                      0x08001e33   Thumb Code    26  stm32f10x_tim.o(.text)
    TIM_ARRPreloadConfig                     0x08001e4d   Thumb Code    24  stm32f10x_tim.o(.text)
    TIM_SelectCOM                            0x08001e65   Thumb Code    24  stm32f10x_tim.o(.text)
    TIM_SelectCCDMA                          0x08001e7d   Thumb Code    24  stm32f10x_tim.o(.text)
    TIM_CCPreloadControl                     0x08001e95   Thumb Code    24  stm32f10x_tim.o(.text)
    TIM_OC1PreloadConfig                     0x08001ead   Thumb Code    18  stm32f10x_tim.o(.text)
    TIM_OC2PreloadConfig                     0x08001ebf   Thumb Code    26  stm32f10x_tim.o(.text)
    TIM_OC3PreloadConfig                     0x08001ed9   Thumb Code    18  stm32f10x_tim.o(.text)
    TIM_OC4PreloadConfig                     0x08001eeb   Thumb Code    26  stm32f10x_tim.o(.text)
    TIM_OC1FastConfig                        0x08001f05   Thumb Code    18  stm32f10x_tim.o(.text)
    TIM_OC2FastConfig                        0x08001f17   Thumb Code    26  stm32f10x_tim.o(.text)
    TIM_OC3FastConfig                        0x08001f31   Thumb Code    18  stm32f10x_tim.o(.text)
    TIM_OC4FastConfig                        0x08001f43   Thumb Code    26  stm32f10x_tim.o(.text)
    TIM_ClearOC1Ref                          0x08001f5d   Thumb Code    18  stm32f10x_tim.o(.text)
    TIM_ClearOC2Ref                          0x08001f6f   Thumb Code    24  stm32f10x_tim.o(.text)
    TIM_ClearOC3Ref                          0x08001f87   Thumb Code    18  stm32f10x_tim.o(.text)
    TIM_ClearOC4Ref                          0x08001f99   Thumb Code    24  stm32f10x_tim.o(.text)
    TIM_OC1PolarityConfig                    0x08001fb1   Thumb Code    18  stm32f10x_tim.o(.text)
    TIM_OC1NPolarityConfig                   0x08001fc3   Thumb Code    18  stm32f10x_tim.o(.text)
    TIM_OC2PolarityConfig                    0x08001fd5   Thumb Code    26  stm32f10x_tim.o(.text)
    TIM_OC2NPolarityConfig                   0x08001fef   Thumb Code    26  stm32f10x_tim.o(.text)
    TIM_OC3PolarityConfig                    0x08002009   Thumb Code    26  stm32f10x_tim.o(.text)
    TIM_OC3NPolarityConfig                   0x08002023   Thumb Code    26  stm32f10x_tim.o(.text)
    TIM_OC4PolarityConfig                    0x0800203d   Thumb Code    26  stm32f10x_tim.o(.text)
    TIM_CCxCmd                               0x08002057   Thumb Code    30  stm32f10x_tim.o(.text)
    TIM_CCxNCmd                              0x08002075   Thumb Code    30  stm32f10x_tim.o(.text)
    TIM_SelectOCxM                           0x08002093   Thumb Code    82  stm32f10x_tim.o(.text)
    TIM_UpdateDisableConfig                  0x080020e5   Thumb Code    24  stm32f10x_tim.o(.text)
    TIM_UpdateRequestConfig                  0x080020fd   Thumb Code    24  stm32f10x_tim.o(.text)
    TIM_SelectHallSensor                     0x08002115   Thumb Code    24  stm32f10x_tim.o(.text)
    TIM_SelectOnePulseMode                   0x0800212d   Thumb Code    18  stm32f10x_tim.o(.text)
    TIM_SelectOutputTrigger                  0x0800213f   Thumb Code    18  stm32f10x_tim.o(.text)
    TIM_SelectSlaveMode                      0x08002151   Thumb Code    18  stm32f10x_tim.o(.text)
    TIM_SelectMasterSlaveMode                0x08002163   Thumb Code    18  stm32f10x_tim.o(.text)
    TIM_SetCounter                           0x08002175   Thumb Code     4  stm32f10x_tim.o(.text)
    TIM_SetAutoreload                        0x08002179   Thumb Code     4  stm32f10x_tim.o(.text)
    TIM_SetCompare1                          0x0800217d   Thumb Code     4  stm32f10x_tim.o(.text)
    TIM_SetCompare2                          0x08002181   Thumb Code     4  stm32f10x_tim.o(.text)
    TIM_SetCompare3                          0x08002185   Thumb Code     4  stm32f10x_tim.o(.text)
    TIM_SetCompare4                          0x08002189   Thumb Code     6  stm32f10x_tim.o(.text)
    TIM_SetClockDivision                     0x0800218f   Thumb Code    18  stm32f10x_tim.o(.text)
    TIM_GetCapture1                          0x080021a1   Thumb Code     6  stm32f10x_tim.o(.text)
    TIM_GetCapture2                          0x080021a7   Thumb Code     6  stm32f10x_tim.o(.text)
    TIM_GetCapture3                          0x080021ad   Thumb Code     6  stm32f10x_tim.o(.text)
    TIM_GetCapture4                          0x080021b3   Thumb Code     8  stm32f10x_tim.o(.text)
    TIM_GetCounter                           0x080021bb   Thumb Code     6  stm32f10x_tim.o(.text)
    TIM_GetPrescaler                         0x080021c1   Thumb Code     6  stm32f10x_tim.o(.text)
    TIM_GetFlagStatus                        0x080021c7   Thumb Code    18  stm32f10x_tim.o(.text)
    TIM_ClearFlag                            0x080021d9   Thumb Code     6  stm32f10x_tim.o(.text)
    TIM_GetITStatus                          0x080021df   Thumb Code    34  stm32f10x_tim.o(.text)
    TIM_ClearITPendingBit                    0x08002201   Thumb Code     6  stm32f10x_tim.o(.text)
    USART_DeInit                             0x08002209   Thumb Code   134  stm32f10x_usart.o(.text)
    USART_Init                               0x0800228f   Thumb Code   210  stm32f10x_usart.o(.text)
    USART_StructInit                         0x08002361   Thumb Code    24  stm32f10x_usart.o(.text)
    USART_ClockInit                          0x08002379   Thumb Code    34  stm32f10x_usart.o(.text)
    USART_ClockStructInit                    0x0800239b   Thumb Code    12  stm32f10x_usart.o(.text)
    USART_Cmd                                0x080023a7   Thumb Code    24  stm32f10x_usart.o(.text)
    USART_ITConfig                           0x080023bf   Thumb Code    74  stm32f10x_usart.o(.text)
    USART_DMACmd                             0x08002409   Thumb Code    18  stm32f10x_usart.o(.text)
    USART_SetAddress                         0x0800241b   Thumb Code    18  stm32f10x_usart.o(.text)
    USART_WakeUpConfig                       0x0800242d   Thumb Code    18  stm32f10x_usart.o(.text)
    USART_ReceiverWakeUpCmd                  0x0800243f   Thumb Code    24  stm32f10x_usart.o(.text)
    USART_LINBreakDetectLengthConfig         0x08002457   Thumb Code    18  stm32f10x_usart.o(.text)
    USART_LINCmd                             0x08002469   Thumb Code    24  stm32f10x_usart.o(.text)
    USART_SendData                           0x08002481   Thumb Code     8  stm32f10x_usart.o(.text)
    USART_ReceiveData                        0x08002489   Thumb Code    10  stm32f10x_usart.o(.text)
    USART_SendBreak                          0x08002493   Thumb Code    10  stm32f10x_usart.o(.text)
    USART_SetGuardTime                       0x0800249d   Thumb Code    16  stm32f10x_usart.o(.text)
    USART_SetPrescaler                       0x080024ad   Thumb Code    16  stm32f10x_usart.o(.text)
    USART_SmartCardCmd                       0x080024bd   Thumb Code    24  stm32f10x_usart.o(.text)
    USART_SmartCardNACKCmd                   0x080024d5   Thumb Code    24  stm32f10x_usart.o(.text)
    USART_HalfDuplexCmd                      0x080024ed   Thumb Code    24  stm32f10x_usart.o(.text)
    USART_OverSampling8Cmd                   0x08002505   Thumb Code    22  stm32f10x_usart.o(.text)
    USART_OneBitMethodCmd                    0x0800251b   Thumb Code    24  stm32f10x_usart.o(.text)
    USART_IrDAConfig                         0x08002533   Thumb Code    18  stm32f10x_usart.o(.text)
    USART_IrDACmd                            0x08002545   Thumb Code    24  stm32f10x_usart.o(.text)
    USART_GetFlagStatus                      0x0800255d   Thumb Code    26  stm32f10x_usart.o(.text)
    USART_ClearFlag                          0x08002577   Thumb Code    18  stm32f10x_usart.o(.text)
    USART_GetITStatus                        0x08002589   Thumb Code    84  stm32f10x_usart.o(.text)
    USART_ClearITPendingBit                  0x080025dd   Thumb Code    52  stm32f10x_usart.o(.text)
    main                                     0x08002611   Thumb Code    70  main.o(.text)
    NMI_Handler                              0x08002695   Thumb Code     2  stm32f10x_it.o(.text)
    HardFault_Handler                        0x08002697   Thumb Code     4  stm32f10x_it.o(.text)
    MemManage_Handler                        0x0800269b   Thumb Code     4  stm32f10x_it.o(.text)
    BusFault_Handler                         0x0800269f   Thumb Code     4  stm32f10x_it.o(.text)
    UsageFault_Handler                       0x080026a3   Thumb Code     4  stm32f10x_it.o(.text)
    SVC_Handler                              0x080026a7   Thumb Code     2  stm32f10x_it.o(.text)
    DebugMon_Handler                         0x080026a9   Thumb Code     2  stm32f10x_it.o(.text)
    PendSV_Handler                           0x080026ab   Thumb Code     2  stm32f10x_it.o(.text)
    TIM2_IRQHandler                          0x080026ad   Thumb Code    28  stm32f10x_it.o(.text)
    USART1_IRQHandler                        0x080026c9   Thumb Code     2  stm32f10x_it.o(.text)
    at24c16_init                             0x080026cd   Thumb Code    56  at24c16.o(.text)
    at24c16_start                            0x08002705   Thumb Code    42  at24c16.o(.text)
    at24c16_stop                             0x0800272f   Thumb Code    34  at24c16.o(.text)
    write_1byte                              0x08002751   Thumb Code   112  at24c16.o(.text)
    read_1byte                               0x080027c1   Thumb Code   100  at24c16.o(.text)
    clock                                    0x08002825   Thumb Code    56  at24c16.o(.text)
    at24c16_write                            0x0800285d   Thumb Code    80  at24c16.o(.text)
    at24c16_read                             0x080028ad   Thumb Code    70  at24c16.o(.text)
    eep_block_write                          0x080028f3   Thumb Code    42  at24c16.o(.text)
    erase_eeprom                             0x0800291d   Thumb Code    32  at24c16.o(.text)
    GPIO_Configuration                       0x08002941   Thumb Code   176  mcu_init.o(.text)
    RCC_Configuration                        0x080029f1   Thumb Code   124  mcu_init.o(.text)
    NVIC_Configuration                       0x08002a6d   Thumb Code   112  mcu_init.o(.text)
    Timer_Configuration                      0x08002add   Thumb Code    72  mcu_init.o(.text)
    Timer2_ISR                               0x08002b25   Thumb Code   108  mcu_init.o(.text)
    Systick_Init                             0x08002bb1   Thumb Code    56  util.o(.text)
    Delay_ms                                 0x08002be9   Thumb Code    56  util.o(.text)
    Delay_s                                  0x08002c21   Thumb Code    22  util.o(.text)
    Delay_us                                 0x08002c37   Thumb Code    56  util.o(.text)
    fputc                                    0x08002c6f   Thumb Code    46  util.o(.text)
    C2D                                      0x08002c9d   Thumb Code    54  util.o(.text)
    ATOI                                     0x08002cd3   Thumb Code    32  util.o(.text)
    ATOI32                                   0x08002cf3   Thumb Code    32  util.o(.text)
    itoa                                     0x08002d13   Thumb Code    64  util.o(.text)
    ValidATOI                                0x08002d53   Thumb Code    72  util.o(.text)
    replacetochar                            0x08002d9b   Thumb Code    26  util.o(.text)
    swaps                                    0x08002db5   Thumb Code    14  util.o(.text)
    swapl                                    0x08002dc3   Thumb Code    28  util.o(.text)
    mid                                      0x08002ddf   Thumb Code    68  util.o(.text)
    inet_addr_                               0x08002e23   Thumb Code    90  util.o(.text)
    Reset_W5500                              0x08002e8d   Thumb Code    36  device.o(.text)
    reboot                                   0x08002eb1   Thumb Code    12  device.o(.text)
    USART1_Init                              0x08002ebd   Thumb Code    62  device.o(.text)
    set_network                              0x08002efb   Thumb Code   146  device.o(.text)
    write_config_to_eeprom                   0x08002f8d   Thumb Code    44  device.o(.text)
    set_default                              0x08002fb9   Thumb Code   100  device.o(.text)
    get_config                               0x0800301d   Thumb Code    96  device.o(.text)
    default_ip_assign                        0x080030e5   Thumb Code    22  dhcp.o(.text)
    default_ip_update                        0x080030fb   Thumb Code    26  dhcp.o(.text)
    default_ip_conflict                      0x08003115   Thumb Code    22  dhcp.o(.text)
    reset_DHCP_timeout                       0x0800312b   Thumb Code    20  dhcp.o(.text)
    makeDHCPMSG                              0x0800313f   Thumb Code   392  dhcp.o(.text)
    send_DHCP_DISCOVER                       0x080032c7   Thumb Code   486  dhcp.o(.text)
    send_DHCP_REQUEST                        0x080034ad   Thumb Code   948  dhcp.o(.text)
    check_DHCP_timeout                       0x08003861   Thumb Code   170  dhcp.o(.text)
    send_DHCP_DECLINE                        0x0800390b   Thumb Code   676  dhcp.o(.text)
    parseDHCPMSG                             0x08003baf   Thumb Code   494  dhcp.o(.text)
    check_DHCP_Timeout                       0x08003d9d   Thumb Code   260  dhcp.o(.text)
    check_DHCP_leasedIP                      0x08003ea1   Thumb Code    96  dhcp.o(.text)
    DHCP_timer_handler                       0x08003f01   Thumb Code    36  dhcp.o(.text)
    init_dhcp_client                         0x08003f25   Thumb Code   138  dhcp.o(.text)
    DHCP_run                                 0x08003faf   Thumb Code   524  dhcp.o(.text)
    WIZ_SPI_Init                             0x080043b5   Thumb Code    80  spi2.o(.text)
    WIZ_CS                                   0x08004405   Thumb Code    30  spi2.o(.text)
    SPI2_SendByte                            0x08004423   Thumb Code    50  spi2.o(.text)
    getISR                                   0x0800445d   Thumb Code     8  w5500.o(.text)
    putISR                                   0x08004465   Thumb Code     6  w5500.o(.text)
    getIINCHIP_RxMAX                         0x0800446b   Thumb Code    10  w5500.o(.text)
    getIINCHIP_TxMAX                         0x08004475   Thumb Code    10  w5500.o(.text)
    IINCHIP_CSoff                            0x0800447f   Thumb Code    10  w5500.o(.text)
    IINCHIP_CSon                             0x08004489   Thumb Code    10  w5500.o(.text)
    IINCHIP_SpiSendData                      0x08004493   Thumb Code    12  w5500.o(.text)
    IINCHIP_WRITE                            0x0800449f   Thumb Code    50  w5500.o(.text)
    IINCHIP_READ                             0x080044d1   Thumb Code    50  w5500.o(.text)
    wiz_write_buf                            0x08004503   Thumb Code    80  w5500.o(.text)
    wiz_read_buf                             0x08004553   Thumb Code    78  w5500.o(.text)
    setMR                                    0x080045a1   Thumb Code    14  w5500.o(.text)
    iinchip_init                             0x080045af   Thumb Code    10  w5500.o(.text)
    sysinit                                  0x080045b9   Thumb Code   302  w5500.o(.text)
    setGAR                                   0x080046e7   Thumb Code    16  w5500.o(.text)
    getGWIP                                  0x080046f7   Thumb Code    16  w5500.o(.text)
    setSUBR                                  0x08004707   Thumb Code    18  w5500.o(.text)
    setSHAR                                  0x08004719   Thumb Code    18  w5500.o(.text)
    setSIPR                                  0x0800472b   Thumb Code    18  w5500.o(.text)
    getGAR                                   0x0800473d   Thumb Code    16  w5500.o(.text)
    getSUBR                                  0x0800474d   Thumb Code    18  w5500.o(.text)
    getSHAR                                  0x0800475f   Thumb Code    18  w5500.o(.text)
    getSIPR                                  0x08004771   Thumb Code    18  w5500.o(.text)
    getMR                                    0x08004783   Thumb Code    10  w5500.o(.text)
    getIR                                    0x0800478d   Thumb Code    12  w5500.o(.text)
    getRCR                                   0x08004799   Thumb Code    12  w5500.o(.text)
    setRTR                                   0x080047a5   Thumb Code    26  w5500.o(.text)
    setRCR                                   0x080047bf   Thumb Code    16  w5500.o(.text)
    clearIR                                  0x080047cf   Thumb Code    26  w5500.o(.text)
    setSn_MSS                                0x080047e9   Thumb Code    36  w5500.o(.text)
    setSn_TTL                                0x0800480d   Thumb Code    22  w5500.o(.text)
    getSn_IR                                 0x08004823   Thumb Code    18  w5500.o(.text)
    getSn_SR                                 0x08004835   Thumb Code    56  w5500.o(.text)
    getSn_TX_FSR                             0x0800486d   Thumb Code    84  w5500.o(.text)
    getSn_RX_RSR                             0x080048c1   Thumb Code    84  w5500.o(.text)
    send_data_processing                     0x08004915   Thumb Code   116  w5500.o(.text)
    recv_data_processing                     0x08004989   Thumb Code   116  w5500.o(.text)
    setSn_IR                                 0x080049fd   Thumb Code    22  w5500.o(.text)
    close                                    0x08004a55   Thumb Code    52  socket.o(.text)
    socket                                   0x08004a89   Thumb Code   192  socket.o(.text)
    listen                                   0x08004b49   Thumb Code    62  socket.o(.text)
    connect                                  0x08004b87   Thumb Code   248  socket.o(.text)
    disconnect                               0x08004c7f   Thumb Code    38  socket.o(.text)
    send                                     0x08004ca5   Thumb Code   216  socket.o(.text)
    recv                                     0x08004d7d   Thumb Code    66  socket.o(.text)
    sendto                                   0x08004dbf   Thumb Code   268  socket.o(.text)
    recvfrom                                 0x08004ecb   Thumb Code   510  socket.o(.text)
    __aeabi_memset                           0x080050e1   Thumb Code    14  memseta.o(.text)
    __aeabi_memset4                          0x080050e1   Thumb Code     0  memseta.o(.text)
    __aeabi_memset8                          0x080050e1   Thumb Code     0  memseta.o(.text)
    __aeabi_memclr                           0x080050ef   Thumb Code     4  memseta.o(.text)
    __aeabi_memclr4                          0x080050ef   Thumb Code     0  memseta.o(.text)
    __aeabi_memclr8                          0x080050ef   Thumb Code     0  memseta.o(.text)
    _memset$wrapper                          0x080050f3   Thumb Code    18  memseta.o(.text)
    strstr                                   0x08005105   Thumb Code    36  strstr.o(.text)
    strncpy                                  0x08005129   Thumb Code    24  strncpy.o(.text)
    strlen                                   0x08005141   Thumb Code    14  strlen.o(.text)
    strcpy                                   0x0800514f   Thumb Code    18  strcpy.o(.text)
    strtok                                   0x08005161   Thumb Code    62  strtok.o(.text)
    __aeabi_uldivmod                         0x080051a5   Thumb Code    98  uldiv.o(.text)
    __scatterload                            0x08005209   Thumb Code    28  init.o(.text)
    __scatterload_rt2                        0x08005209   Thumb Code     0  init.o(.text)
    __aeabi_llsl                             0x0800522d   Thumb Code    30  llshl.o(.text)
    _ll_shift_l                              0x0800522d   Thumb Code     0  llshl.o(.text)
    __aeabi_llsr                             0x0800524b   Thumb Code    32  llushr.o(.text)
    _ll_ushift_r                             0x0800524b   Thumb Code     0  llushr.o(.text)
    __0printf$8                              0x0800526d   Thumb Code    22  printf8.o(i.__0printf$8)
    __1printf$8                              0x0800526d   Thumb Code     0  printf8.o(i.__0printf$8)
    __2printf                                0x0800526d   Thumb Code     0  printf8.o(i.__0printf$8)
    __0sprintf$8                             0x0800528d   Thumb Code    34  printf8.o(i.__0sprintf$8)
    __1sprintf$8                             0x0800528d   Thumb Code     0  printf8.o(i.__0sprintf$8)
    __2sprintf                               0x0800528d   Thumb Code     0  printf8.o(i.__0sprintf$8)
    __scatterload_copy                       0x080052b5   Thumb Code    14  handlers.o(i.__scatterload_copy)
    __scatterload_null                       0x080052c3   Thumb Code     2  handlers.o(i.__scatterload_null)
    __scatterload_zeroinit                   0x080052c5   Thumb Code    14  handlers.o(i.__scatterload_zeroinit)
    Region$$Table$$Base                      0x08005740   Number         0  anon$$obj.o(Region$$Table)
    Region$$Table$$Limit                     0x08005760   Number         0  anon$$obj.o(Region$$Table)
    SystemCoreClock                          0x20000000   Data           4  system_stm32f10x.o(.data)
    AHBPrescTable                            0x20000004   Data          16  system_stm32f10x.o(.data)
    ms                                       0x20000028   Data           4  mcu_init.o(.data)
    sec                                      0x2000002c   Data           1  mcu_init.o(.data)
    min                                      0x2000002d   Data           1  mcu_init.o(.data)
    hour                                     0x2000002e   Data           1  mcu_init.o(.data)
    txsize                                   0x20000034   Data           8  device.o(.data)
    rxsize                                   0x2000003c   Data           8  device.o(.data)
    DHCP_CHADDR                              0x20000044   Data           4  dhcp.o(.data)
    GET_SN_MASK                              0x20000048   Data           4  dhcp.o(.data)
    GET_GW_IP                                0x2000004c   Data           4  dhcp.o(.data)
    GET_DNS_IP                               0x20000050   Data           4  dhcp.o(.data)
    GET_SIP                                  0x20000054   Data           4  dhcp.o(.data)
    DHCP_SIP                                 0x20000058   Data           4  dhcp.o(.data)
    DHCP_REAL_SIP                            0x2000005c   Data           4  dhcp.o(.data)
    OLD_SIP                                  0x20000060   Data           4  dhcp.o(.data)
    dhcp_tick_next                           0x20000064   Data           4  dhcp.o(.data)
    OLD_allocated_ip                         0x20000068   Data           4  dhcp.o(.data)
    DHCP_allocated_ip                        0x2000006c   Data           4  dhcp.o(.data)
    DHCP_allocated_gw                        0x20000070   Data           4  dhcp.o(.data)
    DHCP_allocated_sn                        0x20000074   Data           4  dhcp.o(.data)
    DHCP_allocated_dns                       0x20000078   Data           4  dhcp.o(.data)
    HOST_NAME                                0x2000007c   Data          12  dhcp.o(.data)
    dhcp_state                               0x20000088   Data           1  dhcp.o(.data)
    dhcp_retry_count                         0x20000089   Data           1  dhcp.o(.data)
    DHCP_timeout                             0x2000008a   Data           1  dhcp.o(.data)
    dhcp_lease_time                          0x2000008c   Data           4  dhcp.o(.data)
    dhcp_time                                0x20000090   Data           4  dhcp.o(.data)
    next_dhcp_time                           0x20000094   Data           4  dhcp.o(.data)
    dhcp_tick_cnt                            0x20000098   Data           4  dhcp.o(.data)
    DHCP_timer                               0x2000009c   Data           1  dhcp.o(.data)
    DHCP_XID                                 0x200000a0   Data           4  dhcp.o(.data)
    pDHCPMSG                                 0x200000a4   Data           4  dhcp.o(.data)
    dhcp_ip_assign                           0x200000a8   Data           4  dhcp.o(.data)
    dhcp_ip_update                           0x200000ac   Data           4  dhcp.o(.data)
    dhcp_ip_conflict                         0x200000b0   Data           4  dhcp.o(.data)
    __stdout                                 0x200000c4   Data           4  stdout.o(.data)
    ConfigMsg                                0x200000c8   Data          33  device.o(.bss)
    RecvMsg                                  0x200000e9   Data          33  device.o(.bss)
    pub_buf                                  0x2000010a   Data        1460  device.o(.bss)
    EXTERN_DHCPBUF                           0x200006be   Data        1024  dhcp.o(.bss)
    __initial_sp                             0x20000ee0   Data           0  startup_stm32f10x_hd.o(STACK)



==============================================================================

Memory Map of the image

  Image Entry point : 0x08000131

  Load Region LR_IROM1 (Base: 0x08000000, Size: 0x00005828, Max: 0x00040000, ABSOLUTE)

    Execution Region ER_IROM1 (Base: 0x08000000, Size: 0x00005760, Max: 0x00040000, ABSOLUTE)

    Base Addr    Size         Type   Attr      Idx    E Section Name        Object

    0x08000000   0x00000130   Data   RO            3    RESET               startup_stm32f10x_hd.o
    0x08000130   0x00000000   Code   RO          663  * .ARM.Collect$$$$00000000  mc_w.l(entry.o)
    0x08000130   0x00000004   Code   RO          947    .ARM.Collect$$$$00000001  mc_w.l(entry2.o)
    0x08000134   0x00000004   Code   RO          950    .ARM.Collect$$$$00000004  mc_w.l(entry5.o)
    0x08000138   0x00000000   Code   RO          952    .ARM.Collect$$$$00000008  mc_w.l(entry7b.o)
    0x08000138   0x00000000   Code   RO          954    .ARM.Collect$$$$0000000A  mc_w.l(entry8b.o)
    0x08000138   0x00000008   Code   RO          955    .ARM.Collect$$$$0000000B  mc_w.l(entry9a.o)
    0x08000140   0x00000000   Code   RO          957    .ARM.Collect$$$$0000000D  mc_w.l(entry10a.o)
    0x08000140   0x00000000   Code   RO          959    .ARM.Collect$$$$0000000F  mc_w.l(entry11a.o)
    0x08000140   0x00000004   Code   RO          948    .ARM.Collect$$$$00002712  mc_w.l(entry2.o)
    0x08000144   0x00000024   Code   RO            4    .text               startup_stm32f10x_hd.o
    0x08000168   0x000001e0   Code   RO           24    .text               system_stm32f10x.o
    0x08000348   0x000000dc   Code   RO          121    .text               misc.o
    0x08000424   0x000005bc   Code   RO          245    .text               stm32f10x_flash.o
    0x080009e0   0x0000035c   Code   RO          269    .text               stm32f10x_gpio.o
    0x08000d3c   0x000003a4   Code   RO          317    .text               stm32f10x_rcc.o
    0x080010e0   0x0000030c   Code   RO          355    .text               stm32f10x_spi.o
    0x080013ec   0x00000e1a   Code   RO          367    .text               stm32f10x_tim.o
    0x08002206   0x00000002   PAD
    0x08002208   0x00000408   Code   RO          379    .text               stm32f10x_usart.o
    0x08002610   0x00000084   Code   RO          403    .text               main.o
    0x08002694   0x00000036   Code   RO          457    .text               stm32f10x_it.o
    0x080026ca   0x00000002   PAD
    0x080026cc   0x00000274   Code   RO          472    .text               at24c16.o
    0x08002940   0x00000270   Code   RO          484    .text               mcu_init.o
    0x08002bb0   0x000002dc   Code   RO          529    .text               util.o
    0x08002e8c   0x00000258   Code   RO          550    .text               device.o
    0x080030e4   0x000012d0   Code   RO          569    .text               dhcp.o
    0x080043b4   0x000000a8   Code   RO          618    .text               spi2.o
    0x0800445c   0x000005f8   Code   RO          630    .text               w5500.o
    0x08004a54   0x0000068c   Code   RO          648    .text               socket.o
    0x080050e0   0x00000024   Code   RO          668    .text               mc_w.l(memseta.o)
    0x08005104   0x00000024   Code   RO          670    .text               mc_w.l(strstr.o)
    0x08005128   0x00000018   Code   RO          672    .text               mc_w.l(strncpy.o)
    0x08005140   0x0000000e   Code   RO          674    .text               mc_w.l(strlen.o)
    0x0800514e   0x00000012   Code   RO          676    .text               mc_w.l(strcpy.o)
    0x08005160   0x00000044   Code   RO          678    .text               mc_w.l(strtok.o)
    0x080051a4   0x00000062   Code   RO          964    .text               mc_w.l(uldiv.o)
    0x08005206   0x00000002   PAD
    0x08005208   0x00000024   Code   RO          977    .text               mc_w.l(init.o)
    0x0800522c   0x0000001e   Code   RO          979    .text               mc_w.l(llshl.o)
    0x0800524a   0x00000020   Code   RO          981    .text               mc_w.l(llushr.o)
    0x0800526a   0x00000002   PAD
    0x0800526c   0x00000020   Code   RO          893    i.__0printf$8       mc_w.l(printf8.o)
    0x0800528c   0x00000028   Code   RO          895    i.__0sprintf$8      mc_w.l(printf8.o)
    0x080052b4   0x0000000e   Code   RO          989    i.__scatterload_copy  mc_w.l(handlers.o)
    0x080052c2   0x00000002   Code   RO          990    i.__scatterload_null  mc_w.l(handlers.o)
    0x080052c4   0x0000000e   Code   RO          991    i.__scatterload_zeroinit  mc_w.l(handlers.o)
    0x080052d2   0x00000002   PAD
    0x080052d4   0x00000410   Code   RO          900    i._printf_core      mc_w.l(printf8.o)
    0x080056e4   0x00000024   Code   RO          901    i._printf_post_padding  mc_w.l(printf8.o)
    0x08005708   0x0000002e   Code   RO          902    i._printf_pre_padding  mc_w.l(printf8.o)
    0x08005736   0x0000000a   Code   RO          904    i._sputc            mc_w.l(printf8.o)
    0x08005740   0x00000020   Data   RO          987    Region$$Table       anon$$obj.o


    Execution Region RW_IRAM1 (Base: 0x20000000, Size: 0x00000ee0, Max: 0x0000c000, ABSOLUTE)

    Base Addr    Size         Type   Attr      Idx    E Section Name        Object

    0x20000000   0x00000014   Data   RW           25    .data               system_stm32f10x.o
    0x20000014   0x00000014   Data   RW          318    .data               stm32f10x_rcc.o
    0x20000028   0x00000007   Data   RW          485    .data               mcu_init.o
    0x2000002f   0x00000001   PAD
    0x20000030   0x00000004   Data   RW          530    .data               util.o
    0x20000034   0x00000010   Data   RW          552    .data               device.o
    0x20000044   0x00000070   Data   RW          571    .data               dhcp.o
    0x200000b4   0x00000008   Data   RW          632    .data               w5500.o
    0x200000bc   0x00000002   Data   RW          649    .data               socket.o
    0x200000be   0x00000002   PAD
    0x200000c0   0x00000004   Data   RW          679    .data               mc_w.l(strtok.o)
    0x200000c4   0x00000004   Data   RW          961    .data               mc_w.l(stdout.o)
    0x200000c8   0x000005f6   Zero   RW          551    .bss                device.o
    0x200006be   0x00000400   Zero   RW          570    .bss                dhcp.o
    0x20000abe   0x00000020   Zero   RW          631    .bss                w5500.o
    0x20000ade   0x00000002   PAD
    0x20000ae0   0x00000400   Zero   RW            1    STACK               startup_stm32f10x_hd.o


==============================================================================

Image component sizes


      Code (inc. data)   RO Data    RW Data    ZI Data      Debug   Object Name

       628          4          0          0          0       2759   at24c16.o
         0          0          0          0          0       4496   core_cm3.o
       600        104          0         16       1526       4501   device.o
      4816        916          0        112       1024      11188   dhcp.o
       132         62          0          0          0       1851   main.o
       624         32          0          7          0       1755   mcu_init.o
       220         22          0          0          0       1793   misc.o
      1676         48          0          2          0       4222   socket.o
       168          8          0          0          0        908   spi2.o
        36          8        304          0       1024        860   startup_stm32f10x_hd.o
      1468         34          0          0          0       8030   stm32f10x_flash.o
       860         38          0          0          0       5645   stm32f10x_gpio.o
        54          0          0          0          0       1400   stm32f10x_it.o
       932         36          0         20          0       8820   stm32f10x_rcc.o
       780         14          0          0          0       6522   stm32f10x_spi.o
      3610         88          0          0          0      22128   stm32f10x_tim.o
      1032         22          0          0          0       8364   stm32f10x_usart.o
       480         38          0         20          0     263467   system_stm32f10x.o
       732         16          0          4          0       6319   util.o
      1528        104          0          8         32       8132   w5500.o

    ----------------------------------------------------------------------
     20380       1594        336        192       3608     373160   Object Totals
         0          0         32          0          0          0   (incl. Generated)
         4          0          0          3          2          0   (incl. Padding)

    ----------------------------------------------------------------------

      Code (inc. data)   RO Data    RW Data    ZI Data      Debug   Library Member Name

         0          0          0          0          0          0   entry.o
         0          0          0          0          0          0   entry10a.o
         0          0          0          0          0          0   entry11a.o
         8          4          0          0          0          0   entry2.o
         4          0          0          0          0          0   entry5.o
         0          0          0          0          0          0   entry7b.o
         0          0          0          0          0          0   entry8b.o
         8          4          0          0          0          0   entry9a.o
        30          0          0          0          0          0   handlers.o
        36          8          0          0          0         68   init.o
        30          0          0          0          0         68   llshl.o
        32          0          0          0          0         68   llushr.o
        36          0          0          0          0        108   memseta.o
      1204         60          0          0          0        504   printf8.o
         0          0          0          4          0          0   stdout.o
        18          0          0          0          0         68   strcpy.o
        14          0          0          0          0         68   strlen.o
        24          0          0          0          0         76   strncpy.o
        36          0          0          0          0         80   strstr.o
        68          6          0          4          0         80   strtok.o
        98          0          0          0          0         92   uldiv.o

    ----------------------------------------------------------------------
      1652         82          0          8          0       1280   Library Totals
         6          0          0          0          0          0   (incl. Padding)

    ----------------------------------------------------------------------

      Code (inc. data)   RO Data    RW Data    ZI Data      Debug   Library Name

      1646         82          0          8          0       1280   mc_w.l

    ----------------------------------------------------------------------
      1652         82          0          8          0       1280   Library Totals

    ----------------------------------------------------------------------

==============================================================================


      Code (inc. data)   RO Data    RW Data    ZI Data      Debug   

     22032       1676        336        200       3608     371992   Grand Totals
     22032       1676        336        200       3608     371992   ELF Image Totals
     22032       1676        336        200          0          0   ROM Totals

==============================================================================

    Total RO  Size (Code + RO Data)                22368 (  21.84kB)
    Total RW  Size (RW Data + ZI Data)              3808 (   3.72kB)
    Total ROM Size (Code + RO Data + RW Data)      22568 (  22.04kB)

==============================================================================

