:020000040800F2
:10000000E00E00204501000895260008972600080C
:100010009B2600089F260008A32600080000000079
:10002000000000000000000000000000A7260008FB
:10003000A926000800000000AB2600085D010008AA
:100040005F0100085F0100085F0100085F01000810
:100050005F0100085F0100085F0100085F01000800
:100060005F0100085F0100085F0100085F010008F0
:100070005F0100085F0100085F0100085F010008E0
:100080005F0100085F0100085F0100085F010008D0
:100090005F0100085F0100085F0100085F010008C0
:1000A0005F0100085F0100085F0100085F010008B0
:1000B000AD2600085F0100085F0100085F0100082D
:1000C0005F0100085F0100085F0100085F01000890
:1000D0005F010008C92600085F0100085F010008F1
:1000E0005F0100085F0100085F0100085F01000870
:1000F0005F0100085F0100085F0100085F01000860
:100100005F0100085F0100085F0100085F0100084F
:100110005F0100085F0100085F0100085F0100083F
:100120005F0100085F0100085F0100085F0100082F
:10013000DFF80CD005F068F80048004711260008E9
:10014000E00E00200648804706480047FEE7FEE72D
:10015000FEE7FEE7FEE7FEE7FEE7FEE7FEE7FEE777
:1001600047020008310100080CB500200190009002
:100170006C48006840F480306A49086000BF6948F4
:10018000006800F4003000900198401C0190009835
:1001900018B90198B0F5A06FF1D16248006800F479
:1001A000003010B10120009001E000200090009884
:1001B000012843D15C48006840F010005A490860AB
:1001C0000846006820F0030008600846006840F018
:1001D0000200086053484068524948600846406839
:1001E00048600846406840F48060486008464068BF
:1001F00020F47C1048600846406840F4E8104860ED
:100200000846006840F08070086000BF45480068FC
:1002100000F000700028F9D04248406820F0030048
:10022000404948600846406840F00200486000BF0E
:100230003C48406800F00C000828F9D10CBD10B50E
:10024000FFF792FF10BD10B53648006840F001007E
:1002500034490860084640683449084031494860DC
:1002600008460068324908402E4908600846006880
:1002700020F4802008600846406820F4FE004860B2
:100280004FF41F008860FFF7DAFF4FF00060294944
:10029000086010BD10B5002100200022214B5B68D2
:1002A00003F00C0121B1042906D0082928D107E068
:1002B000214B224C236027E01F4B204C236023E07E
:1002C000184B5B6803F47010164B5B6803F48032C4
:1002D000022303EB904022B9194B4343174C236090
:1002E0000DE0104B5B6803F4003323B1144B434320
:1002F000124C236003E0104B4343104C236003E097
:100300000D4B0E4C236000BF00BF064B5B68C3F370
:1003100003130C4CE15C094B1B68CB40074C23607A
:1003200010BD000000100240002002400000FFF855
:10033000FFFFF6FE08ED00E000127A00000000204A
:1003400000093D000400002031490143314A116099
:10035000704770B5002100230F22C47804B32D4CE0
:10036000246804F4E064C4F5E064210AC1F10403E4
:10037000CA40447804FA03F1847814402143090107
:10038000254C0678A155047804F01F050124AC40E3
:1003900005786D11AD0005F1E025C5F8004109E0D3
:1003A000047804F01F050124AC401C4D067876113A
:1003B00045F8264070BD1A4A0A400243154B1B1FE0
:1003C0001A60704739B1134A121D12680243114B6B
:1003D0001B1D1A6006E00F4A121D126882430D4B66
:1003E0001B1D1A607047042808D14FF0E0210969ED
:1003F00041F004014FF0E022116107E04FF0E021ED
:10040000096921F004014FF0E022116170470000FA
:100410000000FA050CED00E000E400E080E100E0FF
:1004200080FFFF1F01460020FE4A106800F03800E0
:10043000084310607047FB49096821F00801F94A38
:10044000116011460968014311607047F549096858
:1004500021F01001F34A116011460968014311604F
:100460007047F148EF494860F04848607047EE48EF
:10047000EC494860ED4848607047EA48006940F040
:100480008000E84908617047E648006940F0800054
:10049000E449086170470420E249C96801F001019C
:1004A00009B101200EE0DF49C96801F0040109B17A
:1004B000022007E0DB49C96801F0100109B10320FF
:1004C00000E00420704700B502460423FFF7E3FF75
:1004D000034603E0FFF7DFFF0346521E012B01D165
:1004E000002AF7D102B90523184600BD30B50446ED
:1004F00004254FF43020FFF7E6FF0546042D17D101
:10050000C848006940F00200C649086108464461D5
:10051000006940F0400008614FF43020FFF7D3FF3E
:100520000546C048006941F6FD710840BD490861B3
:10053000284630BD10B504244FF43020FFF7C3FF28
:100540000446042C16D1B748006940F00400B549B0
:1005500008610846006940F0400008614FF430200F
:10056000FFF7B1FF0446AF48006941F6FB71084050
:10057000AC490861204610BD00B502460423FFF7D0
:100580008AFF034603E0FFF786FF0346521E012B56
:1005900001D1002AF7D102B90523184600BD10B5D4
:1005A00004244FF43020FFF7E7FF0446042C16D153
:1005B0009C48006940F004009A49086108460069B7
:1005C00040F0400008614FF43020FFF7D5FF0446AB
:1005D0009448006941F6FB71084092490861204641
:1005E00010BD00208F49C96901F0020109B1012045
:1005F00000E00020704730B5A5250424FFF7F1FF87
:1006000000B100254FF43020FFF75DFF0446042CB5
:100610003AD18548834988608448886008460069E3
:1006200040F0200008610846006940F04000086181
:100630004FF43020FFF747FF0446042C1BD17948C4
:10064000006941F6DF710840764908610846006993
:1006500040F01000086176480580E002FFF733FFA4
:100660000446052C10D06F48006941F6EF71084030
:100670006C49086108E0052C06D06A48006941F61B
:10068000EF71084067490861204630BD78B50646DD
:100690000C46042500200090E802FFF714FF0546F1
:1006A000042D24D15F48006940F001005D490861D4
:1006B0003480E802FFF707FF0546042D10D1B01C77
:1006C0000090200C00990880E802FFF7FCFE054628
:1006D0005448006941F6FE7108405249086106E03D
:1006E0005048006941F6FE7108404E4908612846AD
:1006F00078BD70B504460D460426F002FFF7E3FE10
:100700000646042E11D14748006940F001004549D2
:1007100008612580F002FFF7D6FE064641480069D1
:1007200041F6FE7108403F490861304670BD70B522
:1007300005460E460424E002FFF7C5FE0446042CDD
:1007400017D13948374988603848886008460069B9
:1007500040F0100008612E80E002FFF7B4FE04466E
:10076000052C06D02F48006941F6EF7108402D494D
:100770000861204670BD2DE9F04304464FF6FF7630
:100780003746B046B1460425E443E6B2C4F3072732
:10079000C4F307484FEA1469E802FFF794FE0546E0
:1007A000042D49D120481F498860204888600846A8
:1007B000006940F010000861FF2E06D01C48083088
:1007C0000680E802FFF77FFE0546042D08D1FF2FC3
:1007D00006D017480A300780E802FFF774FE054686
:1007E000042D0AD1B8F1FF0F07D011480C30A0F842
:1007F0000080E802FFF767FE0546042D0AD1B9F133
:10080000FF0F07D00A480E30A0F80090E802FFF76B
:100810005AFE0546052D0FD00248006941F6EF71DA
:10082000084007E00020024023016745AB89EFCD77
:1008300000F8FF1F664908612846BDE8F08330B51F
:10084000054604244FF43020FFF73DFE0446042CF7
:1008500041D160485E4988605F4888600846006909
:1008600040F0200008610846006940F0400008613F
:100870004FF43020FFF727FE0446042C22D15448C1
:10088000006941F6DF710840514908610846006976
:1008900040F0100008611DB100205049088002E0BE
:1008A000A5204E4908804FF43020FFF70CFE044687
:1008B000052C10D04648006941F6EF7108404449C4
:1008C000086108E0052C06D04148006941F6DF7157
:1008D00008403F490861204630BDF0B505460E4648
:1008E000174604243B483A4988603B488860E00248
:1008F000FFF7E9FD0446042C19D13548006940F0A2
:1009000010003349086147F0F80030432843334969
:10091000891C0880E002FFF7D6FD0446052C06D0AE
:100920002B48006941F6EF710840294908612046CB
:10093000F0BD2748C069800870472548006A7047A5
:1009400000202349096801F0200109B1012000E0DD
:100950000020704729B11E4A126902431C4B1A61DC
:1009600004E01B4A12698243194B1A617047014621
:100970000020012908D1164AD26902F001020AB109
:10098000012008E0002006E0114AD2680A400AB1BE
:10099000012000E0002070470D49C8607047042026
:1009A0000B49C96801F0010109B101200EE00849B5
:1009B000C96801F0040109B1022007E00449C968CF
:1009C00001F0100109B1032000E00420704700008D
:1009D0000020024023016745AB89EFCD00F8FF1FDF
:1009E00010B50446CC48844208D10121042000F00F
:1009F0002DFB0021042000F029FB46E0C74884427B
:100A000008D10121082000F021FB0021082000F07E
:100A10001DFB3AE0C248844208D10121102000F0B9
:100A200015FB0021102000F011FB2EE0BD48844290
:100A300008D10121202000F009FB0021202000F036
:100A400005FB22E0B848844208D10121402000F093
:100A5000FDFA0021402000F0F9FA16E0B348844284
:100A600008D10121802000F0F1FA0021802000F05F
:100A7000EDFA0AE0AE48844207D10121801500F06A
:100A8000E5FA0021A01500F0E1FA10BD10B5012132
:100A9000084600F0DBFA0021012000F0D7FA10BD73
:100AA0002DE9F04102460025002600200023002405
:100AB000002791F803C00CF00F0591F803C00CF06B
:100AC000100CBCF1000F03D091F802C04CEA0505F0
:100AD00091F800C0BCF1000F31D0146800202BE069
:100AE0004FF0010C0CFA00F3B1F800C00CEA030659
:100AF0009E4220D183004FF00F0C0CFA03F7BC4349
:100B000005FA03FC4CEA040491F803C0BCF1280F79
:100B100006D14FF0010C0CFA00FCC2F814C00AE038
:100B200091F803C0BCF1480F05D14FF0010C0CFA4D
:100B300000FCC2F810C0401C0828D1D31460B1F8E2
:100B400000C0BCF1FF0F34DD546800202EE000F13E
:100B5000080C4FF0010808FA0CF3B1F800C00CEAD9
:100B600003069E4221D183004FF00F0C0CFA03F7CD
:100B7000BC4305FA03FC4CEA040491F803C0BCF141
:100B8000280F05D100F1080C08FA0CF8C2F81480FF
:100B900091F803C0BCF1480F07D100F1080C4FF0E9
:100BA000010808FA0CF8C2F81080401C0828CED3BF
:100BB0005460BDE8F0814FF6FF7101800221817021
:100BC0000421C17070470246002093680B400BB1AE
:100BD000012000E0002070470146886880B270471D
:100BE00002460020D3680B400BB1012000E000203A
:100BF00070470146C86880B2704701617047416123
:100C000070470AB1016100E041617047C1607047FF
:100C10004FF480320A438261816182618269826914
:100C2000704702460020434B18684FF68073184007
:100C300040EA021008433F4B186070473E49C861C4
:100C40007047F0B50A46002300240021002500F07B
:100C50000046B6F1004F02D1364EF16901E0354E43
:100C60007168C0F3034583B200F44016B6F5401F27
:100C700008D121F070612F4E766826F070662D4FF6
:100C80007E6012E000F48016B6F5801F06D10326C0
:100C900006FA05F4A14341F0706106E0460D360105
:100CA00003FA06F6B14341F0706122B1460D3601F8
:100CB00003FA06F6314300F00046B6F1004F02D1C8
:100CC0001C4EF16101E01B4E7160F0BD30B5002299
:100CD0008B071C0F0F2303FA04F2164B08338C10FA
:100CE00053F824309343134C08348D1044F82530C6
:100CF00023468C1053F824308C07240F00FA04F498
:100D000023430C4C08348D1044F8253030BD0A497B
:100D1000DC3108607047000000080140000C014011
:100D2000001001400014014000180140001C014067
:100D3000002001400000014000002042DF48006820
:100D400040F00100DD49086008464068DC49084081
:100D5000DA49486008460068DA490840D74908601F
:100D60000846006820F4802008600846406820F4A7
:100D7000FE0048604FF41F0088607047CF49096843
:100D800021F48031CD4A11601146096821F4802197
:100D90001160B0F5803F03D0B0F5802F0ED106E092
:100DA000C649096841F48031C44A116007E0C3496B
:100DB000096841F4A021C14A116000E000BF00BFF2
:100DC000704710B501460022002300204A11012A75
:100DD00002D1BA4C236806E0022A02D1B74C236A3A
:100DE00001E0B64C636A01F01F02012494401C40EC
:100DF0000CB1012000E0002010BD38B500200090AB
:100E00000024002500BF3120FFF7DBFF05460098D6
:100E1000401C00900098B0F5A06F01D0002DF2D0DA
:100E20003120FFF7CEFF08B1012400E00024204666
:100E300038BD01460020A14A106820F0F80040EAC1
:100E4000C10010607047A04908607047024600204A
:100E50009A4B586820F47C1042EA01031843974BE0
:100E60005860704798490866704701460020934AC9
:100E7000506820F003000843506070478F48406876
:100E800000F00C007047014600208C4A506820F0AA
:100E9000F00008435060704701460020874A5068C0
:100EA00020F4E06008435060704701460020834A08
:100EB000506820F4605040EAC1005060704729B18A
:100EC0007E4A527A02437D4B5A7204E07B4A527A40
:100ED00082437A4B5A7270477B49D8310860704719
:100EE00001460020754A506820F440400843506095
:100EF00070470021714A20321170704A82F8201028
:100F0000012802D004280AD104E001216B4A2032D2
:100F1000117005E00521694A2032117000E000BF20
:100F200000BF70476949086070476449096A014316
:100F3000624A11627047654944390860704730B5AC
:100F400000210022002400235C4D6D6805F00C0197
:100F500021B1042905D0082923D105E05C4D0560A5
:100F600022E05B4D05601FE0544D6D6805F4701282
:100F7000524D6D6805F48034022505EB92421CB990
:100F8000544D554305600BE04C4D6D6805F400353C
:100F90001DB1504D5543056002E04D4D5543056070
:100FA00002E04B4D056000BF00BF444D6D6805F089
:100FB000F0010909484D6B5C0568DD4045603F4D17
:100FC0006D6805F4E061090A434D6B5C4568DD40DE
:100FD00085603A4D6D6805F46051C90A3E4D6B5C01
:100FE0004568DD40C560354D6D6805F44041890BAD
:100FF0003A4D6B5CC568B5FBF3F5056130BD29B1B1
:101000002E4A526902432D4B5A6104E02B4A526921
:1010100082432A4B5A61704729B1284A9269024398
:10102000264B9A6104E0254A92698243234B9A61D8
:10103000704729B1214AD2690243204BDA6104E0AA
:101040001E4AD26982431D4BDA61704729B11B4A9F
:10105000D2680243194BDA6004E0184AD26882432E
:10106000164BDA60704729B1144A12690243134BD8
:101070001A6104E0114A12698243104B1A617047E9
:1010800012494039086070470F49C86470470B49DE
:10109000C87170470948406A40F08070074948624B
:1010A000704701460020054A92680A400AB10120B3
:1010B00000E000207047014988727047001002402C
:1010C0000000FFF8FFFFF6FE0000424280044242AB
:1010D00000127A0000093D001400002024000020C6
:1010E00010B50446BE48844208D101218014FFF7A0
:1010F000ADFF0021A014FFF7A9FF16E0B948844214
:1011000008D101210014FFF7AEFF00212014FFF7E2
:10111000AAFF0AE0B448844207D10121C013FFF7B7
:10112000A2FF0021E013FFF79EFF10BD10B50022C3
:10113000028802F441520B884C8823438C88234355
:10114000CC8823430C8923434C8923438C89234334
:10115000CC8923431A430280838B4FF2FF742340D0
:1011600083830B8A038210BD2DE9F04F85B00546BD
:101170000C464FF0000902274FF000084FF0010B1A
:101180000026B246A88B4FF240010840A8830220F7
:101190002884B5F81C90A068022801D100BF38E06F
:1011A000A08810B94FF0010B01E04FF0020B8D4801
:1011B000854200D100E000BF6846FFF7C0FEDDF8C1
:1011C00000A0E088B0F5007F0AD14FEA1A2000EBBA
:1011D00080004000A168B0FBF1F0401D86B20BE03A
:1011E0004FEA4B10BAFBF0F000EB80004000A16822
:1011F000B0FBF1F0401D86B20A20B6FBF0F606F017
:101200000108A6EB0800C0F34F074FF6FF7000EA95
:101210000828022F01DBFF2F02DD02274FF0000814
:10122000E08840EA080038432884A088A189084360
:10123000618808432188084340F4006040EA0909B6
:10124000A5F81C9005B0BDE8F08F00210180418019
:101250008180C180018141818181C1810721018219
:1012600070470021018041808180C180022181601E
:1012700000218181704721B1028842F04002028042
:1012800004E002884FF6BF731A400280704721B114
:10129000828B42F48062828304E0828B4FF6FF33BC
:1012A0001A408283704730B5002400230C110125B9
:1012B000A540ABB21AB185881D43858002E08588C0
:1012C0009D43858030BD1AB183880B43838002E043
:1012D00083888B438380704781817047014688896A
:1012E00070474FF6FF62914204D0028842F4807248
:1012F000028004E002884FF6FF631A4002807047C4
:1013000021B1828842F00402828004E082884FF694
:10131000FB731A408280704702884FF2FF731A40B5
:10132000028002880A4302807047018841F480519C
:101330000180704721B1028842F40052028004E02B
:1013400002884DF6FF731A40028070470246002063
:10135000012901D0108B00E0908A70470146088A6D
:101360007047B1F5804F04D1028842F48042028078
:1013700004E002884BF6FF731A4002807047024671
:10138000002013890B400BB1012000E000207047C2
:10139000CA4302817047F0B50246002000240023B2
:1013A000002501F00F070126BE40B4B20B11012643
:1013B0009E40B3B2968806EA03051689264016B108
:1013C0000DB1012000E00020F0BD10B5002201F0B9
:1013D0000F040123A3409AB2D343038110BD000040
:1013E0000030014000380040003C004010B5044689
:1013F000FE48844208D10121C014FFF727FE0021D6
:10140000E014FFF723FEC4E0B4F1804F08D10121BE
:101410000846FFF728FE00210120FFF724FEB8E070
:10142000F348844208D101210220FFF71CFE00216D
:101430000220FFF718FEACE0EE48844208D10121FB
:101440000420FFF710FE00210420FFF70CFEA0E0AF
:10145000E948844208D101210820FFF704FE002159
:101460000820FFF700FE94E0E448844208D10121FF
:101470001020FFF7F8FD00211020FFF7F4FD88E0B1
:10148000DF48844208D101212020FFF7ECFD002134
:101490002020FFF7E8FD7CE0DA48844208D10121F2
:1014A0004014FFF7D3FD00216014FFF7CFFD70E07B
:1014B000D548844209D10121C804FFF7C7FD0021A6
:1014C0004FF40020FFF7C2FD63E0D048844209D109
:1014D00001210805FFF7BAFD00214FF48010FFF746
:1014E000B5FD56E0CA48844209D101214805FFF7FD
:1014F000ADFD00214FF40010FFF7A8FD49E0C548FD
:10150000844208D101214020FFF7ADFD0021402099
:10151000FFF7A9FD3DE0C048844208D101218020A9
:10152000FFF7A1FD00218020FFF79DFD31E0BB48C2
:10153000844208D101218015FFF795FD0021A015F7
:10154000FFF791FD25E0B648844209D10121080446
:10155000FFF77CFD00214FF48030FFF777FD18E0A6
:10156000B048844209D101214804FFF76FFD0021F2
:101570004FF40030FFF76AFD0BE0AB48844208D11E
:1015800001218804FFF762FD00214FF48020FFF75E
:101590005DFD10BD00220288944B98420ED0994BFD
:1015A00098420BD0B0F1804F08D0914B984205D0B3
:1015B000904B984202D0904B984204D14FF68F73D3
:1015C0001A404B881A438D4B984207D08C4B984257
:1015D00004D04FF6FF431A40CB881A4302808B8811
:1015E00083850B880385814B98420BD0854B9842AD
:1015F00008D08B4B984205D08A4B984202D08A4B38
:10160000984201D10B7A038601238382704770B51B
:10161000002400220023058C4FF6FE763540058419
:10162000028C8388048B4FF68F752C40B51E2C409E
:101630000D882C43751E2A400D892A434D882A4364
:101640006A4DA8420BD06F4DA84208D0744DA842F5
:1016500005D0744DA84202D0734DA84213D14FF665
:10166000F7752A404D892A434FF6FB752A408D882D
:101670002A434FF6FF652B404FF6FF552B408D89CF
:101680002B43CD892B4383800483CD8885860284B8
:1016900070BD70B5002400220023058C4FF6EF7654
:1016A00035400584028C8388048B48F6FF752C40F6
:1016B0004FF6FF452C400D884FF6FF7606EA0525CC
:1016C0002C434FF6DF752A400D8906EA05152A439B
:1016D0004D8806EA05152A43444DA84202D0494DDB
:1016E000A8421DD14FF67F752A404D894FF6FF76EF
:1016F00006EA05152A434FF6BF752A408D8806EA8B
:1017000005152A434FF6FF352B404FF2FF752B404E
:101710008D8906EA85052B43CD8906EA85052B438D
:1017200083800483CD880587028470BD70B5002452
:1017300000220023058C4FF6FF6635400584028C9D
:101740008388848B4FF68F752C404FF6FC752C40A8
:101750000D882C434FF6FF552A400D894FF6FF7632
:1017600006EA05252A434D8806EA05252A431F4D2A
:10177000A84202D0234DA8421DD14FF2FF752A4046
:101780004D894FF6FF7606EA05252A434FF6FF35C9
:101790002A408D8806EA05252A434EF6FF752B4020
:1017A0004DF6FF752B408D8906EA05152B43CD8933
:1017B00006EA05152B4383808483CD8885870284C0
:1017C00070BD70B5002200230024058C4EF6FF7614
:1017D00035400584038C8488828B48F6FF752A4047
:1017E0004FF6FF452A400D8820E00000002C014004
:1017F0000004004000080040000C004000100040C1
:101800000014004000340140004C014000500140F1
:101810000054014000180040001C0040002000401F
:101820000040014000440140004801404FF6FF766F
:1018300006EA05252A434DF6FF752B400D8906EA79
:1018400005352B434D8806EA05352B43FA4DA84252
:1018500002D0FA4DA84208D14BF6FF752C408D8975
:101860004FF6FF7606EA85152C4384808283CD8867
:10187000A0F84050038470BD828B4FF2FF331A40B2
:101880008283828B4FF6FF7303EA01231A4382831C
:101890007047F0B50C461546002200210026078C43
:1018A0004EF6FF7C07EA0C070784828B018C4FF60B
:1018B000FF7707EA043640F6FF473A404FF6FF77D6
:1018C00007EA05273A434FF6FF7707EA03373A431B
:1018D000D94FB8420ED0D94FB8420BD0B0F1804F9B
:1018E00008D0D74FB84205D0D64FB84202D0D64F15
:1018F000B84206D14DF6FF77394046F48057394358
:1019000005E047F6FF57394044F480573943828356
:101910000184F0BD828B4FF6F3731A408283828B71
:101920000A4382837047F0B50C4615460022002119
:101930000026078C4FF6FF6C07EA0C070784828BA2
:10194000018C4FF6FF7707EA04264FF60C773A40F2
:101950004FF6FF7707EA03172F433A43B64FB842D3
:101960000ED0B64FB8420BD0B0F1804F08D0B44F74
:10197000B84205D0B34FB84202D0B34FB84206D1F7
:101980004FF6FF57394046F48077394305E04FF270
:10199000FF57394044F48077394382830184F0BD96
:1019A000028B4FF2FF331A400283028B4FF6FF7314
:1019B00003EA01231A4302837047F0B50C4615462B
:1019C000002200210026078C4FF6EF7C07EA0C0767
:1019D0000784028B018C4FF6FF7707EA041640F666
:1019E000FF473A404FF6FF7707EA03373A434FF68F
:1019F000FF7707EA05273A438F4FB8420ED08F4F43
:101A0000B8420BD0B0F1804F08D08D4FB84205D00E
:101A10008C4FB84202D08C4FB84206D14FF6DF77D8
:101A2000394046F01007394305E04FF65F773940FB
:101A300044F01007394302830184F0BD028B4FF656
:101A4000F3731A400283028B0A4302837047F0B596
:101A50000C46154600220021068C4FF6FE773E40CC
:101A60000684028B018C4FF60C7632407E1C06EA0F
:101A700003162E433243704EB0420ED06F4EB0422A
:101A80000BD0B0F1804F08D06D4EB04205D06D4EF6
:101A9000B04202D06C4EB04206D14FF6FD763140D6
:101AA00044F00106314305E04FF6F576314044F04D
:101AB0000106314302830184F0BD70B505460C4632
:101AC0005D4885420ED05D4885420BD0B5F1804F10
:101AD00008D05B48854205D05A48854202D05A4812
:101AE000854200D100E000BF208850B92389A28838
:101AF00061882846FFF7ABFFE1882846FFF79EFF85
:101B000025E0208804280AD12389A28861882846F4
:101B1000FFF753FFE1882846FFF742FF17E02088D0
:101B200008280AD12389A28861882846FFF7FBFE8E
:101B3000E1882846FFF7EEFE09E02389A288618844
:101B40002846FFF7A6FEE1882846FFF795FE70BD00
:101B50002DE9F04105460C4600260127608808B9AA
:101B6000022600E00026A088012801D1022700E01B
:101B700001272088A0B92389A28861882846FFF719
:101B800066FFE1882846FFF759FF23893A46314628
:101B90002846FFF712FFE1882846FFF701FF13E010
:101BA0002389A28861882846FFF707FFE188284635
:101BB000FFF7F6FE23893A4631462846FFF747FFEE
:101BC000E1882846FFF73AFFBDE8F0810A884B8894
:101BD0001A438B881A43CB881A430B891A434B89C3
:101BE0001A438B891A43A0F8442070474FF6FF71BF
:101BF000818000210180C1804180017270470021F5
:101C0000018041808180C180018141818181C181C8
:101C10007047002101804180012181800021C18025
:101C2000018170470021018041808180C180018154
:101C30004181818170470000002C01400034014047
:101C40000004004000080040000C004021B1028860
:101C500042F00102028004E002884FF6FE731A404F
:101C60000280704731B1B0F8442042F40042A0F83D
:101C7000442005E0B0F84420C2F30E02A0F844204E
:101C800070471AB183890B43838102E083898B43B8
:101C9000838170478182704741EA0203A0F848308F
:101CA00070471AB183890B43838102E083898B4398
:101CB0008381704701894FF6F872114001817047A6
:101CC0000A46002101894FF68F73194011430181A3
:101CD000704730B504460D4629462046FFF7F0FF11
:101CE000208940F00700208130BD2DE9F0410446F5
:101CF0000D4616461F46602D06D13B460122314651
:101D00002046FFF75AFE05E03B46012231462046B9
:101D1000FFF79DFE29462046FFF7D2FF208940F0BD
:101D200007002081BDE8F08130B50C460021018913
:101D3000C9B24FF6FF7505EA03251543254329432C
:101D4000018130BD2DE9F04105460E461746984603
:101D5000002443463A4631462846FFF7E5FF2C89E2
:101D60004FF6F870044044F007044FF68F700440BB
:101D700044F070042C81BDE8F081F0B504460D46B6
:101D800016461F463B46324629462046FFF7CCFF03
:101D9000208940F480402081F0BD01858282704717
:101DA0000A46002101884FF68F73194011430180C4
:101DB0007047F0B50C4615461E4600210022002350
:101DC0000189028B038C4FF6F877394021434FF697
:101DD000FC473A4040F201173A434FF6DD773B406B
:101DE0004FF6FF7707EA06172F433B430181028333
:101DF0000384F0BD0A460021018B4FF68F73194012
:101E00001143018370470A460021018B48F6FF7396
:101E100019404FF6FF7303EA022319430183704709
:101E20000A460021818B4FF68F731940114381833D
:101E300070470A460021818B48F6FF7319404FF620
:101E4000FF7303EA022319438183704721B102889B
:101E500042F08002028004E002884FF67F731A404D
:101E60000280704721B1828842F00402828004E03F
:101E700082884FF6FB731A408280704721B18288B6
:101E800042F00802828004E082884FF6F7731A401D
:101E90008280704721B1828842F00102828004E092
:101EA00082884FF6FE731A40828070470A460021EE
:101EB000018B4FF6F77319401143018370470A46AF
:101EC0000021018B4FF2FF7319404FF6FF7303EAB5
:101ED00002231943018370470A460021818B4FF684
:101EE000F77319401143818370470A460021818BA3
:101EF0004FF2FF7319404FF6FF7303EA02231943B1
:101F0000818370470A460021018B4FF6FB7319400D
:101F10001143018370470A460021018B4FF6FF33BE
:101F200019404FF6FF7303EA0223194301837047F8
:101F30000A460021818B4FF6FB73194011438183C0
:101F400070470A460021818B4FF6FF3319404FF648
:101F5000FF7303EA02231943818370470A46002175
:101F6000018B4FF67F7319401143018370470A4676
:101F70000021018BC1F30E014FF6FF7303EA022328
:101F80001943018370470A460021818B4FF67F7306
:101F900019401143818370470A460021818BC1F3A8
:101FA0000E014FF6FF7303EA022319438183704742
:101FB0000A460021018C4FF6FD731940114301843C
:101FC00070470A460021018C4FF6F7731940114300
:101FD000018470470A460021018C4FF6DF731940D7
:101FE0004FF6FF7303EA02131943018470470A4650
:101FF0000021018C4FF67F7319404FF6FF7303EAFF
:1020000002131943018470470A460021018C4FF6E0
:10201000FF5319404FF6FF7303EA0223194301846B
:1020200070470A460021018C4FF2FF7319404FF6AA
:10203000FF7303EA02231943018470470A46002113
:10204000018C4DF6FF7319404FF6FF7303EA02331C
:1020500019430184704730B5002301248C40A3B29A
:10206000048C9C430484048C02FA01F5ADB22C4329
:10207000048430BD30B5002304248C40A3B2048C0A
:102080009C430484048C02FA01F5ADB22C43048411
:1020900030BD70B5034600200024184618300125D5
:1020A0008D40ACB21D8CA5431D8409B1082909D10E
:1020B00000EB6100056825F07005056005681543B3
:1020C00005600EE00D1FC5F34E052844056825F494
:1020D000E045056005684FF6FF7606EA02263543BF
:1020E000056070BD21B1028842F00202028004E066
:1020F00002884FF6FD731A400280704721B10288B2
:1021000042F00402028004E002884FF6FB731A409A
:102110000280704721B1828842F08002828004E010
:1021200082884FF67F731A408280704702884FF68C
:10213000F7731A40028002880A430280704782883F
:102140004FF68F731A40828082880A4382807047DC
:1021500002894FF6F8731A40028102890A4302810C
:10216000704702894FF67F731A40028102890A4341
:1021700002817047818470478185704781867047EE
:102180000187704781877047A0F840107047028828
:102190004FF6FF431A40028002880A4302807047CC
:1021A0000146888E70470146088F70470146888F28
:1021B00070470146B1F8400070470146888C70476F
:1021C0000146088D704702460020138A0B400BB170
:1021D000012000E000207047CA430282704730B5FA
:1021E0000246002000230024158A05EA0103958990
:1021F00005EA010413B10CB1012000E0002030BD5C
:10220000CA4302827047000010B50446FB4884426E
:1022100009D101218803FEF719FF00214FF4804006
:10222000FEF714FF32E0F648844209D10121480448
:10223000FEF719FF00214FF40030FEF714FF25E0F0
:10224000F048844209D101218804FEF70CFF0021E7
:102250004FF48020FEF707FF18E0EB48844209D1D5
:102260000121C804FEF7FFFE00214FF40020FEF715
:10227000FAFE0BE0E548844208D101210805FEF78B
:10228000F2FE00214FF48010FEF7EDFE10BD2DE9A7
:10229000F04786B005460E460024A24600BFA14680
:1022A0000027B08900B100BF2F462C8A4CF6FF7082
:1022B0000440F08804432C82AC894EF6F3100440AD
:1022C000B08831890843718908430443AC81AC8AE2
:1022D0004FF6FF400440B0890443AC8201A8FEF7EA
:1022E0002EFEC648874202D1DDF810A001E0DDF8DD
:1022F0000CA0A88900F4004040B10AEBCA0000EB32
:102300000A1031684900B0FBF1F807E00AEBCA0097
:1023100000EB0A1031688900B0FBF1F86420B8FBCB
:10232000F0F004012009642101FB1089A88900F460
:10233000004040B1322000EBC900B0FBF1F000F0EA
:102340000700044308E0322000EB09106421B0FBD1
:10235000F1F000F00F0004432C8106B0BDE8F087D7
:102360004FF41651016000218180C18001810C2150
:10237000418100218181704710B502460020108AFA
:102380004FF2FF0318400B884C8823438C8823436B
:10239000CC8823431843108210BD00210180418066
:1023A0008180C180704721B1828942F400528281CC
:1023B00004E082894DF6FF731A4082817047F0B5C0
:1023C0000346002400260025002040F66A17B94283
:1023D00000D100BF1846C1F3421401F01F060127C7
:1023E00007FA06F5012C01D10C3004E0022C01D1D2
:1023F000103000E014301AB107682F43076002E084
:102400000768AF430760F0BD1AB1838A0B4383822C
:1024100002E0838A8B4383827047028A4FF6F0730F
:102420001A400282028A0A430282704782894FF26E
:10243000FF731A40828182890A438281704721B1E9
:10244000828942F00202828104E082894FF6FD73A4
:102450001A4082817047028A4FF6DF731A40028267
:10246000028A0A430282704721B1028A42F4804202
:10247000028204E0028A4BF6FF731A400282704720
:10248000C1F308028280704701468888C0F30800C3
:102490007047818941F0010181817047028BD2B27E
:1024A0000283028B42EA012202837047028B02F40C
:1024B0007F420283028B0A430283704721B1828AE2
:1024C00042F02002828204E0828A4FF6DF731A40D3
:1024D0008282704721B1828A42F01002828204E037
:1024E000828A4FF6EF731A408282704721B1828A46
:1024F00042F00802828204E0828A4FF6F7731A40A3
:102500008282704721B1828942F40042828103E0D5
:102510008289C2F30E028281704721B1828A42F41D
:102520000062828204E0828A4FF2FF731A40828244
:102530007047828A4FF6FB731A408282828A0A436E
:102540008282704721B1828A42F00202828204E0D4
:10255000828A4FF6FD731A4082827047024600203D
:10256000B1F5007F00D100BF13880B400BB10120F3
:1025700000E00020704701F40072B2F5007F00D146
:1025800000BFCA430280704770B502460024002392
:102590000025002040F66A16B14200D100BFC1F309
:1025A000421501F01F03012606FA03F3012D02D1A3
:1025B0009689334006E0022D02D1168A334001E0AD
:1025C000968A33400C12012606FA04F41688344029
:1025D00013B10CB1012000E0002070BD10B5002245
:1025E000002340F66A14A14200D100BF0A12012460
:1025F0009440A3B2DC43048010BD000000380140C9
:102600000044004000480040004C004000500040A2
:1026100000F0EEF900F02AFA482000F0C9FA00F0C4
:102620008FF900F05BFA00F049FC00F04FF80AA0C7
:1026300002F01CFE00F02AFC01F0BCFE0FA002F02C
:1026400015FE00F0B9FC00F058FC01F06BFC01E055
:1026500001F0ADFCFCE70000573535303020455621
:102660004220696E697469616C697A6174696F6E20
:10267000206F7665722E0D0A000000005735353048
:102680003020696E697469616C697A6564210D0A2C
:1026900000000000704700BFFEE700BFFEE700BF7C
:1026A000FEE700BFFEE770477047704710B5012195
:1026B0008807FFF794FD012805D101218007FFF766
:1026C0009FFD00F02FFA10BD7047000008B5802074
:1026D000ADF8000003208DF8020014208DF80300EF
:1026E00069469648FEF7DCF94020ADF8000003206B
:1026F0008DF8020010208DF8030069468F48FEF720
:10270000CFF908BD10B580218C48FEF776FA40213C
:102710008A48FEF772FA012000F08DFA802187487E
:10272000FEF76DFA40218548FEF769FA10BD10B535
:1027300080218248FEF763FA40218048FEF75DFA67
:10274000012000F078FA80217C48FEF756FA10BD8F
:1027500070B505462E46002421E040217748FEF75B
:102760004EFA012000F067FA06FA04F000F080004B
:10277000802804D180217148FEF73FFA03E08021D0
:102780006E48FEF73CFA012000F055FA40216B48F4
:10279000FEF733FA012000F04EFA601CC4B2082C98
:1027A000DBDB40216548FEF72AFA012000F043FAFE
:1027B00080216248FEF721FA012000F03CFA70BD4A
:1027C00070B5002540215D48FEF719FA012000F0A0
:1027D00032FA80215948FEF710FA00241BE001204C
:1027E00000F029FA40215548FEF707FA012000F0D1
:1027F00022FA80215148FEF7E6F9012801D101268D
:1028000000E0002646EA4500C5B240214B48FEF7ED
:10281000F6F9601CC4B2082CE1DB012000F00BFAD1
:10282000284670BD10B5002440214448FEF7E5F964
:10283000012000F000FA01E0601C84B280213F48D2
:10284000FEF7C1F9012801D1FF2CF5DB40213B48FF
:10285000FEF7D5F9012000F0EEF910BD70B5044681
:102860000D4672B6FFF74EFFFE2101EAE41141F07A
:10287000A000FFF76DFFFFF7D5FF2046E11704EB3F
:1028800011610912A4EB0121CEB23046FFF760FFBF
:10289000FFF7C8FF2846FFF75BFFFFF7C3FFFFF70F
:1028A00046FF62B6052000F09FF970BD70B5044682
:1028B000E6B272B6FFF726FFFE2101EAE41141F00D
:1028C000A000FFF745FFFFF7ADFF3046FFF740FFE1
:1028D000FFF7A8FFFFF716FFA120FFF739FFFFF76B
:1028E000A1FFFFF76DFF0546FFF721FF62B62846FF
:1028F00070BD2DE9F04105460E4617469846002466
:1029000000BF07E03A19B15C2A1990B2FFF7A6FFA1
:10291000601C84B24445F5DBBDE8F08170B5044627
:102920000E460025254605E0FF212846FFF796FFC5
:10293000681C85B2A019A842F6DC70BD000C0140ED
:1029400008B51020ADF8000003208DF8020010201B
:102950008DF8030069468E48FEF7A2F810218C48D6
:10296000FEF74BF918208DF803004FF40070ADF816
:10297000000003208DF8020069468548FEF790F8B4
:1029800004208DF803000002ADF80000694680487D
:10299000FEF786F8E020ADF8000003208DF8020075
:1029A00018208DF8030069467948FEF779F84FF44E
:1029B0008070ADF8000003208DF8020010208DF823
:1029C000030069467248FEF76BF84FF48071704857
:1029D000FEF713F91020ADF8000003208DF8020077
:1029E00048208DF8030069466A48FEF759F808BD8B
:1029F00010B5FEF7A3F94FF48030FEF7BFF9FEF7EC
:102A0000FCF90446012C27D11020FDF71FFD022000
:102A1000FDF708FD0020FEF736FA0020FEF745FA24
:102A2000A002FEF739FA4FF4E0112004FEF70EFA87
:102A30000120FEF717FAA003FEF752FA00BF392073
:102A4000FEF7BFF90028FAD00220FEF70EFA00BF09
:102A5000FEF714FA0828FBD101214F48FEF7E9FAE6
:102A6000012145F21D20FEF7D7FA10BD08B54FF43D
:102A7000C060FDF769FC1C208DF8000001208DF876
:102A8000010000208DF8020001208DF80300684647
:102A9000FDF75FFC00208DF8000001208DF801009B
:102AA00000208DF8020001208DF803006846FDF734
:102AB00050FC25208DF8000001208DF80100002039
:102AC0008DF8020001208DF803006846FDF741FCF7
:102AD00000214FF00060FDF76EFC08BD0EB501212E
:102AE0000846FEF7A6FA4FF47A70ADF8040000200D
:102AF000ADF80000ADF80600ADF8020069464FF0F1
:102B00008040FEF747FD012247219007FFF745F976
:102B1000012211469007FFF7B4F801218807FFF75B
:102B200095F80EBD1D480068401C1C490860084609
:102B30000068B0F57A7F0BD3002008601848007851
:102B4000401C1749087017480068401C1549086068
:102B5000134800783C2807DB13480078401C1249D2
:102B6000087000200E4908700F4800783C2807DBE9
:102B700000200D4908700D480078401C0B49087072
:102B80000A480078182802DB0020084908707047BE
:102B90000008014000100140014002002800002010
:102BA0002C000020900000202D0000202E0000208E
:102BB0004FF0E021096921F004014FF0E02211619A
:102BC000C21700EB5272C2F3C702AC4B1A7019461F
:102BD000097801EB4102C2EBC1114FF6FF7202EA24
:102BE000C101A74A118070470146A54A12884A438D
:102BF0004FF0E0235A6100229A6101221A6100BF5E
:102C00004FF0E022106900F001021AB100F48032A6
:102C1000002AF5D000224FF0E0231A619A61704734
:102C200010B5044604E04FF47A70FFF7DDFF641E30
:102C3000002CF8D110BD0146904A12784A434FF05B
:102C4000E0235A6100229A6101221A6100BF4FF00D
:102C5000E022106900F001021AB100F48032002A6B
:102C6000F5D000224FF0E0231A619A61704770B5E9
:102C700004460D4600BF80218248FFF76FFC002804
:102C8000F9D0A1B27F48FFF7FBFB00BF40217D4890
:102C9000FFF764FC0028F9D0204670BD01463029BA
:102CA00005DB392903DCA1F13000C0B2704761298E
:102CB00005DB662903DCA1F15700C0B2F6E7412924
:102CC00005DB462903DCA1F13700C0B2EEE7084678
:102CD000ECE730B502460B46002405E012F8010B84
:102CE000FFF7DCFF04FB030410780028F6D1A0B244
:102CF00030BD30B502460B46002405E012F8010B4A
:102D0000FFF7CCFF04FB030410780028F6D120461F
:102D100030BD2DE9F04104460D461646701EC7B27F
:102D200020223146284602F0DBF900BF0A2094FB3E
:102D3000F0F100FB11403030C2B23846791ECFB2FC
:102D40002A540A2094FBF0F080B2041EEEDCBDE8A9
:102D5000F0812DE9F04104460F46904626460CB11D
:102D6000207810B90020BDE8F0810BE03078FFF743
:102D700095FF0546002D03DBBD4201DA761C01E01C
:102D80000020F0E730780028F0D1B9B22046FFF7F4
:102D9000A0FFC8F800000120E5E710B50B460021B0
:102DA00004E0445C9C4200D14254491C445C002C29
:102DB000F7D110BD014600200A06100C40EA112090
:102DC0007047014600200806C1F3072240EA02408E
:102DD000C1F3074240EA022040EA116070472DE942
:102DE000F04781460E4617461D463146484602F0DA
:102DF00089F90446304602F0A3F9044439462046D6
:102E000002F080F98246AAEB04001FFA80F84246DD
:102E10002146284602F088F9002005F80800BDE8A0
:102E2000F0872DE9F04188B006460F4631466846E6
:102E300002F08DF96C4600251BE013A1204602F03C
:102E40008FF904462078302809D16078782806D197
:102E50001021A01CFFF73DFF00F0FF0805E00A214C
:102E60002046FFF736FF00F0FF0807F80580002432
:102E70006D1C042DE1DB08B0BDE8F08130000020BE
:102E800032000020003801402E00000010B54FF441
:102E900080717A48FDF7B3FE3220FFF7CCFE4FF485
:102EA00080717648FDF7A9FE3220FFF7C4FE10BD01
:102EB00070B5002044682546A84770BD1FB54FF483
:102EC000E13000900020ADF80400ADF80600ADF848
:102ED0000800ADF80C000C20ADF80A00012240F209
:102EE00025516748FFF76BFA69466548FFF7CFF948
:102EF00001216348FFF757FA1FBD1CB5614801F077
:102F00000BFC60480C3001F0FEFB5E48103001F015
:102F1000EAFB5C48083001F008FC5B495B4801F0C3
:102F20004BFB4FF4FA6001F03DFC032001F047FC3D
:102F300001A801F01DFC9DF8070000909DF80630E7
:102F40009DF805209DF8041051A002F08FF901A80A
:102F500001F0FCFB9DF8070000909DF806309DF8FD
:102F600005209DF804104FA002F080F901A801F09F
:102F7000E5FB9DF8070000909DF806309DF80520C0
:102F80009DF804104CA002F071F91CBD2DE9F04130
:102F90000027002500260BE03A48845D214638468C
:102FA000FFF75CFC781C87B2701C86B2681C85B287
:102FB0001D2DF1DBBDE8F08186B044A103C9CDE948
:102FC000040144A00068039043A00068029043A05D
:102FD0000068019042A0006800902A48001F0399F1
:102FE000C160029901610199416104994160BDF894
:102FF000141001810099816100202249091F08777E
:10300000012048770020C88381F8200001208872C1
:1030100000211C48001FC17206B0704770B5002522
:10302000002400BF07E02046FFF740FC0546154896
:103030000555601C84B21D2CF5D31248001F007981
:10304000FF281AD10F48001F4079FF2815D10D48DD
:10305000001F8079FF2810D10A48001FC079FF287F
:103060000BD10848001F007AFF2806D10548001F31
:10307000407AFF2801D1FFF79FFF70BD000C01408F
:1030800000380140CC0000203C000020340000202B
:103090004950203A2025642E25642E25642E25646F
:1030A0000D0A0000534E203A2025642E25642E255B
:1030B000642E25640D0A00004757203A2025642E0F
:1030C00025642E25642E25640D0A00000008DC11FD
:1030D00011150000C0A80158FFFFFF00C0A80101A2
:1030E0000808080810B5FE4801F01FFBFD4801F074
:1030F0000AFBFD4801F0F7FA10BD10B5802001F081
:103100004FFA01F03EFBFFF7EDFFF848006801F0D1
:1031100003FB10BD10B5802001F042FA01F031FB35
:10312000F248006801F0F8FA10BD0020F04908608C
:103130000520F04908600020EF49087070477CB511
:10314000684601F00CFB0120EC4909680870EB4966
:10315000096848700620E949096888700020E74935
:103160000968C870E5480068051DE5480068000E5C
:103170002870E3480068000C6870E1480088000A85
:10318000A870DF480078E8700020DC4909680881F1
:10319000DA48006800F10A05802028700020687075
:1031A000D649096808730021D44800684173D348A0
:1031B00000688173D1480068C1730020CF49096855
:1031C00008740021CD4800684174CC4800688174BF
:1031D000CA480068C1740020C84909680875002100
:1031E000C64800684175C54800688175C3480068D5
:1031F000C1750020C149096808760021BF480068F0
:103200004176BE4800688176BC480068C176B74800
:1032100000680078B94909680877B44800684178BF
:10322000B64800684177B14800688178B3480068C3
:103230008177AE480068C178B0480068C177AB4874
:1032400000680179AD48006880F82010A748006840
:103250004179AA48006880F82110062406E0002180
:10326000A64800681C300155601CC4B2102CF6DB67
:10327000002406E00021A14800682C300155601CA4
:10328000C4B2402CF6DB002406E000219B48006815
:103290006C300155601CC4B2802CF6DB632097496A
:1032A000096881F8EC0082219448006880F8ED10EC
:1032B00053219248006880F8EE1063218F4800681F
:1032C00080F8EF107CBD10B588B00024FFF737FF01
:1032D000042435222146641C88480068EC3042549E
:1032E00001222146641C85480068EC304254214686
:1032F000641C82480068EC3042543D222146641C24
:103300007E480068EC30425407222146641C7B480A
:103310000068EC30425401222146641C7748006862
:10332000EC3042547148006802782146641C7348AE
:103330000068EC3042546D48006842782146641CB5
:103340006E480068EC304254684800688278214634
:10335000641C6A480068EC30425464480068C278D3
:103360002146641C65480068EC3042545F480068A0
:1033700002792146641C61480068EC3042545B4885
:10338000006842792146641C5C480068EC30425475
:103390000C222146641C59480068EC3042545348C2
:1033A00000684079514909680979CDE900104F4812
:1033B0000068C37853A256A102A801F067FF02A8D3
:1033C00001F0BEFEC2B22046611C8CB24B490968B6
:1033D000EC310A5449490968EC31081902A901F095
:1033E000B6FE02A801F0ACFE204484B2372220468B
:1033F000611C8CB241490968EC310A54062220460E
:10340000611C8CB23D490968EC310A540122204606
:10341000611C8CB239490968EC310A5403222046F8
:10342000611C8CB235490968EC310A5406222046E9
:10343000611C8CB231490968EC310A540F222046D4
:10344000611C8CB22D490968EC310A543A2220469D
:10345000611C8CB229490968EC310A543B22204690
:10346000611C8CB225490968EC310A54FF222146BF
:10347000601C84B221480068EC304254FF208DF873
:103480001C008DF81D008DF81E008DF81F0025A072
:1034900001F0ECFE432007AB4FF40972009017488F
:1034A0000168002001F08BFC08B010BD10B588B099
:1034B0000024FFF744FE21480078032803D01F486A
:1034C000007804285DD100200C4909688872002129
:1034D0000A480068C17202480078084909682FE06C
:1034E0006C000020740000207000002044000020C8
:1034F000900000206400002089000020A40000202B
:10350000A000002057353530305332452D5A310058
:10351000252E3131732D2530325825303258253043
:10352000325800003E2053656E6420444843505F8B
:10353000444953434F5645520D0A0000880000206D
:103540000873FE484178FE4800684173FB48817863
:10355000FB4800688173F948C178F9480068C17375
:10356000F84800788DF81C00F64840788DF81D006A
:10357000F44880788DF81E00F248C0788DF81F005E
:1035800008E0FF208DF81C008DF81D008DF81E004E
:103590008DF81F00042435222146641CE848006889
:1035A000EC30425401222146641CE5480068EC30AE
:1035B000425403222146641CE1480068EC30425426
:1035C0003D222146641CDE480068EC30425407224C
:1035D0002146641CDA480068EC304254012221463E
:1035E000641CD7480068EC304254D7480068027821
:1035F0002146641CD2480068EC304254D24800682E
:1036000042782146641CCE480068EC304254CE48D3
:10361000006882782146641CC9480068EC30425436
:10362000C9480068C2782146641CC5480068EC306F
:103630004254C548006802792146641CC0480068AD
:10364000EC304254C048006842792146641CBC48B2
:103650000068EC3042549DF81F00FF2867D13222E9
:103660002046611C8CB2B6490968EC310A54042228
:103670002046611C8CB2B2490968EC310A54AF484B
:1036800002782046611C8CB2AD490968EC310A54BD
:10369000AA4842782046611C8CB2A9490968EC31DD
:1036A0000A54A64882782046611C8CB2A449096855
:1036B000EC310A54A148C2782046611C8CB2A04962
:1036C0000968EC310A5436222046611C8CB29C49B0
:1036D0000968EC310A5404222046611C8CB29849D6
:1036E0000968EC310A54974802782046611C8CB274
:1036F00093490968EC310A54924842782046611C8B
:103700008CB28F490968EC310A548E488278204681
:10371000611C8CB28A490968EC310A548948C27824
:103720002046611C8CB286490968EC310A540C228F
:103730002146601C84B282480068EC3042548248C2
:1037400000684079804909680979CDE900107E4810
:103750000068C378AFF25422AFF24C2102A801F006
:1037600095FD02A801F0ECFCC2B22046611C8CB2AF
:1037700073490968EC310A5471490968EC31081938
:1037800002A901F0E4FC02A801F0DAFCC0B2204476
:1037900084B237222046611C8CB269490968EC3139
:1037A0000A5408222046611C8CB265490968EC3134
:1037B0000A5401222046611C8CB261490968EC312F
:1037C0000A5403222046611C8CB25D490968EC3121
:1037D0000A5406222046611C8CB259490968EC3112
:1037E0000A540F222046611C8CB255490968EC31FD
:1037F0000A543A222046611C8CB251490968EC31C6
:103800000A543B222046611C8CB24D490968EC31B8
:103810000A541F222046611C8CB249490968EC31C8
:103820000A5421222046611C8CB245490968EC31BA
:103830000A54FF222046611C8CB241490968EC31D0
:103840000A5442A001F012FD432007AB4FF4097265
:1038500000903B480168002001F0B1FA08B010BDAB
:1038600010B501243F480078032830DA3E4800684C
:103870003E490968884246D23D480078012804D074
:10388000022808D0042812D10BE03AA001F0EEFC87
:10389000FFF719FD0CE042A001F0E8FCFFF706FE7F
:1038A00006E04AA001F0E2FCFFF700FE00E000BFE6
:1038B00000BF00202D49086008460068401D2A49C5
:1038C000086028480078401C264908701BE02848FA
:1038D0000078012804D0022807D004280FD105E081
:1038E00000202349087000240AE000BFFFF7EBFC2A
:1038F00000201E49086001201D49087000E000BF3B
:1039000000BFFFF712FC204610BD1CB50024FFF7D6
:1039100016FC042400200A4909688872002108481E
:103920000068C17235222146641C05480068EC30ED
:10393000425401222146641C01485DE06C000020D5
:10394000A400002058000020440000203E205365C1
:103950006E6420444843505F524551554553540DC1
:103960000A00000089000020640000209000002070
:10397000880000203C3C74696D656F75743E3E2084
:103980007374617465203A2053544154455F444830
:1039900043505F444953434F5645520D0A000000BF
:1039A0003C3C74696D656F75743E3E207374617440
:1039B00065203A2053544154455F444843505F5278
:1039C0004551554553540D0A000000003C3C7469B4
:1039D0006D656F75743E3E207374617465203A2086
:1039E00053544154455F444843505F5245524551FA
:1039F000554553540D0A00000068EC30425404222F
:103A00002146641CF9480068EC3042543D222146AE
:103A1000641CF6480068EC30425407222146641CBE
:103A2000F2480068EC30425401222146641CEF4801
:103A30000068EC304254EE48006802782146641C6D
:103A4000EA480068EC304254E94800684278214670
:103A5000641CE6480068EC304254E548006882780F
:103A60002146641CE1480068EC304254E04800689C
:103A7000C2782146641CDD480068EC304254DC48C2
:103A8000006802792146641CD8480068EC30425432
:103A9000D748006842792146641CD4480068EC305D
:103AA000425432222146641CD0480068EC30425413
:103AB00004222046611C8CB2CC490968EC310A54BE
:103AC000CC4802782046611C8CB2C8490968EC31A8
:103AD0000A54C84842782046611C8CB2C349096820
:103AE000EC310A54C34882782046611C8CB2BF492D
:103AF0000968EC310A54BF48C2782046611C8CB278
:103B0000BA490968EC310A5436222046611C8CB24D
:103B1000B6490968EC310A5404222046611C8CB273
:103B2000B2490968EC310A54B34802782046611C56
:103B30008CB2AE490968EC310A54AF48427820464D
:103B4000611C8CB2A9490968EC310A54AA488278F0
:103B50002046611C8CB2A5490968EC310A54A6487C
:103B6000C2782046611C8CB2A0490968EC310A5425
:103B7000FF222046611C8CB29C490968EC310A5432
:103B8000FF208DF804008DF805008DF806008DF8F3
:103B900007009AA001F06AFB432001AB4FF40972C1
:103BA000009092480168002001F009F91CBD2DE940
:103BB000F04186B0002000F083FE051E19DD03A849
:103BC00004AB2A46009089480168002001F07DF985
:103BD0000546BDF80C109DF813008DE823009DF8F4
:103BE00012309DF811209DF810108AA001F03EFBC4
:103BF00003E0002006B0BDE8F081BDF80C004328CA
:103C00007AD17A480068007F794909680978884242
:103C100029D176480068407F75490968497888420B
:103C200021D172480068807F71490968897888428B
:103C300019D16E480068C07F6D490968C97888420B
:103C400011D16A48006890F820006949096809792B
:103C5000884208D16548006890F8210064490968E5
:103C60004979884201D00020C4E74FF000085F483E
:103C70000468F034A5F1F000061989E020783328B3
:103C80004ED007DC70B1012813D0032821D00628BC
:103C900078D132E0352807D0362861D0FF2871D19D
:103CA000344674E0641C72E0641C641C14F8018BDC
:103CB0006DE0641C641C14F8010B6249087014F870
:103CC000010B487014F8010B887014F8010BC870D0
:103CD0005DE0641C14F8017B14F8010B5A4908706C
:103CE00014F8010B487014F8010B887014F8010BDC
:103CF000C870381F04444AE04DE0641C14F8017B8E
:103D000014F8010B5149087014F8010B487014F8AD
:103D1000010B887014F8010BC870381F044436E09A
:103D2000641C14F8017B14F8010B4949086014F86D
:103D3000011B4748006801EB00204549086014F862
:103D4000011B4348006801EB00204149086014F85A
:103D5000011B3F48006801EB00203D49086016E068
:103D6000641C14F8017B14F8010B2349087014F843
:103D7000010B487014F8010B887014F8010BC8701F
:103D800005E0FFE7641C14F8017B3C4400BF00BF62
:103D9000B442FFF473AF4FFA88F02BE710B52D480B
:103DA000007803286EDA2C4800682C49096888429C
:103DB00075D900202849086008460068401D274939
:103DC000086024480078401C224908702448007884
:103DD000012804D0022845D0042851D149E0AFF28F
:103DE0006C4001F043FAFFF76EFA4AE0A4000020AD
:103DF000440000206C000020580000200D0A3E20E6
:103E000053656E6420444843505F4445434C494EDB
:103E1000450D0A0044484350206D65737361676522
:103E2000203A2025642E25642E25642E256428251D
:103E300064292025642072656365697665642E2097
:103E40000D0A00007400002070000020780000209F
:103E50008C000020890000209000002094000020A9
:103E600088000020AFF2C84001F000FAFFF71EFB07
:103E700007E0AFF2A84001F0F9F9FFF717FB00E007
:103E800000BF0CE0FFF751F90120CC490870FFF7A3
:103E90001AFA0120CA490870CAA001F0E7F910BD5A
:103EA00038B500F079FC0546032000F088FCCF48C7
:103EB000C0780090CD48837842780178CCA001F09A
:103EC000D5F941F28830C94B1122D3A100900020CE
:103ED00000F075FF0446284600F071FC5CB1FFF766
:103EE00014FDD248046800BFD0480068001B0228B7
:103EF000FAD3002038BDCEA001F0B8F90120F9E7CF
:103F0000D24801680068401CD04A1060B1F57A7F41
:103F100007D9002011460860C4480068401CC34906
:103F20000860704700B589B0C9A103C9CDE9070190
:103F3000C7A103C9CDE9050100200490C648C749BF
:103F40000860C74800210160C6480160C64801609A
:103F500000F02DFBC54800F0DFFB04A800F0D3FB08
:103F600004A800F0C0FB04A800F0DFFBC048006814
:103F70004079BF4909680979BD4A1268D278CDE90C
:103F800000210290BA4800688378B94800684278F6
:103F9000B74800680178B7A001F068F905A907A83B
:103FA00000F00AFB00208649087009B000BD38B552
:103FB00083480078062801D1052038BD002000F094
:103FC00039FC222805D0002344220221184600F0A3
:103FD0005BFD0125FFF7EBFDC4B2794800780528A9
:103FE0006FD2DFE800F00312357EA80000207F4981
:103FF000087048708870C870FFF765F900208B4919
:10400000086001206E490870D4E0022C1CD1A2A0E7
:1040100001F02CF9A6480068007C74490870A44897
:104020000068407C4870A2480068807C8870A04886
:104030000068C07CC870FFF739FA00207B4908602F
:1040400002205F49087002E0FFF70AFC0546B1E074
:10405000052C37D197A001F009F9FFF721FF0028BF
:1040600026D06248C0780090604883784278017812
:1040700096A001F0FBF89A48C078009098488378A1
:104080004278017897A001F0F1F89B48C078009041
:10409000994883784278017898A001F0E7F89C4825
:1040A00000688047FFF741F803204549087017E092
:1040B000FFF73BF8974800688047002040490870A8
:1040C0000EE076E0062C08D193A001F0CFF8FFF7C0
:1040D0002CF801203A49087002E0FFF7C1FB0546C1
:1040E00068E0042592480068401C18B34F480068F7
:1040F0008F490968B0EB510F1CD98EA001F0B6F8BA
:1041000000243A480078934908703848407848704D
:104110003648807888703548C078C8704F48006845
:10412000401C4E490860FFF7C1F9FEF7FEFF04206E
:10413000234908703EE00425052C2BD10020864938
:1041400008708448007829490978884211D181484B
:1041500040782649497888420BD17E4880782349A7
:104160008978884205D17B48C0782049C97888423F
:1041700007D0032579480068804779A001F076F8D8
:1041800002E07BA001F072F8FEF7CFFF03200C499C
:1041900008700DE0062C08D17AA001F067F8FEF750
:1041A000C4FF01200649087002E0FFF759FB0546ED
:1041B00000E000BF00BF2846FFE600008A000020A4
:1041C0008800002074696D656F7574203A207374DF
:1041D000617465203A2053544154455F444843502C
:1041E0005F444953434F5645520D0A006C0000206E
:1041F0003C436865636B2074686520495020436FB9
:104200006E666C6963742025642E25642E25642EE9
:1042100025643A2000000000434845434B5F495065
:104220005F434F4E464C494354000000900000202D
:104230000D0A3E20436865636B206C65617365649D
:10424000204950202D204F4B0D0A000098000020DF
:10425000020202020202020278563412A00000207A
:1042600060000020580000205C000020CC000020EE
:10427000440000204D41433D253032783A2530320C
:10428000783A253032783A253032783A253032780B
:104290003A253032780D0A003E2052656365697612
:1042A0006520444843505F4F464645520D0A000082
:1042B000A40000203E20526563656976652044486D
:1042C00043505F41434B0D0A0000000069703A25DE
:1042D000642E25642E25642E25640D0A000000003E
:1042E00074000020736E3A25642E25642E25642EFA
:1042F00025640D0A000000007000002067773A2551
:10430000642E25642E25642E25640D0A000000000D
:10431000A8000020B00000203E2052656365697649
:104320006520444843505F4E41434B0D0A00000056
:104330008C0000203E204D61696E7461696E7320AF
:104340007468652049502061646472657373200D40
:104350000A0000006800002089000020AC00002056
:104360003E4950206368616E6765642E0D0A000047
:104370003E495020697320636F6E74696E75656481
:104380002E0D0A003E20526563656976652044481B
:1043900043505F4E41434B2C204661696C6564205D
:1043A000746F206D61696E7461696E2069700D0AA9
:1043B0000000000000B585B00020ADF800004FF40B
:1043C0008270ADF802000020ADF804000220ADF8C4
:1043D00006000120ADF808004002ADF80A000820F0
:1043E000ADF80C000020ADF80E000720ADF810006D
:1043F00069461848FCF79AFE01211648FCF73BFF76
:1044000005B000BD10B5044624B910211248FCF7D0
:10441000F6FB05E0012C03D110210F48FCF7EDFB62
:1044200010BD10B5044600BF02210A48FCF7A7FFE3
:104430000028F9D021460748FCF74EFF00BF0121B4
:104440000448FCF79CFF0028F9D00248FCF746FF1F
:10445000C0B210BD00300140000801400146FA48DA
:10446000405C7047F84A115470470146F74830F8ED
:10447000110070470146F64830F81100704710B53A
:104480000020FFF7BFFF10BD10B50120FFF7BAFFF6
:1044900010BD10B504462046FFF7C3FF10BD70B530
:1044A00004460D46FFF7EBFFC4F30740FFF7F1FFAB
:1044B000C4F30720FFF7EDFF04F0F801091DC8B2AF
:1044C000FFF7E7FF2846FFF7E4FFFFF7DDFF70BDCA
:1044D00070B504460025FFF7D2FFC4F30740FFF78D
:1044E000D8FFC4F30720FFF7D4FF04F0F800FFF76C
:1044F000D0FF0020FFF7CDFF0546FFF7C5FF284698
:1045000070BD2DE9F04104460F461546002615B949
:10451000D0A000F0ABFEFFF7B2FFC4F30740FFF7F7
:10452000B8FFC4F30720FFF7B4FF04F0F801091D3A
:10453000C8B2FFF7AEFF002604E0B85DFFF7A9FFA1
:10454000701C86B2AE42F8DBFFF79EFF2846BDE83E
:10455000F0812DE9F04104460F461546002615B9B5
:10456000BCA000F083FEFFF78AFFC4F30740FFF70B
:1045700090FFC4F30720FFF78CFF04F0F800FFF76B
:1045800088FF002605E00020FFF783FFB855701C68
:1045900086B2AE42F7DBFFF777FF2846BDE8F08131
:1045A00010B5044621460020FFF779FF10BD10B575
:1045B0008020FFF7F5FF10BD2DE9F04105460E46BE
:1045C0000027B846002489E0295D41F6087202EB15
:1045D0004410FFF764FF315D41F6086202EB4410BE
:1045E000FFF75DFF00209A4921F81400974921F850
:1045F0001400B7F5804F32DC285D042816D004DCA7
:10460000012807D0022823D10AE0082814D0102856
:104610001ED117E04FF480608D4921F814001DE091
:104620004FF400608A4921F8140017E04FF48050DD
:10463000874921F8140011E04FF40050844921F813
:1046400014000BE04FF48040814921F8140005E08C
:104650004FF400607D4921F8140000BF00BFB8F599
:10466000804F32DC305D042816D004DC012807D0EE
:10467000022823D10AE0082814D010281ED117E000
:104680004FF48060714921F814001DE04FF4006080
:104690006E4921F8140017E04FF480506B4921F85F
:1046A000140011E04FF40050684921F814000BE0A9
:1046B0004FF48040654921F8140005E04FF4006094
:1046C000624921F8140000BF00BF614830F81400AF
:1046D00007445E4830F814008044641C082CFFF640
:1046E00073AFBDE8F08110B5044604222146900165
:1046F000FFF707FF10BD10B50446042221469001C4
:10470000FFF727FF10BD10B50446042221464FF4E1
:10471000A060FFF7F6FE10BD10B504460622214644
:104720004FF41060FFF7EDFE10BD10B504460422F3
:1047300021464FF47060FFF7E4FE10BD10B504464B
:10474000042221469001FFF704FF10BD10B5044676
:10475000042221464FF4A060FFF7FBFE10BD10B508
:104760000446062221464FF41060FFF7F2FE10BD0A
:1047700010B50446042221464FF47060FFF7E9FEAD
:1047800010BD10B50020FFF7A3FE10BD10B54FF40B
:10479000A850FFF79DFE10BD10B54FF4D850FFF79D
:1047A00097FE10BD10B50446210A4FF4C850FFF71C
:1047B00076FEE1B24FF4D050FFF771FE10BD10B598
:1047C000044621464FF4D850FFF769FE10BD70B57E
:1047D0000446FFF7DBFF60EA0400C5B229464FF448
:1047E000A850FFF75CFE70BD70B504460D46290A5F
:1047F00041F2082202EB4410FFF751FEE9B241F208
:10480000083202EB4410FFF74AFE70BD70B5044653
:104810000D4641F2086101EB44102946FFF73FFEC7
:1048200070BD10B504464FF4027101EB4410FFF760
:104830004FFE10BD10B504464FF4427101EB441019
:10484000FFF746FE10BD0000B4000020CE0A002095
:10485000BE0A0020556E6578706563746564322009
:104860006C656E67746820300D0A000070B50446F0
:104870000025002600BF42F2080101EB4410FFF7BB
:1048800027FE064642F2081101EB4410FFF720FE16
:1048900000EB062086B27EB142F2080101EB441023
:1048A000FFF716FE054642F2081101EB4410FFF730
:1048B0000FFE00EB052085B2B542DCD1284670BD65
:1048C00070B504460025002600BF42F2086101EBE6
:1048D0004410FFF7FDFD064642F2087101EB44105B
:1048E000FFF7F6FD00EB062086B27EB142F20861CA
:1048F00001EB4410FFF7ECFD054642F2087101EBB5
:104900004410FFF7E5FD00EB052085B2B542DCD190
:10491000284670BD2DE9F04104460F461646002595
:10492000A8462EB921463BA000F0A0FCBDE8F081CE
:1049300042F2084101EB4410FFF7CAFD054642F27E
:10494000085101EB4410FFF7C3FD00EB052085B2D1
:10495000280200EB441000F1100832463946404668
:10496000FFF7CFFDA81985B2290A42F2084202EBEF
:104970004410FFF794FDE9B242F2085202EB4410F2
:10498000FFF78DFD00BFD1E72DE9F04104460F464A
:1049900016460025A8462EB9214626A000F066FC42
:1049A000BDE8F08142F6080101EB4410FFF790FDED
:1049B000054642F6081101EB4410FFF789FD00EBB4
:1049C000052085B2280200EB441000F11808324699
:1049D00039464046FFF7BDFDA81985B2290A42F6BF
:1049E000080202EB4410FFF75AFDE9B242F6081242
:1049F00002EB4410FFF753FD00BFD1E770B504464A
:104A00000D464FF4027101EB44102946FFF747FDB4
:104A100070BD000043483A20256420556E657870CB
:104A2000656374656431206C656E67746820300D51
:104A30000A00000043483A20256420556E657870CE
:104A4000656374656432206C656E67746820300D30
:104A50000A00000010B504464FF4847101EB4410C5
:104A60001021FFF71CFD00BF4FF4847101EB4410CF
:104A7000FFF72EFD0028F7D14FF4027101EB44102F
:104A8000FF21FFF70CFD10BD2DE9F04104460D4656
:104A90001646984605F00F0001280FD005F00F00CC
:104AA00002280BD005F00F00032807D005F00F00F7
:104AB000042803D005F00F00052841D12046FFF758
:104AC000C9FF45EA0801082202EB4410FFF7E7FCA2
:104AD00076B1310A4FF4816202EB4410FFF7DFFC3C
:104AE000F1B24FF4A16202EB4410FFF7D8FC15E0DD
:104AF000FE480088401CFD4908800A461288110AB9
:104B00004FF4816202EB4410FFF7C9FCF74A1178B9
:104B10004FF4A16202EB4410FFF7C1FC4FF4847123
:104B200001EB44100121FFF7BAFC00BF4FF4847180
:104B300001EB4410FFF7CCFC0028F7D1012700E07F
:104B400000273846BDE8F08170B504464FF4427145
:104B500001EB4410FFF7BCFC132811D14FF4847112
:104B600001EB44100221FFF79AFC00BF4FF484715F
:104B700001EB4410FFF7ACFC0028F7D1012500E061
:104B80000025284670BD2DE9F04105460C46164625
:104B90002078FF2808D16078FF2805D1A078FF2869
:104BA00002D1E078FF2808D0207828B9607818B9B9
:104BB000A07808B9E07800B10EB900275CE00127C1
:104BC000217840F6084202EB4510FFF768FC617857
:104BD00040F6085202EB4510FFF761FCA17840F661
:104BE000086202EB4510FFF75AFCE17840F60872C4
:104BF00002EB4510FFF753FC310A41F2080202EBC9
:104C00004510FFF74CFCF1B241F2081202EB4510DF
:104C1000FFF745FC4FF4847101EB45100421FFF7C9
:104C20003EFC00BF4FF4847101EB4510FFF750FCD0
:104C30000028F7D117E04FF4427101EB4510FFF760
:104C400047FC172800D116E02846FFF7EAFD00F0E0
:104C5000080040B14FF4027101EB45100821FFF745
:104C60001EFC002707E04FF4427101EB4510FFF7EF
:104C70002FFC1528DFD100BF3846BDE8F08110B504
:104C800004464FF4847101EB44100821FFF707FC40
:104C900000BF4FF4847101EB4410FFF719FC0028AA
:104CA000F7D110BD2DE9F047044688461646002589
:104CB0000027A9462046FFF7DDFBB04204DA204674
:104CC000FFF7D8FB074600E0374600BF2046FFF756
:104CD000CDFD81464FF4427101EB4410FFF7F8FB24
:104CE0000546172D03D01C2D01D0002701E0B94542
:104CF000ECDB00BF3A4641462046FFF70BFE4FF47F
:104D0000847101EB44102021FFF7C9FB00BF4FF471
:104D1000847101EB4410FFF7DBFB0028F7D113E0AF
:104D20004FF4427101EB4410FFF7D2FB0546172DFB
:104D30000AD01C2D08D06EA000F098FA2046FFF78C
:104D400089FE0020BDE8F0874FF4027101EB4410AA
:104D5000FFF7BEFB00F010001028E1D14FF4027104
:104D600001EB44101021FFF79AFB4FF4027101EBA5
:104D700044101021FFF793FB3846E3E72DE9F0419B
:104D800004460E4615460027002D15DD2A463146FD
:104D90002046FFF7F9FD4FF4847101EB44104021E8
:104DA000FFF77DFB00BF4FF4847101EB4410FFF768
:104DB0008FFB0028F7D12F463846BDE8F0812DE95A
:104DC000F0470446894616461D46089F4FF00008E6
:104DD0002046FFF74FFBB04204DA2046FFF74AFBBC
:104DE000804600E0B046287828B9687818B9A878D5
:104DF00008B9E87800B117B94FF0000863E02978E6
:104E000040F6084202EB4410FFF749FB697840F690
:104E1000085202EB4410FFF742FBA97840F6086203
:104E200002EB4410FFF73BFBE97840F6087202EB17
:104E30004410FFF734FB390A41F2080202EB441038
:104E4000FFF72DFBF9B241F2081202EB4410FFF715
:104E500026FB424649462046FFF75CFD4FF484712D
:104E600001EB44102021FFF71AFB00BF4FF48471BF
:104E700001EB4410FFF72CFB0028F7D112E04FF4B0
:104E8000027101EB4410FFF723FB00F0080048B16A
:104E90004FF4027101EB44101821FFF700FB0020D2
:104EA000BDE8F0874FF4027101EB4410FFF710FBEF
:104EB00000F010001028E2D14FF4027101EB441011
:104EC0001021FFF7ECFA4046EAE72DE9FC5F0546C2
:104ED0008A4691461E46DDF8308000270024A3460E
:104EE000B9F1000F71DD42F608010BE0BC000020B3
:104EF00053454E445F4F4B2050726F626C656D217D
:104F0000210D0A0001EB4510FFF7E2FA044642F6D4
:104F1000081101EB4510FFF7DBFA00EB042084B227
:104F2000200200EB451000F1180B082101EB4510A1
:104F3000FFF7CEFA00F00700022804D0032845D07E
:104F4000042878D178E0082269465846FFF701FB2B
:104F500004F1080084B29DF8000030709DF8010053
:104F600070709DF80200B0709DF80300F0709DF81D
:104F70000400A8F800009DF8050098F8001000EB68
:104F80000120A8F800009DF806709DF8070000EBCE
:104F9000072087B2200200EB451000F1180B3A46BB
:104FA00051465846FFF7D5FAE01984B2210A42F675
:104FB000080202EB4510FFF772FAE1B242F608125E
:104FC00002EB4510FFF76BFA6AE07AE006226946C9
:104FD0005846FFF7BEFAA01D84B29DF8000030705D
:104FE0009DF8010070709DF80200B0709DF80300FC
:104FF000F0709DF804709DF8050000EB072087B263
:10500000200200EB451000F1180B3A465146584675
:10501000FFF79FFAE01984B2210A42F6080202EB78
:105020004510FFF73CFAE1B242F6081202EB4510D8
:10503000FFF735FA34E032E0022269465846FFF7BE
:1050400088FAA01C84B29DF800709DF8010000EB66
:105050000720801E87B240F2EA50874204DD1AA082
:1050600000F004F900BFFEE7200200EB451000F15C
:10507000180B3A4651465846FFF76BFAE01984B2CE
:10508000210A42F6080202EB4510FFF708FAE1B2E6
:1050900042F6081202EB4510FFF701FA00E000BFEC
:1050A00000BF4FF4847101EB45104021FFF7F7F981
:1050B00000BF4FF4847101EB4510FFF709FA002897
:1050C000F7D13846BDE8FC9F646174615F6C656E22
:1050D000206F76657220313531340D0A00000000F2
:1050E000D2B201E000F8012B491EFBD2704700222A
:1050F000F6E710B513460A4604461946FFF7F0FFD7
:10510000204610BD30B505462A460B4612F8010B65
:1051100013F8014B08B1A042F8D01CB1002802D00E
:105120006D1CF1E7284630BD10B5044604E00B784D
:1051300000F8013B03B1491C521EF8D2204610BDB5
:10514000421C10F8011B0029FBD1801A704703464E
:1051500011F8012B00F8012B002AF9D118467047ED
:1051600070B50F4D00B92868002412E00A4602E02D
:105170009E4203D0521C1378002BF9D1DAB222439D
:1051800005D02BB124B1002100F8011B04E0044636
:10519000401C0678002EE9D12860204670BD000032
:1051A000C00000202DE9F05F0546002092469B4696
:1051B00088460646814640241BE02846414647462D
:1051C000224600F042F853465A46C01A914110D385
:1051D00011461846224600F029F82D1A67EB0108FF
:1051E0004F4622460120002100F020F817EB00096D
:1051F0004E41201EA4F10104DFDC484631462A4618
:105200004346BDE8F09F0000064C074D06E0E0680D
:1052100040F0010394E8070098471034AC42F6D3FD
:10522000FAF78AFF4057000860570008202A04DB7D
:10523000203A00FA02F1002070479140C2F12003A9
:1052400020FA03F3194390407047202A04DB203AE8
:1052500021FA02F00021704721FA02F3D040C2F196
:105260002002914008431946704700000FB4054BD7
:1052700010B503A9044A029800F02CF810BC5DF8A0
:1052800014FB00006F2C0008C40000200FB4084B72
:1052900010B504A902AA039800F01CF8044602A95C
:1052A000002000F048FA204610BC5DF814FB000016
:1052B0003757000802E008C8121F08C1002AFAD1B7
:1052C00070477047002001E001C1121F002AFBD186
:1052D000704700002DE9FF4F8DB00F4605460026B0
:1052E00006E025280BD0DDE90F1290476D1C761CD7
:1052F00028780028F5D111B03046BDE8F08F0024A1
:10530000A246A1460122EC4900E0044315F8013F02
:10531000203B02FA03F00842F7D128782A2810D05F
:105320006FF02F022878A0F13001092914D80AEB78
:105330008A0102EB410144F0020400EB010A6D1CFA
:10534000F0E701CF5FEA000A03D544F40054CAF144
:10535000000A44F002046D1C28782E2817D115F895
:10536000010F44F004042A280ED06FF02F02287891
:10537000A0F1300109290AD809EB890102EB4101AA
:1053800000EB01096D1CF2E757F8049B6D1C2878AF
:105390006C280FD006DC4C2817D068280DD06A285E
:1053A00014D104E0742810D07A280FD10DE044F411
:1053B00000140AE044F4801401E044F440146978D5
:1053C000814202D104F580146D1C6D1C2A786E2A6E
:1053D0001FD00CDC632A31D004DC002A8BD0582A81
:1053E00011D1A3E0642A68D0692A0CD165E0732A40
:1053F0002ED004DC6F2A73D0702A04D19BE0752A6A
:105400006FD0782A6ED01046DDE90F129047761CD7
:1054100050E1C4F30250022806D0032809D0042822
:1054200001CF09D0066045E101CFF117C0E9006165
:1054300040E101CF06803DE106703BE117F8040B27
:105440008DF8000000208DF80100EB46012003E0FC
:1054500057F804BB4FF0FF3061074FF0000102D452
:105460000DE008F10101884649450FDA8045F8DB77
:105470001BF808100029F4D108E008F10101884662
:105480008142FADB1BF808100029F6D1DDE90F2371
:10549000AAEB08008146214600F036F9304400EBC3
:1054A000080604E0DDE90F121BF8010B9047B8F184
:1054B0000108F7D221464846F7E00A21C4F3025317
:1054C0004FF0000B0891022B04D001CFC117032B22
:1054D00009D00AE0FF1D27F00707F7E8020108E0FE
:1054E00032E01FE020E000B2C117042B01D140B22E
:1054F000C117031E71F1000307DA4FF0000CD0EB67
:105500000C006CEB01012D2302E0230504D52B23B5
:105510008DF82430012303E0E30701D02023F7E7CF
:10552000984658E00A2110E010210EE010204FF0BC
:10553000000B08900CE010214FF0000B44F0040425
:105540004FF00809089103E008214FF0000B089183
:10555000C4F30253022B04D001CF0021032B06D049
:1055600006E0FF1D27F00707F7E8020103E080B21D
:10557000042B00D1C0B24FF0000823072BD5702AAE
:1055800007D0DDF820C08CF0100C5CEA0B0C05D0C5
:105590000EE040238DF82430012308E050EA010397
:1055A00006D030238DF824308DF82520022398462C
:1055B000DDF820C08CF0080C5CEA0B0C0BD150EA33
:1055C000010301D1630706D530238DF824304FF055
:1055D0000108A9F10109582A04D038A20B9208AA9F
:1055E0000A920BE03AA2F9E75B46089AFFF7DAFD68
:1055F0000B9B9B5C0A9A521E0A92137050EA01029E
:10560000F2D10A98ADEB000000F1200B600702D543
:1056100024F4803401E04FF00109D94502DDA9EB03
:105620000B0000E0002000EB0B0141440890AAEBC6
:10563000010AE00306D4DDE90F232146504600F0BD
:1056400063F806444FF0000908E009A911F80900C1
:10565000DDE90F12904709F10109761CC145F4DB21
:10566000E0030CD5DDE90F232146504600F04CF84D
:10567000064404E0DDE90F1230209047761C0899BB
:10568000481E08900029F5DC08E00A980A9900787D
:10569000491C0A91DDE90F129047761CBBF100010D
:1056A000ABF1010BF1DC21465046DDE90F2300F0A0
:1056B00019F806446D1C1BE609280100303132330D
:1056C000343536373839616263646566000000003E
:1056D0003031323334353637383941424344454628
:1056E000000000002DE9F041044600251E46174643
:1056F000880404D405E039462020B0476D1C641EA0
:10570000F9D52846BDE8F0812DE9F0410446002591
:105710001E469046C80301D5302700E020278804A4
:1057200004D505E041463846B0476D1C641EF9D5E6
:105730002846BDE8F0810A68531C0B601070704762
:105740006057000800000020C8000000B4520008A4
:1057500028580008C8000020180E0000C452000895
:1057600000A24A040000000000000000010203043F
:1057700006070809000000000102030401020304F7
:1057800006070809020406080000000000000000E7
:1057900000000000020202020202020202020202F1
:1057A00002020202CC000020D8000020DC00002011
:1057B000E0000020D40000200000000000000000F5
:1057C00000000000050000000000000000000000D4
:1057D00000000000000000000000000057353530D8
:1057E000305332452D5A3100000000000000000007
:1057F00000000000000000000000000000000000A9
:1058000078563412BE060020E5300008FB30000850
:10581000153100080000000000000000000000003A
:08582000000000000000000080
:0400000508000131BD
:00000001FF
