:020000040800F2
:10000000403800203530000845010008470100084D
:100010006B0100086F010008730100080000000078
:100020000000000000000000000000007701000850
:1000300079010008000000007B0100084D30000835
:100040004F3000084F3000084F3000084F30000894
:100050004F3000084F3000084F3000084F30000884
:100060004F3000084F3000084F3000084F30000874
:100070004F3000084F3000084F3000084F30000864
:100080004F3000084F3000084F3000084F30000854
:100090004F3000084F3000084F3000084F30000844
:1000A0004F3000084F3000084F3000084F30000834
:1000B000F10D00084F3000084F3000084F300008A5
:1000C0004F3000084F3000084F3000084F30000814
:1000D0004F3000080B080008E1080008310A00084A
:1000E0004F3000084F3000084F3000084F300008F4
:1000F0004F3000084F3000084F3000084F300008E4
:100100004F3000084F3000084F3000084F300008D3
:100110004F3000084F3000084F3000084F300008C3
:100120004F3000084F3000084F3000084F300008B3
:10013000DFF80CD004F024F80048004785010008DF
:100140004038002070470FE071B600BF0B480068D0
:1001500000F4E0600A490843001D08490860BFF345
:10016000408F00BF00BFFEE7EEE700BFFEE700BF25
:10017000FEE700BFFEE77047704770470CED00E0F8
:100180000000FA0500F03AF94FF4E132114610464A
:1001900000F01AFA00F0EAFC00F0ACF900F000FE02
:1001A0004FF44371062000F0E5FD0121734800F093
:1001B00074F9724800787149098800EB1120704980
:1001C00008706E480068000C6C49096800EB11600B
:1001D0006B494870694800796849898800EB1120AB
:1001E0006749887065484068000C6449496800EBBD
:1001F00011606349C8706148007A6049098900EB61
:1002000011205F4908715D488068000C5B4989686E
:1002100000EB11605A494871087800EBD071491021
:10022000A0EB410121B156480078401C54490870A8
:10023000544853490A6802608988818006225249DD
:100240004F4800F053FD3A2302220C214E4800F0A3
:100250007DFD3A2305220D214B4800F077FD3A231E
:1002600008220E21484800F071FD3A230B220F218D
:10027000454800F06BFD3A230E221021424800F061
:1002800065FD414941A003F08DFF03F0DFFC03F061
:100290006EFD03F0CBFC4249424803F0B1FB002065
:1002A00002F0DAFE012002F0D7FE022002F0D4FEB6
:1002B000032002F0D1FE042002F0CEFE052002F061
:1002C000CBFE062002F0C8FE072002F0C5FE36A0D5
:1002D00003F068FF50E000F05FFD03F003FA3549DA
:1002E0000870084600783449097888422BD0314894
:1002F0000078314908702F48007818B12FA003F01A
:1003000051FF20E031A003F04DFF03F030FD244900
:10031000244803F075FB002002F09EFE012002F04D
:100320009BFE022002F098FE032002F095FE0420BE
:1003300002F092FE052002F08FFE062002F08CFEF5
:10034000072002F089FE254A2549A2F10C0000F0A1
:10035000BFFD244A2449A2F10C0000F0B9FD234A54
:100360002349A2F10C0000F0B3FD224A2249A2F178
:10037000100000F0ADFD00BFADE70000AC010020B3
:10038000E4000020A8000020B80100200D0A4D4123
:1003900043B5D8D6B720202573200D0A00000000F1
:1003A000A0000020980000200D0A73746172740D83
:1003B0000A00000008000020090000200D0ACDF806
:1003C000CFDFC1ACBDD30D0A000000000D0ACDF88F
:1003D000CFDFB6CFBFAA0D0A00000000D801002071
:1003E00018060020E00C002010110020D813002077
:1003F00008180020D41A0020001F002008B54FF470
:10040000A06000F071FF25208DF8000000208DF81D
:1004100001008DF8020001208DF80300684600F00D
:1004200068FF26208DF8000000208DF801000120D3
:100430008DF802008DF80300684600F05AFF27206F
:100440008DF8000000208DF8010002208DF80200D8
:1004500001208DF80300684600F04BFF1C208DF84A
:10046000000001208DF8030003208DF801008DF8B5
:100470000200684600F03DFF08BD71B600BF13489A
:10048000006800F4E06012490843001D0F4908604D
:10049000BFF3408F00BF00BFFEE770B504460D46B6
:1004A0009CB10C4850F8250000682060094850F8BD
:1004B000250040686060074850F825008068A0600B
:1004C00005A094E80E0003F06DFE70BD0CED00E099
:1004D0000000FA050C0000200D0A20D0BEC6ACCEEC
:1004E000A8D2BB49443A2025582D25582D25580D12
:1004F0000A00000010B56FF0040000F044FF2E4821
:1005000000682E49B0FBF1F02D49087008460078CC
:1005100000EB4001C1EBC0104FF6FF7101EAC000D3
:100520002849088010BD0146254A12784A434FF0F9
:10053000E0235A6100229A611A46126942F00102D0
:100540001A6100BF4FF0E022106900F001021AB1F9
:1005500000F48032002AF5D04FF0E022126922F038
:1005600001024FF0E0231A6100229A6170470146B0
:10057000144A12884A434FF0E0235A6100229A61DC
:100580001A46126942F001021A6100BF4FF0E022E0
:10059000106900F001021AB100F48032002AF5D08F
:1005A0004FF0E022126922F001024FF0E0231A61BD
:1005B00000229A61704700007000002000127A004B
:1005C000340000203600002070B586B006460C4688
:1005D00015464FF48062FA49FA4800F099FCC820A9
:1005E000F94B4FF48062F9490090F94800F026FC7D
:1005F000C820F84B4FF48062F7490090F74800F0AC
:100600001DFCC820F64B4FF48062F6490090F64876
:1006100000F014FCC820F54B4FF48062F4490090C0
:10062000F44800F00BFC01214FF4C02001F045F824
:10063000012144F20D0001F033F84FF40070ADF8E1
:10064000140003208DF8160018208DF8170005A956
:10065000E94801F0EDFA4FF48060ADF81400042091
:100660008DF8170005A9E44801F0E2FA0420ADF87E
:10067000140003208DF8160018208DF8170005A926
:10068000DD4801F0D5FA0820ADF8140004208DF8FB
:10069000170005A9D84801F0CBFA4FF48060ADF8F7
:1006A000140003208DF8160018208DF8170005A9F6
:1006B000D24801F0BDFA4FF40060ADF814000420F8
:1006C0008DF8170005A9CD4801F0B2FA0020ADF869
:1006D0000800ADF80A00ADF80C00ADF810000C20D1
:1006E000ADF80E00019601A9C54801F080F801940B
:1006F00001A9C44801F07BF8019501A9C24801F0A5
:1007000076F8012240F22551BD4801F008F9012296
:1007100040F22551BB4801F002F9012240F2255177
:10072000B94801F0FCF8012240F22441B44801F03C
:10073000F6F8012240F22441B24801F0F0F801221B
:1007400040F22441B04801F0EAF80121AC4801F040
:10075000DAF80121AB4801F0D6F80121AA4801F0EE
:10076000D2F806B070BD70B504460D461646A448D2
:1007700084420BD132462946924800F0AEFC012259
:1007800040F22771204601F0CAF81AE09D488442E1
:100790000AD19E4805609E480660012240F22771FA
:1007A000204601F0BCF80CE09748844209D19948F2
:1007B000056099480660012240F22771204601F049
:1007C000AEF870BD70B504460D460BE014F8011B81
:1007D0008B4801F005F900BF8021894801F06EF9CE
:1007E0000028F9D02800A5F10105EFD170BD10B5A2
:1007F00004462146824801F0F3F800BF802180487A
:1008000001F05CF90028F9D010BD38B540F225514F
:100810007B4801F069F9B0B1794801F0E5F8C4B25C
:100820007E487F49096844547D480068401C7C49E3
:1008300008600846006840F2F631884217D9002067
:100840007749086013E040F224416D4801F04CF90B
:1008500001280CD16A48001D00886B4670486F491A
:1008600002685B4800F00AFB00206D49086040F216
:100870002771634801F038F900B3524800F062FB79
:1008800000280ADD012267494E4800F086FB6548D2
:1008900001785B4801F0A4F810E040F22771584855
:1008A00001F04CF9002240F22771554801F037F869
:1008B000012240F22661524801F031F840F22661EF
:1008C0004F4801F011F950B140F226614C4801F057
:1008D00035F9002240F22661494801F020F838BD80
:1008E00038B540F22551474801F0FEF8B0B145480F
:1008F00001F07AF8C4B24C484C49096844544B485A
:100900000068401C494908600846006840F2F6311A
:10091000884217D900204549086013E040F224417D
:10092000384801F0E1F801280CD13648001D008854
:100930006B463E483C490268284800F09FFA002078
:100940003A49086040F227712E4801F0CDF820B3F3
:100950002F48006880B12D4800680178294801F0CF
:100960003FF82A480068401C284908602848006869
:10097000401E2749086010E040F22771214801F02D
:10098000DDF8002240F227711E4800F0C8FF012266
:1009900040F226611B4800F0C2FF40F22661194870
:1009A00001F0A2F850B140F22661164801F0C6F8F5
:1009B000002240F22661134800F0B1FF38BD00006C
:1009C000D4080020080200200C0800201802002093
:1009D000CC01002004130020100D0020D40C0020B6
:1009E000F4200020001B0020C41A0020FC19002065
:1009F00008140020CC13002000080140000C014026
:100A00000038014000440040004800403800002009
:100A1000540000203C0000205C000020BC2100208D
:100A20004000002044000020BC2500205000002091
:100A300038B540F22551444801F056F8B0B142486B
:100A400000F0D2FFC4B241484149096844544048CB
:100A50000068401C3E4908600846006840F2F631D4
:100A6000884217D900203A49086013E040F2244137
:100A7000354801F039F801280CD13348001D0088B1
:100A80006B46334831490268324800F0F7F90020DC
:100A90002F49086040F227712B4801F025F820B358
:100AA0002D48006880B12D4800680178264800F084
:100AB00097FF2A480068401C2849086026480068BB
:100AC000401E2549086010E040F227711E4801F0E1
:100AD00035F8002240F227711B4800F020FF012268
:100AE00040F22661184800F01AFF40F226611648CD
:100AF00000F0FAFF50B140F22661134801F01EF8F1
:100B0000002240F22661104800F009FF38BD38B5D8
:100B100004460D46E0B200901148007838B9012033
:100B20000F49087040F226610E4801F007F80122D3
:100B300069460D4800F0D1FA012240F227710948B8
:100B400000F0EDFE204638BD00480040BC290020E2
:100B500058000020CC1300205C0000203C00002046
:100B600060000020003801400802002008B5012183
:100B70007D2000F095FD4FF40050ADF800001020EE
:100B80008DF8030003208DF802006946084801F043
:100B90004FF82020ADF8000048208DF80300032016
:100BA0008DF802006946034801F042F808BD0000D4
:100BB00000100140000C014010B56B48006803F0C4
:100BC00043FD10BD2DE9F04781460F4690460024B5
:100BD00000260025384603F089FAC5B23946484652
:100BE00003F072FA04460CB36119481C414603F045
:100BF0006BFA0646C6B16119711A481C03F04CFD28
:100C0000594908606019301A411C5748006803F0C0
:100C100050FA6019321A61195348006803F030FA2B
:100C200051480068BDE8F0870020FBE70020F9E7A5
:100C30004E48006820B14E4800784C490968087059
:100C400070472DE9F04180460D46164600240027E6
:100C5000284603F04BFAC7B22946404603F034FA5F
:100C60000446BCB1E119481C314603F02DFA3F4956
:100C700008600846006858B10846006800783C499A
:100C800008700020394909680870E019BDE8F08152
:100C90000020FBE70020F9E72DE9F04707460E4664
:100CA000144698464FF000091FB1384603F01EFA6B
:100CB00008B9BDE8F0871EB1304603F017FA00B955
:100CC000F7E73146384603F019FA054608E004B163
:100CD00020C409F101093146002003F00FFA05464E
:100CE000002DF4D1C8F8009000BFE2E778B50346C4
:100CF0000C46002127E05D5C2D098DF800505D5CFD
:100D000005F00F058DF80150002019E01DF8005086
:100D10000A2D06DA1DF800503035EDB20DF80050FE
:100D200009E01DF80050102D05DA1DF80050573568
:100D3000EDB20DF800501DF8005004F8015B401CA6
:100D40000228E3D3491C9142D5D378BD70B50C4637
:100D5000611E03E0465C4D1C4655491E9142F9DA7E
:100D60008354641C70BD00006400002068000020F3
:100D70006C00002070B505460C4645F2555001F058
:100D8000B3FF284601F0B3FF204601F0B3FF01F0A6
:100D9000B4FF01F0B7FF70BD10B501F0AEFF10BD9C
:100DA0000EB50121084600F088FC4FF0804001F0AC
:100DB0008DF80020ADF80600ADF802000A20ADF86D
:100DC000040041F61F40ADF8000069464FF0804036
:100DD00001F050F90121880701F082FF0121880705
:100DE00001F0A4FC01221146900701F0BAFC0EBDEF
:100DF00010B50121880701F062FF01281BD10121F4
:100E0000800701F06DFF0C48406828B10A4840692E
:100E1000401C0949486102E0002007494861064832
:100E2000806828B104488069401C0349886102E059
:100E300000200149886110BDBC2D00202DE9F04142
:100E400004460E4617461D46DDF8188072B63A462F
:100E5000314604F11C0000F05BF84246294604F1DB
:100E60002C0000F055F80020206060602072E060E7
:100E700060722061606162B6BDE8F0817FB50446B2
:100E80000E461D4672B604F11C0000F077F8029978
:100E9000884218D904F12C0000F070F804280EDD07
:100EA000314604F11C00029A00F017F9042202A94D
:100EB00004F12C0000F011F90020286006E04FF04A
:100EC000FF30286002E06FF00100286062B67FBD4D
:100ED00070B504460E46154672B60020286004F12F
:100EE0002C0000F02FF8042810DB042204F1180174
:100EF00004F12C0000F051F8A069002806DD31460D
:100F000004F11C00A26900F048F8286062B670BDC8
:100F100000B970470260C160C3684360C368836002
:100F200000BFF6E700B970470021C16041608160F1
:100F3000016000BFF7E7014611B94FF0FF3070477D
:100F40000868FCE700B5024612B94FF0FF3000BD5B
:100F5000D2E90101884201D10020F8E7D2E901017C
:100F6000884203D2D2E90110401AF0E71046FFF799
:100F7000E2FFD2E90113C91A401AE8E730B5044686
:100F800014B94FF0FF3030BD2046FFF7D4FF0546BF
:100F90002046FFF7D7FF281AF5E72DE9F041044670
:100FA0000F461646002514B9681EBDE8F08117B932
:100FB0004FF0FF30F9E7D4E90101884214D220460E
:100FC000FFF7C0FFB04201D9304602E02046FFF7EC
:100FD000B9FF05462A463846616803F051F8606853
:100FE000284460602846E0E72046FFF7A4FFE26857
:100FF0006168891A401AB0420AD935462A463846ED
:10100000616803F03DF86068284460602846CCE7DA
:101010002046FFF790FFE2686168891A451A2A4660
:101020003846616803F02CF8E0686060721B79193B
:101030002046FFF7B2FF05442846B6E72DE9F04108
:1010400004460F461546002614B9701EBDE8F0810F
:1010500017B94FF0FF30F9E72046FFF78FFFA8429E
:1010600002D84FF0FF30F1E7D4E9010188422AD8D5
:101070002046FFF760FFD4E90212891A461AB542EA
:1010800013D82A463946A06802F0FAFFA06828441F
:10109000A0602046FFF74FFFE1680844A16888423E
:1010A00001D1E068A0602846D0E732463946A06802
:1010B00002F0E6FFE068A060AA1BB9192046FFF71E
:1010C000BDFF3044C2E72A463946A06802F0D8FF87
:1010D000A0682844A0602846B8E72DE9F0410746FB
:1010E0000C461546002614B9701EBDE8F0812A464C
:1010F00021463846FFF7A2FF0646AE4202D04FF027
:10110000FF30F2E73046F0E70CB500200190009088
:101110006C48006840F480306A49086000BF694844
:10112000006800F4003000900198401C0190009885
:1011300018B90198B0F5A06FF1D16248006800F4C9
:10114000003010B10120009001E0002000900098D4
:10115000012843D15C48006840F010005A490860FB
:101160000846006820F0030008600846006840F068
:101170000200086053484068524948600846406889
:1011800048600846406840F480604860084640680F
:1011900020F47C1048600846406840F4E81048603D
:1011A0000846006840F08070086000BF454800684D
:1011B00000F000700028F9D04248406820F0030099
:1011C000404948600846406840F00200486000BF5F
:1011D0003C48406800F00C000828F9D10CBD10B55F
:1011E000FFF792FF10BD10B53648006840F00100CF
:1011F000344908600846406834490840314948602D
:1012000008460068324908402E49086008460068D0
:1012100020F4802008600846406820F4FE00486002
:101220004FF41F008860FFF7DAFF4FF00060294994
:10123000086010BD10B5002100200022214B5B6822
:1012400003F00C0121B1042906D0082928D107E0B8
:10125000214B224C236027E01F4B204C236023E0CE
:10126000184B5B6803F47010164B5B6803F4803214
:10127000022303EB904022B9194B4343174C2360E0
:101280000DE0104B5B6803F4003323B1144B434370
:10129000124C236003E0104B4343104C236003E0E7
:1012A0000D4B0E4C236000BF00BF064B5B68C3F3C1
:1012B00003130C4CE15C094B1B68CB40074C2360CB
:1012C00010BD000000100240002002400000FFF8A6
:1012D000FFFFF6FE08ED00E000127A00700000202B
:1012E00000093D007400002031490143314A11607A
:1012F000704770B5002100230F22C47804B32D4C31
:10130000246804F4E064C4F5E064210AC1F1040334
:10131000CA40447804FA03F1847814402143090157
:10132000254C0678A155047804F01F050124AC4033
:1013300005786D11AD0005F1E025C5F8004109E023
:10134000047804F01F050124AC401C4D067876118A
:1013500045F8264070BD1A4A0A400243154B1B1F30
:101360001A60704739B1134A121D12680243114BBB
:101370001B1D1A6006E00F4A121D126882430D4BB6
:101380001B1D1A607047042808D14FF0E02109693D
:1013900041F004014FF0E022116107E04FF0E0213D
:1013A000096921F004014FF0E0221161704700004B
:1013B0000000FA050CED00E000E400E080E100E050
:1013C00080FFFF1FDF48006840F00100DD49086032
:1013D00008464068DC490840DA4948600846006829
:1013E000DA490840D74908600846006820F48020A0
:1013F00008600846406820F4FE0048604FF41F0073
:1014000088607047CF49096821F48031CD4A116066
:101410001146096821F480211160B0F5803F03D0A6
:10142000B0F5802F0ED106E0C649096841F480313D
:10143000C44A116007E0C349096841F4A021C14AC8
:10144000116000E000BF00BF704710B501460022E8
:10145000002300204A11012A02D1BA4C236806E079
:10146000022A02D1B74C236A01E0B64C636A01F04C
:101470001F02012494401C400CB1012000E0002018
:1014800010BD38B5002000900024002500BF312099
:10149000FFF7DBFF05460098401C00900098B0F570
:1014A000A06F01D0002DF2D03120FFF7CEFF08B1A0
:1014B000012400E00024204638BD01460020A14A56
:1014C000106820F0F80040EAC10010607047A049A1
:1014D00008607047024600209A4B586820F47C1040
:1014E00042EA01031843974B5860704798490866D1
:1014F000704701460020934A506820F003000843DB
:10150000506070478F48406800F00C0070470146FB
:1015100000208C4A506820F0F0000843506070476B
:1015200001460020874A506820F4E060084350607C
:10153000704701460020834A506820F4605040EA1A
:10154000C1005060704729B17E4A527A02437D4BF8
:101550005A7204E07B4A527A82437A4B5A7270473D
:101560007B49D8310860704701460020754A5068B1
:1015700020F440400843506070470021714A2032F7
:101580001170704A82F82010012802D004280AD174
:1015900004E001216B4A2032117005E00521694AFF
:1015A0002032117000E000BF00BF70476949086039
:1015B00070476449096A0143624A1162704765498C
:1015C00044390860704730B5002100220024002310
:1015D0005C4D6D6805F00C0121B1042905D0082986
:1015E00023D105E05C4D056022E05B4D05601FE006
:1015F000544D6D6805F47012524D6D6805F48034D9
:10160000022505EB92421CB9544D554305600BE091
:101610004C4D6D6805F400351DB1504D55430560C6
:1016200002E04D4D5543056002E04B4D056000BFA3
:1016300000BF444D6D6805F0F0010909484D6B5C31
:101640000568DD4045603F4D6D6805F4E061090ABD
:10165000434D6B5C4568DD4085603A4D6D6805F42F
:101660006051C90A3E4D6B5C4568DD40C560354D33
:101670006D6805F44041890B3A4D6B5CC568B5FB5C
:10168000F3F5056130BD29B12E4A526902432D4B55
:101690005A6104E02B4A526982432A4B5A617047CF
:1016A00029B1284A92690243264B9A6104E0254AEF
:1016B00092698243234B9A61704729B1214AD269CA
:1016C0000243204BDA6104E01E4AD26982431D4B7B
:1016D000DA61704729B11B4AD2680243194BDA60BC
:1016E00004E0184AD2688243164BDA60704729B189
:1016F000144A12690243134B1A6104E0114A126939
:101700008243104B1A617047124940390860704794
:101710000F49C86470470B49C87170470948406A4F
:1017200040F0807007494862704701460020054A32
:1017300092680A400AB1012000E000207047014988
:1017400088727047001002400000FFF8FFFFF6FEAD
:10175000000042428004424200127A0000093D002B
:10176000840000209400002010B50446FB48844209
:1017700009D101218803FFF7ADFF00214FF480401C
:10178000FFF7A8FF32E0F648844209D1012148045E
:10179000FFF7ADFF00214FF40030FFF7A8FF25E071
:1017A000F048844209D101218804FFF7A0FF0021FD
:1017B0004FF48020FFF79BFF18E0EB48844209D1EB
:1017C0000121C804FFF793FF00214FF40020FFF729
:1017D0008EFF0BE0E548844208D101210805FFF7A0
:1017E00086FF00214FF48010FFF781FF10BD2DE927
:1017F000F04786B005460E460024A24600BFA1462B
:101800000027B08900B100BF2F462C8A4CF6FF702C
:101810000440F08804432C82AC894EF6F310044057
:10182000B08831890843718908430443AC81AC8A8C
:101830004FF6FF400440B0890443AC8201A8FFF793
:10184000C2FEC648874202D1DDF810A001E0DDF8F3
:101850000CA0A88900F4004040B10AEBCA0000EBDC
:101860000A1031684900B0FBF1F807E00AEBCA0042
:1018700000EB0A1031688900B0FBF1F86420B8FB76
:10188000F0F004012009642101FB1089A88900F40B
:10189000004040B1322000EBC900B0FBF1F000F095
:1018A0000700044308E0322000EB09106421B0FB7C
:1018B000F1F000F00F0004432C8106B0BDE8F08782
:1018C0004FF41651016000218180C18001810C21FB
:1018D000418100218181704710B502460020108AA5
:1018E0004FF2FF0318400B884C8823438C88234316
:1018F000CC8823431843108210BD00210180418011
:101900008180C180704721B1828942F40052828176
:1019100004E082894DF6FF731A4082817047F0B56A
:101920000346002400260025002040F66A17B9422D
:1019300000D100BF1846C1F3421401F01F06012771
:1019400007FA06F5012C01D10C3004E0022C01D17C
:10195000103000E014301AB107682F43076002E02E
:101960000768AF430760F0BD1AB1838A0B438382D7
:1019700002E0838A8B4383827047028A4FF6F073BA
:101980001A400282028A0A430282704782894FF219
:10199000FF731A40828182890A438281704721B194
:1019A000828942F00202828104E082894FF6FD734F
:1019B0001A4082817047028A4FF6DF731A40028212
:1019C000028A0A430282704721B1028A42F48042AD
:1019D000028204E0028A4BF6FF731A4002827047CB
:1019E000C1F308028280704701468888C0F308006E
:1019F0007047818941F0010181817047028BD2B229
:101A00000283028B42EA012202837047028B02F4B6
:101A10007F420283028B0A430283704721B1828A8C
:101A200042F02002828204E0828A4FF6DF731A407D
:101A30008282704721B1828A42F01002828204E0E1
:101A4000828A4FF6EF731A408282704721B1828AF0
:101A500042F00802828204E0828A4FF6F7731A404D
:101A60008282704721B1828942F40042828103E080
:101A70008289C2F30E028281704721B1828A42F4C8
:101A80000062828204E0828A4FF2FF731A408282EF
:101A90007047828A4FF6FB731A408282828A0A4319
:101AA0008282704721B1828A42F00202828204E07F
:101AB000828A4FF6FD731A408282704702460020E8
:101AC000B1F5007F00D100BF13880B400BB101209E
:101AD00000E00020704701F40072B2F5007F00D1F1
:101AE00000BFCA430280704770B50246002400233D
:101AF0000025002040F66A16B14200D100BFC1F3B4
:101B0000421501F01F03012606FA03F3012D02D14D
:101B10009689334006E0022D02D1168A334001E057
:101B2000968A33400C12012606FA04F416883440D3
:101B300013B10CB1012000E0002070BD10B50022EF
:101B4000002340F66A14A14200D100BF0A1201240A
:101B50009440A3B2DC43048010BD00000038014073
:101B60000044004000480040004C0040005000404D
:101B700010B50446CC48844208D101210420FFF767
:101B8000A9FD00210420FFF7A5FD46E0C7488442D7
:101B900008D101210820FFF79DFD00210820FFF753
:101BA00099FD3AE0C248844208D101211020FFF794
:101BB00091FD00211020FFF78DFD2EE0BD488442ED
:101BC00008D101212020FFF785FD00212020FFF70B
:101BD00081FD22E0B848844208D101214020FFF76E
:101BE00079FD00214020FFF775FD16E0B3488442DF
:101BF00008D101218020FFF76DFD00218020FFF733
:101C000069FD0AE0AE48844207D101218015FFF743
:101C100061FD0021A015FFF75DFD10BD10B501218C
:101C20000846FFF757FD00210120FFF753FD10BDC7
:101C30002DE9F04102460025002600200023002463
:101C4000002791F803C00CF00F0591F803C00CF0C9
:101C5000100CBCF1000F03D091F802C04CEA05054E
:101C600091F800C0BCF1000F31D0146800202BE0C7
:101C70004FF0010C0CFA00F3B1F800C00CEA0306B7
:101C80009E4220D183004FF00F0C0CFA03F7BC43A7
:101C900005FA03FC4CEA040491F803C0BCF1280FD8
:101CA00006D14FF0010C0CFA00FCC2F814C00AE097
:101CB00091F803C0BCF1480F05D14FF0010C0CFAAC
:101CC00000FCC2F810C0401C0828D1D31460B1F841
:101CD00000C0BCF1FF0F34DD546800202EE000F19D
:101CE000080C4FF0010808FA0CF3B1F800C00CEA38
:101CF00003069E4221D183004FF00F0C0CFA03F72C
:101D0000BC4305FA03FC4CEA040491F803C0BCF19F
:101D1000280F05D100F1080C08FA0CF8C2F814805D
:101D200091F803C0BCF1480F07D100F1080C4FF047
:101D3000010808FA0CF8C2F81080401C0828CED31D
:101D40005460BDE8F0814FF6FF710180022181707F
:101D50000421C17070470246002093680B400BB10C
:101D6000012000E0002070470146886880B270477B
:101D700002460020D3680B400BB1012000E0002098
:101D800070470146C86880B2704701617047416181
:101D900070470AB1016100E041617047C16070475E
:101DA0004FF480320A438261816182618269826973
:101DB000704702460020434B18684FF68073184066
:101DC00040EA021008433F4B186070473E49C86123
:101DD0007047F0B50A46002300240021002500F0DA
:101DE0000046B6F1004F02D1364EF16901E0354EA2
:101DF0007168C0F3034583B200F44016B6F5401F86
:101E000008D121F070612F4E766826F070662D4F54
:101E10007E6012E000F48016B6F5801F06D103261E
:101E200006FA05F4A14341F0706106E0460D360163
:101E300003FA06F6B14341F0706122B1460D360156
:101E400003FA06F6314300F00046B6F1004F02D126
:101E50001C4EF16101E01B4E7160F0BD30B50022F7
:101E60008B071C0F0F2303FA04F2164B08338C1058
:101E700053F824309343134C08348D1044F8253024
:101E800023468C1053F824308C07240F00FA04F4F6
:101E900023430C4C08348D1044F8253030BD0A49DA
:101EA000DC3108607047000000080140000C014070
:101EB000001001400014014000180140001C0140C6
:101EC00000200140000001400000204210B50446FF
:101ED000FE48844208D10121C014FFF7FBFB00211A
:101EE000E014FFF7F7FBC4E0B4F1804F08D1012103
:101EF0000846FFF7FCFB00210120FFF7F8FBB8E0E4
:101F0000F348844208D101210220FFF7F0FB0021B1
:101F10000220FFF7ECFBACE0EE48844208D101213F
:101F20000420FFF7E4FB00210420FFF7E0FBA0E022
:101F3000E948844208D101210820FFF7D8FB00219D
:101F40000820FFF7D4FB94E0E448844208D1012143
:101F50001020FFF7CCFB00211020FFF7C8FB88E022
:101F6000DF48844208D101212020FFF7C0FB002177
:101F70002020FFF7BCFB7CE0DA48844208D1012135
:101F80004014FFF7A7FB00216014FFF7A3FB70E0EC
:101F9000D548844209D10121C804FFF79BFB0021E9
:101FA0004FF40020FFF796FB63E0D048844209D14C
:101FB00001210805FFF78EFB00214FF48010FFF789
:101FC00089FB56E0CA48844209D101214805FFF740
:101FD00081FB00214FF40010FFF77CFB49E0C5486E
:101FE000844208D101214020FFF781FB00214020DD
:101FF000FFF77DFB3DE0C048844208D101218020ED
:10200000FFF775FB00218020FFF771FB31E0BB4833
:10201000844208D101218015FFF769FB0021A0153A
:10202000FFF765FB25E0B648844209D10121080489
:10203000FFF750FB00214FF48030FFF74BFB18E017
:10204000B048844209D101214804FFF743FB002135
:102050004FF40030FFF73EFB0BE0AB48844208D161
:1020600001218804FFF736FB00214FF48020FFF7A1
:1020700031FB10BD00220288944B98420ED0994B40
:1020800098420BD0B0F1804F08D0914B984205D0C8
:10209000904B984202D0904B984204D14FF68F73E8
:1020A0001A404B881A438D4B984207D08C4B98426C
:1020B00004D04FF6FF431A40CB881A4302808B8826
:1020C00083850B880385814B98420BD0854B9842C2
:1020D00008D08B4B984205D08A4B984202D08A4B4D
:1020E000984201D10B7A038601238382704770B531
:1020F000002400220023058C4FF6FE76354005842F
:10210000028C8388048B4FF68F752C40B51E2C40B3
:102110000D882C43751E2A400D892A434D882A4379
:102120006A4DA8420BD06F4DA84208D0744DA8420A
:1021300005D0744DA84202D0734DA84213D14FF67A
:10214000F7752A404D892A434FF6FB752A408D8842
:102150002A434FF6FF652B404FF6FF552B408D89E4
:102160002B43CD892B4383800483CD8885860284CD
:1021700070BD70B5002400220023058C4FF6EF7669
:1021800035400584028C8388048B48F6FF752C400B
:102190004FF6FF452C400D884FF6FF7606EA0525E1
:1021A0002C434FF6DF752A400D8906EA05152A43B0
:1021B0004D8806EA05152A43444DA84202D0494DF0
:1021C000A8421DD14FF67F752A404D894FF6FF7604
:1021D00006EA05152A434FF6BF752A408D8806EAA0
:1021E00005152A434FF6FF352B404FF2FF752B4064
:1021F0008D8906EA85052B43CD8906EA85052B43A3
:1022000083800483CD880587028470BD70B5002467
:1022100000220023058C4FF6FF6635400584028CB2
:102220008388848B4FF68F752C404FF6FC752C40BD
:102230000D882C434FF6FF552A400D894FF6FF7647
:1022400006EA05252A434D8806EA05252A431F4D3F
:10225000A84202D0234DA8421DD14FF2FF752A405B
:102260004D894FF6FF7606EA05252A434FF6FF35DE
:102270002A408D8806EA05252A434EF6FF752B4035
:102280004DF6FF752B408D8906EA05152B43CD8948
:1022900006EA05152B4383808483CD8885870284D5
:1022A00070BD70B5002200230024058C4EF6FF7629
:1022B00035400584038C8488828B48F6FF752A405C
:1022C0004FF6FF452A400D8820E00000002C014019
:1022D0000004004000080040000C004000100040D6
:1022E0000014004000340140004C01400050014007
:1022F0000054014000180040001C00400020004035
:102300000040014000440140004801404FF6FF7684
:1023100006EA05252A434DF6FF752B400D8906EA8E
:1023200005352B434D8806EA05352B43FA4DA84267
:1023300002D0FA4DA84208D14BF6FF752C408D898A
:102340004FF6FF7606EA85152C4384808283CD887C
:10235000A0F84050038470BD828B4FF2FF331A40C7
:102360008283828B4FF6FF7303EA01231A43828331
:102370007047F0B50C461546002200210026078C58
:102380004EF6FF7C07EA0C070784828B018C4FF620
:10239000FF7707EA043640F6FF473A404FF6FF77EB
:1023A00007EA05273A434FF6FF7707EA03373A4330
:1023B000D94FB8420ED0D94FB8420BD0B0F1804FB0
:1023C00008D0D74FB84205D0D64FB84202D0D64F2A
:1023D000B84206D14DF6FF77394046F4805739436D
:1023E00005E047F6FF57394044F48057394382836C
:1023F0000184F0BD828B4FF6F3731A408283828B87
:102400000A4382837047F0B50C461546002200212E
:102410000026078C4FF6FF6C07EA0C070784828BB7
:10242000018C4FF6FF7707EA04264FF60C773A4007
:102430004FF6FF7707EA03172F433A43B64FB842E8
:102440000ED0B64FB8420BD0B0F1804F08D0B44F89
:10245000B84205D0B34FB84202D0B34FB84206D10C
:102460004FF6FF57394046F48077394305E04FF285
:10247000FF57394044F48077394382830184F0BDAB
:10248000028B4FF2FF331A400283028B4FF6FF7329
:1024900003EA01231A4302837047F0B50C46154640
:1024A000002200210026078C4FF6EF7C07EA0C077C
:1024B0000784028B018C4FF6FF7707EA041640F67B
:1024C000FF473A404FF6FF7707EA03373A434FF6A4
:1024D000FF7707EA05273A438F4FB8420ED08F4F58
:1024E000B8420BD0B0F1804F08D08D4FB84205D024
:1024F0008C4FB84202D08C4FB84206D14FF6DF77EE
:10250000394046F01007394305E04FF65F77394010
:1025100044F01007394302830184F0BD028B4FF66B
:10252000F3731A400283028B0A4302837047F0B5AB
:102530000C46154600220021068C4FF6FE773E40E1
:102540000684028B018C4FF60C7632407E1C06EA24
:1025500003162E433243704EB0420ED06F4EB0423F
:102560000BD0B0F1804F08D06D4EB04205D06D4E0B
:10257000B04202D06C4EB04206D14FF6FD763140EB
:1025800044F00106314305E04FF6F576314044F062
:102590000106314302830184F0BD70B505460C4647
:1025A0005D4885420ED05D4885420BD0B5F1804F25
:1025B00008D05B48854205D05A48854202D05A4827
:1025C000854200D100E000BF208850B92389A2884D
:1025D00061882846FFF7ABFFE1882846FFF79EFF9A
:1025E00025E0208804280AD12389A288618828460A
:1025F000FFF753FFE1882846FFF742FF17E02088E6
:1026000008280AD12389A28861882846FFF7FBFEA3
:10261000E1882846FFF7EEFE09E02389A288618859
:102620002846FFF7A6FEE1882846FFF795FE70BD15
:102630002DE9F04105460C4600260127608808B9BF
:10264000022600E00026A088012801D1022700E030
:1026500001272088A0B92389A28861882846FFF72E
:1026600066FFE1882846FFF759FF23893A4631463D
:102670002846FFF712FFE1882846FFF701FF13E025
:102680002389A28861882846FFF707FFE18828464A
:10269000FFF7F6FE23893A4631462846FFF747FF03
:1026A000E1882846FFF73AFFBDE8F0810A884B88A9
:1026B0001A438B881A43CB881A430B891A434B89D8
:1026C0001A438B891A43A0F8442070474FF6FF71D4
:1026D000818000210180C18041800172704700210A
:1026E000018041808180C180018141818181C181DE
:1026F0007047002101804180012181800021C1803B
:10270000018170470021018041808180C180018169
:102710004181818170470000002C0140003401405C
:102720000004004000080040000C004021B1028875
:1027300042F00102028004E002884FF6FE731A4064
:102740000280704731B1B0F8442042F40042A0F852
:10275000442005E0B0F84420C2F30E02A0F8442063
:1027600070471AB183890B43838102E083898B43CD
:10277000838170478182704741EA0203A0F84830A4
:1027800070471AB183890B43838102E083898B43AD
:102790008381704701894FF6F872114001817047BB
:1027A0000A46002101894FF68F73194011430181B8
:1027B000704730B504460D4629462046FFF7F0FF26
:1027C000208940F00700208130BD2DE9F04104460A
:1027D0000D4616461F46602D06D13B460122314666
:1027E0002046FFF75AFE05E03B46012231462046CF
:1027F000FFF79DFE29462046FFF7D2FF208940F0D3
:1028000007002081BDE8F08130B50C460021018928
:10281000C9B24FF6FF7505EA032515432543294341
:10282000018130BD2DE9F04105460E461746984618
:10283000002443463A4631462846FFF7E5FF2C89F7
:102840004FF6F870044044F007044FF68F700440D0
:1028500044F070042C81BDE8F081F0B504460D46CB
:1028600016461F463B46324629462046FFF7CCFF18
:10287000208940F480402081F0BD0185828270472C
:102880000A46002101884FF68F73194011430180D9
:102890007047F0B50C4615461E4600210022002365
:1028A0000189028B038C4FF6F877394021434FF6AC
:1028B000FC473A4040F201173A434FF6DD773B4080
:1028C0004FF6FF7707EA06172F433B430181028348
:1028D0000384F0BD0A460021018B4FF68F73194027
:1028E0001143018370470A460021018B48F6FF73AC
:1028F00019404FF6FF7303EA02231943018370471F
:102900000A460021818B4FF68F7319401143818352
:1029100070470A460021818B48F6FF7319404FF635
:10292000FF7303EA022319438183704721B10288B0
:1029300042F08002028004E002884FF67F731A4062
:102940000280704721B1828842F00402828004E054
:1029500082884FF6FB731A408280704721B18288CB
:1029600042F00802828004E082884FF6F7731A4032
:102970008280704721B1828842F00102828004E0A7
:1029800082884FF6FE731A40828070470A46002103
:10299000018B4FF6F77319401143018370470A46C4
:1029A0000021018B4FF2FF7319404FF6FF7303EACA
:1029B00002231943018370470A460021818B4FF699
:1029C000F77319401143818370470A460021818BB8
:1029D0004FF2FF7319404FF6FF7303EA02231943C6
:1029E000818370470A460021018B4FF6FB73194023
:1029F0001143018370470A460021018B4FF6FF33D4
:102A000019404FF6FF7303EA02231943018370470D
:102A10000A460021818B4FF6FB73194011438183D5
:102A200070470A460021818B4FF6FF3319404FF65D
:102A3000FF7303EA02231943818370470A4600218A
:102A4000018B4FF67F7319401143018370470A468B
:102A50000021018BC1F30E014FF6FF7303EA02233D
:102A60001943018370470A460021818B4FF67F731B
:102A700019401143818370470A460021818BC1F3BD
:102A80000E014FF6FF7303EA022319438183704757
:102A90000A460021018C4FF6FD7319401143018451
:102AA00070470A460021018C4FF6F7731940114315
:102AB000018470470A460021018C4FF6DF731940EC
:102AC0004FF6FF7303EA02131943018470470A4665
:102AD0000021018C4FF67F7319404FF6FF7303EA14
:102AE00002131943018470470A460021018C4FF6F6
:102AF000FF5319404FF6FF7303EA02231943018481
:102B000070470A460021018C4FF2FF7319404FF6BF
:102B1000FF7303EA02231943018470470A46002128
:102B2000018C4DF6FF7319404FF6FF7303EA023331
:102B300019430184704730B5002301248C40A3B2AF
:102B4000048C9C430484048C02FA01F5ADB22C433E
:102B5000048430BD30B5002304248C40A3B2048C1F
:102B60009C430484048C02FA01F5ADB22C43048426
:102B700030BD70B5034600200024184618300125EA
:102B80008D40ACB21D8CA5431D8409B1082909D123
:102B900000EB6100056825F07005056005681543C8
:102BA00005600EE00D1FC5F34E052844056825F4A9
:102BB000E045056005684FF6FF7606EA02263543D4
:102BC000056070BD21B1028842F00202028004E07B
:102BD00002884FF6FD731A400280704721B10288C7
:102BE00042F00402028004E002884FF6FB731A40B0
:102BF0000280704721B1828842F08002828004E026
:102C000082884FF67F731A408280704702884FF6A1
:102C1000F7731A40028002880A4302807047828854
:102C20004FF68F731A40828082880A4382807047F1
:102C300002894FF6F8731A40028102890A43028121
:102C4000704702894FF67F731A40028102890A4356
:102C50000281704781847047818570478186704703
:102C60000187704781877047A0F84010704702883D
:102C70004FF6FF431A40028002880A4302807047E1
:102C80000146888E70470146088F70470146888F3D
:102C900070470146B1F8400070470146888C704784
:102CA0000146088D704702460020138A0B400BB185
:102CB000012000E000207047CA430282704730B50F
:102CC0000246002000230024158A05EA01039589A5
:102CD00005EA010413B10CB1012000E0002030BD71
:102CE000CA430282704700000E49086070470D49D0
:102CF000486070470B49886070474AF6AA20094926
:102D0000086070474CF6CC400649086070470146A1
:102D10000020044AD2680A400AB1012000E00020E5
:102D2000704700000030004010B50446BE488442A1
:102D300008D101218014FEF7CDFC0021A014FEF77C
:102D4000C9FC16E0B948844208D101210014FEF7FD
:102D5000CEFC00212014FEF7CAFC0AE0B4488442ED
:102D600007D10121C013FEF7C2FC0021E013FEF7DA
:102D7000BEFC10BD10B50022028802F441520B883F
:102D80004C8823438C882343CC8823430C892343DA
:102D90004C8923438C892343CC8923431A430280E3
:102DA000838B4FF2FF74234083830B8A038210BD11
:102DB0002DE9F04F85B005460C464FF0000902277B
:102DC0004FF000084FF0010B0026B246A88B4FF2DF
:102DD00040010840A88302202884B5F81C90A06810
:102DE000022801D100BF38E0A08810B94FF0010BD4
:102DF00001E04FF0020B8D48854200D100E000BF9A
:102E00006846FEF7E0FBDDF800A0E088B0F5007F43
:102E10000AD14FEA1A2000EB80004000A168B0FB05
:102E2000F1F0401D86B20BE04FEA4B10BAFBF0F018
:102E300000EB80004000A168B0FBF1F0401D86B2BD
:102E40000A20B6FBF0F606F00108A6EB0800C0F376
:102E50004F074FF6FF7000EA0828022F01DBFF2F13
:102E600002DD02274FF00008E08840EA08003843FE
:102E70002884A088A18908436188084321880843E1
:102E800040F4006040EA0909A5F81C9005B0BDE8CF
:102E9000F08F0021018041808180C18001814181CA
:102EA0008181C18107210182704700210180418019
:102EB0008180C1800221816000218181704721B120
:102EC000028842F04002028004E002884FF6BF739D
:102ED0001A400280704721B1828B42F48062828363
:102EE00004E0828B4FF6FF331A408283704730B57F
:102EF000002400230C110125A540ABB21AB185882E
:102F00001D43858002E085889D43858030BD1AB1D0
:102F100083880B43838002E083888B4383807047E0
:102F2000818170470146888970474FF6FF62914260
:102F300004D0028842F48072028004E002884FF6D6
:102F4000FF631A400280704721B1828842F0040278
:102F5000828004E082884FF6FB731A4082807047BB
:102F600002884FF2FF731A40028002880A430280EF
:102F70007047018841F480510180704721B1028877
:102F800042F40052028004E002884DF6FF731A40BA
:102F90000280704702460020012901D0108B00E01A
:102FA000908A70470146088A7047B1F5804F04D176
:102FB000028842F48042028004E002884BF6FF73EC
:102FC0001A40028070470246002013890B400BB163
:102FD000012000E000207047CA4302817047F0B52D
:102FE0000246002000240023002501F00F070126DF
:102FF000BE40B4B20B1101269E40B3B2968806EAD9
:1030000003051689264016B10DB1012000E000200D
:10301000F0BD10B5002201F00F040123A3409AB2C5
:10302000D343038110BD0000003001400038004050
:10303000003C00400648804706480047FEE7FEE7A0
:10304000FEE7FEE7FEE7FEE7FEE7FEE7FEE7FEE758
:10305000E71100083101000810B504464FF48471EF
:1030600001EB4410102100F0B4FE00BF4FF4847156
:1030700001EB441000F0C6FE0028F7D14FF40271B6
:1030800001EB4410FF2100F0A4FE10BD2DE9F0413A
:1030900004460D461646984605F00F0001280FD04D
:1030A00005F00F0002280BD005F00F00032807D011
:1030B00005F00F00042803D005F00F00052841D1CA
:1030C0002046FFF7C9FF45EA0801082202EB441039
:1030D00000F07FFE76B1310A4FF4816202EB4410BA
:1030E00000F077FEF1B24FF4A16202EB441000F061
:1030F00070FE15E0FE480088401CFD4908800A4625
:103100001288110A4FF4816202EB441000F061FE54
:10311000F74A11784FF4A16202EB441000F059FE17
:103120004FF4847101EB4410012100F052FE00BF06
:103130004FF4847101EB441000F064FE0028F7D1D5
:10314000012700E000273846BDE8F08170B504464D
:103150004FF4427101EB441000F054FE132811D1DA
:103160004FF4847101EB4410022100F032FE00BFE5
:103170004FF4847101EB441000F044FE0028F7D1B5
:10318000012500E00025284670BD2DE9F0410546E7
:103190000C4616462078FF2808D16078FF2805D114
:1031A000A078FF2802D1E078FF2808D0207828B93D
:1031B000607818B9A07808B9E07800B10EB9002796
:1031C0005CE00127217840F6084202EB451000F050
:1031D00000FE617840F6085202EB451000F0F9FD60
:1031E000A17840F6086202EB451000F0F2FDE178AC
:1031F00040F6087202EB451000F0EBFD310A41F297
:10320000080202EB451000F0E4FDF1B241F20812B1
:1032100002EB451000F0DDFD4FF4847101EB451029
:10322000042100F0D6FD00BF4FF4847101EB45107E
:1032300000F0E8FD0028F7D117E04FF4427101EBF0
:10324000451000F0DFFD172800D116E0284600F0F9
:10325000F2FA00F0080040B14FF4027101EB4510A2
:10326000082100F0B6FD002707E04FF4427101EBA2
:10327000451000F0C7FD1528DFD100BF3846BDE876
:10328000F08110B504464FF4847101EB441008211D
:1032900000F09FFD00BF4FF4847101EB441000F07B
:1032A000B1FD0028F7D110BD2DE9F047044688464E
:1032B000164600250027A946204600F02CFAB04209
:1032C00004DA204600F027FA074600E0374600BF40
:1032D000204600F0CDFA81464FF4427101EB4410D4
:1032E00000F090FD0546172D03D01C2D01D00027BE
:1032F00001E0B945ECDB00BF3A464146204600F00C
:103300000BFB4FF4847101EB4410202100F061FDB0
:1033100000BF4FF4847101EB441000F073FD0028EE
:10332000F7D113E04FF4427101EB441000F06AFD55
:103330000546172D0AD01C2D08D06EA000F032FFD4
:103340002046FFF789FE0020BDE8F0874FF40271A8
:1033500001EB441000F056FD00F010001028E1D100
:103360004FF4027101EB4410102100F032FD4FF4D4
:10337000027101EB4410102100F02BFD3846E3E709
:103380002DE9F04104460E4615460027002D15DDB7
:103390002A463146204600F0F9FA4FF4847101EBD9
:1033A0004410402100F015FD00BF4FF4847101EB83
:1033B000441000F027FD0028F7D12F463846BDE81D
:1033C000F0812DE9F0470446894616461D46089FC0
:1033D0004FF00008204600F09EF9B04204DA204683
:1033E00000F099F9804600E0B046287828B968785E
:1033F00018B9A87808B9E87800B117B94FF00008F3
:1034000063E0297840F6084202EB441000F0E1FC4A
:10341000697840F6085202EB441000F0DAFCA97813
:1034200040F6086202EB441000F0D3FCE97840F665
:10343000087202EB441000F0CCFC390A41F2080299
:1034400002EB441000F0C5FCF9B241F2081202EBA5
:10345000441000F0BEFC42464946204600F05CFAAB
:103460004FF4847101EB4410202100F0B2FC00BF46
:103470004FF4847101EB441000F0C4FC0028F7D134
:1034800012E04FF4027101EB441000F0BBFC00F0BD
:10349000080048B14FF4027101EB4410182100F00C
:1034A00098FC0020BDE8F0874FF4027101EB441056
:1034B00000F0A8FC00F010001028E2D14FF40271D7
:1034C00001EB4410102100F084FC4046EAE72DE9AE
:1034D000FC5F05468A4691461E46DDF8308000278F
:1034E0000024A346B9F1000F71DD42F608010BE09C
:1034F000BE00002053454E445F4F4B2050726F6218
:103500006C656D21210D0A0001EB451000F07AFC7D
:10351000044642F6081101EB451000F073FC00EB85
:10352000042084B2200200EB451000F1180B0821A2
:1035300001EB451000F066FC00F00700022804D003
:10354000032845D0042878D178E0082269465846F7
:1035500000F099FC04F1080084B29DF8000030707E
:103560009DF8010070709DF80200B0709DF8030096
:10357000F0709DF80400A8F800009DF8050098F888
:10358000001000EB0120A8F800009DF806709DF8DF
:10359000070000EB072087B2200200EB451000F186
:1035A000180B3A465146584600F06DFCE01984B2BB
:1035B000210A42F6080202EB451000F00AFCE1B2D3
:1035C00042F6081202EB451000F003FC6AE07AE0D4
:1035D00006226946584600F056FCA01D84B29DF8AC
:1035E000000030709DF8010070709DF80200B0700E
:1035F0009DF80300F0709DF804709DF8050000EB45
:10360000072087B2200200EB451000F1180B3A4664
:103610005146584600F037FCE01984B2210A42F6C0
:10362000080202EB451000F0D4FBE1B242F60812AA
:1036300002EB451000F0CDFB34E032E00222694697
:10364000584600F020FCA01C84B29DF800709DF844
:10365000010000EB0720801E87B240F2EA5087424B
:1036600004DD1AA000F09EFD00BFFEE7200200EB83
:10367000451000F1180B3A465146584600F003FC3D
:10368000E01984B2210A42F6080202EB451000F06C
:10369000A0FBE1B242F6081202EB451000F099FBE4
:1036A00000E000BF00BF4FF4847101EB45104021E2
:1036B00000F08FFB00BF4FF4847101EB451000F068
:1036C000A1FB0028F7D13846BDE8FC9F6461746116
:1036D0005F6C656E206F76657220313531340D0A6E
:1036E0000000000010B54FF4385000F08BFB00F0E4
:1036F000010010BD10B504462146002000F069FB12
:1037000010BD10B58020FFF7F5FF10BD0146DC4865
:1037100030F8110070470146DA4830F81100704760
:1037200010B5044604222146900100F084FB10BD30
:1037300010B5044604222146900100F0A4FB10BD00
:1037400010B50446042221464FF4A06000F073FB3C
:1037500010BD10B50446062221464FF4106000F05B
:103760006AFB10BD10B50446042221464FF4706078
:1037700000F061FB10BD10B50446042221464FF451
:10378000A06000F080FB10BD10B504460622214663
:103790004FF4106000F077FB10BD10B50446042212
:1037A00021464FF4706000F06EFB10BD10B54FF471
:1037B000A85000F027FB10BD10B50446210A4FF4B5
:1037C000C85000F006FBE1B24FF4D05000F001FB0E
:1037D00010BD10B5044621464FF4D85000F0F9FA58
:1037E00010BD70B50446FFF7E1FF60EA0400C5B202
:1037F00029464FF4A85000F0ECFA70BD70B50446AD
:103800000D46290A41F2082202EB441000F0E1FAC9
:10381000E9B241F2083202EB441000F0DAFA70BD6E
:1038200070B504460D4641F2086101EB441029468B
:1038300000F0CFFA70BD10B504464FF4027101EBF1
:10384000441000F0DFFA10BD70B504460D464FF489
:10385000027101EB4410294600F0BBFA70BD10B5AF
:1038600004464FF4427101EB441000F0CBFA10BD56
:1038700070B504460025002600BF42F2080101EBA6
:10388000441000F0BFFA064642F2081101EB441062
:1038900000F0B8FA00EB062086B27EB142F20801D1
:1038A00001EB441000F0AEFA054642F2081101EBBC
:1038B000441000F0A7FA00EB052085B2B542DCD138
:1038C000284670BD70B504460025002600BF42F2B0
:1038D000086101EB441000F095FA064642F20871C7
:1038E00001EB441000F08EFA00EB062086B27EB1A8
:1038F00042F2086101EB441000F084FA054642F2FE
:10390000087101EB441000F07DFA00EB052085B250
:10391000B542DCD1284670BD2DE9F04104460F4682
:1039200016460025A8462EB9214657A000F03AFCBD
:10393000BDE8F08142F2084101EB441000F062FA68
:10394000054642F2085101EB441000F05BFA00EB2F
:10395000052085B2280200EB441000F11008324621
:103960003946404600F067FAA81985B2290A42F2A2
:10397000084202EB441000F02CFAE9B242F208527D
:1039800002EB441000F025FA00BFD1E72DE9F04129
:1039900004460F4616460025A8462EB9214642A0E9
:1039A00000F000FCBDE8F08142F6080101EB441094
:1039B00000F028FA054642F6081101EB441000F029
:1039C00021FA00EB052085B2280200EB441000F13B
:1039D000180832463946404600F055FAA81985B213
:1039E000290A42F6080202EB441000F0F2F9E9B2AB
:1039F00042F6081202EB441000F0EBF900BFD1E7E9
:103A00002DE9F04105460E460027B846002433E074
:103A1000295D41F6087202EB441000F0DAF9315DDD
:103A200041F6086202EB441000F0D3F9002015497A
:103A300021F81400124921F81400B7F5804F07DC73
:103A4000285D4FF6FF7101EA80200E4921F814002D
:103A5000B8F5804F07DC305D4FF6FF7101EA80203A
:103A6000074921F81400074830F8140007440448B7
:103A700030F814008044641C082CC9DBBDE8F081D8
:103A8000FE310020EE31002043483A2025642055C5
:103A90006E657870656374656431206C656E6774FB
:103AA0006820300D0A00000043483A202564205564
:103AB0006E657870656374656432206C656E6774DA
:103AC0006820300D0A00000010B500240A20FCF721
:103AD0004EFD10BD10B50A20FCF725FD10BD08B540
:103AE000F648F7490A68026089888180F5490968C3
:103AF000C0F80610F4490968C0F80A10F3490968CB
:103B0000C0F80E10F2490968C0F81210F1480078A8
:103B100010B9F1A000F046FBEE480078022825D14C
:103B2000FFF7D8FFF4480078D8B9F3484078082860
:103B300017D1F1488078DC2813D1F0A000F032FBD7
:103B4000DE48ED49D1F80610C0F80610EA49D1F870
:103B50000A10C0F80A10E849D1F80E10C0F80E108B
:103B600004E0EBA000F01EFBFFF7AEFFD9480078A1
:103B7000012822D1F4480078012818D1F3A000F0E0
:103B800011FBCE48F549D1F80610C0F80610F349EC
:103B9000D1F80A10C0F80A10F049D1F80E10C0F898
:103BA0000E10EE49D1F81210C0F8121005E0ECA08A
:103BB00000F0F8FAC8A000F0F5FA0120BF498876B5
:103BC0000021BE48C1760A30FFF7BAFDBB480E306F
:103BD000FFF7A6FDB948801DFFF7C4FDB948FFF700
:103BE000DCFDB848C0780090B64883784278017808
:103BF000E3A000F0D7FAB448FFF7BDFDB248C078A3
:103C00000090B148837842780178E5A000F0CAFAC4
:103C1000AE48FFF78DFDAD48C0780090AB48837883
:103C200042780178E6A000F0BDFA08BD10B5A348BF
:103C3000A3490A68026089888180FFF78AFDC74826
:103C40009F490A6802608988818010BD00B587B0ED
:103C500001211420FDF724FD01210420FDF720FDA2
:103C600001210803FDF71CFD2020ADF8040003200E
:103C70008DF8060018208DF8070001A9D848FDF737
:103C8000D7FF4020ADF8040001A9D548FDF7D0FFCB
:103C90008020ADF8040001A9D148FDF7C9FF10202C
:103CA000ADF804008DF8070001A9CD48FDF7C0FF6D
:103CB0000020ADF808004FF48270ADF80A00002033
:103CC000ADF80C000220ADF80E000120ADF8100098
:103CD0004002ADF812000820ADF814000020ADF845
:103CE00016000720ADF8180002A9BE48FFF742F8F9
:103CF0000121BC48FFF7E3F84FF48070ADF80400F1
:103D000003208DF8060010208DF8070001A9B448A3
:103D1000FDF78EFF4FF48071B148FEF736F81020A2
:103D2000ADF8040003208DF8060048208DF8070048
:103D300001A9AD48FDF77CFF07B000BD10B50446F2
:103D400024B91021A648FEF722F805E0012C03D182
:103D50001021A348FEF719F810BD10B50020FFF799
:103D6000EDFF10BD10B50120FFF7E8FF10BD10B545
:103D70004FF480719A48FEF70AF80220FCF7D3FB53
:103D80004FF480719648FEF700F84FF4C860FCF7D6
:103D9000EEFB10BD10B5044600BF02219148FFF7AD
:103DA00012F90028F9D021468E48FFF7B9F800BF74
:103DB00001218C48FFF707F90028F9D08948FFF75F
:103DC000B1F8C0B210BD10B504462046FFF7E2FFBF
:103DD00010BD70B504460D46FFF7BFFFC4F30740A2
:103DE000FFF7F1FFC4F30720FFF7EDFF04F0F80140
:103DF000091DC8B2FFF7E7FF2846FFF7E4FFFFF70A
:103E0000B1FF70BD70B504460025FFF7A6FFC4F3EF
:103E10000740FFF7D8FFC4F30720FFF7D4FF04F0F3
:103E2000F800FFF7D0FF0020FFF7CDFF0546FFF7B2
:103E300099FF284670BD2DE9F04104460F4615460E
:103E4000002615B969A000F0ADF9FFF786FFC4F3AD
:103E50000740FFF7B8FFC4F30720FFF7B4FF04F0F3
:103E6000F801091DC8B2FFF7AEFF002604E0B85DF7
:103E7000FFF7A9FF701C86B2AE42F8DBFFF772FFB6
:103E80002846BDE8F0812DE9F04104460F4615466D
:103E9000002615B955A000F085F9FFF75EFFC4F3C1
:103EA0000740FFF790FFC4F30720FFF78CFF04F0F3
:103EB000F800FFF788FF0026AAE000000E3200207D
:103EC000A8000020AE000020B2000020B6000020B4
:103ED000BA000020C600002020CAB9D3C3B6A8D2B9
:103EE000E5B5C44950D0C5CFA2C5E4D6C3573535D2
:103EF00030300D0A000000002A32002020495020F6
:103F000066726F6D20454550524F4D0D0A000000FE
:103F100020454550524F4DCEB4C5E4D6C32CCAB946
:103F2000D3C3B6A8D2E5B5C44950D0C5CFA2C5E425
:103F3000D6C357353530302CB2A2D0B4C8EB454586
:103F400050524F4D0D0A0000C7000020204950205C
:103F500066726F6D20444843500D0A00D82D002032
:103F60002044484350D7D3B3CCD0F2CEB4D4CBD036
:103F7000D02CBBF2D5DFB2BBB3C9B9A60D0A000085
:103F8000205735353030204950B5D8D6B7202020BD
:103F90003A2025642E25642E25642E25640D0A0002
:103FA00020573535303020D7D3CDF8D1DAC2EB20C9
:103FB0003A2025642E25642E25642E25640D0A00E2
:103FC00020573535303020CDF8B9D820202020209A
:103FD0003A2025642E25642E25642E25640D0A00C2
:103FE000000801400030014000100140556E657826
:103FF00070656374656432206C656E677468203028
:104000000D0A00000020FFF7DEFEB855701C86B2D6
:10401000AE42F7DBFFF7A6FE2846BDE8F0812DE9AA
:10402000F05F0546002092469B468846064681463C
:1040300040241BE0284641464746224600F08FF8C0
:1040400053465A46C01A914110D31146184622468B
:1040500000F076F82D1A67EB01084F462246012042
:10406000002100F06DF817EB00094E41201EA4F16D
:104070000104DFDC484631462A464346BDE8F09F4E
:1040800040EA01039B0703D009E008C9121F08C0DA
:10409000042AFAD203E011F8013B00F8013B521E5A
:1040A000F9D27047D2B201E000F8012B491EFBD2D1
:1040B00070470022F6E710B513460A460446194633
:1040C000FFF7F0FF204610BD30B505462A460B46E7
:1040D00012F8010B13F8014B08B1A042F8D01CB143
:1040E000002802D06D1CF1E7284630BD421C10F8B4
:1040F000011B0029FBD1801A7047000070B50F4DDD
:1041000000B92868002412E00A4602E09E4203D06B
:10411000521C1378002BF9D1DAB2224305D02BB10F
:1041200024B1002100F8011B04E00446401C06787D
:10413000002EE9D12860204670BD0000D400002088
:10414000202A04DB203A00FA02F100207047914057
:10415000C2F1200320FA03F3194390407047202A4C
:1041600004DB203A21FA02F00021704721FA02F321
:10417000D040C2F120029140084319467047000028
:10418000064C074D06E0E06840F0010394E80700A4
:1041900098471034AC42F6D3FBF7CEFF0447000833
:1041A000244700080FB4054B10B503A9044A029830
:1041B00000F018F810BC5DF814FB00000F0B0008AD
:1041C000D800002002E008C8121F08C1002AFAD156
:1041D00070477047002001E001C1121F002AFBD187
:1041E000704700002DE9FF4F8DB00F4605460026B1
:1041F00006E025280BD0DDE90F1290476D1C761CD8
:1042000028780028F5D111B03046BDE8F08F0024A1
:10421000A246A1460122EC4900E0044315F8013F03
:10422000203B02FA03F00842F7D128782A2810D060
:104230006FF02F022878A0F13001092914D80AEB79
:104240008A0102EB410144F0020400EB010A6D1CFB
:10425000F0E701CF5FEA000A03D544F40054CAF145
:10426000000A44F002046D1C28782E2817D115F896
:10427000010F44F004042A280ED06FF02F02287892
:10428000A0F1300109290AD809EB890102EB4101AB
:1042900000EB01096D1CF2E757F8049B6D1C2878B0
:1042A0006C280FD006DC4C2817D068280DD06A285F
:1042B00014D104E0742810D07A280FD10DE044F412
:1042C00000140AE044F4801401E044F440146978D6
:1042D000814202D104F580146D1C6D1C2A786E2A6F
:1042E0001FD00CDC632A31D004DC002A8BD0582A82
:1042F00011D1A3E0642A68D0692A0CD165E0732A41
:104300002ED004DC6F2A73D0702A04D19BE0752A6A
:104310006FD0782A6ED01046DDE90F129047761CD8
:1043200050E1C4F30250022806D0032809D0042823
:1043300001CF09D0066045E101CFF117C0E9006166
:1043400040E101CF06803DE106703BE117F8040B28
:104350008DF8000000208DF80100EB46012003E0FD
:1043600057F804BB4FF0FF3061074FF0000102D453
:104370000DE008F10101884649450FDA8045F8DB78
:104380001BF808100029F4D108E008F10101884663
:104390008142FADB1BF808100029F6D1DDE90F2372
:1043A000AAEB08008146214600F036F9304400EBC4
:1043B000080604E0DDE90F121BF8010B9047B8F185
:1043C0000108F7D221464846F7E00A21C4F3025318
:1043D0004FF0000B0891022B04D001CFC117032B23
:1043E00009D00AE0FF1D27F00707F7E8020108E0FF
:1043F00032E01FE020E000B2C117042B01D140B22F
:10440000C117031E71F1000307DA4FF0000CD0EB67
:104410000C006CEB01012D2302E0230504D52B23B6
:104420008DF82430012303E0E30701D02023F7E7D0
:10443000984658E00A2110E010210EE010204FF0BD
:10444000000B08900CE010214FF0000B44F0040426
:104450004FF00809089103E008214FF0000B089184
:10446000C4F30253022B04D001CF0021032B06D04A
:1044700006E0FF1D27F00707F7E8020103E080B21E
:10448000042B00D1C0B24FF0000823072BD5702AAF
:1044900007D0DDF820C08CF0100C5CEA0B0C05D0C6
:1044A0000EE040238DF82430012308E050EA010398
:1044B00006D030238DF824308DF82520022398462D
:1044C000DDF820C08CF0080C5CEA0B0C0BD150EA34
:1044D000010301D1630706D530238DF824304FF056
:1044E0000108A9F10109582A04D038A20B9208AAA0
:1044F0000A920BE03AA2F9E75B46089AFFF78FFDB4
:104500000B9B9B5C0A9A521E0A92137050EA01029E
:10451000F2D10A98ADEB000000F1200B600702D544
:1045200024F4803401E04FF00109D94502DDA9EB04
:104530000B0000E0002000EB0B0141440890AAEBC7
:10454000010AE00306D4DDE90F232146504600F0BE
:1045500063F806444FF0000908E009A911F80900C2
:10456000DDE90F12904709F10109761CC145F4DB22
:10457000E0030CD5DDE90F232146504600F04CF84E
:10458000064404E0DDE90F1230209047761C0899BC
:10459000481E08900029F5DC08E00A980A9900787E
:1045A000491C0A91DDE90F129047761CBBF100010E
:1045B000ABF1010BF1DC21465046DDE90F2300F0A1
:1045C00019F806446D1C1BE609280100303132330E
:1045D000343536373839616263646566000000003F
:1045E0003031323334353637383941424344454629
:1045F000000000002DE9F041044600251E46174644
:10460000880404D405E039462020B0476D1C641EA0
:10461000F9D52846BDE8F0812DE9F0410446002592
:104620001E469046C80301D5302700E020278804A5
:1046300004D505E041463846B0476D1C641EF9D5E7
:104640002846BDE8F081000010B5002821D0114BAC
:104650000022001F196803E0814203D80A46496816
:104660000029F9D152B11368841A9C4204D1006820
:1046700018441060104602E0506000E0186039B144
:1046800002680B1A934203D10B681A44026049680E
:10469000416010BDDC000020F0B50B30154D20F05E
:1046A00007010024144A0FE003688B420BD38B42AE
:1046B00005D95E1A43184768C3E9006700E04368FC
:1046C000136002C004E0021D10680028ECD12046EF
:1046D000002802D1286808B10020F0BD064A07482A
:1046E0001060074A121A22F00702C0E900240120D4
:1046F0002860D7E7E0000020DC00002044320020E2
:10470000403400202447000800000020E40000009E
:10471000C441000808480008E40000205C3700009D
:10472000D44100080000000000000000000000006C
:10473000ACF7FF1FE8F7FF1F107AFF1FACF7FF1F52
:10474000107AFF1F20F4F01F5000F81F5000F81FD0
:104750009075FF1F20F4F01F000000000000000013
:104760000000000000000000000000000000000049
:104770000000000000000000000000000000000039
:104780000000000000000000000000000000000029
:104790000000000000A24A04000000000000000029
:1047A00001020304060708090000000001020304D7
:1047B00001020304060708090204060802020202B5
:1047C0000202020202020202020202020008DC11DC
:1047D0001111C0A80158FFFFFF00C0A801017272AB
:1047E00072728813C0A801668813000000000000E0
:1047F00000000000000000000000000000000000B9
:084800000000000000000000B0
:0400000508000131BD
:00000001FF
