###############################################################################
#                                                                             #
# IAR ELF Linker V5.41.0.51741/W32 for ARM              20/Jan/2014  15:41:33 #
# Copyright (C) 2007-2009 IAR Systems AB.                                     #
#                                                                             #
#    Output file  =  D:\安装程序\项目程序\http_camera_html5\Debug\Exe\app.out #
#    Map file     =  D:\安装程序\项目程序\http_camera_html5\Debug\List\app.ma #
#                    p                                                        #
#    Command line =  D:\安装程序\项目程序\http_camera_html5\Debug\Obj\SPI2.o  #
#                    D:\安装程序\项目程序\http_camera_html5\Debug\Obj\base64. #
#                    o D:\安装程序\项目程序\http_camera_html5\Debug\Obj\core_ #
#                    cm3.o D:\安装程序\项目程序\http_camera_html5\Debug\Obj\d #
#                    evice.o D:\安装程序\项目程序\http_camera_html5\Debug\Obj #
#                    \httpd.o D:\安装程序\项目程序\http_camera_html5\Debug\Ob #
#                    j\httputil.o D:\安装程序\项目程序\http_camera_html5\Debu #
#                    g\Obj\iic.o D:\安装程序\项目程序\http_camera_html5\Debug #
#                    \Obj\main.o D:\安装程序\项目程序\http_camera_html5\Debug #
#                    \Obj\mcu_init.o D:\安装程序\项目程序\http_camera_html5\D #
#                    ebug\Obj\md5.o D:\安装程序\项目程序\http_camera_html5\De #
#                    bug\Obj\misc.o D:\安装程序\项目程序\http_camera_html5\De #
#                    bug\Obj\ov2640.o D:\安装程序\项目程序\http_camera_html5\ #
#                    Debug\Obj\sha1.o D:\安装程序\项目程序\http_camera_html5\ #
#                    Debug\Obj\socket.o D:\安装程序\项目程序\http_camera_html #
#                    5\Debug\Obj\startup_stm32f10x_hd.o                       #
#                    D:\安装程序\项目程序\http_camera_html5\Debug\Obj\stm32f1 #
#                    0x_bkp.o D:\安装程序\项目程序\http_camera_html5\Debug\Ob #
#                    j\stm32f10x_exti.o D:\安装程序\项目程序\http_camera_html #
#                    5\Debug\Obj\stm32f10x_flash.o                            #
#                    D:\安装程序\项目程序\http_camera_html5\Debug\Obj\stm32f1 #
#                    0x_gpio.o D:\安装程序\项目程序\http_camera_html5\Debug\O #
#                    bj\stm32f10x_i2c.o D:\安装程序\项目程序\http_camera_html #
#                    5\Debug\Obj\stm32f10x_it.o D:\安装程序\项目程序\http_cam #
#                    era_html5\Debug\Obj\stm32f10x_rcc.o                      #
#                    D:\安装程序\项目程序\http_camera_html5\Debug\Obj\stm32f1 #
#                    0x_spi.o D:\安装程序\项目程序\http_camera_html5\Debug\Ob #
#                    j\stm32f10x_tim.o D:\安装程序\项目程序\http_camera_html5 #
#                    \Debug\Obj\stm32f10x_usart.o                             #
#                    D:\安装程序\项目程序\http_camera_html5\Debug\Obj\system_ #
#                    stm32f10x.o D:\安装程序\项目程序\http_camera_html5\Debug #
#                    \Obj\util.o D:\安装程序\项目程序\http_camera_html5\Debug #
#                    \Obj\w5500.o D:\安装程序\项目程序\http_camera_html5\Debu #
#                    g\Obj\webpage.o D:\安装程序\项目程序\http_camera_html5\D #
#                    ebug\Obj\websocket.o D:\安装程序\项目程序\http_camera_ht #
#                    ml5\Debug\Obj\weibo.o -o D:\安装程序\项目程序\http_camer #
#                    a_html5\Debug\Exe\app.out --map                          #
#                    D:\安装程序\项目程序\http_camera_html5\Debug\List\app.ma #
#                    p --config D:\安装程序\项目程序\http_camera_html5\app.ic #
#                    f --semihosting --entry __iar_program_start              #
#                                                                             #
#                                                                             #
###############################################################################

*******************************************************************************
*** RUNTIME MODEL ATTRIBUTES
***

__endian      = little
__thumb_aware = enabled


*******************************************************************************
*** PLACEMENT SUMMARY
***

"A1":  place at 0x08000000 { ro section .intvec };
"P1":  place in [from 0x08000000 to 0x0803ffff] { ro };
"P2":  place in [from 0x20000000 to 0x2000bfff] {
          rw, block CSTACK, block HEAP };

  Section            Kind        Address    Size  Object
  -------            ----        -------    ----  ------
"A1":                                      0x130
  .intvec            ro code  0x08000000   0x130  startup_stm32f10x_hd.o [1]
                            - 0x08000130   0x130

"P1":                                     0x8ca4
  .rodata            const    0x08000130  0x1248  webpage.o [1]
  .text              ro code  0x08001378   0xcc2  xprintffull.o [3]
  .text              ro code  0x0800203c   0xaa0  httputil.o [1]
  .text              ro code  0x08002adc   0xa44  ov2640.o [1]
  .rodata            const    0x08003520   0x890  webpage.o [1]
  .text              ro code  0x08003db0   0x598  w5500.o [1]
  .text              ro code  0x08004348   0x480  websocket.o [1]
  .text              ro code  0x080047c8   0x3e4  socket.o [1]
  .text              ro code  0x08004bac   0x3a4  sha1.o [1]
  .text              ro code  0x08004f50   0x364  stm32f10x_rcc.o [1]
  .text              ro code  0x080052b4   0x2b0  httpd.o [1]
  .text              ro code  0x08005564   0x246  DblDiv.o [4]
  .text              ro code  0x080057ac   0x1fe  stm32f10x_i2c.o [1]
  .text              ro code  0x080059ac   0x1e4  mcu_init.o [1]
  .text              ro code  0x08005b90   0x1d8  weibo.o [1]
  .text              ro code  0x08005d68   0x1d0  util.o [1]
  .text              ro code  0x08005f38   0x1cc  stm32f10x_gpio.o [1]
  .text              ro code  0x08006104   0x1c8  stm32f10x_flash.o [1]
  .text              ro code  0x080062cc   0x1a8  iic.o [1]
  .text              ro code  0x08006474   0x1a2  DblMul.o [4]
  .text              ro code  0x08006618   0x18a  stm32f10x_usart.o [1]
  .text              ro code  0x080067a4   0x17e  DblSub.o [4]
  .rodata            const    0x08006924   0x17c  httputil.o [1]
  .rodata            const    0x08006aa0   0x17c  ov2640.o [1]
  .text              ro code  0x08006c1c   0x170  device.o [1]
  .rodata            const    0x08006d8c   0x15c  weibo.o [1]
  .text              ro code  0x08006ee8   0x158  system_stm32f10x.o [1]
  .text              ro code  0x08007040   0x134  stm32f10x_tim.o [1]
  .text              ro code  0x08007174   0x12e  I64DivMod.o [4]
  .text              ro code  0x080072a4   0x124  main.o [1]
  .text              ro code  0x080073c8   0x110  base64.o [1]
  .text              ro code  0x080074d8   0x10c  stm32f10x_it.o [1]
  .text              ro code  0x080075e4   0x108  xdscale.o [3]
  .text              ro code  0x080076ec    0xe6  DblAdd.o [4]
  .rodata            const    0x080077d4    0xd4  httputil.o [1]
  .text              ro code  0x080078a8    0xc6  xdnorm.o [3]
  .text              ro code  0x08007970    0xb4  SPI2.o [1]
  .text              ro code  0x08007a24    0xa4  stm32f10x_exti.o [1]
  .text              ro code  0x08007ac8    0xa0  misc.o [1]
  .rodata            const    0x08007b68    0x8c  weibo.o [1]
  .text              ro code  0x08007bf4    0x7c  stm32f10x_spi.o [1]
  .rodata            const    0x08007c70    0x78  httputil.o [1]
  .text              ro code  0x08007ce8    0x70  ABImemcpy.o [4]
  .text              ro code  0x08007d58    0x6c  strncpy.o [4]
  .rodata            const    0x08007dc4    0x68  websocket.o [1]
  .text              ro code  0x08007e2c    0x66  ABImemset.o [4]
  .text              ro code  0x08007e94    0x58  memchr.o [4]
  .text              ro code  0x08007eec    0x56  DblToI32.o [4]
  .rodata            const    0x08007f44    0x50  httpd.o [1]
  .rodata            const    0x08007f94    0x50  ov2640.o [1]
  .rodata            const    0x08007fe4    0x50  ov2640.o [1]
  .rodata            const    0x08008034    0x50  ov2640.o [1]
  .rodata            const    0x08008084    0x50  ov2640.o [1]
  .rodata            const    0x080080d4    0x50  ov2640.o [1]
  .rodata            const    0x08008124    0x4c  ov2640.o [1]
  .text              ro code  0x08008170    0x4c  strtok.o [3]
  .rodata            const    0x080081bc    0x44  base64.o [1]
  .rodata            const    0x08008200    0x44  httpd.o [1]
  .rodata            const    0x08008244    0x44  httputil.o [1]
  .text              ro code  0x08008288    0x44  strcpy.o [4]
  .text              ro code  0x080082cc    0x42  strcmp.o [4]
  .rodata            const    0x08008310    0x3c  httpd.o [1]
  .rodata            const    0x0800834c    0x3c  httpd.o [1]
  .rodata            const    0x08008388    0x3c  httpd.o [1]
  .rodata            const    0x080083c4    0x3c  httpd.o [1]
  .rodata            const    0x08008400    0x3c  httpd.o [1]
  .text              ro code  0x0800843c    0x38  ABImemset48.o [4]
  .text              ro code  0x08008474    0x36  strlen.o [4]
  .text              ro code  0x080084ac    0x30  sprintf.o [3]
  .text              ro code  0x080084dc    0x30  strstr.o [3]
  .text              ro code  0x0800850c    0x2e  DblCmpLe.o [4]
  .text              ro code  0x0800853c    0x2e  DblCmpGe.o [4]
  .text              ro code  0x0800856c    0x2e  I32ToDbl.o [4]
  .rodata            const    0x0800859c    0x2c  httputil.o [1]
  .rodata            const    0x080085c8    0x2c  websocket.o [1]
  .rodata            const    0x080085f4    0x28  websocket.o [1]
  .rodata            const    0x0800861c    0x24  httputil.o [1]
  .rodata            const    0x08008640    0x24  httputil.o [1]
  .text              ro code  0x08008664    0x24  copy_init2.o [4]
  .text              ro code  0x08008688    0x22  strcspn.o [3]
  .text              ro code  0x080086aa    0x22  strspn.o [3]
  .iar.init_table    const    0x080086cc    0x24  - Linker created -
  .rodata            const    0x080086f0    0x20  main.o [1]
  .rodata            const    0x08008710    0x20  w5500.o [1]
  .rodata            const    0x08008730    0x20  w5500.o [1]
  .rodata            const    0x08008750    0x20  weibo.o [1]
  .rodata            const    0x08008770    0x20  weibo.o [1]
  .rodata            const    0x08008790    0x20  weibo.o [1]
  .rodata            const    0x080087b0    0x20  weibo.o [1]
  .text              ro code  0x080087d0    0x20  printf.o [3]
  .text              ro code  0x080087f0    0x20  data_init2.o [4]
  .text              ro code  0x08008810    0x1e  strcat.o [3]
  .rodata            const    0x08008830    0x1c  websocket.o [1]
  .text              ro code  0x0800884c    0x1c  iarwstd.o [5]
  .text              ro code  0x08008868    0x1a  zero_init2.o [4]
  .rodata            const    0x08008884    0x18  httputil.o [1]
  .rodata            const    0x0800889c    0x18  main.o [1]
  .rodata            const    0x080088b4    0x18  w5500.o [1]
  .rodata            const    0x080088cc    0x18  websocket.o [1]
  .text              ro code  0x080088e4    0x18  cmain.o [4]
  .text              ro code  0x080088fc    0x16  strchr.o [4]
  .text              ro code  0x08008912    0x16  httpd.o [1]
  .text              ro code  0x08008928    0x16  httputil.o [1]
  .text              ro code  0x0800893e    0x16  xprout.o [3]
  .rodata            const    0x08008954    0x14  device.o [1]
  .rodata            const    0x08008968    0x14  device.o [1]
  .rodata            const    0x0800897c    0x14  device.o [1]
  .rodata            const    0x08008990    0x14  httpd.o [1]
  .rodata            const    0x080089a4    0x14  httputil.o [1]
  .rodata            const    0x080089b8    0x14  httputil.o [1]
  .rodata            const    0x080089cc    0x14  main.o [1]
  .rodata            const    0x080089e0    0x14  main.o [1]
  .rodata            const    0x080089f4    0x14  ov2640.o [1]
  .rodata            const    0x08008a08    0x14  socket.o [1]
  .rodata            const    0x08008a1c    0x14  websocket.o [1]
  .text              ro code  0x08008a30    0x14  exit.o [5]
  .rodata            const    0x08008a44    0x10  httputil.o [1]
  .rodata            const    0x08008a54    0x10  httputil.o [1]
  .rodata            const    0x08008a64    0x10  httputil.o [1]
  .rodata            const    0x08008a74    0x10  ov2640.o [1]
  .rodata            const    0x08008a84    0x10  sha1.o [1]
  .rodata            const    0x08008a94    0x10  websocket.o [1]
  .rodata            const    0x08008aa4    0x10  weibo.o [1]
  .rodata            const    0x08008ab4    0x10  weibo.o [1]
  .text              ro code  0x08008ac4    0x10  startup_stm32f10x_hd.o [1]
  .text              ro code  0x08008ad4    0x10  httpd.o [1]
  .text              ro code  0x08008ae4     0xe  div.o [3]
  .rodata            const    0x08008af4     0xc  httputil.o [1]
  .rodata            const    0x08008b00     0xc  httputil.o [1]
  .rodata            const    0x08008b0c     0xc  httputil.o [1]
  .rodata            const    0x08008b18     0xc  httputil.o [1]
  .rodata            const    0x08008b24     0xc  httputil.o [1]
  .rodata            const    0x08008b30     0xc  httputil.o [1]
  .rodata            const    0x08008b3c     0xc  httputil.o [1]
  .rodata            const    0x08008b48     0xc  httputil.o [1]
  .rodata            const    0x08008b54     0xc  httputil.o [1]
  .rodata            const    0x08008b60     0xc  httputil.o [1]
  .rodata            const    0x08008b6c     0xc  httputil.o [1]
  .rodata            const    0x08008b78     0xc  httputil.o [1]
  .rodata            const    0x08008b84     0xc  httputil.o [1]
  .rodata            const    0x08008b90     0xc  websocket.o [1]
  .rodata            const    0x08008b9c     0xc  websocket.o [1]
  .rodata            const    0x08008ba8     0xc  websocket.o [1]
  .rodata            const    0x08008bb4     0xc  websocket.o [1]
  .rodata            const    0x08008bc0     0xc  weibo.o [1]
  .rodata            const    0x08008bcc     0xc  weibo.o [1]
  .text              ro code  0x08008bd8     0xa  cexit.o [4]
  .text              ro code  0x08008be2     0xa  xsprout.o [3]
  .rodata            const    0x08008bec     0x8  device.o [1]
  .rodata            const    0x08008bf4     0x8  httpd.o [1]
  .rodata            const    0x08008bfc     0x8  httpd.o [1]
  .rodata            const    0x08008c04     0x8  httpd.o [1]
  .rodata            const    0x08008c0c     0x8  httpd.o [1]
  .rodata            const    0x08008c14     0x8  httpd.o [1]
  .rodata            const    0x08008c1c     0x8  httputil.o [1]
  .rodata            const    0x08008c24     0x8  httputil.o [1]
  .rodata            const    0x08008c2c     0x8  httputil.o [1]
  .rodata            const    0x08008c34     0x8  httputil.o [1]
  .rodata            const    0x08008c3c     0x8  socket.o [1]
  .rodata            const    0x08008c44     0x8  websocket.o [1]
  .rodata            const    0x08008c4c     0x8  websocket.o [1]
  .rodata            const    0x08008c54     0x8  weibo.o [1]
  .rodata            const    0x08008c5c     0x8  weibo.o [1]
  .rodata            const    0x08008c64     0x8  xprintffull.o [3]
  .text              ro code  0x08008c6c     0x6  ABImemclr4.o [4]
  .text              ro code  0x08008c72     0x6  exit.o [3]
  .rodata            const    0x08008c78     0x4  device.o [1]
  .rodata            const    0x08008c7c     0x4  device.o [1]
  .rodata            const    0x08008c80     0x4  device.o [1]
  .rodata            const    0x08008c84     0x4  httputil.o [1]
  .text              ro code  0x08008c88     0x2  I64DivZer.o [4]
  .text              ro code  0x08008c8a     0x4  startup_stm32f10x_hd.o [1]
  .text              ro code  0x08008c8e     0x4  startup_stm32f10x_hd.o [1]
  .text              ro code  0x08008c92     0x4  startup_stm32f10x_hd.o [1]
  .text              ro code  0x08008c96     0x4  startup_stm32f10x_hd.o [1]
  .text              ro code  0x08008c9a     0x4  startup_stm32f10x_hd.o [1]
  .text              ro code  0x08008c9e     0x4  startup_stm32f10x_hd.o [1]
  .text              ro code  0x08008ca2     0x4  startup_stm32f10x_hd.o [1]
  .text              ro code  0x08008ca6     0x4  startup_stm32f10x_hd.o [1]
  .text              ro code  0x08008caa     0x4  startup_stm32f10x_hd.o [1]
  .text              ro code  0x08008cae     0x4  startup_stm32f10x_hd.o [1]
  .text              ro code  0x08008cb2     0x4  startup_stm32f10x_hd.o [1]
  .text              ro code  0x08008cb6     0x4  startup_stm32f10x_hd.o [1]
  .text              ro code  0x08008cba     0x4  startup_stm32f10x_hd.o [1]
  .text              ro code  0x08008cbe     0x4  startup_stm32f10x_hd.o [1]
  .text              ro code  0x08008cc2     0x4  startup_stm32f10x_hd.o [1]
  .text              ro code  0x08008cc6     0x4  startup_stm32f10x_hd.o [1]
  .text              ro code  0x08008cca     0x4  startup_stm32f10x_hd.o [1]
  .text              ro code  0x08008cce     0x4  startup_stm32f10x_hd.o [1]
  .text              ro code  0x08008cd2     0x4  startup_stm32f10x_hd.o [1]
  .text              ro code  0x08008cd6     0x4  startup_stm32f10x_hd.o [1]
  .text              ro code  0x08008cda     0x4  startup_stm32f10x_hd.o [1]
  .text              ro code  0x08008cde     0x4  startup_stm32f10x_hd.o [1]
  .text              ro code  0x08008ce2     0x4  startup_stm32f10x_hd.o [1]
  .text              ro code  0x08008ce6     0x4  startup_stm32f10x_hd.o [1]
  .text              ro code  0x08008cea     0x4  startup_stm32f10x_hd.o [1]
  .text              ro code  0x08008cee     0x4  startup_stm32f10x_hd.o [1]
  .text              ro code  0x08008cf2     0x4  startup_stm32f10x_hd.o [1]
  .text              ro code  0x08008cf6     0x4  startup_stm32f10x_hd.o [1]
  .text              ro code  0x08008cfa     0x4  startup_stm32f10x_hd.o [1]
  .text              ro code  0x08008cfe     0x4  startup_stm32f10x_hd.o [1]
  .text              ro code  0x08008d02     0x4  startup_stm32f10x_hd.o [1]
  .text              ro code  0x08008d06     0x4  startup_stm32f10x_hd.o [1]
  .text              ro code  0x08008d0a     0x4  startup_stm32f10x_hd.o [1]
  .text              ro code  0x08008d0e     0x4  startup_stm32f10x_hd.o [1]
  .text              ro code  0x08008d12     0x4  startup_stm32f10x_hd.o [1]
  .text              ro code  0x08008d16     0x4  startup_stm32f10x_hd.o [1]
  .text              ro code  0x08008d1a     0x4  startup_stm32f10x_hd.o [1]
  .text              ro code  0x08008d1e     0x4  startup_stm32f10x_hd.o [1]
  .text              ro code  0x08008d22     0x4  startup_stm32f10x_hd.o [1]
  .text              ro code  0x08008d26     0x4  startup_stm32f10x_hd.o [1]
  .text              ro code  0x08008d2a     0x4  startup_stm32f10x_hd.o [1]
  .text              ro code  0x08008d2e     0x4  startup_stm32f10x_hd.o [1]
  .text              ro code  0x08008d32     0x4  startup_stm32f10x_hd.o [1]
  .text              ro code  0x08008d36     0x4  startup_stm32f10x_hd.o [1]
  .text              ro code  0x08008d3a     0x4  startup_stm32f10x_hd.o [1]
  .text              ro code  0x08008d3e     0x4  startup_stm32f10x_hd.o [1]
  .text              ro code  0x08008d42     0x4  startup_stm32f10x_hd.o [1]
  .text              ro code  0x08008d46     0x4  startup_stm32f10x_hd.o [1]
  .text              ro code  0x08008d4a     0x4  startup_stm32f10x_hd.o [1]
  .text              ro code  0x08008d4e     0x4  startup_stm32f10x_hd.o [1]
  .text              ro code  0x08008d52     0x4  startup_stm32f10x_hd.o [1]
  .text              ro code  0x08008d56     0x4  startup_stm32f10x_hd.o [1]
  .text              ro code  0x08008d5a     0x4  startup_stm32f10x_hd.o [1]
  .text              ro code  0x08008d5e     0x4  startup_stm32f10x_hd.o [1]
  .text              ro code  0x08008d62     0x4  startup_stm32f10x_hd.o [1]
  .text              ro code  0x08008d66     0x4  startup_stm32f10x_hd.o [1]
  .text              ro code  0x08008d6a     0x4  startup_stm32f10x_hd.o [1]
  .text              ro code  0x08008d6e     0x4  startup_stm32f10x_hd.o [1]
  .text              ro code  0x08008d72     0x4  startup_stm32f10x_hd.o [1]
  .text              ro code  0x08008d76     0x4  startup_stm32f10x_hd.o [1]
  .text              ro code  0x08008d7a     0x4  startup_stm32f10x_hd.o [1]
  .text              ro code  0x08008d7e     0x4  startup_stm32f10x_hd.o [1]
  .text              ro code  0x08008d82     0x4  startup_stm32f10x_hd.o [1]
  .text              ro code  0x08008d86     0x4  startup_stm32f10x_hd.o [1]
  .text              ro code  0x08008d8a     0x4  startup_stm32f10x_hd.o [1]
  .text              ro code  0x08008d8e     0x4  startup_stm32f10x_hd.o [1]
  .text              ro code  0x08008d92     0x4  startup_stm32f10x_hd.o [1]
  .text              ro code  0x08008d96     0x4  startup_stm32f10x_hd.o [1]
  .text              ro code  0x08008d9a     0x4  startup_stm32f10x_hd.o [1]
  .text              ro code  0x08008d9e     0x4  low_level_init.o [3]
  .rodata            const    0x08008da2     0x1  strtok.o [3]
  Initializer bytes  ro data  0x08008da4    0x30  <for P2 s0>
                            - 0x08008dd4  0x8ca4

"P2", part 1 of 3:                         0x800
  CSTACK                      0x20000000   0x800  <Block>
    CSTACK           uninit   0x20000000   0x800  <Block tail>
                            - 0x20000800   0x800

"P2", part 2 of 3:                          0x30
  P2 s0                       0x20000800    0x30  <Init block>
    .data            inited   0x20000800    0x10  stm32f10x_rcc.o [1]
    .data            inited   0x20000810     0x8  device.o [1]
    .data            inited   0x20000818     0x8  device.o [1]
    .data            inited   0x20000820     0x4  stm32f10x_rcc.o [1]
    .data            inited   0x20000824     0x4  weibo.o [1]
    .data            inited   0x20000828     0x4  weibo.o [1]
    .data            inited   0x2000082c     0x4  strtok.o [3]
                            - 0x20000830    0x30

"P2", part 3 of 3:                        0x8db8
  .bss               zero     0x20000830  0x6000  main.o [1]
  .bss               zero     0x20006830   0x800  websocket.o [1]
  .bss               zero     0x20007030   0x800  websocket.o [1]
  .bss               zero     0x20007830   0x800  weibo.o [1]
  .bss               zero     0x20008030   0x5b4  device.o [1]
  .bss               zero     0x200085e4   0x5b4  httpd.o [1]
  .bss               zero     0x20008b98   0x5b4  httpd.o [1]
  .bss               zero     0x2000914c   0x400  weibo.o [1]
  .bss               zero     0x2000954c    0x40  httputil.o [1]
  .bss               zero     0x2000958c    0x24  device.o [1]
  .bss               zero     0x200095b0    0x10  w5500.o [1]
  .bss               zero     0x200095c0    0x10  w5500.o [1]
  .bss               zero     0x200095d0     0x4  main.o [1]
  .bss               zero     0x200095d4     0x4  main.o [1]
  .bss               zero     0x200095d8     0x4  main.o [1]
  .bss               zero     0x200095dc     0x4  iarwstd.o [5]
  .bss               zero     0x200095e0     0x2  socket.o [1]
  .bss               zero     0x200095e2     0x1  main.o [1]
  .bss               zero     0x200095e3     0x1  main.o [1]
  .bss               zero     0x200095e4     0x1  main.o [1]
  .bss               zero     0x200095e5     0x1  main.o [1]
  .bss               zero     0x200095e6     0x1  main.o [1]
  .bss               zero     0x200095e7     0x1  websocket.o [1]
                            - 0x200095e8  0x8db8


*******************************************************************************
*** INIT TABLE
***

          Address     Size
          -------     ----
Zero (__iar_zero_init2)
    1 destination range, total size 0x8db8:
          0x20000830  0x8db8

Copy (__iar_copy_init2)
    1 source range, total size 0x30 (100% of destination):
          0x08008da4    0x30
    1 destination range, total size 0x30:
          0x20000800    0x30


*******************************************************************************
*** MODULE SUMMARY
***

    Module                  ro code  ro data  rw data
    ------                  -------  -------  -------
D:\安装程序\项目程序\http_camera_html5\Debug\Obj: [1]
    SPI2.o                      180
    base64.o                    272       68
    device.o                    368       96    1 512
    httpd.o                     726      508    2 920
    httputil.o                2 742    1 200       64
    iic.o                       424
    main.o                      292       96   24 593
    mcu_init.o                  484
    misc.o                      160
    ov2640.o                  2 628      892
    sha1.o                      932       16
    socket.o                    996       28        2
    startup_stm32f10x_hd.o      596
    stm32f10x_exti.o            164
    stm32f10x_flash.o           456
    stm32f10x_gpio.o            460
    stm32f10x_i2c.o             510
    stm32f10x_it.o              268
    stm32f10x_rcc.o             868       20       20
    stm32f10x_spi.o             124
    stm32f10x_tim.o             308
    stm32f10x_usart.o           394
    system_stm32f10x.o          344
    util.o                      464
    w5500.o                   1 432       88       32
    webpage.o                          6 872
    websocket.o               1 152      340    4 097
    weibo.o                     472      696    3 080
    -------------------------------------------------
    Total:                   18 216   10 920   36 320

command line: [2]
    -------------------------------------------------
    Total:

dl7M_tl_in.a: [3]
    div.o                        14
    exit.o                        6
    low_level_init.o              4
    printf.o                     32
    sprintf.o                    48
    strcat.o                     30
    strcspn.o                    34
    strspn.o                     34
    strstr.o                     48
    strtok.o                     76        5        4
    xdnorm.o                    198
    xdscale.o                   264
    xprintffull.o             3 266        8
    xprout.o                     22
    xsprout.o                    10
    -------------------------------------------------
    Total:                    4 086       13        4

rt7M_tl.a: [4]
    ABImemclr4.o                  6
    ABImemcpy.o                 112
    ABImemset.o                 102
    ABImemset48.o                56
    DblAdd.o                    230
    DblCmpGe.o                   46
    DblCmpLe.o                   46
    DblDiv.o                    582
    DblMul.o                    418
    DblSub.o                    382
    DblToI32.o                   86
    I32ToDbl.o                   46
    I64DivMod.o                 302
    I64DivZer.o                   2
    cexit.o                      10
    cmain.o                      24
    copy_init2.o                 36
    data_init2.o                 32
    memchr.o                     88
    strchr.o                     22
    strcmp.o                     66
    strcpy.o                     68
    strlen.o                     54
    strncpy.o                   108
    zero_init2.o                 26
    -------------------------------------------------
    Total:                    2 950

shb_l.a: [5]
    exit.o                       20
    iarwstd.o                    28                 4
    -------------------------------------------------
    Total:                       48                 4

    Gaps                         22       16
    Linker created                        37    2 048
-----------------------------------------------------
    Grand Total:             25 322   10 986   38 376


*******************************************************************************
*** ENTRY LIST
***

Entry                      Address    Size  Type      Object
-----                      -------    ----  ----      ------
ADC1_2_IRQHandler       0x08008cf7          Code  Wk  startup_stm32f10x_hd.o [1]
ADC3_IRQHandler         0x08008d6b          Code  Wk  startup_stm32f10x_hd.o [1]
ADCPrescTable           0x20000820     0x4  Data  Lc  stm32f10x_rcc.o [1]
APBAHBPrescTable        0x20000800    0x10  Data  Lc  stm32f10x_rcc.o [1]
ATOI                    0x08005de1    0x28  Code  Gb  util.o [1]
ATOI32                  0x08005e09    0x26  Code  Gb  util.o [1]
BUFPUB                  0x20008030   0x5b4  Data  Gb  device.o [1]
BusFault_Handler        0x080074df     0x2  Code  Gb  stm32f10x_it.o [1]
C2D                     0x08005e4d    0x3a  Code  Gb  util.o [1]
CAN1_RX1_IRQHandler     0x08008d03          Code  Wk  startup_stm32f10x_hd.o [1]
CAN1_SCE_IRQHandler     0x08008d07          Code  Wk  startup_stm32f10x_hd.o [1]
CSTACK$$Base            0x20000000           --   Gb  - Linker created -
CSTACK$$Limit           0x20000800           --   Gb  - Linker created -
ConfigMsg               0x2000958c    0x24  Data  Gb  device.o [1]
DMA1_Channel1_IRQHandler
                        0x08008cdb          Code  Wk  startup_stm32f10x_hd.o [1]
DMA1_Channel2_IRQHandler
                        0x08008cdf          Code  Wk  startup_stm32f10x_hd.o [1]
DMA1_Channel3_IRQHandler
                        0x08008ce3          Code  Wk  startup_stm32f10x_hd.o [1]
DMA1_Channel4_IRQHandler
                        0x08008ce7          Code  Wk  startup_stm32f10x_hd.o [1]
DMA1_Channel5_IRQHandler
                        0x08008ceb          Code  Wk  startup_stm32f10x_hd.o [1]
DMA1_Channel6_IRQHandler
                        0x08008cef          Code  Wk  startup_stm32f10x_hd.o [1]
DMA1_Channel7_IRQHandler
                        0x08008cf3          Code  Wk  startup_stm32f10x_hd.o [1]
DMA2_Channel1_IRQHandler
                        0x08008d8f          Code  Wk  startup_stm32f10x_hd.o [1]
DMA2_Channel2_IRQHandler
                        0x08008d93          Code  Wk  startup_stm32f10x_hd.o [1]
DMA2_Channel3_IRQHandler
                        0x08008d97          Code  Wk  startup_stm32f10x_hd.o [1]
DMA2_Channel4_5_IRQHandler
                        0x08008d9b          Code  Wk  startup_stm32f10x_hd.o [1]
DebugMon_Handler        0x080074e5     0x2  Code  Gb  stm32f10x_it.o [1]
EXTI0_IRQHandler        0x08007511    0xc0  Code  Gb  stm32f10x_it.o [1]
EXTI15_10_IRQHandler    0x08008d4f          Code  Wk  startup_stm32f10x_hd.o [1]
EXTI1_IRQHandler        0x08008ccb          Code  Wk  startup_stm32f10x_hd.o [1]
EXTI2_IRQHandler        0x08008ccf          Code  Wk  startup_stm32f10x_hd.o [1]
EXTI3_IRQHandler        0x08008cd3          Code  Wk  startup_stm32f10x_hd.o [1]
EXTI4_IRQHandler        0x08008cd7          Code  Wk  startup_stm32f10x_hd.o [1]
EXTI9_5_IRQHandler      0x08008d0b          Code  Wk  startup_stm32f10x_hd.o [1]
EXTI_ClearITPendingBit  0x08007aaf     0x6  Code  Gb  stm32f10x_exti.o [1]
EXTI_Init               0x08007a25    0x8a  Code  Gb  stm32f10x_exti.o [1]
FLASH_ClearFlag         0x08006245     0x6  Code  Gb  stm32f10x_flash.o [1]
FLASH_ErasePage         0x08006163    0x60  Code  Gb  stm32f10x_flash.o [1]
FLASH_GetBank1Status    0x0800624b    0x36  Code  Gb  stm32f10x_flash.o [1]
FLASH_IRQHandler        0x08008cbf          Code  Wk  startup_stm32f10x_hd.o [1]
FLASH_Lock              0x08006151    0x12  Code  Gb  stm32f10x_flash.o [1]
FLASH_PrefetchBufferCmd
                        0x0800611f    0x1c  Code  Gb  stm32f10x_flash.o [1]
FLASH_ProgramWord       0x080061c3    0x82  Code  Gb  stm32f10x_flash.o [1]
FLASH_SetLatency        0x08006105    0x1a  Code  Gb  stm32f10x_flash.o [1]
FLASH_Unlock            0x0800613b    0x16  Code  Gb  stm32f10x_flash.o [1]
FLASH_WaitForLastOperation
                        0x0800629d    0x30  Code  Gb  stm32f10x_flash.o [1]
FSMC_IRQHandler         0x08008d6f          Code  Wk  startup_stm32f10x_hd.o [1]
GPIO_Configuration      0x080059ad    0xb8  Code  Gb  mcu_init.o [1]
GPIO_EXTILineConfig     0x080060af    0x52  Code  Gb  stm32f10x_gpio.o [1]
GPIO_Init               0x08005f39   0x150  Code  Gb  stm32f10x_gpio.o [1]
GPIO_ReadInputDataBit   0x08006089    0x1a  Code  Gb  stm32f10x_gpio.o [1]
GPIO_ResetBits          0x080060a9     0x6  Code  Gb  stm32f10x_gpio.o [1]
GPIO_SetBits            0x080060a3     0x6  Code  Gb  stm32f10x_gpio.o [1]
HardFault_Handler       0x080074db     0x2  Code  Gb  stm32f10x_it.o [1]
I2C1_ER_IRQHandler      0x08008d2f          Code  Wk  startup_stm32f10x_hd.o [1]
I2C1_EV_IRQHandler      0x08008d2b          Code  Wk  startup_stm32f10x_hd.o [1]
I2C2_ER_IRQHandler      0x08008d37          Code  Wk  startup_stm32f10x_hd.o [1]
I2C2_EV_IRQHandler      0x08008d33          Code  Wk  startup_stm32f10x_hd.o [1]
I2C_AcknowledgeConfig   0x0800592f    0x1a  Code  Gb  stm32f10x_i2c.o [1]
I2C_CheckEvent          0x0800596b    0x40  Code  Gb  stm32f10x_i2c.o [1]
I2C_Cmd                 0x080058dd    0x1a  Code  Gb  stm32f10x_i2c.o [1]
I2C_DeInit              0x080057ad    0x36  Code  Gb  stm32f10x_i2c.o [1]
I2C_GenerateSTART       0x080058f7    0x1c  Code  Gb  stm32f10x_i2c.o [1]
I2C_GenerateSTOP        0x08005913    0x1c  Code  Gb  stm32f10x_i2c.o [1]
I2C_Init                0x080057e3    0xea  Code  Gb  stm32f10x_i2c.o [1]
I2C_ReceiveData         0x0800594f     0x6  Code  Gb  stm32f10x_i2c.o [1]
I2C_Send7bitAddress     0x08005955    0x16  Code  Gb  stm32f10x_i2c.o [1]
I2C_SendData            0x08005949     0x6  Code  Gb  stm32f10x_i2c.o [1]
IINCHIP_CSoff           0x08003dbd     0xa  Code  Gb  w5500.o [1]
IINCHIP_CSon            0x08003dc7     0xa  Code  Gb  w5500.o [1]
IINCHIP_READ            0x08003e17    0x3a  Code  Gb  w5500.o [1]
IINCHIP_SpiSendData     0x08003dd1     0xe  Code  Gb  w5500.o [1]
IINCHIP_WRITE           0x08003ddf    0x38  Code  Gb  w5500.o [1]
INDEX_HTML              0x08000130  0x1248  Data  Gb  webpage.o [1]
JPEGBuffer              0x20000830  0x6000  Data  Gb  main.o [1]
JPEGCnt                 0x200095d8     0x4  Data  Gb  main.o [1]
LOGO_PNG                0x08003520   0x890  Data  Gb  webpage.o [1]
MemManage_Handler       0x080074dd     0x2  Code  Gb  stm32f10x_it.o [1]
NMI_Handler             0x080074d9     0x2  Code  Gb  stm32f10x_it.o [1]
NVIC_Configuration      0x08005af5    0x52  Code  Gb  mcu_init.o [1]
NVIC_Init               0x08007ad3    0x6e  Code  Gb  misc.o [1]
NVIC_PriorityGroupConfig
                        0x08007ac9     0xa  Code  Gb  misc.o [1]
NVIC_SetVectorTable     0x08007b41     0xc  Code  Gb  misc.o [1]
PVD_IRQHandler          0x08008cb3          Code  Wk  startup_stm32f10x_hd.o [1]
PendSV_Handler          0x080074e7     0x2  Code  Gb  stm32f10x_it.o [1]
RCC_ADCCLKConfig        0x080050cd    0x16  Code  Gb  stm32f10x_rcc.o [1]
RCC_APB1PeriphClockCmd  0x080051e5    0x1e  Code  Gb  stm32f10x_rcc.o [1]
RCC_APB1PeriphResetCmd  0x08005203    0x1e  Code  Gb  stm32f10x_rcc.o [1]
RCC_APB2PeriphClockCmd  0x080051c7    0x1e  Code  Gb  stm32f10x_rcc.o [1]
RCC_Configuration       0x08005a65    0x80  Code  Gb  mcu_init.o [1]
RCC_DeInit              0x08004f51    0x5c  Code  Gb  stm32f10x_rcc.o [1]
RCC_GetClocksFreq       0x080050e3    0xe4  Code  Gb  stm32f10x_rcc.o [1]
RCC_GetFlagStatus       0x08005221    0x56  Code  Gb  stm32f10x_rcc.o [1]
RCC_GetSYSCLKSource     0x0800507f     0xa  Code  Gb  stm32f10x_rcc.o [1]
RCC_HCLKConfig          0x08005089    0x16  Code  Gb  stm32f10x_rcc.o [1]
RCC_HSEConfig           0x08004fad    0x4e  Code  Gb  stm32f10x_rcc.o [1]
RCC_IRQHandler          0x08008cc3          Code  Wk  startup_stm32f10x_hd.o [1]
RCC_PCLK1Config         0x0800509f    0x16  Code  Gb  stm32f10x_rcc.o [1]
RCC_PCLK2Config         0x080050b5    0x18  Code  Gb  stm32f10x_rcc.o [1]
RCC_PLLCmd              0x0800505d     0xa  Code  Gb  stm32f10x_rcc.o [1]
RCC_PLLConfig           0x0800503f    0x1e  Code  Gb  stm32f10x_rcc.o [1]
RCC_SYSCLKConfig        0x08005067    0x18  Code  Gb  stm32f10x_rcc.o [1]
RCC_WaitForHSEStartUp   0x08004ffb    0x44  Code  Gb  stm32f10x_rcc.o [1]
RSIZE                   0x200095c0    0x10  Data  Lc  w5500.o [1]
RTCAlarm_IRQHandler     0x08008d53          Code  Wk  startup_stm32f10x_hd.o [1]
RTC_IRQHandler          0x08008cbb          Code  Wk  startup_stm32f10x_hd.o [1]
Region$$Table$$Base     0x080086cc           --   Gb  - Linker created -
Region$$Table$$Limit    0x080086f0           --   Gb  - Linker created -
Reset_Handler           0x08008ac5          Code  Wk  startup_stm32f10x_hd.o [1]
Reset_W5500             0x08006c1d    0x26  Code  Gb  device.o [1]
SDIO_IRQHandler         0x08008d73          Code  Wk  startup_stm32f10x_hd.o [1]
SHA1Input               0x08004bf9    0x6e  Code  Gb  sha1.o [1]
SHA1PadMessage          0x08004ea1    0xb0  Code  Gb  sha1.o [1]
SHA1ProcessMessageBlock
                        0x08004c67   0x222  Code  Gb  sha1.o [1]
SHA1Reset               0x08004bad    0x2a  Code  Gb  sha1.o [1]
SHA1Result              0x08004bd7    0x22  Code  Gb  sha1.o [1]
SPI1_IRQHandler         0x08008d3b          Code  Wk  startup_stm32f10x_hd.o [1]
SPI2_IRQHandler         0x08008d3f          Code  Wk  startup_stm32f10x_hd.o [1]
SPI2_SendByte           0x080079eb    0x32  Code  Gb  SPI2.o [1]
SPI3_IRQHandler         0x08008d7b          Code  Wk  startup_stm32f10x_hd.o [1]
SPI_Cmd                 0x08007c35    0x1a  Code  Gb  stm32f10x_spi.o [1]
SPI_I2S_GetFlagStatus   0x08007c57    0x1a  Code  Gb  stm32f10x_spi.o [1]
SPI_I2S_ReceiveData     0x08007c53     0x4  Code  Gb  stm32f10x_spi.o [1]
SPI_I2S_SendData        0x08007c4f     0x4  Code  Gb  stm32f10x_spi.o [1]
SPI_Init                0x08007bf5    0x40  Code  Gb  stm32f10x_spi.o [1]
SSIZE                   0x200095b0    0x10  Data  Lc  w5500.o [1]
SVC_Handler             0x080074e3     0x2  Code  Gb  stm32f10x_it.o [1]
SetSysClock             0x08006f3b     0x8  Code  Lc  system_stm32f10x.o [1]
SetSysClockTo72         0x08006f43    0xe0  Code  Lc  system_stm32f10x.o [1]
SysTick_Handler         0x080074e9     0x2  Code  Gb  stm32f10x_it.o [1]
SystemInit              0x08006ee9    0x52  Code  Gb  system_stm32f10x.o [1]
TAMPER_IRQHandler       0x08008cb7          Code  Wk  startup_stm32f10x_hd.o [1]
TIM1_BRK_IRQHandler     0x08008d0f          Code  Wk  startup_stm32f10x_hd.o [1]
TIM1_CC_IRQHandler      0x08008d1b          Code  Wk  startup_stm32f10x_hd.o [1]
TIM1_TRG_COM_IRQHandler
                        0x08008d17          Code  Wk  startup_stm32f10x_hd.o [1]
TIM1_UP_IRQHandler      0x08008d13          Code  Wk  startup_stm32f10x_hd.o [1]
TIM2_IRQHandler         0x080074eb    0x20  Code  Gb  stm32f10x_it.o [1]
TIM3_IRQHandler         0x0800750b     0x2  Code  Gb  stm32f10x_it.o [1]
TIM4_IRQHandler         0x08008d27          Code  Wk  startup_stm32f10x_hd.o [1]
TIM5_IRQHandler         0x08008d77          Code  Wk  startup_stm32f10x_hd.o [1]
TIM6_IRQHandler         0x08008d87          Code  Wk  startup_stm32f10x_hd.o [1]
TIM7_IRQHandler         0x08008d8b          Code  Wk  startup_stm32f10x_hd.o [1]
TIM8_BRK_IRQHandler     0x08008d5b          Code  Wk  startup_stm32f10x_hd.o [1]
TIM8_CC_IRQHandler      0x08008d67          Code  Wk  startup_stm32f10x_hd.o [1]
TIM8_TRG_COM_IRQHandler
                        0x08008d63          Code  Wk  startup_stm32f10x_hd.o [1]
TIM8_UP_IRQHandler      0x08008d5f          Code  Wk  startup_stm32f10x_hd.o [1]
TIM_ClearITPendingBit   0x08007145     0x8  Code  Gb  stm32f10x_tim.o [1]
TIM_Cmd                 0x080070d7    0x1a  Code  Gb  stm32f10x_tim.o [1]
TIM_GetITStatus         0x0800710d    0x38  Code  Gb  stm32f10x_tim.o [1]
TIM_ITConfig            0x080070f1    0x16  Code  Gb  stm32f10x_tim.o [1]
TIM_PrescalerConfig     0x08007107     0x6  Code  Gb  stm32f10x_tim.o [1]
TIM_TimeBaseInit        0x08007041    0x96  Code  Gb  stm32f10x_tim.o [1]
Timer2_ISR              0x0800732f    0x70  Code  Gb  main.o [1]
Timer_Configuration     0x08005b47    0x4a  Code  Gb  mcu_init.o [1]
UART4_IRQHandler        0x08008d7f          Code  Wk  startup_stm32f10x_hd.o [1]
UART5_IRQHandler        0x08008d83          Code  Wk  startup_stm32f10x_hd.o [1]
USART1_IRQHandler       0x0800750d     0x2  Code  Gb  stm32f10x_it.o [1]
USART1_Init             0x08006c43    0x48  Code  Gb  device.o [1]
USART2_IRQHandler       0x0800750f     0x2  Code  Gb  stm32f10x_it.o [1]
USART3_IRQHandler       0x08008d4b          Code  Wk  startup_stm32f10x_hd.o [1]
USART_Cmd               0x08006701    0x1a  Code  Gb  stm32f10x_usart.o [1]
USART_GetFlagStatus     0x08006781    0x22  Code  Gb  stm32f10x_usart.o [1]
USART_ITConfig          0x0800671b    0x5e  Code  Gb  stm32f10x_usart.o [1]
USART_Init              0x08006619    0xe2  Code  Gb  stm32f10x_usart.o [1]
USART_SendData          0x08006779     0x8  Code  Gb  stm32f10x_usart.o [1]
USBWakeUp_IRQHandler    0x08008d57          Code  Wk  startup_stm32f10x_hd.o [1]
USB_HP_CAN1_TX_IRQHandler
                        0x08008cfb          Code  Wk  startup_stm32f10x_hd.o [1]
USB_LP_CAN1_RX0_IRQHandler
                        0x08008cff          Code  Wk  startup_stm32f10x_hd.o [1]
UsageFault_Handler      0x080074e1     0x2  Code  Gb  stm32f10x_it.o [1]
WIZ_CS                  0x080079c3    0x28  Code  Gb  SPI2.o [1]
WIZ_SPI_Init            0x08007971    0x52  Code  Gb  SPI2.o [1]
WWDG_IRQHandler         0x08008caf          Code  Wk  startup_stm32f10x_hd.o [1]
_GenldDefault           0x08001da1   0x24e  Code  Lc  xprintffull.o [3]
_LdtobDefault           0x0800198d   0x40e  Code  Lc  xprintffull.o [3]
_LitobDefault           0x0800187f   0x10e  Code  Lc  xprintffull.o [3]
_Printf                 0x08001379   0x506  Code  Gb  xprintffull.o [3]
_Prout                  0x0800893f    0x16  Code  Gb  xprout.o [3]
_PutcharsDefault        0x08002009    0x32  Code  Lc  xprintffull.o [3]
_SProut                 0x08008be3     0xa  Code  Gb  xsprout.o [3]
_Strtok_ssave           0x2000082c     0x4  Data  Lc  strtok.o [3]
__aeabi_cdcmple         0x0800850d          Code  Gb  DblCmpLe.o [4]
__aeabi_cdrcmple        0x0800853d          Code  Gb  DblCmpGe.o [4]
__aeabi_d2iz            0x08007eed          Code  Gb  DblToI32.o [4]
__aeabi_d2uiz           0x08007f19          Code  Gb  DblToI32.o [4]
__aeabi_dadd            0x080076ed          Code  Gb  DblAdd.o [4]
__aeabi_ddiv            0x08005565          Code  Gb  DblDiv.o [4]
__aeabi_dmul            0x08006475          Code  Gb  DblMul.o [4]
__aeabi_dsub            0x080067a5          Code  Gb  DblSub.o [4]
__aeabi_i2d             0x0800856d          Code  Gb  I32ToDbl.o [4]
__aeabi_ldiv0           0x08008c89          Code  Gb  I64DivZer.o [4]
__aeabi_ldivmod         0x08007175          Code  Gb  I64DivMod.o [4]
__aeabi_memclr4         0x08008c6d          Code  Gb  ABImemclr4.o [4]
__aeabi_memcpy          0x08007ce9          Code  Gb  ABImemcpy.o [4]
__aeabi_memcpy4         0x08007d03          Code  Gb  ABImemcpy.o [4]
__aeabi_memcpy8         0x08007d03          Code  Gb  ABImemcpy.o [4]
__aeabi_memset          0x08007e2d          Code  Gb  ABImemset.o [4]
__aeabi_memset4         0x0800843d          Code  Gb  ABImemset48.o [4]
__aeabi_memset8         0x0800843d          Code  Gb  ABImemset48.o [4]
__aeabi_ui2d            0x08008581          Code  Gb  I32ToDbl.o [4]
__aeabi_uldivmod        0x08007189          Code  Gb  I64DivMod.o [4]
__exit                  0x08008a31    0x14  Code  Gb  exit.o [5]
__iar_Dnorm             0x080078a9    0xc6  Code  Gb  xdnorm.o [3]
__iar_Dscale            0x080075e5   0x108  Code  Gb  xdscale.o [3]
__iar_Memchr            0x08007e95          Code  Gb  memchr.o [4]
__iar_Memset            0x08007e2d          Code  Gb  ABImemset.o [4]
__iar_Memset4_word      0x08008445          Code  Gb  ABImemset48.o [4]
__iar_Memset8_word      0x08008445          Code  Gb  ABImemset48.o [4]
__iar_Memset_word       0x08007e35          Code  Gb  ABImemset.o [4]
__iar_Strchr            0x080088fd          Code  Gb  strchr.o [4]
__iar_Strstr            0x080084dd    0x30  Code  Gb  strstr.o [3]
__iar_copy_init2        0x08008665    0x24  Code  Gb  copy_init2.o [4]
__iar_d2uiz             0x08007f23          Code  Gb  DblToI32.o [4]
__iar_dadd              0x080076ff          Code  Gb  DblAdd.o [4]
__iar_data_init2        0x080087f1    0x20  Code  Gb  data_init2.o [4]
__iar_dsub              0x080067b7          Code  Gb  DblSub.o [4]
__iar_dsubStart         0x080067c9          Code  Gb  DblSub.o [4]
__iar_program_start     0x080088e5          Code  Gb  cmain.o [4]
__iar_sh_stdout_close   0x0800884d    0x16  Code  Gb  iarwstd.o [5]
__iar_sh_stdout_handle  0x200095dc     0x4  Data  Lc  iarwstd.o [5]
__iar_strcmp            0x080082cd          Code  Gb  strcmp.o [4]
__iar_ui2d              0x08008583          Code  Gb  I32ToDbl.o [4]
__iar_zero_init2        0x08008869    0x1a  Code  Gb  zero_init2.o [4]
__low_level_init        0x08008d9f     0x4  Code  Gb  low_level_init.o [3]
__vector_table          0x08000000          Data  Gb  startup_stm32f10x_hd.o [1]
_exit                   0x08008bd9          Code  Gb  cexit.o [4]
_main                   0x080088f7          Code  Gb  cmain.o [4]
any_local_port          0x20000828     0x4  Data  Lc  weibo.o [1]
base64encode            0x080073c9   0x110  Code  Gb  base64.o [1]
boundary                0x2000954c    0x40  Data  Gb  httputil.o [1]
calc_accept_key         0x08004349    0xf4  Code  Gb  websocket.o [1]
cgi_ipconfig            0x080029a5    0x48  Code  Gb  httputil.o [1]
close                   0x080048b3    0x32  Code  Gb  socket.o [1]
connect                 0x08004927   0x108  Code  Gb  socket.o [1]
delay_ms                0x08005d93    0x2e  Code  Gb  util.o [1]
delay_us                0x08005d69    0x2a  Code  Gb  util.o [1]
disconnect              0x08004a2f    0x24  Code  Gb  socket.o [1]
div                     0x08008ae5     0xe  Code  Gb  div.o [3]
do_http                 0x0800210b    0xe0  Code  Gb  httputil.o [1]
do_websocket_server     0x08004441   0x334  Code  Gb  websocket.o [1]
exit                    0x08008c73     0x6  Code  Gb  exit.o [3]
getGAR                  0x08004097    0x12  Code  Gb  w5500.o [1]
getIINCHIP_TxMAX        0x08003db1     0xc  Code  Gb  w5500.o [1]
getSIPR                 0x080040bb    0x12  Code  Gb  w5500.o [1]
getSUBR                 0x080040a9    0x12  Code  Gb  w5500.o [1]
getSn_IR                0x080040ff    0x12  Code  Gb  w5500.o [1]
getSn_RX_RSR            0x0800418f    0x6c  Code  Gb  w5500.o [1]
getSn_SR                0x08004111    0x12  Code  Gb  w5500.o [1]
getSn_TX_FSR            0x08004123    0x6c  Code  Gb  w5500.o [1]
get_http_param_value    0x08005439    0xda  Code  Gb  httpd.o [1]
handshaked              0x200095e7     0x1  Data  Gb  websocket.o [1]
hour                    0x200095e4     0x1  Data  Gb  main.o [1]
iic_init                0x080062cd    0x7c  Code  Gb  iic.o [1]
iic_rw                  0x08006349   0x10a  Code  Gb  iic.o [1]
inet_addr_              0x08005ed3    0x5c  Code  Gb  util.o [1]
jpg_flag                0x200095e6     0x1  Data  Gb  main.o [1]
listen                  0x080048e5    0x42  Code  Gb  socket.o [1]
local_port              0x200095e0     0x2  Data  Lc  socket.o [1]
main                    0x080072a5    0x8a  Code  Gb  main.o [1]
makeDoUpdateCamCallback
                        0x080020df    0x16  Code  Lc  httputil.o [1]
makePostWeiboCallback   0x080020f5    0x16  Code  Lc  httputil.o [1]
makeUpdateCamCallback   0x080020cb    0x14  Code  Lc  httputil.o [1]
make_basic_config_setting_json_callback
                        0x0800203d    0x8e  Code  Lc  httputil.o [1]
make_cgi_response       0x080029ed    0x26  Code  Gb  httputil.o [1]
make_http_response_head
                        0x080052f9    0x8e  Code  Gb  httpd.o [1]
memchr                  0x08007e95          Code  Gb  memchr.o [4]
memcpy                  0x08008929    0x16  Code  Gb  httputil.o [1]
memset                  0x08008913    0x16  Code  Gb  httpd.o [1]
mid                     0x08005e87    0x4c  Code  Gb  util.o [1]
min                     0x200095e3     0x1  Data  Gb  main.o [1]
ms                      0x200095d0     0x4  Data  Gb  main.o [1]
o2640_capture_gpio_init
                        0x08002add    0x80  Code  Gb  ov2640.o [1]
ov2640_1024x768_jpeg    0x08008124    0x4c  Data  Gb  ov2640.o [1]
ov2640_176x144_jpeg     0x08007f94    0x50  Data  Gb  ov2640.o [1]
ov2640_320x240_jpeg     0x08007fe4    0x50  Data  Gb  ov2640.o [1]
ov2640_352x288_jpeg     0x08008034    0x50  Data  Gb  ov2640.o [1]
ov2640_640x480_jpeg     0x08008084    0x50  Data  Gb  ov2640.o [1]
ov2640_800x600_jpeg     0x080080d4    0x50  Data  Gb  ov2640.o [1]
ov2640_auto_exposure    0x08002fe5   0x238  Code  Gb  ov2640.o [1]
ov2640_black_white_config
                        0x08002d95    0x88  Code  Gb  ov2640.o [1]
ov2640_brightness_config
                        0x08002f5d    0x88  Code  Gb  ov2640.o [1]
ov2640_color_saturation
                        0x08002e1d    0x8a  Code  Gb  ov2640.o [1]
ov2640_contrast_config  0x08002ea7    0xb6  Code  Gb  ov2640.o [1]
ov2640_delay            0x0800321d     0xa  Code  Gb  ov2640.o [1]
ov2640_interrupt_disable
                        0x080034d9    0x16  Code  Gb  ov2640.o [1]
ov2640_interrupt_enable
                        0x080034bf    0x1a  Code  Gb  ov2640.o [1]
ov2640_jpeg             0x08008a74    0x10  Data  Gb  ov2640.o [1]
ov2640_jpeg_config      0x08003259   0x266  Code  Gb  ov2640.o [1]
ov2640_jpeg_init        0x08006aa0   0x17c  Data  Gb  ov2640.o [1]
ov2640_light_mode_config
                        0x08002b5d   0x238  Code  Gb  ov2640.o [1]
ov2640_reset            0x08003227    0x32  Code  Gb  ov2640.o [1]
ov2640_yuv422           0x080089f4    0x14  Data  Gb  ov2640.o [1]
parse_http_request      0x08005387    0xaa  Code  Gb  httpd.o [1]
post_data               0x2000914c   0x400  Data  Gb  weibo.o [1]
post_weibo_upload       0x08005b91   0x196  Code  Gb  weibo.o [1]
printf                  0x080087d1    0x20  Code  Gb  printf.o [3]
proc_http               0x080021ed   0x7b2  Code  Gb  httputil.o [1]
putchar                 0x08005dc1    0x20  Code  Gb  util.o [1]
reboot_flag             0x200095e5     0x1  Data  Gb  main.o [1]
recv                    0x08004b5b    0x46  Code  Gb  socket.o [1]
recv_data_processing    0x0800428b    0x90  Code  Gb  w5500.o [1]
replacetochar           0x08005e2f    0x1e  Code  Gb  util.o [1]
rx_buf                  0x20008b98   0x5b4  Data  Gb  httpd.o [1]
rxsize                  0x20000818     0x8  Data  Gb  device.o [1]
sec                     0x200095e2     0x1  Data  Gb  main.o [1]
send                    0x08004a53   0x108  Code  Gb  socket.o [1]
send_data_processing    0x080041fb    0x90  Code  Gb  w5500.o [1]
setGAR                  0x0800404f    0x12  Code  Gb  w5500.o [1]
setRCR                  0x080040ed    0x12  Code  Gb  w5500.o [1]
setRTR                  0x080040cd    0x20  Code  Gb  w5500.o [1]
setSHAR                 0x08004073    0x12  Code  Gb  w5500.o [1]
setSIPR                 0x08004085    0x12  Code  Gb  w5500.o [1]
setSUBR                 0x08004061    0x12  Code  Gb  w5500.o [1]
setSn_IR                0x08004331    0x18  Code  Gb  w5500.o [1]
set_network             0x08006c8b    0xd2  Code  Gb  device.o [1]
socket                  0x080047c9    0xea  Code  Gb  socket.o [1]
sprintf                 0x080084ad    0x30  Code  Gb  sprintf.o [3]
strcat                  0x08008811    0x1e  Code  Gb  strcat.o [3]
strchr                  0x080088fd          Code  Gb  strchr.o [4]
strcmp                  0x080082cd          Code  Gb  strcmp.o [4]
strcpy                  0x08008289          Code  Gb  strcpy.o [4]
strcspn                 0x08008689    0x22  Code  Gb  strcspn.o [3]
strlen                  0x08008475          Code  Gb  strlen.o [4]
strncpy                 0x08007d59          Code  Gb  strncpy.o [4]
strspn                  0x080086ab    0x22  Code  Gb  strspn.o [3]
strstr                  0x08008ad5    0x10  Code  Gb  httpd.o [1]
strtok                  0x08008171    0x4c  Code  Gb  strtok.o [3]
sysTick                 0x200095d4     0x4  Data  Gb  main.o [1]
sysinit                 0x08003f0f   0x140  Code  Gb  w5500.o [1]
tmp_buf                 0x20007830   0x800  Data  Gb  weibo.o [1]
tx_buf                  0x200085e4   0x5b4  Data  Gb  httpd.o [1]
txsize                  0x20000810     0x8  Data  Gb  device.o [1]
unescape_http_url       0x080052b5    0x44  Code  Gb  httpd.o [1]
weibo_server_ip         0x20000824     0x4  Data  Gb  weibo.o [1]
wiz_read_buf            0x08003eb1    0x5e  Code  Gb  w5500.o [1]
wiz_write_buf           0x08003e51    0x60  Code  Gb  w5500.o [1]
wsRxBuf                 0x20007030   0x800  Data  Gb  websocket.o [1]
wsTxBuf                 0x20006830   0x800  Data  Gb  websocket.o [1]


[1] = D:\安装程序\项目程序\http_camera_html5\Debug\Obj
[2] = command line
[3] = dl7M_tl_in.a
[4] = rt7M_tl.a
[5] = shb_l.a

  25 322 bytes of readonly  code memory
  10 986 bytes of readonly  data memory
  38 376 bytes of readwrite data memory

Errors: none
Warnings: none
