Component: ARM Compiler 5.05 update 1 (build 106) Tool: armlink [4d0efa]

==============================================================================

Section Cross References

    main.o(.text) refers to system.o(.text) for NVIC_Configuration
    main.o(.text) refers to usart.o(.text) for uart_init
    main.o(.text) refers to gpio.o(.text) for GpioInit
    main.o(.text) refers to delay.o(.text) for DelayInit
    main.o(.text) refers to timer.o(.text) for Timer2_Config
    main.o(.text) refers to iwdg.o(.text) for IWDG_Init
    main.o(.text) refers to cstring.o(.text) for HexToAscii
    main.o(.text) refers to printf8.o(i.__0printf$8) for __2printf
    main.o(.text) refers to w5500_conf.o(.text) for gpio_for_w5500_config
    main.o(.text) refers to w5500.o(.text) for socket_buf_init
    main.o(.text) refers to socket.o(.text) for close
    main.o(.text) refers to dhcp.o(.text) for get_DHCP_state
    main.o(.text) refers to arp.o(.text) for do_arp
    main.o(.text) refers to buffermanage.o(.text) for BufferManageRead
    main.o(.text) refers to main.o(.bss) for MCUID
    main.o(.text) refers to w5500_conf.o(.data) for local_mac
    main.o(.text) refers to w5500.o(.data) for rxsize
    main.o(.text) refers to arp.o(.bss) for pARPMSG
==============================================================================

Removing Unused input sections from the image.

    Removing key.o(.text), (104 bytes).
    Removing core_cm3.o(.emb_text), (32 bytes).
    Removing stm32f10x_flash.o(.text), (1468 bytes).
    Removing dns.o(.text), (1528 bytes).
    Removing dns.o(.bss), (1024 bytes).
    Removing dns.o(.data), (20 bytes).
    Removing smtp.o(.text), (1282 bytes).
    Removing smtp.o(.bss), (2348 bytes).
    Removing smtp.o(.conststring), (65 bytes).
    Removing smtp.o(.data), (1019 bytes).
    Removing ntp.o(.text), (2064 bytes).
    Removing ntp.o(.bss), (2156 bytes).
    Removing ntp.o(.data), (16 bytes).

13 unused section(s) (total 13126 bytes) removed from the image.

==============================================================================

Image Symbol Table

    Local Symbols

    Symbol Name                              Value     Ov Type        Size  Object(Section)

    ../clib/../cmprslib/zerorunl2.c          0x00000000   Number         0  __dczerorl2.o ABSOLUTE
    ../clib/microlib/division.c              0x00000000   Number         0  uidiv.o ABSOLUTE
    ../clib/microlib/division.c              0x00000000   Number         0  uldiv.o ABSOLUTE
    ../clib/microlib/init/entry.s            0x00000000   Number         0  entry5.o ABSOLUTE
    ../clib/microlib/init/entry.s            0x00000000   Number         0  entry9b.o ABSOLUTE
    ../clib/microlib/init/entry.s            0x00000000   Number         0  entry11b.o ABSOLUTE
    ../clib/microlib/init/entry.s            0x00000000   Number         0  entry10b.o ABSOLUTE
    ../clib/microlib/init/entry.s            0x00000000   Number         0  entry10a.o ABSOLUTE
    ../clib/microlib/init/entry.s            0x00000000   Number         0  entry2.o ABSOLUTE
    ../clib/microlib/init/entry.s            0x00000000   Number         0  entry11a.o ABSOLUTE
    ../clib/microlib/init/entry.s            0x00000000   Number         0  entry.o ABSOLUTE
    ../clib/microlib/init/entry.s            0x00000000   Number         0  entry8a.o ABSOLUTE
    ../clib/microlib/init/entry.s            0x00000000   Number         0  entry7a.o ABSOLUTE
    ../clib/microlib/init/entry.s            0x00000000   Number         0  entry8b.o ABSOLUTE
    ../clib/microlib/init/entry.s            0x00000000   Number         0  entry9a.o ABSOLUTE
    ../clib/microlib/init/entry.s            0x00000000   Number         0  entry7b.o ABSOLUTE
    ../clib/microlib/longlong.c              0x00000000   Number         0  llushr.o ABSOLUTE
    ../clib/microlib/longlong.c              0x00000000   Number         0  llshl.o ABSOLUTE
    ../clib/microlib/longlong.c              0x00000000   Number         0  llsshr.o ABSOLUTE
    ../clib/microlib/malloc/malloc.c         0x00000000   Number         0  malloca.o ABSOLUTE
    ../clib/microlib/malloc/malloc.c         0x00000000   Number         0  mallocra.o ABSOLUTE
    ../clib/microlib/malloc/malloc.c         0x00000000   Number         0  malloc.o ABSOLUTE
    ../clib/microlib/malloc/malloc.c         0x00000000   Number         0  mallocr.o ABSOLUTE
    ../clib/microlib/malloc/mvars.c          0x00000000   Number         0  mvars.o ABSOLUTE
    ../clib/microlib/printf/printf.c         0x00000000   Number         0  printf7.o ABSOLUTE
    ../clib/microlib/printf/printf.c         0x00000000   Number         0  printf6.o ABSOLUTE
    ../clib/microlib/printf/printf.c         0x00000000   Number         0  printfb.o ABSOLUTE
    ../clib/microlib/printf/printf.c         0x00000000   Number         0  printf8.o ABSOLUTE
    ../clib/microlib/printf/printf.c         0x00000000   Number         0  printf0.o ABSOLUTE
    ../clib/microlib/printf/printf.c         0x00000000   Number         0  printf2.o ABSOLUTE
    ../clib/microlib/printf/printf.c         0x00000000   Number         0  printf3.o ABSOLUTE
    ../clib/microlib/printf/printf.c         0x00000000   Number         0  printf4.o ABSOLUTE
    ../clib/microlib/printf/printf.c         0x00000000   Number         0  printf5.o ABSOLUTE
    ../clib/microlib/printf/printf.c         0x00000000   Number         0  printf1.o ABSOLUTE
    ../clib/microlib/printf/printf.c         0x00000000   Number         0  printfa.o ABSOLUTE
    ../clib/microlib/printf/stubs.s          0x00000000   Number         0  stubs.o ABSOLUTE
    ../clib/microlib/stdio/streams.c         0x00000000   Number         0  stdout.o ABSOLUTE
    ../clib/microlib/string/memcmp.c         0x00000000   Number         0  memcmp.o ABSOLUTE
    ../clib/microlib/string/memcpy.c         0x00000000   Number         0  memcpyb.o ABSOLUTE
    ../clib/microlib/string/memcpy.c         0x00000000   Number         0  memcpya.o ABSOLUTE
    ../clib/microlib/string/memset.c         0x00000000   Number         0  memseta.o ABSOLUTE
    ../clib/microlib/string/strcat.c         0x00000000   Number         0  strcat.o ABSOLUTE
    ../clib/microlib/string/strchr.c         0x00000000   Number         0  strchr.o ABSOLUTE
    ../clib/microlib/string/strcpy.c         0x00000000   Number         0  strcpy.o ABSOLUTE
    ../clib/microlib/string/strlen.c         0x00000000   Number         0  strlen.o ABSOLUTE
    ../clib/microlib/string/strncpy.c        0x00000000   Number         0  strncpy.o ABSOLUTE
    ../clib/microlib/string/strstr.c         0x00000000   Number         0  strstr.o ABSOLUTE
    ../clib/microlib/string/strtok.c         0x00000000   Number         0  strtok.o ABSOLUTE
    ../clib/microlib/string/strtok.c         0x00000000   Number         0  strtok_r.o ABSOLUTE
    ../clib/microlib/stubs.s                 0x00000000   Number         0  iusefp.o ABSOLUTE
    ../fplib/microlib/fpadd.c                0x00000000   Number         0  dadd.o ABSOLUTE
    ../fplib/microlib/fpdiv.c                0x00000000   Number         0  ddiv.o ABSOLUTE
    ../fplib/microlib/fpepilogue.c           0x00000000   Number         0  depilogue.o ABSOLUTE
    ../fplib/microlib/fpfix.c                0x00000000   Number         0  dfixul.o ABSOLUTE
    ../fplib/microlib/fpmul.c                0x00000000   Number         0  dmul.o ABSOLUTE
    ..\CMSIS\core_cm3.c                      0x00000000   Number         0  core_cm3.o ABSOLUTE
    ..\CMSIS\system_stm32f10x.c              0x00000000   Number         0  system_stm32f10x.o ABSOLUTE
    ..\Libraries\src\misc.c                  0x00000000   Number         0  misc.o ABSOLUTE
    ..\Libraries\src\stm32f10x_flash.c       0x00000000   Number         0  stm32f10x_flash.o ABSOLUTE
    ..\Libraries\src\stm32f10x_gpio.c        0x00000000   Number         0  stm32f10x_gpio.o ABSOLUTE
    ..\Libraries\src\stm32f10x_iwdg.c        0x00000000   Number         0  stm32f10x_iwdg.o ABSOLUTE
    ..\Libraries\src\stm32f10x_rcc.c         0x00000000   Number         0  stm32f10x_rcc.o ABSOLUTE
    ..\Libraries\src\stm32f10x_spi.c         0x00000000   Number         0  stm32f10x_spi.o ABSOLUTE
    ..\Libraries\src\stm32f10x_tim.c         0x00000000   Number         0  stm32f10x_tim.o ABSOLUTE
    ..\Libraries\src\stm32f10x_usart.c       0x00000000   Number         0  stm32f10x_usart.o ABSOLUTE
    ..\Startup\startup_stm32f10x_hd.s        0x00000000   Number         0  startup_stm32f10x_hd.o ABSOLUTE
    ..\User\BufferManage.c                   0x00000000   Number         0  buffermanage.o ABSOLUTE
    ..\User\LoopList.c                       0x00000000   Number         0  looplist.o ABSOLUTE
    ..\User\System.c                         0x00000000   Number         0  system.o ABSOLUTE
    ..\User\cString.c                        0x00000000   Number         0  cstring.o ABSOLUTE
    ..\User\delay.c                          0x00000000   Number         0  delay.o ABSOLUTE
    ..\User\gpio.c                           0x00000000   Number         0  gpio.o ABSOLUTE
    ..\User\iwdg.c                           0x00000000   Number         0  iwdg.o ABSOLUTE
    ..\User\key.c                            0x00000000   Number         0  key.o ABSOLUTE
    ..\User\main.c                           0x00000000   Number         0  main.o ABSOLUTE
    ..\User\stm32f10x_it.c                   0x00000000   Number         0  stm32f10x_it.o ABSOLUTE
    ..\User\timer.c                          0x00000000   Number         0  timer.o ABSOLUTE
    ..\User\usart.c                          0x00000000   Number         0  usart.o ABSOLUTE
    ..\W5500\arp.c                           0x00000000   Number         0  arp.o ABSOLUTE
    ..\W5500\dhcp.c                          0x00000000   Number         0  dhcp.o ABSOLUTE
    ..\W5500\dns.c                           0x00000000   Number         0  dns.o ABSOLUTE
    ..\W5500\ntp.c                           0x00000000   Number         0  ntp.o ABSOLUTE
    ..\W5500\smtp.c                          0x00000000   Number         0  smtp.o ABSOLUTE
    ..\W5500\socket.c                        0x00000000   Number         0  socket.o ABSOLUTE
    ..\W5500\utility.c                       0x00000000   Number         0  utility.o ABSOLUTE
    ..\W5500\w5500.c                         0x00000000   Number         0  w5500.o ABSOLUTE
    ..\W5500\w5500_conf.c                    0x00000000   Number         0  w5500_conf.o ABSOLUTE
    ..\\CMSIS\\core_cm3.c                    0x00000000   Number         0  core_cm3.o ABSOLUTE
    cdrcmple.s                               0x00000000   Number         0  cdrcmple.o ABSOLUTE
    dc.s                                     0x00000000   Number         0  dc.o ABSOLUTE
    handlers.s                               0x00000000   Number         0  handlers.o ABSOLUTE
    init.s                                   0x00000000   Number         0  init.o ABSOLUTE
    RESET                                    0x08000000   Section      304  startup_stm32f10x_hd.o(RESET)
    .ARM.Collect$$$$00000000                 0x08000130   Section        0  entry.o(.ARM.Collect$$$$00000000)
    .ARM.Collect$$$$00000001                 0x08000130   Section        4  entry2.o(.ARM.Collect$$$$00000001)
    .ARM.Collect$$$$00000004                 0x08000134   Section        4  entry5.o(.ARM.Collect$$$$00000004)
    .ARM.Collect$$$$00000008                 0x08000138   Section        0  entry7b.o(.ARM.Collect$$$$00000008)
    .ARM.Collect$$$$0000000A                 0x08000138   Section        0  entry8b.o(.ARM.Collect$$$$0000000A)
    .ARM.Collect$$$$0000000B                 0x08000138   Section        8  entry9a.o(.ARM.Collect$$$$0000000B)
    .ARM.Collect$$$$0000000D                 0x08000140   Section        0  entry10a.o(.ARM.Collect$$$$0000000D)
    .ARM.Collect$$$$0000000F                 0x08000140   Section        0  entry11a.o(.ARM.Collect$$$$0000000F)
    .ARM.Collect$$$$00002712                 0x08000140   Section        4  entry2.o(.ARM.Collect$$$$00002712)
    __lit__00000000                          0x08000140   Data           4  entry2.o(.ARM.Collect$$$$00002712)
    .text                                    0x08000144   Section        0  stm32f10x_it.o(.text)
    .text                                    0x08000184   Section        0  main.o(.text)
    .text                                    0x080004b4   Section        0  system.o(.text)
    .text                                    0x080005ac   Section        0  delay.o(.text)
    .text                                    0x08000680   Section        0  usart.o(.text)
    .text                                    0x08000c24   Section        0  gpio.o(.text)
    .text                                    0x08000c70   Section        0  cstring.o(.text)
    .text                                    0x08000e2c   Section        0  iwdg.o(.text)
    .text                                    0x08000e58   Section        0  timer.o(.text)
    .text                                    0x08000efc   Section        0  buffermanage.o(.text)
    .text                                    0x08000fd0   Section        0  looplist.o(.text)
    .text                                    0x080011c8   Section        0  system_stm32f10x.o(.text)
    SetSysClockTo72                          0x080011c9   Thumb Code   214  system_stm32f10x.o(.text)
    SetSysClock                              0x0800129f   Thumb Code     8  system_stm32f10x.o(.text)
    .text                                    0x080013a8   Section        0  misc.o(.text)
    .text                                    0x08001484   Section        0  stm32f10x_rcc.o(.text)
    .text                                    0x08001828   Section        0  stm32f10x_usart.o(.text)
    .text                                    0x08001c30   Section        0  stm32f10x_gpio.o(.text)
    .text                                    0x08001f8c   Section        0  stm32f10x_tim.o(.text)
    TI4_Config                               0x08002433   Thumb Code   130  stm32f10x_tim.o(.text)
    TI3_Config                               0x080024c7   Thumb Code   122  stm32f10x_tim.o(.text)
    TI2_Config                               0x0800255b   Thumb Code   130  stm32f10x_tim.o(.text)
    TI1_Config                               0x080025ef   Thumb Code   108  stm32f10x_tim.o(.text)
    .text                                    0x08002da8   Section        0  stm32f10x_iwdg.o(.text)
    .text                                    0x08002de8   Section        0  stm32f10x_spi.o(.text)
    .text                                    0x080030f4   Section       36  startup_stm32f10x_hd.o(.text)
    .text                                    0x08003118   Section        0  dhcp.o(.text)
    .text                                    0x08004750   Section        0  socket.o(.text)
    .text                                    0x08004ddc   Section        0  utility.o(.text)
    .text                                    0x08005168   Section        0  w5500.o(.text)
    .text                                    0x0800554c   Section        0  w5500_conf.o(.text)
    .text                                    0x08005aa4   Section        0  arp.o(.text)
    .text                                    0x08005f58   Section        0  uldiv.o(.text)
    .text                                    0x08005fba   Section        0  memcpya.o(.text)
    .text                                    0x08005fde   Section        0  memseta.o(.text)
    .text                                    0x08006002   Section        0  strstr.o(.text)
    .text                                    0x08006026   Section        0  strncpy.o(.text)
    .text                                    0x0800603e   Section        0  strlen.o(.text)
    .text                                    0x0800604c   Section        0  memcmp.o(.text)
    .text                                    0x08006066   Section        0  strcpy.o(.text)
    .text                                    0x08006078   Section        0  strtok.o(.text)
    .text                                    0x080060bc   Section        0  uidiv.o(.text)
    .text                                    0x080060e8   Section        0  llshl.o(.text)
    .text                                    0x08006106   Section        0  llushr.o(.text)
    .text                                    0x08006126   Section        0  dadd.o(.text)
    .text                                    0x08006126   Section        0  iusefp.o(.text)
    .text                                    0x08006274   Section        0  dmul.o(.text)
    .text                                    0x08006358   Section        0  ddiv.o(.text)
    .text                                    0x08006436   Section        0  dfixul.o(.text)
    .text                                    0x08006468   Section       48  cdrcmple.o(.text)
    .text                                    0x08006498   Section       36  init.o(.text)
    .text                                    0x080064bc   Section        0  llsshr.o(.text)
    .text                                    0x080064e0   Section        0  depilogue.o(.text)
    .text                                    0x0800659a   Section        0  __dczerorl2.o(.text)
    i.__0printf                              0x080065f0   Section        0  printfa.o(i.__0printf)
    i.__0printf$8                            0x08006610   Section        0  printf8.o(i.__0printf$8)
    i.__0sprintf$8                           0x08006630   Section        0  printf8.o(i.__0sprintf$8)
    i.__scatterload_copy                     0x08006658   Section       14  handlers.o(i.__scatterload_copy)
    i.__scatterload_null                     0x08006666   Section        2  handlers.o(i.__scatterload_null)
    i.__scatterload_zeroinit                 0x08006668   Section       14  handlers.o(i.__scatterload_zeroinit)
    i._fp_digits                             0x08006678   Section        0  printfa.o(i._fp_digits)
    _fp_digits                               0x08006679   Thumb Code   334  printfa.o(i._fp_digits)
    i._printf_core                           0x080067dc   Section        0  printf8.o(i._printf_core)
    _printf_core                             0x080067dd   Thumb Code   996  printf8.o(i._printf_core)
    i._printf_core                           0x08006bec   Section        0  printfa.o(i._printf_core)
    _printf_core                             0x08006bed   Thumb Code  1744  printfa.o(i._printf_core)
    i._printf_post_padding                   0x080072c8   Section        0  printf8.o(i._printf_post_padding)
    _printf_post_padding                     0x080072c9   Thumb Code    36  printf8.o(i._printf_post_padding)
    i._printf_post_padding                   0x080072ec   Section        0  printfa.o(i._printf_post_padding)
    _printf_post_padding                     0x080072ed   Thumb Code    36  printfa.o(i._printf_post_padding)
    i._printf_pre_padding                    0x08007310   Section        0  printf8.o(i._printf_pre_padding)
    _printf_pre_padding                      0x08007311   Thumb Code    46  printf8.o(i._printf_pre_padding)
    i._printf_pre_padding                    0x0800733e   Section        0  printfa.o(i._printf_pre_padding)
    _printf_pre_padding                      0x0800733f   Thumb Code    46  printfa.o(i._printf_pre_padding)
    i._sputc                                 0x0800736c   Section        0  printf8.o(i._sputc)
    _sputc                                   0x0800736d   Thumb Code    10  printf8.o(i._sputc)
    i.free                                   0x08007378   Section        0  malloc.o(i.free)
    i.malloc                                 0x080073c8   Section        0  malloc.o(i.malloc)
    .conststring                             0x08007434   Section        5  dhcp.o(.conststring)
    .data                                    0x20000000   Section       69  main.o(.data)
    .data                                    0x20000048   Section       40  system.o(.data)
    .data                                    0x20000070   Section        4  delay.o(.data)
    fac_us                                   0x20000070   Data           1  delay.o(.data)
    fac_ms                                   0x20000072   Data           2  delay.o(.data)
    .data                                    0x20000074   Section       41  usart.o(.data)
    flage                                    0x2000009c   Data           1  usart.o(.data)
    .data                                    0x200000a0   Section        9  cstring.o(.data)
    .data                                    0x200000ac   Section       20  system_stm32f10x.o(.data)
    .data                                    0x200000c0   Section       20  stm32f10x_rcc.o(.data)
    APBAHBPrescTable                         0x200000c0   Data          16  stm32f10x_rcc.o(.data)
    ADCPrescTable                            0x200000d0   Data           4  stm32f10x_rcc.o(.data)
    .data                                    0x200000d4   Section       64  dhcp.o(.data)
    .data                                    0x20000114   Section       16  w5500.o(.data)
    .data                                    0x20000124   Section       41  w5500_conf.o(.data)
    .data                                    0x20000150   Section       16  arp.o(.data)
    .data                                    0x20000160   Section        4  strtok.o(.data)
    state                                    0x20000160   Data           4  strtok.o(.data)
    .data                                    0x20000164   Section        4  stdout.o(.data)
    .data                                    0x20000168   Section        4  mvars.o(.data)
    .data                                    0x2000016c   Section        4  mvars.o(.data)
    .bss                                     0x20000170   Section      232  main.o(.bss)
    .bss                                     0x20000258   Section    11248  usart.o(.bss)
    .bss                                     0x20002e48   Section       28  key.o(.bss)
    .bss                                     0x20002e64   Section     1046  dhcp.o(.bss)
    .bss                                     0x2000327a   Section       48  utility.o(.bss)
    addr_str                                 0x2000327a   Data          32  utility.o(.bss)
    addr_str                                 0x2000329a   Data          16  utility.o(.bss)
    .bss                                     0x200032aa   Section       32  w5500.o(.bss)
    .bss                                     0x200032ca   Section       46  w5500_conf.o(.bss)
    .bss                                     0x200032f8   Section     1656  arp.o(.bss)
    HEAP                                     0x20003970   Section      512  startup_stm32f10x_hd.o(HEAP)
    STACK                                    0x20003b70   Section     1024  startup_stm32f10x_hd.o(STACK)

    Global Symbols

    Symbol Name                              Value     Ov Type        Size  Object(Section)

    BuildAttributes$$THM_ISAv4$P$D$K$B$S$PE$A:L22UL41UL21$X:L11$S22US41US21$IEEE1$IW$USESV6$~STKCKD$USESV7$~SHL$OSPACE$ROPI$EBA8$MICROLIB$REQ8$PRES8$EABIv2 0x00000000   Number         0  anon$$obj.o ABSOLUTE
    __ARM_use_no_argv                        0x00000000   Number         0  main.o ABSOLUTE
    _printf_a                                0x00000000   Number         0  stubs.o ABSOLUTE
    _printf_c                                0x00000000   Number         0  stubs.o ABSOLUTE
    _printf_charcount                        0x00000000   Number         0  stubs.o ABSOLUTE
    _printf_d                                0x00000000   Number         0  stubs.o ABSOLUTE
    _printf_e                                0x00000000   Number         0  stubs.o ABSOLUTE
    _printf_f                                0x00000000   Number         0  stubs.o ABSOLUTE
    _printf_flags                            0x00000000   Number         0  stubs.o ABSOLUTE
    _printf_fp_dec                           0x00000000   Number         0  stubs.o ABSOLUTE
    _printf_fp_hex                           0x00000000   Number         0  stubs.o ABSOLUTE
    _printf_g                                0x00000000   Number         0  stubs.o ABSOLUTE
    _printf_i                                0x00000000   Number         0  stubs.o ABSOLUTE
    _printf_int_dec                          0x00000000   Number         0  stubs.o ABSOLUTE
    _printf_l                                0x00000000   Number         0  stubs.o ABSOLUTE
    _printf_lc                               0x00000000   Number         0  stubs.o ABSOLUTE
    _printf_ll                               0x00000000   Number         0  stubs.o ABSOLUTE
    _printf_lld                              0x00000000   Number         0  stubs.o ABSOLUTE
    _printf_lli                              0x00000000   Number         0  stubs.o ABSOLUTE
    _printf_llo                              0x00000000   Number         0  stubs.o ABSOLUTE
    _printf_llu                              0x00000000   Number         0  stubs.o ABSOLUTE
    _printf_llx                              0x00000000   Number         0  stubs.o ABSOLUTE
    _printf_longlong_dec                     0x00000000   Number         0  stubs.o ABSOLUTE
    _printf_longlong_hex                     0x00000000   Number         0  stubs.o ABSOLUTE
    _printf_longlong_oct                     0x00000000   Number         0  stubs.o ABSOLUTE
    _printf_ls                               0x00000000   Number         0  stubs.o ABSOLUTE
    _printf_mbtowc                           0x00000000   Number         0  stubs.o ABSOLUTE
    _printf_n                                0x00000000   Number         0  stubs.o ABSOLUTE
    _printf_o                                0x00000000   Number         0  stubs.o ABSOLUTE
    _printf_p                                0x00000000   Number         0  stubs.o ABSOLUTE
    _printf_percent                          0x00000000   Number         0  stubs.o ABSOLUTE
    _printf_pre_padding                      0x00000000   Number         0  stubs.o ABSOLUTE
    _printf_return_value                     0x00000000   Number         0  stubs.o ABSOLUTE
    _printf_s                                0x00000000   Number         0  stubs.o ABSOLUTE
    _printf_sizespec                         0x00000000   Number         0  stubs.o ABSOLUTE
    _printf_str                              0x00000000   Number         0  stubs.o ABSOLUTE
    _printf_truncate_signed                  0x00000000   Number         0  stubs.o ABSOLUTE
    _printf_truncate_unsigned                0x00000000   Number         0  stubs.o ABSOLUTE
    _printf_u                                0x00000000   Number         0  stubs.o ABSOLUTE
    _printf_wc                               0x00000000   Number         0  stubs.o ABSOLUTE
    _printf_wctomb                           0x00000000   Number         0  stubs.o ABSOLUTE
    _printf_widthprec                        0x00000000   Number         0  stubs.o ABSOLUTE
    _printf_x                                0x00000000   Number         0  stubs.o ABSOLUTE
    __cpp_initialize__aeabi_                  - Undefined Weak Reference
    __cxa_finalize                            - Undefined Weak Reference
    _clock_init                               - Undefined Weak Reference
    _microlib_exit                            - Undefined Weak Reference
    __Vectors_Size                           0x00000130   Number         0  startup_stm32f10x_hd.o ABSOLUTE
    __Vectors                                0x08000000   Data           4  startup_stm32f10x_hd.o(RESET)
    __Vectors_End                            0x08000130   Data           0  startup_stm32f10x_hd.o(RESET)
    __main                                   0x08000131   Thumb Code     0  entry.o(.ARM.Collect$$$$00000000)
    _main_stk                                0x08000131   Thumb Code     0  entry2.o(.ARM.Collect$$$$00000001)
    _main_scatterload                        0x08000135   Thumb Code     0  entry5.o(.ARM.Collect$$$$00000004)
    __main_after_scatterload                 0x08000139   Thumb Code     0  entry5.o(.ARM.Collect$$$$00000004)
    _main_clock                              0x08000139   Thumb Code     0  entry7b.o(.ARM.Collect$$$$00000008)
    _main_cpp_init                           0x08000139   Thumb Code     0  entry8b.o(.ARM.Collect$$$$0000000A)
    _main_init                               0x08000139   Thumb Code     0  entry9a.o(.ARM.Collect$$$$0000000B)
    __rt_final_cpp                           0x08000141   Thumb Code     0  entry10a.o(.ARM.Collect$$$$0000000D)
    __rt_final_exit                          0x08000141   Thumb Code     0  entry11a.o(.ARM.Collect$$$$0000000F)
    NMI_Handler                              0x08000145   Thumb Code     2  stm32f10x_it.o(.text)
    HardFault_Handler                        0x08000147   Thumb Code    36  stm32f10x_it.o(.text)
    MemManage_Handler                        0x0800016b   Thumb Code     4  stm32f10x_it.o(.text)
    BusFault_Handler                         0x0800016f   Thumb Code     4  stm32f10x_it.o(.text)
    UsageFault_Handler                       0x08000173   Thumb Code     4  stm32f10x_it.o(.text)
    SVC_Handler                              0x08000177   Thumb Code     2  stm32f10x_it.o(.text)
    DebugMon_Handler                         0x08000179   Thumb Code     2  stm32f10x_it.o(.text)
    PendSV_Handler                           0x0800017b   Thumb Code     2  stm32f10x_it.o(.text)
    main                                     0x08000185   Thumb Code   622  main.o(.text)
    NVIC_Configuration                       0x080004b5   Thumb Code   126  system.o(.text)
    Reset_MCU                                0x08000533   Thumb Code    32  system.o(.text)
    GetSTM32MCUID                            0x08000553   Thumb Code    50  system.o(.text)
    DelayInit                                0x080005ad   Thumb Code    50  delay.o(.text)
    delay_us                                 0x080005df   Thumb Code    72  delay.o(.text)
    delay_ms                                 0x08000627   Thumb Code    72  delay.o(.text)
    uart_init                                0x08000681   Thumb Code   414  usart.o(.text)
    UsartOutStrIT                            0x0800081f   Thumb Code    94  usart.o(.text)
    UsartOutStr                              0x0800087d   Thumb Code    42  usart.o(.text)
    UsartOutChar                             0x080008a7   Thumb Code    28  usart.o(.text)
    USART1_IRQHandler                        0x080008c3   Thumb Code   214  usart.o(.text)
    USART2_IRQHandler                        0x08000999   Thumb Code   336  usart.o(.text)
    USART3_IRQHandler                        0x08000ae9   Thumb Code   222  usart.o(.text)
    fputc                                    0x08000bc7   Thumb Code    58  usart.o(.text)
    GpioInit                                 0x08000c25   Thumb Code    66  gpio.o(.text)
    cStringFree                              0x08000c71   Thumb Code    12  cstring.o(.text)
    StrBetwStringMalloc                      0x08000c7d   Thumb Code   108  cstring.o(.text)
    cStringRestore                           0x08000ce9   Thumb Code    18  cstring.o(.text)
    StrBetwString                            0x08000cfb   Thumb Code    86  cstring.o(.text)
    split                                    0x08000d51   Thumb Code    84  cstring.o(.text)
    HexToAscii                               0x08000da5   Thumb Code    96  cstring.o(.text)
    insert                                   0x08000e05   Thumb Code    26  cstring.o(.text)
    IWDG_Init                                0x08000e2d   Thumb Code    36  iwdg.o(.text)
    IWDG_Feed                                0x08000e51   Thumb Code     8  iwdg.o(.text)
    Timer2_Config                            0x08000e59   Thumb Code    80  timer.o(.text)
    TIM2_IRQHandler                          0x08000ea9   Thumb Code    80  timer.o(.text)
    BufferManageCreate                       0x08000efd   Thumb Code    64  buffermanage.o(.text)
    BufferManageWrite                        0x08000f3d   Thumb Code    84  buffermanage.o(.text)
    BufferManageRead                         0x08000f91   Thumb Code    64  buffermanage.o(.text)
    rbCreate                                 0x08000fd1   Thumb Code    20  looplist.o(.text)
    rbDelete                                 0x08000fe5   Thumb Code    18  looplist.o(.text)
    rbCapacity                               0x08000ff7   Thumb Code    14  looplist.o(.text)
    rbCanRead                                0x08001005   Thumb Code    56  looplist.o(.text)
    rbCanWrite                               0x0800103d   Thumb Code    30  looplist.o(.text)
    rbRead                                   0x0800105b   Thumb Code   162  looplist.o(.text)
    rbWrite                                  0x080010fd   Thumb Code   158  looplist.o(.text)
    PutData                                  0x0800119b   Thumb Code    46  looplist.o(.text)
    SystemInit                               0x080012a7   Thumb Code    78  system_stm32f10x.o(.text)
    SystemCoreClockUpdate                    0x080012f5   Thumb Code   142  system_stm32f10x.o(.text)
    NVIC_PriorityGroupConfig                 0x080013a9   Thumb Code    10  misc.o(.text)
    NVIC_Init                                0x080013b3   Thumb Code   100  misc.o(.text)
    NVIC_SetVectorTable                      0x08001417   Thumb Code    14  misc.o(.text)
    NVIC_SystemLPConfig                      0x08001425   Thumb Code    34  misc.o(.text)
    SysTick_CLKSourceConfig                  0x08001447   Thumb Code    40  misc.o(.text)
    RCC_DeInit                               0x08001485   Thumb Code    64  stm32f10x_rcc.o(.text)
    RCC_HSEConfig                            0x080014c5   Thumb Code    70  stm32f10x_rcc.o(.text)
    RCC_GetFlagStatus                        0x0800150b   Thumb Code    56  stm32f10x_rcc.o(.text)
    RCC_WaitForHSEStartUp                    0x08001543   Thumb Code    56  stm32f10x_rcc.o(.text)
    RCC_AdjustHSICalibrationValue            0x0800157b   Thumb Code    20  stm32f10x_rcc.o(.text)
    RCC_HSICmd                               0x0800158f   Thumb Code     6  stm32f10x_rcc.o(.text)
    RCC_PLLConfig                            0x08001595   Thumb Code    24  stm32f10x_rcc.o(.text)
    RCC_PLLCmd                               0x080015ad   Thumb Code     6  stm32f10x_rcc.o(.text)
    RCC_SYSCLKConfig                         0x080015b3   Thumb Code    18  stm32f10x_rcc.o(.text)
    RCC_GetSYSCLKSource                      0x080015c5   Thumb Code    10  stm32f10x_rcc.o(.text)
    RCC_HCLKConfig                           0x080015cf   Thumb Code    18  stm32f10x_rcc.o(.text)
    RCC_PCLK1Config                          0x080015e1   Thumb Code    18  stm32f10x_rcc.o(.text)
    RCC_PCLK2Config                          0x080015f3   Thumb Code    20  stm32f10x_rcc.o(.text)
    RCC_ITConfig                             0x08001607   Thumb Code    26  stm32f10x_rcc.o(.text)
    RCC_USBCLKConfig                         0x08001621   Thumb Code     8  stm32f10x_rcc.o(.text)
    RCC_ADCCLKConfig                         0x08001629   Thumb Code    18  stm32f10x_rcc.o(.text)
    RCC_LSEConfig                            0x0800163b   Thumb Code    50  stm32f10x_rcc.o(.text)
    RCC_LSICmd                               0x0800166d   Thumb Code     6  stm32f10x_rcc.o(.text)
    RCC_RTCCLKConfig                         0x08001673   Thumb Code    12  stm32f10x_rcc.o(.text)
    RCC_RTCCLKCmd                            0x0800167f   Thumb Code     8  stm32f10x_rcc.o(.text)
    RCC_GetClocksFreq                        0x08001687   Thumb Code   192  stm32f10x_rcc.o(.text)
    RCC_AHBPeriphClockCmd                    0x08001747   Thumb Code    26  stm32f10x_rcc.o(.text)
    RCC_APB2PeriphClockCmd                   0x08001761   Thumb Code    26  stm32f10x_rcc.o(.text)
    RCC_APB1PeriphClockCmd                   0x0800177b   Thumb Code    26  stm32f10x_rcc.o(.text)
    RCC_APB2PeriphResetCmd                   0x08001795   Thumb Code    26  stm32f10x_rcc.o(.text)
    RCC_APB1PeriphResetCmd                   0x080017af   Thumb Code    26  stm32f10x_rcc.o(.text)
    RCC_BackupResetCmd                       0x080017c9   Thumb Code     8  stm32f10x_rcc.o(.text)
    RCC_ClockSecuritySystemCmd               0x080017d1   Thumb Code     6  stm32f10x_rcc.o(.text)
    RCC_MCOConfig                            0x080017d7   Thumb Code     6  stm32f10x_rcc.o(.text)
    RCC_ClearFlag                            0x080017dd   Thumb Code    14  stm32f10x_rcc.o(.text)
    RCC_GetITStatus                          0x080017eb   Thumb Code    20  stm32f10x_rcc.o(.text)
    RCC_ClearITPendingBit                    0x080017ff   Thumb Code     6  stm32f10x_rcc.o(.text)
    USART_DeInit                             0x08001829   Thumb Code   134  stm32f10x_usart.o(.text)
    USART_Init                               0x080018af   Thumb Code   210  stm32f10x_usart.o(.text)
    USART_StructInit                         0x08001981   Thumb Code    24  stm32f10x_usart.o(.text)
    USART_ClockInit                          0x08001999   Thumb Code    34  stm32f10x_usart.o(.text)
    USART_ClockStructInit                    0x080019bb   Thumb Code    12  stm32f10x_usart.o(.text)
    USART_Cmd                                0x080019c7   Thumb Code    24  stm32f10x_usart.o(.text)
    USART_ITConfig                           0x080019df   Thumb Code    74  stm32f10x_usart.o(.text)
    USART_DMACmd                             0x08001a29   Thumb Code    18  stm32f10x_usart.o(.text)
    USART_SetAddress                         0x08001a3b   Thumb Code    18  stm32f10x_usart.o(.text)
    USART_WakeUpConfig                       0x08001a4d   Thumb Code    18  stm32f10x_usart.o(.text)
    USART_ReceiverWakeUpCmd                  0x08001a5f   Thumb Code    24  stm32f10x_usart.o(.text)
    USART_LINBreakDetectLengthConfig         0x08001a77   Thumb Code    18  stm32f10x_usart.o(.text)
    USART_LINCmd                             0x08001a89   Thumb Code    24  stm32f10x_usart.o(.text)
    USART_SendData                           0x08001aa1   Thumb Code     8  stm32f10x_usart.o(.text)
    USART_ReceiveData                        0x08001aa9   Thumb Code    10  stm32f10x_usart.o(.text)
    USART_SendBreak                          0x08001ab3   Thumb Code    10  stm32f10x_usart.o(.text)
    USART_SetGuardTime                       0x08001abd   Thumb Code    16  stm32f10x_usart.o(.text)
    USART_SetPrescaler                       0x08001acd   Thumb Code    16  stm32f10x_usart.o(.text)
    USART_SmartCardCmd                       0x08001add   Thumb Code    24  stm32f10x_usart.o(.text)
    USART_SmartCardNACKCmd                   0x08001af5   Thumb Code    24  stm32f10x_usart.o(.text)
    USART_HalfDuplexCmd                      0x08001b0d   Thumb Code    24  stm32f10x_usart.o(.text)
    USART_OverSampling8Cmd                   0x08001b25   Thumb Code    22  stm32f10x_usart.o(.text)
    USART_OneBitMethodCmd                    0x08001b3b   Thumb Code    24  stm32f10x_usart.o(.text)
    USART_IrDAConfig                         0x08001b53   Thumb Code    18  stm32f10x_usart.o(.text)
    USART_IrDACmd                            0x08001b65   Thumb Code    24  stm32f10x_usart.o(.text)
    USART_GetFlagStatus                      0x08001b7d   Thumb Code    26  stm32f10x_usart.o(.text)
    USART_ClearFlag                          0x08001b97   Thumb Code    18  stm32f10x_usart.o(.text)
    USART_GetITStatus                        0x08001ba9   Thumb Code    84  stm32f10x_usart.o(.text)
    USART_ClearITPendingBit                  0x08001bfd   Thumb Code    52  stm32f10x_usart.o(.text)
    GPIO_DeInit                              0x08001c31   Thumb Code   172  stm32f10x_gpio.o(.text)
    GPIO_AFIODeInit                          0x08001cdd   Thumb Code    20  stm32f10x_gpio.o(.text)
    GPIO_Init                                0x08001cf1   Thumb Code   278  stm32f10x_gpio.o(.text)
    GPIO_StructInit                          0x08001e07   Thumb Code    16  stm32f10x_gpio.o(.text)
    GPIO_ReadInputDataBit                    0x08001e17   Thumb Code    18  stm32f10x_gpio.o(.text)
    GPIO_ReadInputData                       0x08001e29   Thumb Code     8  stm32f10x_gpio.o(.text)
    GPIO_ReadOutputDataBit                   0x08001e31   Thumb Code    18  stm32f10x_gpio.o(.text)
    GPIO_ReadOutputData                      0x08001e43   Thumb Code     8  stm32f10x_gpio.o(.text)
    GPIO_SetBits                             0x08001e4b   Thumb Code     4  stm32f10x_gpio.o(.text)
    GPIO_ResetBits                           0x08001e4f   Thumb Code     4  stm32f10x_gpio.o(.text)
    GPIO_WriteBit                            0x08001e53   Thumb Code    10  stm32f10x_gpio.o(.text)
    GPIO_Write                               0x08001e5d   Thumb Code     4  stm32f10x_gpio.o(.text)
    GPIO_PinLockConfig                       0x08001e61   Thumb Code    18  stm32f10x_gpio.o(.text)
    GPIO_EventOutputConfig                   0x08001e73   Thumb Code    26  stm32f10x_gpio.o(.text)
    GPIO_EventOutputCmd                      0x08001e8d   Thumb Code     6  stm32f10x_gpio.o(.text)
    GPIO_PinRemapConfig                      0x08001e93   Thumb Code   138  stm32f10x_gpio.o(.text)
    GPIO_EXTILineConfig                      0x08001f1d   Thumb Code    66  stm32f10x_gpio.o(.text)
    GPIO_ETH_MediaInterfaceConfig            0x08001f5f   Thumb Code     8  stm32f10x_gpio.o(.text)
    TIM_DeInit                               0x08001f8d   Thumb Code   424  stm32f10x_tim.o(.text)
    TIM_TimeBaseInit                         0x08002135   Thumb Code   122  stm32f10x_tim.o(.text)
    TIM_OC1Init                              0x080021af   Thumb Code   132  stm32f10x_tim.o(.text)
    TIM_OC2Init                              0x08002233   Thumb Code   154  stm32f10x_tim.o(.text)
    TIM_OC3Init                              0x080022cd   Thumb Code   150  stm32f10x_tim.o(.text)
    TIM_OC4Init                              0x08002363   Thumb Code   182  stm32f10x_tim.o(.text)
    TIM_SetIC4Prescaler                      0x08002419   Thumb Code    26  stm32f10x_tim.o(.text)
    TIM_SetIC3Prescaler                      0x080024b5   Thumb Code    18  stm32f10x_tim.o(.text)
    TIM_SetIC2Prescaler                      0x08002541   Thumb Code    26  stm32f10x_tim.o(.text)
    TIM_SetIC1Prescaler                      0x080025dd   Thumb Code    18  stm32f10x_tim.o(.text)
    TIM_ICInit                               0x0800265b   Thumb Code   150  stm32f10x_tim.o(.text)
    TIM_PWMIConfig                           0x080026f1   Thumb Code   124  stm32f10x_tim.o(.text)
    TIM_BDTRConfig                           0x0800276d   Thumb Code    32  stm32f10x_tim.o(.text)
    TIM_TimeBaseStructInit                   0x0800278d   Thumb Code    18  stm32f10x_tim.o(.text)
    TIM_OCStructInit                         0x0800279f   Thumb Code    20  stm32f10x_tim.o(.text)
    TIM_ICStructInit                         0x080027b3   Thumb Code    18  stm32f10x_tim.o(.text)
    TIM_BDTRStructInit                       0x080027c5   Thumb Code    40  stm32f10x_tim.o(.text)
    TIM_Cmd                                  0x080027ed   Thumb Code    24  stm32f10x_tim.o(.text)
    TIM_CtrlPWMOutputs                       0x08002805   Thumb Code    30  stm32f10x_tim.o(.text)
    TIM_ITConfig                             0x08002823   Thumb Code    18  stm32f10x_tim.o(.text)
    TIM_GenerateEvent                        0x08002835   Thumb Code     4  stm32f10x_tim.o(.text)
    TIM_DMAConfig                            0x08002839   Thumb Code    10  stm32f10x_tim.o(.text)
    TIM_DMACmd                               0x08002843   Thumb Code    18  stm32f10x_tim.o(.text)
    TIM_InternalClockConfig                  0x08002855   Thumb Code    12  stm32f10x_tim.o(.text)
    TIM_SelectInputTrigger                   0x08002861   Thumb Code    18  stm32f10x_tim.o(.text)
    TIM_ITRxExternalClockConfig              0x08002873   Thumb Code    24  stm32f10x_tim.o(.text)
    TIM_TIxExternalClockConfig               0x0800288b   Thumb Code    62  stm32f10x_tim.o(.text)
    TIM_ETRConfig                            0x080028c9   Thumb Code    28  stm32f10x_tim.o(.text)
    TIM_ETRClockMode1Config                  0x080028e5   Thumb Code    54  stm32f10x_tim.o(.text)
    TIM_ETRClockMode2Config                  0x0800291b   Thumb Code    32  stm32f10x_tim.o(.text)
    TIM_PrescalerConfig                      0x0800293b   Thumb Code     6  stm32f10x_tim.o(.text)
    TIM_CounterModeConfig                    0x08002941   Thumb Code    18  stm32f10x_tim.o(.text)
    TIM_EncoderInterfaceConfig               0x08002953   Thumb Code    66  stm32f10x_tim.o(.text)
    TIM_ForcedOC1Config                      0x08002995   Thumb Code    18  stm32f10x_tim.o(.text)
    TIM_ForcedOC2Config                      0x080029a7   Thumb Code    26  stm32f10x_tim.o(.text)
    TIM_ForcedOC3Config                      0x080029c1   Thumb Code    18  stm32f10x_tim.o(.text)
    TIM_ForcedOC4Config                      0x080029d3   Thumb Code    26  stm32f10x_tim.o(.text)
    TIM_ARRPreloadConfig                     0x080029ed   Thumb Code    24  stm32f10x_tim.o(.text)
    TIM_SelectCOM                            0x08002a05   Thumb Code    24  stm32f10x_tim.o(.text)
    TIM_SelectCCDMA                          0x08002a1d   Thumb Code    24  stm32f10x_tim.o(.text)
    TIM_CCPreloadControl                     0x08002a35   Thumb Code    24  stm32f10x_tim.o(.text)
    TIM_OC1PreloadConfig                     0x08002a4d   Thumb Code    18  stm32f10x_tim.o(.text)
    TIM_OC2PreloadConfig                     0x08002a5f   Thumb Code    26  stm32f10x_tim.o(.text)
    TIM_OC3PreloadConfig                     0x08002a79   Thumb Code    18  stm32f10x_tim.o(.text)
    TIM_OC4PreloadConfig                     0x08002a8b   Thumb Code    26  stm32f10x_tim.o(.text)
    TIM_OC1FastConfig                        0x08002aa5   Thumb Code    18  stm32f10x_tim.o(.text)
    TIM_OC2FastConfig                        0x08002ab7   Thumb Code    26  stm32f10x_tim.o(.text)
    TIM_OC3FastConfig                        0x08002ad1   Thumb Code    18  stm32f10x_tim.o(.text)
    TIM_OC4FastConfig                        0x08002ae3   Thumb Code    26  stm32f10x_tim.o(.text)
    TIM_ClearOC1Ref                          0x08002afd   Thumb Code    18  stm32f10x_tim.o(.text)
    TIM_ClearOC2Ref                          0x08002b0f   Thumb Code    24  stm32f10x_tim.o(.text)
    TIM_ClearOC3Ref                          0x08002b27   Thumb Code    18  stm32f10x_tim.o(.text)
    TIM_ClearOC4Ref                          0x08002b39   Thumb Code    24  stm32f10x_tim.o(.text)
    TIM_OC1PolarityConfig                    0x08002b51   Thumb Code    18  stm32f10x_tim.o(.text)
    TIM_OC1NPolarityConfig                   0x08002b63   Thumb Code    18  stm32f10x_tim.o(.text)
    TIM_OC2PolarityConfig                    0x08002b75   Thumb Code    26  stm32f10x_tim.o(.text)
    TIM_OC2NPolarityConfig                   0x08002b8f   Thumb Code    26  stm32f10x_tim.o(.text)
    TIM_OC3PolarityConfig                    0x08002ba9   Thumb Code    26  stm32f10x_tim.o(.text)
    TIM_OC3NPolarityConfig                   0x08002bc3   Thumb Code    26  stm32f10x_tim.o(.text)
    TIM_OC4PolarityConfig                    0x08002bdd   Thumb Code    26  stm32f10x_tim.o(.text)
    TIM_CCxCmd                               0x08002bf7   Thumb Code    30  stm32f10x_tim.o(.text)
    TIM_CCxNCmd                              0x08002c15   Thumb Code    30  stm32f10x_tim.o(.text)
    TIM_SelectOCxM                           0x08002c33   Thumb Code    82  stm32f10x_tim.o(.text)
    TIM_UpdateDisableConfig                  0x08002c85   Thumb Code    24  stm32f10x_tim.o(.text)
    TIM_UpdateRequestConfig                  0x08002c9d   Thumb Code    24  stm32f10x_tim.o(.text)
    TIM_SelectHallSensor                     0x08002cb5   Thumb Code    24  stm32f10x_tim.o(.text)
    TIM_SelectOnePulseMode                   0x08002ccd   Thumb Code    18  stm32f10x_tim.o(.text)
    TIM_SelectOutputTrigger                  0x08002cdf   Thumb Code    18  stm32f10x_tim.o(.text)
    TIM_SelectSlaveMode                      0x08002cf1   Thumb Code    18  stm32f10x_tim.o(.text)
    TIM_SelectMasterSlaveMode                0x08002d03   Thumb Code    18  stm32f10x_tim.o(.text)
    TIM_SetCounter                           0x08002d15   Thumb Code     4  stm32f10x_tim.o(.text)
    TIM_SetAutoreload                        0x08002d19   Thumb Code     4  stm32f10x_tim.o(.text)
    TIM_SetCompare1                          0x08002d1d   Thumb Code     4  stm32f10x_tim.o(.text)
    TIM_SetCompare2                          0x08002d21   Thumb Code     4  stm32f10x_tim.o(.text)
    TIM_SetCompare3                          0x08002d25   Thumb Code     4  stm32f10x_tim.o(.text)
    TIM_SetCompare4                          0x08002d29   Thumb Code     6  stm32f10x_tim.o(.text)
    TIM_SetClockDivision                     0x08002d2f   Thumb Code    18  stm32f10x_tim.o(.text)
    TIM_GetCapture1                          0x08002d41   Thumb Code     6  stm32f10x_tim.o(.text)
    TIM_GetCapture2                          0x08002d47   Thumb Code     6  stm32f10x_tim.o(.text)
    TIM_GetCapture3                          0x08002d4d   Thumb Code     6  stm32f10x_tim.o(.text)
    TIM_GetCapture4                          0x08002d53   Thumb Code     8  stm32f10x_tim.o(.text)
    TIM_GetCounter                           0x08002d5b   Thumb Code     6  stm32f10x_tim.o(.text)
    TIM_GetPrescaler                         0x08002d61   Thumb Code     6  stm32f10x_tim.o(.text)
    TIM_GetFlagStatus                        0x08002d67   Thumb Code    18  stm32f10x_tim.o(.text)
    TIM_ClearFlag                            0x08002d79   Thumb Code     6  stm32f10x_tim.o(.text)
    TIM_GetITStatus                          0x08002d7f   Thumb Code    34  stm32f10x_tim.o(.text)
    TIM_ClearITPendingBit                    0x08002da1   Thumb Code     6  stm32f10x_tim.o(.text)
    IWDG_WriteAccessCmd                      0x08002da9   Thumb Code     6  stm32f10x_iwdg.o(.text)
    IWDG_SetPrescaler                        0x08002daf   Thumb Code     6  stm32f10x_iwdg.o(.text)
    IWDG_SetReload                           0x08002db5   Thumb Code     6  stm32f10x_iwdg.o(.text)
    IWDG_ReloadCounter                       0x08002dbb   Thumb Code    10  stm32f10x_iwdg.o(.text)
    IWDG_Enable                              0x08002dc5   Thumb Code    10  stm32f10x_iwdg.o(.text)
    IWDG_GetFlagStatus                       0x08002dcf   Thumb Code    20  stm32f10x_iwdg.o(.text)
    SPI_I2S_DeInit                           0x08002de9   Thumb Code    76  stm32f10x_spi.o(.text)
    SPI_Init                                 0x08002e35   Thumb Code    60  stm32f10x_spi.o(.text)
    I2S_Init                                 0x08002e71   Thumb Code   226  stm32f10x_spi.o(.text)
    SPI_StructInit                           0x08002f53   Thumb Code    24  stm32f10x_spi.o(.text)
    I2S_StructInit                           0x08002f6b   Thumb Code    20  stm32f10x_spi.o(.text)
    SPI_Cmd                                  0x08002f7f   Thumb Code    24  stm32f10x_spi.o(.text)
    I2S_Cmd                                  0x08002f97   Thumb Code    24  stm32f10x_spi.o(.text)
    SPI_I2S_ITConfig                         0x08002faf   Thumb Code    32  stm32f10x_spi.o(.text)
    SPI_I2S_DMACmd                           0x08002fcf   Thumb Code    18  stm32f10x_spi.o(.text)
    SPI_I2S_SendData                         0x08002fe1   Thumb Code     4  stm32f10x_spi.o(.text)
    SPI_I2S_ReceiveData                      0x08002fe5   Thumb Code     6  stm32f10x_spi.o(.text)
    SPI_NSSInternalSoftwareConfig            0x08002feb   Thumb Code    30  stm32f10x_spi.o(.text)
    SPI_SSOutputCmd                          0x08003009   Thumb Code    24  stm32f10x_spi.o(.text)
    SPI_DataSizeConfig                       0x08003021   Thumb Code    18  stm32f10x_spi.o(.text)
    SPI_TransmitCRC                          0x08003033   Thumb Code    10  stm32f10x_spi.o(.text)
    SPI_CalculateCRC                         0x0800303d   Thumb Code    24  stm32f10x_spi.o(.text)
    SPI_GetCRC                               0x08003055   Thumb Code    16  stm32f10x_spi.o(.text)
    SPI_GetCRCPolynomial                     0x08003065   Thumb Code     6  stm32f10x_spi.o(.text)
    SPI_BiDirectionalLineConfig              0x0800306b   Thumb Code    28  stm32f10x_spi.o(.text)
    SPI_I2S_GetFlagStatus                    0x08003087   Thumb Code    18  stm32f10x_spi.o(.text)
    SPI_I2S_ClearFlag                        0x08003099   Thumb Code     6  stm32f10x_spi.o(.text)
    SPI_I2S_GetITStatus                      0x0800309f   Thumb Code    52  stm32f10x_spi.o(.text)
    SPI_I2S_ClearITPendingBit                0x080030d3   Thumb Code    20  stm32f10x_spi.o(.text)
    Reset_Handler                            0x080030f5   Thumb Code     8  startup_stm32f10x_hd.o(.text)
    SysTick_Handler                          0x0800310d   Thumb Code     2  startup_stm32f10x_hd.o(.text)
    ADC1_2_IRQHandler                        0x0800310f   Thumb Code     0  startup_stm32f10x_hd.o(.text)
    ADC3_IRQHandler                          0x0800310f   Thumb Code     0  startup_stm32f10x_hd.o(.text)
    CAN1_RX1_IRQHandler                      0x0800310f   Thumb Code     0  startup_stm32f10x_hd.o(.text)
    CAN1_SCE_IRQHandler                      0x0800310f   Thumb Code     0  startup_stm32f10x_hd.o(.text)
    DMA1_Channel1_IRQHandler                 0x0800310f   Thumb Code     0  startup_stm32f10x_hd.o(.text)
    DMA1_Channel2_IRQHandler                 0x0800310f   Thumb Code     0  startup_stm32f10x_hd.o(.text)
    DMA1_Channel3_IRQHandler                 0x0800310f   Thumb Code     0  startup_stm32f10x_hd.o(.text)
    DMA1_Channel4_IRQHandler                 0x0800310f   Thumb Code     0  startup_stm32f10x_hd.o(.text)
    DMA1_Channel5_IRQHandler                 0x0800310f   Thumb Code     0  startup_stm32f10x_hd.o(.text)
    DMA1_Channel6_IRQHandler                 0x0800310f   Thumb Code     0  startup_stm32f10x_hd.o(.text)
    DMA1_Channel7_IRQHandler                 0x0800310f   Thumb Code     0  startup_stm32f10x_hd.o(.text)
    DMA2_Channel1_IRQHandler                 0x0800310f   Thumb Code     0  startup_stm32f10x_hd.o(.text)
    DMA2_Channel2_IRQHandler                 0x0800310f   Thumb Code     0  startup_stm32f10x_hd.o(.text)
    DMA2_Channel3_IRQHandler                 0x0800310f   Thumb Code     0  startup_stm32f10x_hd.o(.text)
    DMA2_Channel4_5_IRQHandler               0x0800310f   Thumb Code     0  startup_stm32f10x_hd.o(.text)
    EXTI0_IRQHandler                         0x0800310f   Thumb Code     0  startup_stm32f10x_hd.o(.text)
    EXTI15_10_IRQHandler                     0x0800310f   Thumb Code     0  startup_stm32f10x_hd.o(.text)
    EXTI1_IRQHandler                         0x0800310f   Thumb Code     0  startup_stm32f10x_hd.o(.text)
    EXTI2_IRQHandler                         0x0800310f   Thumb Code     0  startup_stm32f10x_hd.o(.text)
    EXTI3_IRQHandler                         0x0800310f   Thumb Code     0  startup_stm32f10x_hd.o(.text)
    EXTI4_IRQHandler                         0x0800310f   Thumb Code     0  startup_stm32f10x_hd.o(.text)
    EXTI9_5_IRQHandler                       0x0800310f   Thumb Code     0  startup_stm32f10x_hd.o(.text)
    FLASH_IRQHandler                         0x0800310f   Thumb Code     0  startup_stm32f10x_hd.o(.text)
    FSMC_IRQHandler                          0x0800310f   Thumb Code     0  startup_stm32f10x_hd.o(.text)
    I2C1_ER_IRQHandler                       0x0800310f   Thumb Code     0  startup_stm32f10x_hd.o(.text)
    I2C1_EV_IRQHandler                       0x0800310f   Thumb Code     0  startup_stm32f10x_hd.o(.text)
    I2C2_ER_IRQHandler                       0x0800310f   Thumb Code     0  startup_stm32f10x_hd.o(.text)
    I2C2_EV_IRQHandler                       0x0800310f   Thumb Code     0  startup_stm32f10x_hd.o(.text)
    PVD_IRQHandler                           0x0800310f   Thumb Code     0  startup_stm32f10x_hd.o(.text)
    RCC_IRQHandler                           0x0800310f   Thumb Code     0  startup_stm32f10x_hd.o(.text)
    RTCAlarm_IRQHandler                      0x0800310f   Thumb Code     0  startup_stm32f10x_hd.o(.text)
    RTC_IRQHandler                           0x0800310f   Thumb Code     0  startup_stm32f10x_hd.o(.text)
    SDIO_IRQHandler                          0x0800310f   Thumb Code     0  startup_stm32f10x_hd.o(.text)
    SPI1_IRQHandler                          0x0800310f   Thumb Code     0  startup_stm32f10x_hd.o(.text)
    SPI2_IRQHandler                          0x0800310f   Thumb Code     0  startup_stm32f10x_hd.o(.text)
    SPI3_IRQHandler                          0x0800310f   Thumb Code     0  startup_stm32f10x_hd.o(.text)
    TAMPER_IRQHandler                        0x0800310f   Thumb Code     0  startup_stm32f10x_hd.o(.text)
    TIM1_BRK_IRQHandler                      0x0800310f   Thumb Code     0  startup_stm32f10x_hd.o(.text)
    TIM1_CC_IRQHandler                       0x0800310f   Thumb Code     0  startup_stm32f10x_hd.o(.text)
    TIM1_TRG_COM_IRQHandler                  0x0800310f   Thumb Code     0  startup_stm32f10x_hd.o(.text)
    TIM1_UP_IRQHandler                       0x0800310f   Thumb Code     0  startup_stm32f10x_hd.o(.text)
    TIM3_IRQHandler                          0x0800310f   Thumb Code     0  startup_stm32f10x_hd.o(.text)
    TIM4_IRQHandler                          0x0800310f   Thumb Code     0  startup_stm32f10x_hd.o(.text)
    TIM5_IRQHandler                          0x0800310f   Thumb Code     0  startup_stm32f10x_hd.o(.text)
    TIM6_IRQHandler                          0x0800310f   Thumb Code     0  startup_stm32f10x_hd.o(.text)
    TIM7_IRQHandler                          0x0800310f   Thumb Code     0  startup_stm32f10x_hd.o(.text)
    TIM8_BRK_IRQHandler                      0x0800310f   Thumb Code     0  startup_stm32f10x_hd.o(.text)
    TIM8_CC_IRQHandler                       0x0800310f   Thumb Code     0  startup_stm32f10x_hd.o(.text)
    TIM8_TRG_COM_IRQHandler                  0x0800310f   Thumb Code     0  startup_stm32f10x_hd.o(.text)
    TIM8_UP_IRQHandler                       0x0800310f   Thumb Code     0  startup_stm32f10x_hd.o(.text)
    UART4_IRQHandler                         0x0800310f   Thumb Code     0  startup_stm32f10x_hd.o(.text)
    UART5_IRQHandler                         0x0800310f   Thumb Code     0  startup_stm32f10x_hd.o(.text)
    USBWakeUp_IRQHandler                     0x0800310f   Thumb Code     0  startup_stm32f10x_hd.o(.text)
    USB_HP_CAN1_TX_IRQHandler                0x0800310f   Thumb Code     0  startup_stm32f10x_hd.o(.text)
    USB_LP_CAN1_RX0_IRQHandler               0x0800310f   Thumb Code     0  startup_stm32f10x_hd.o(.text)
    WWDG_IRQHandler                          0x0800310f   Thumb Code     0  startup_stm32f10x_hd.o(.text)
    get_DHCP_state                           0x08003119   Thumb Code     6  dhcp.o(.text)
    reset_DHCP_time                          0x0800311f   Thumb Code    28  dhcp.o(.text)
    send_DHCP_DISCOVER                       0x0800313b   Thumb Code   686  dhcp.o(.text)
    send_DHCP_REQUEST                        0x080033e9   Thumb Code  1060  dhcp.o(.text)
    send_DHCP_RELEASE_DECLINE                0x0800380d   Thumb Code   708  dhcp.o(.text)
    parseDHCPMSG                             0x08003ad1   Thumb Code  1528  dhcp.o(.text)
    check_DHCP_Timeout                       0x080040c9   Thumb Code   134  dhcp.o(.text)
    check_leasedIP                           0x0800414f   Thumb Code    82  dhcp.o(.text)
    check_DHCP_state                         0x080041a1   Thumb Code   452  dhcp.o(.text)
    DHCP_timer_handler                       0x08004365   Thumb Code    36  dhcp.o(.text)
    init_dhcp                                0x08004389   Thumb Code    22  dhcp.o(.text)
    do_dhcp                                  0x0800439f   Thumb Code   850  dhcp.o(.text)
    close                                    0x08004751   Thumb Code    52  socket.o(.text)
    socket                                   0x08004785   Thumb Code   192  socket.o(.text)
    listen                                   0x08004845   Thumb Code    62  socket.o(.text)
    connect                                  0x08004883   Thumb Code   248  socket.o(.text)
    disconnect                               0x0800497b   Thumb Code    38  socket.o(.text)
    send                                     0x080049a1   Thumb Code   216  socket.o(.text)
    recv                                     0x08004a79   Thumb Code    66  socket.o(.text)
    sendto                                   0x08004abb   Thumb Code   268  socket.o(.text)
    recvfrom                                 0x08004bc7   Thumb Code   510  socket.o(.text)
    c2d                                      0x08004ddd   Thumb Code    54  utility.o(.text)
    atoi16                                   0x08004e13   Thumb Code    32  utility.o(.text)
    atoi32                                   0x08004e33   Thumb Code    32  utility.o(.text)
    itoa                                     0x08004e53   Thumb Code    64  utility.o(.text)
    validatoi                                0x08004e93   Thumb Code    72  utility.o(.text)
    replacetochar                            0x08004edb   Thumb Code    26  utility.o(.text)
    swaps                                    0x08004ef5   Thumb Code    14  utility.o(.text)
    swapl                                    0x08004f03   Thumb Code    28  utility.o(.text)
    mid                                      0x08004f1f   Thumb Code    68  utility.o(.text)
    inet_addr_                               0x08004f63   Thumb Code    90  utility.o(.text)
    inet_ntoa                                0x08004fbd   Thumb Code    40  utility.o(.text)
    inet_ntoa_pad                            0x08004fe5   Thumb Code    40  utility.o(.text)
    verify_ip_address                        0x0800500d   Thumb Code   116  utility.o(.text)
    htons                                    0x08005081   Thumb Code    12  utility.o(.text)
    htonl                                    0x0800508d   Thumb Code    12  utility.o(.text)
    ntohs                                    0x08005099   Thumb Code    12  utility.o(.text)
    ntohl                                    0x080050a5   Thumb Code    12  utility.o(.text)
    checksum                                 0x080050b1   Thumb Code    76  utility.o(.text)
    check_dest_in_local                      0x080050fd   Thumb Code    62  utility.o(.text)
    getNetworkCableState                     0x08005169   Thumb Code    16  w5500.o(.text)
    setMR                                    0x08005179   Thumb Code    14  w5500.o(.text)
    iinchip_init                             0x08005187   Thumb Code    10  w5500.o(.text)
    getIINCHIP_RxMAX                         0x08005191   Thumb Code    10  w5500.o(.text)
    getIINCHIP_TxMAX                         0x0800519b   Thumb Code    10  w5500.o(.text)
    setGAR                                   0x080051a5   Thumb Code    16  w5500.o(.text)
    getGAR                                   0x080051b5   Thumb Code    16  w5500.o(.text)
    setSUBR                                  0x080051c5   Thumb Code    18  w5500.o(.text)
    setSHAR                                  0x080051d7   Thumb Code    18  w5500.o(.text)
    setSIPR                                  0x080051e9   Thumb Code    18  w5500.o(.text)
    getSUBR                                  0x080051fb   Thumb Code    18  w5500.o(.text)
    getSHAR                                  0x0800520d   Thumb Code    18  w5500.o(.text)
    getSIPR                                  0x0800521f   Thumb Code    18  w5500.o(.text)
    getIR                                    0x08005231   Thumb Code    12  w5500.o(.text)
    setRTR                                   0x0800523d   Thumb Code    26  w5500.o(.text)
    setRCR                                   0x08005257   Thumb Code    16  w5500.o(.text)
    clearIR                                  0x08005267   Thumb Code    26  w5500.o(.text)
    setSn_MSS                                0x08005281   Thumb Code    36  w5500.o(.text)
    setSn_TTL                                0x080052a5   Thumb Code    22  w5500.o(.text)
    getSn_IR                                 0x080052bb   Thumb Code    18  w5500.o(.text)
    setSn_IR                                 0x080052cd   Thumb Code    22  w5500.o(.text)
    getSn_SR                                 0x080052e3   Thumb Code    18  w5500.o(.text)
    getSn_TX_FSR                             0x080052f5   Thumb Code    84  w5500.o(.text)
    getSn_RX_RSR                             0x08005349   Thumb Code    84  w5500.o(.text)
    send_data_processing                     0x0800539d   Thumb Code   116  w5500.o(.text)
    recv_data_processing                     0x08005411   Thumb Code   116  w5500.o(.text)
    socket_buf_init                          0x08005485   Thumb Code   128  w5500.o(.text)
    write_config_to_eeprom                   0x0800554d   Thumb Code    12  w5500_conf.o(.text)
    read_config_from_eeprom                  0x08005559   Thumb Code    10  w5500_conf.o(.text)
    set_w5500_ip                             0x08005563   Thumb Code   334  w5500_conf.o(.text)
    set_w5500_mac                            0x080056b1   Thumb Code    32  w5500_conf.o(.text)
    gpio_for_w5500_config                    0x080056d1   Thumb Code   240  w5500_conf.o(.text)
    wiz_cs                                   0x080057c1   Thumb Code    30  w5500_conf.o(.text)
    iinchip_csoff                            0x080057df   Thumb Code    10  w5500_conf.o(.text)
    iinchip_cson                             0x080057e9   Thumb Code    10  w5500_conf.o(.text)
    reset_w5500                              0x080057f3   Thumb Code    38  w5500_conf.o(.text)
    SPI_SendByte                             0x08005819   Thumb Code    50  w5500_conf.o(.text)
    IINCHIP_SpiSendData                      0x0800584b   Thumb Code    12  w5500_conf.o(.text)
    IINCHIP_WRITE                            0x08005857   Thumb Code    50  w5500_conf.o(.text)
    IINCHIP_READ                             0x08005889   Thumb Code    50  w5500_conf.o(.text)
    wiz_write_buf                            0x080058bb   Thumb Code    80  w5500_conf.o(.text)
    wiz_read_buf                             0x0800590b   Thumb Code   408  w5500_conf.o(.text)
    ARP_timer_handler                        0x08005aa5   Thumb Code    34  arp.o(.text)
    arp_reply                                0x08005ac7   Thumb Code   380  arp.o(.text)
    arp_request                              0x08005c43   Thumb Code   252  arp.o(.text)
    do_arp                                   0x08005d3f   Thumb Code   130  arp.o(.text)
    __aeabi_uldivmod                         0x08005f59   Thumb Code    98  uldiv.o(.text)
    __aeabi_memcpy                           0x08005fbb   Thumb Code    36  memcpya.o(.text)
    __aeabi_memcpy4                          0x08005fbb   Thumb Code     0  memcpya.o(.text)
    __aeabi_memcpy8                          0x08005fbb   Thumb Code     0  memcpya.o(.text)
    __aeabi_memset                           0x08005fdf   Thumb Code    14  memseta.o(.text)
    __aeabi_memset4                          0x08005fdf   Thumb Code     0  memseta.o(.text)
    __aeabi_memset8                          0x08005fdf   Thumb Code     0  memseta.o(.text)
    __aeabi_memclr                           0x08005fed   Thumb Code     4  memseta.o(.text)
    __aeabi_memclr4                          0x08005fed   Thumb Code     0  memseta.o(.text)
    __aeabi_memclr8                          0x08005fed   Thumb Code     0  memseta.o(.text)
    _memset$wrapper                          0x08005ff1   Thumb Code    18  memseta.o(.text)
    strstr                                   0x08006003   Thumb Code    36  strstr.o(.text)
    strncpy                                  0x08006027   Thumb Code    24  strncpy.o(.text)
    strlen                                   0x0800603f   Thumb Code    14  strlen.o(.text)
    memcmp                                   0x0800604d   Thumb Code    26  memcmp.o(.text)
    strcpy                                   0x08006067   Thumb Code    18  strcpy.o(.text)
    strtok                                   0x08006079   Thumb Code    62  strtok.o(.text)
    __aeabi_uidiv                            0x080060bd   Thumb Code     0  uidiv.o(.text)
    __aeabi_uidivmod                         0x080060bd   Thumb Code    44  uidiv.o(.text)
    __aeabi_llsl                             0x080060e9   Thumb Code    30  llshl.o(.text)
    _ll_shift_l                              0x080060e9   Thumb Code     0  llshl.o(.text)
    __aeabi_llsr                             0x08006107   Thumb Code    32  llushr.o(.text)
    _ll_ushift_r                             0x08006107   Thumb Code     0  llushr.o(.text)
    __I$use$fp                               0x08006127   Thumb Code     0  iusefp.o(.text)
    __aeabi_dadd                             0x08006127   Thumb Code   322  dadd.o(.text)
    __aeabi_dsub                             0x08006269   Thumb Code     6  dadd.o(.text)
    __aeabi_drsub                            0x0800626f   Thumb Code     6  dadd.o(.text)
    __aeabi_dmul                             0x08006275   Thumb Code   228  dmul.o(.text)
    __aeabi_ddiv                             0x08006359   Thumb Code   222  ddiv.o(.text)
    __aeabi_d2ulz                            0x08006437   Thumb Code    48  dfixul.o(.text)
    __aeabi_cdrcmple                         0x08006469   Thumb Code    48  cdrcmple.o(.text)
    __scatterload                            0x08006499   Thumb Code    28  init.o(.text)
    __scatterload_rt2                        0x08006499   Thumb Code     0  init.o(.text)
    __aeabi_lasr                             0x080064bd   Thumb Code    36  llsshr.o(.text)
    _ll_sshift_r                             0x080064bd   Thumb Code     0  llsshr.o(.text)
    _double_round                            0x080064e1   Thumb Code    30  depilogue.o(.text)
    _double_epilogue                         0x080064ff   Thumb Code   156  depilogue.o(.text)
    __decompress                             0x0800659b   Thumb Code     0  __dczerorl2.o(.text)
    __decompress1                            0x0800659b   Thumb Code    86  __dczerorl2.o(.text)
    __0printf                                0x080065f1   Thumb Code    22  printfa.o(i.__0printf)
    __1printf                                0x080065f1   Thumb Code     0  printfa.o(i.__0printf)
    __2printf$full                           0x080065f1   Thumb Code     0  printfa.o(i.__0printf)
    __c89printf                              0x080065f1   Thumb Code     0  printfa.o(i.__0printf)
    printf                                   0x080065f1   Thumb Code     0  printfa.o(i.__0printf)
    __0printf$8                              0x08006611   Thumb Code    22  printf8.o(i.__0printf$8)
    __1printf$8                              0x08006611   Thumb Code     0  printf8.o(i.__0printf$8)
    __2printf                                0x08006611   Thumb Code     0  printf8.o(i.__0printf$8)
    __0sprintf$8                             0x08006631   Thumb Code    34  printf8.o(i.__0sprintf$8)
    __1sprintf$8                             0x08006631   Thumb Code     0  printf8.o(i.__0sprintf$8)
    __2sprintf                               0x08006631   Thumb Code     0  printf8.o(i.__0sprintf$8)
    __scatterload_copy                       0x08006659   Thumb Code    14  handlers.o(i.__scatterload_copy)
    __scatterload_null                       0x08006667   Thumb Code     2  handlers.o(i.__scatterload_null)
    __scatterload_zeroinit                   0x08006669   Thumb Code    14  handlers.o(i.__scatterload_zeroinit)
    free                                     0x08007379   Thumb Code    76  malloc.o(i.free)
    malloc                                   0x080073c9   Thumb Code    92  malloc.o(i.malloc)
    Region$$Table$$Base                      0x0800743c   Number         0  anon$$obj.o(Region$$Table)
    Region$$Table$$Limit                     0x0800745c   Number         0  anon$$obj.o(Region$$Table)
    MainLen                                  0x20000000   Data           4  main.o(.data)
    MainString                               0x20000004   Data           4  main.o(.data)
    IP                                       0x20000008   Data           4  main.o(.data)
    DomainName                               0x2000000c   Data          55  main.o(.data)
    NetworkCableState                        0x20000043   Data           1  main.o(.data)
    NetworkCableStateCopy                    0x20000044   Data           1  main.o(.data)
    idAddr                                   0x20000048   Data          40  system.o(.data)
    Usart2SendData                           0x20000074   Data           4  usart.o(.data)
    Usart3SendData                           0x20000078   Data           4  usart.o(.data)
    Usart1ReadCnt                            0x2000007c   Data           4  usart.o(.data)
    Usart1SendBits                           0x20000080   Data           1  usart.o(.data)
    Usart1SendData                           0x20000084   Data           4  usart.o(.data)
    Usart1SendDataCnt                        0x20000088   Data           4  usart.o(.data)
    Usart2ReadCnt                            0x2000008c   Data           4  usart.o(.data)
    Usart2SendDataCnt                        0x20000090   Data           4  usart.o(.data)
    Usart3ReadCnt                            0x20000094   Data           4  usart.o(.data)
    Usart3SendDataCnt                        0x20000098   Data           4  usart.o(.data)
    StringStr                                0x200000a0   Data           4  cstring.o(.data)
    StrStop                                  0x200000a4   Data           4  cstring.o(.data)
    StringValue                              0x200000a8   Data           1  cstring.o(.data)
    SystemCoreClock                          0x200000ac   Data           4  system_stm32f10x.o(.data)
    AHBPrescTable                            0x200000b0   Data          16  system_stm32f10x.o(.data)
    SRC_MAC_ADDR                             0x200000d4   Data           4  dhcp.o(.data)
    GET_SN_MASK                              0x200000d8   Data           4  dhcp.o(.data)
    GET_GW_IP                                0x200000dc   Data           4  dhcp.o(.data)
    GET_DNS_IP                               0x200000e0   Data           4  dhcp.o(.data)
    DHCP_HOST_NAME                           0x200000e4   Data           4  dhcp.o(.data)
    GET_SIP                                  0x200000e8   Data           4  dhcp.o(.data)
    DHCP_SIP                                 0x200000ec   Data           4  dhcp.o(.data)
    DHCP_REAL_SIP                            0x200000f0   Data           4  dhcp.o(.data)
    OLD_SIP                                  0x200000f4   Data           4  dhcp.o(.data)
    dhcp_state                               0x200000f8   Data           1  dhcp.o(.data)
    dhcp_retry_count                         0x200000f9   Data           1  dhcp.o(.data)
    DHCP_timeout                             0x200000fa   Data           1  dhcp.o(.data)
    dhcp_lease_time                          0x200000fc   Data           4  dhcp.o(.data)
    next_dhcp_time                           0x20000100   Data           4  dhcp.o(.data)
    dhcp_tick_cnt                            0x20000104   Data           4  dhcp.o(.data)
    DHCP_timer                               0x20000108   Data           1  dhcp.o(.data)
    Conflict_flag                            0x20000109   Data           1  dhcp.o(.data)
    DHCP_XID                                 0x2000010c   Data           4  dhcp.o(.data)
    pRIPMSG                                  0x20000110   Data           4  dhcp.o(.data)
    txsize                                   0x20000114   Data           8  w5500.o(.data)
    rxsize                                   0x2000011c   Data           8  w5500.o(.data)
    local_mac                                0x20000124   Data           6  w5500_conf.o(.data)
    local_ip                                 0x2000012a   Data           4  w5500_conf.o(.data)
    subnet                                   0x2000012e   Data           4  w5500_conf.o(.data)
    gateway                                  0x20000132   Data           4  w5500_conf.o(.data)
    dns_server                               0x20000136   Data           4  w5500_conf.o(.data)
    local_port                               0x2000013a   Data           2  w5500_conf.o(.data)
    remote_ip                                0x2000013c   Data           4  w5500_conf.o(.data)
    remote_port                              0x20000140   Data           2  w5500_conf.o(.data)
    ip_from                                  0x20000142   Data           1  w5500_conf.o(.data)
    dhcp_ok                                  0x20000143   Data           1  w5500_conf.o(.data)
    ms                                       0x20000144   Data           4  w5500_conf.o(.data)
    dhcp_time                                0x20000148   Data           4  w5500_conf.o(.data)
    ntptimer                                 0x2000014c   Data           1  w5500_conf.o(.data)
    aARPMSG                                  0x20000150   Data           4  arp.o(.data)
    target_ip_addr                           0x20000154   Data           4  arp.o(.data)
    pMACRAW                                  0x20000158   Data           4  arp.o(.data)
    arp_tick_cnt                             0x2000015c   Data           4  arp.o(.data)
    __stdout                                 0x20000164   Data           4  stdout.o(.data)
    __microlib_freelist                      0x20000168   Data           4  mvars.o(.data)
    __microlib_freelist_initialised          0x2000016c   Data           4  mvars.o(.data)
    MainBuffer                               0x20000170   Data         200  main.o(.bss)
    MCUID                                    0x20000238   Data          12  main.o(.bss)
    MAC                                      0x20000244   Data          20  main.o(.bss)
    buff_manage_struct1                      0x20000258   Data          60  usart.o(.bss)
    Usart1Sendrb                             0x20000294   Data          16  usart.o(.bss)
    Usart1BufferMemory                       0x200002a4   Data        1024  usart.o(.bss)
    Usart1BufferMemoryRead                   0x200006a4   Data         500  usart.o(.bss)
    Usart1BufferMemoryManage                 0x20000898   Data         200  usart.o(.bss)
    Usart1SendBuff                           0x20000960   Data        1024  usart.o(.bss)
    buff_manage_struct2                      0x20000d60   Data          60  usart.o(.bss)
    Usart2BufferMemory                       0x20000d9c   Data        1024  usart.o(.bss)
    Usart2BufferMemoryRead                   0x2000119c   Data         500  usart.o(.bss)
    Usart2BufferMemoryManage                 0x20001390   Data         200  usart.o(.bss)
    buff_manage_struct3                      0x20001458   Data          60  usart.o(.bss)
    Usart3BufferMemory                       0x20001494   Data        1024  usart.o(.bss)
    Usart3BufferMemoryRead                   0x20001894   Data         500  usart.o(.bss)
    Usart3BufferMemoryManage                 0x20001a88   Data         200  usart.o(.bss)
    send_manage_struct3                      0x20001b50   Data          60  usart.o(.bss)
    Usart3SendMemory                         0x20001b8c   Data        1024  usart.o(.bss)
    Usart3SendMemoryRead                     0x20001f8c   Data         500  usart.o(.bss)
    Usart3SendMemoryManage                   0x20002180   Data         200  usart.o(.bss)
    Usart1ReadBuff                           0x20002248   Data        1024  usart.o(.bss)
    Usart2ReadBuff                           0x20002648   Data        1024  usart.o(.bss)
    Usart3ReadBuff                           0x20002a48   Data        1024  usart.o(.bss)
    KeySmartConfig                           0x20002e48   Data          28  key.o(.bss)
    DHCP_GET                                 0x20002e64   Data          22  dhcp.o(.bss)
    EXTERN_DHCPBUF                           0x20002e7a   Data        1024  dhcp.o(.bss)
    SSIZE                                    0x200032aa   Data          16  w5500.o(.bss)
    RSIZE                                    0x200032ba   Data          16  w5500.o(.bss)
    ConfigMsg                                0x200032ca   Data          28  w5500_conf.o(.bss)
    EEPROM_MSG                               0x200032e6   Data          18  w5500_conf.o(.bss)
    pARPMSG                                  0x200032f8   Data          68  arp.o(.bss)
    pub_buf                                  0x2000333c   Data        1460  arp.o(.bss)
    ret_arp_reply                            0x200038f0   Data         128  arp.o(.bss)
    __heap_base                              0x20003970   Data           0  startup_stm32f10x_hd.o(HEAP)
    __heap_limit                             0x20003b70   Data           0  startup_stm32f10x_hd.o(HEAP)
    __initial_sp                             0x20003f70   Data           0  startup_stm32f10x_hd.o(STACK)



==============================================================================

Memory Map of the image

  Image Entry point : 0x08000131

  Load Region LR_IROM1 (Base: 0x08000000, Size: 0x000075cc, Max: 0x00010000, ABSOLUTE, COMPRESSED[0x000074e0])

    Execution Region ER_IROM1 (Base: 0x08000000, Size: 0x0000745c, Max: 0x00010000, ABSOLUTE)

    Base Addr    Size         Type   Attr      Idx    E Section Name        Object

    0x08000000   0x00000130   Data   RO          497    RESET               startup_stm32f10x_hd.o
    0x08000130   0x00000000   Code   RO          693  * .ARM.Collect$$$$00000000  mc_w.l(entry.o)
    0x08000130   0x00000004   Code   RO         1013    .ARM.Collect$$$$00000001  mc_w.l(entry2.o)
    0x08000134   0x00000004   Code   RO         1016    .ARM.Collect$$$$00000004  mc_w.l(entry5.o)
    0x08000138   0x00000000   Code   RO         1018    .ARM.Collect$$$$00000008  mc_w.l(entry7b.o)
    0x08000138   0x00000000   Code   RO         1020    .ARM.Collect$$$$0000000A  mc_w.l(entry8b.o)
    0x08000138   0x00000008   Code   RO         1021    .ARM.Collect$$$$0000000B  mc_w.l(entry9a.o)
    0x08000140   0x00000000   Code   RO         1023    .ARM.Collect$$$$0000000D  mc_w.l(entry10a.o)
    0x08000140   0x00000000   Code   RO         1025    .ARM.Collect$$$$0000000F  mc_w.l(entry11a.o)
    0x08000140   0x00000004   Code   RO         1014    .ARM.Collect$$$$00002712  mc_w.l(entry2.o)
    0x08000144   0x00000040   Code   RO            1    .text               stm32f10x_it.o
    0x08000184   0x00000330   Code   RO          104    .text               main.o
    0x080004b4   0x000000f8   Code   RO          194    .text               system.o
    0x080005ac   0x000000d4   Code   RO          213    .text               delay.o
    0x08000680   0x000005a4   Code   RO          230    .text               usart.o
    0x08000c24   0x0000004c   Code   RO          249    .text               gpio.o
    0x08000c70   0x000001bc   Code   RO          261    .text               cstring.o
    0x08000e2c   0x0000002c   Code   RO          297    .text               iwdg.o
    0x08000e58   0x000000a4   Code   RO          312    .text               timer.o
    0x08000efc   0x000000d4   Code   RO          331    .text               buffermanage.o
    0x08000fd0   0x000001f8   Code   RO          346    .text               looplist.o
    0x080011c8   0x000001e0   Code   RO          379    .text               system_stm32f10x.o
    0x080013a8   0x000000dc   Code   RO          397    .text               misc.o
    0x08001484   0x000003a4   Code   RO          409    .text               stm32f10x_rcc.o
    0x08001828   0x00000408   Code   RO          423    .text               stm32f10x_usart.o
    0x08001c30   0x0000035c   Code   RO          447    .text               stm32f10x_gpio.o
    0x08001f8c   0x00000e1a   Code   RO          459    .text               stm32f10x_tim.o
    0x08002da6   0x00000002   PAD
    0x08002da8   0x00000040   Code   RO          471    .text               stm32f10x_iwdg.o
    0x08002de8   0x0000030c   Code   RO          483    .text               stm32f10x_spi.o
    0x080030f4   0x00000024   Code   RO          498    .text               startup_stm32f10x_hd.o
    0x08003118   0x00001638   Code   RO          502    .text               dhcp.o
    0x08004750   0x0000068c   Code   RO          580    .text               socket.o
    0x08004ddc   0x0000038c   Code   RO          592    .text               utility.o
    0x08005168   0x000003e4   Code   RO          616    .text               w5500.o
    0x0800554c   0x00000556   Code   RO          635    .text               w5500_conf.o
    0x08005aa2   0x00000002   PAD
    0x08005aa4   0x000004b4   Code   RO          674    .text               arp.o
    0x08005f58   0x00000062   Code   RO          696    .text               mc_w.l(uldiv.o)
    0x08005fba   0x00000024   Code   RO          698    .text               mc_w.l(memcpya.o)
    0x08005fde   0x00000024   Code   RO          700    .text               mc_w.l(memseta.o)
    0x08006002   0x00000024   Code   RO          704    .text               mc_w.l(strstr.o)
    0x08006026   0x00000018   Code   RO          706    .text               mc_w.l(strncpy.o)
    0x0800603e   0x0000000e   Code   RO          710    .text               mc_w.l(strlen.o)
    0x0800604c   0x0000001a   Code   RO          712    .text               mc_w.l(memcmp.o)
    0x08006066   0x00000012   Code   RO          714    .text               mc_w.l(strcpy.o)
    0x08006078   0x00000044   Code   RO          716    .text               mc_w.l(strtok.o)
    0x080060bc   0x0000002c   Code   RO         1028    .text               mc_w.l(uidiv.o)
    0x080060e8   0x0000001e   Code   RO         1030    .text               mc_w.l(llshl.o)
    0x08006106   0x00000020   Code   RO         1032    .text               mc_w.l(llushr.o)
    0x08006126   0x00000000   Code   RO         1036    .text               mc_w.l(iusefp.o)
    0x08006126   0x0000014e   Code   RO         1037    .text               mf_w.l(dadd.o)
    0x08006274   0x000000e4   Code   RO         1039    .text               mf_w.l(dmul.o)
    0x08006358   0x000000de   Code   RO         1041    .text               mf_w.l(ddiv.o)
    0x08006436   0x00000030   Code   RO         1043    .text               mf_w.l(dfixul.o)
    0x08006466   0x00000002   PAD
    0x08006468   0x00000030   Code   RO         1045    .text               mf_w.l(cdrcmple.o)
    0x08006498   0x00000024   Code   RO         1047    .text               mc_w.l(init.o)
    0x080064bc   0x00000024   Code   RO         1049    .text               mc_w.l(llsshr.o)
    0x080064e0   0x000000ba   Code   RO         1051    .text               mf_w.l(depilogue.o)
    0x0800659a   0x00000056   Code   RO         1061    .text               mc_w.l(__dczerorl2.o)
    0x080065f0   0x00000020   Code   RO          957    i.__0printf         mc_w.l(printfa.o)
    0x08006610   0x00000020   Code   RO          931    i.__0printf$8       mc_w.l(printf8.o)
    0x08006630   0x00000028   Code   RO          933    i.__0sprintf$8      mc_w.l(printf8.o)
    0x08006658   0x0000000e   Code   RO         1055    i.__scatterload_copy  mc_w.l(handlers.o)
    0x08006666   0x00000002   Code   RO         1056    i.__scatterload_null  mc_w.l(handlers.o)
    0x08006668   0x0000000e   Code   RO         1057    i.__scatterload_zeroinit  mc_w.l(handlers.o)
    0x08006676   0x00000002   PAD
    0x08006678   0x00000164   Code   RO          964    i._fp_digits        mc_w.l(printfa.o)
    0x080067dc   0x00000410   Code   RO          938    i._printf_core      mc_w.l(printf8.o)
    0x08006bec   0x000006dc   Code   RO          965    i._printf_core      mc_w.l(printfa.o)
    0x080072c8   0x00000024   Code   RO          939    i._printf_post_padding  mc_w.l(printf8.o)
    0x080072ec   0x00000024   Code   RO          966    i._printf_post_padding  mc_w.l(printfa.o)
    0x08007310   0x0000002e   Code   RO          940    i._printf_pre_padding  mc_w.l(printf8.o)
    0x0800733e   0x0000002e   Code   RO          967    i._printf_pre_padding  mc_w.l(printfa.o)
    0x0800736c   0x0000000a   Code   RO          942    i._sputc            mc_w.l(printf8.o)
    0x08007376   0x00000002   PAD
    0x08007378   0x00000050   Code   RO          985    i.free              mc_w.l(malloc.o)
    0x080073c8   0x0000006c   Code   RO          986    i.malloc            mc_w.l(malloc.o)
    0x08007434   0x00000005   Data   RO          504    .conststring        dhcp.o
    0x08007439   0x00000003   PAD
    0x0800743c   0x00000020   Data   RO         1053    Region$$Table       anon$$obj.o


    Execution Region RW_IRAM1 (Base: 0x20000000, Size: 0x00003f70, Max: 0x00005000, ABSOLUTE, COMPRESSED[0x00000084])

    Base Addr    Size         Type   Attr      Idx    E Section Name        Object

    0x20000000   0x00000045   Data   RW          106    .data               main.o
    0x20000045   0x00000003   PAD
    0x20000048   0x00000028   Data   RW          195    .data               system.o
    0x20000070   0x00000004   Data   RW          214    .data               delay.o
    0x20000074   0x00000029   Data   RW          232    .data               usart.o
    0x2000009d   0x00000003   PAD
    0x200000a0   0x00000009   Data   RW          262    .data               cstring.o
    0x200000a9   0x00000003   PAD
    0x200000ac   0x00000014   Data   RW          380    .data               system_stm32f10x.o
    0x200000c0   0x00000014   Data   RW          410    .data               stm32f10x_rcc.o
    0x200000d4   0x00000040   Data   RW          505    .data               dhcp.o
    0x20000114   0x00000010   Data   RW          618    .data               w5500.o
    0x20000124   0x00000029   Data   RW          637    .data               w5500_conf.o
    0x2000014d   0x00000003   PAD
    0x20000150   0x00000010   Data   RW          676    .data               arp.o
    0x20000160   0x00000004   Data   RW          717    .data               mc_w.l(strtok.o)
    0x20000164   0x00000004   Data   RW         1027    .data               mc_w.l(stdout.o)
    0x20000168   0x00000004   Data   RW         1034    .data               mc_w.l(mvars.o)
    0x2000016c   0x00000004   Data   RW         1035    .data               mc_w.l(mvars.o)
    0x20000170   0x000000e8   Zero   RW          105    .bss                main.o
    0x20000258   0x00002bf0   Zero   RW          231    .bss                usart.o
    0x20002e48   0x0000001c   Zero   RW          280    .bss                key.o
    0x20002e64   0x00000416   Zero   RW          503    .bss                dhcp.o
    0x2000327a   0x00000030   Zero   RW          593    .bss                utility.o
    0x200032aa   0x00000020   Zero   RW          617    .bss                w5500.o
    0x200032ca   0x0000002e   Zero   RW          636    .bss                w5500_conf.o
    0x200032f8   0x00000678   Zero   RW          675    .bss                arp.o
    0x20003970   0x00000200   Zero   RW          496    HEAP                startup_stm32f10x_hd.o
    0x20003b70   0x00000400   Zero   RW          495    STACK               startup_stm32f10x_hd.o


==============================================================================

Image component sizes


      Code (inc. data)   RO Data    RW Data    ZI Data      Debug   Object Name

      1204        408          0         16       1656       3345   arp.o
       212          0          0          0          0       2272   buffermanage.o
         0          0          0          0          0         32   core_cm3.o
       444         14          0          9          0       2847   cstring.o
       212         18          0          4          0       1038   delay.o
      5688       1632          5         64       1046       9583   dhcp.o
        76         10          0          0          0        507   gpio.o
        44          0          0          0          0        654   iwdg.o
         0          0          0          0         28        569   key.o
       504          0          0          0          0       3339   looplist.o
       816        194          0         69        232       4755   main.o
       220         22          0          0          0       1821   misc.o
      1676         48          0          0          0       3903   socket.o
        36          8        304          0       1536        820   startup_stm32f10x_hd.o
       860         38          0          0          0       5669   stm32f10x_gpio.o
        64          8          0          0          0     274761   stm32f10x_it.o
        64          6          0          0          0       1281   stm32f10x_iwdg.o
       932         36          0         20          0       8860   stm32f10x_rcc.o
       780         14          0          0          0       6546   stm32f10x_spi.o
      3610         88          0          0          0      22152   stm32f10x_tim.o
      1032         22          0          0          0       8392   stm32f10x_usart.o
       248         40          0         40          0       1570   system.o
       480         38          0         20          0       1871   system_stm32f10x.o
       164          4          0          0          0        704   timer.o
      1444        150          0         41      11248       5936   usart.o
       908         46          0          0         48       5767   utility.o
       996         72          0         16         32       6069   w5500.o
      1366        330          0         41         46       6264   w5500_conf.o

    ----------------------------------------------------------------------
     24084       3246        344        352      15872     391327   Object Totals
         0          0         32          0          0          0   (incl. Generated)
         4          0          3         12          0          0   (incl. Padding)

    ----------------------------------------------------------------------

      Code (inc. data)   RO Data    RW Data    ZI Data      Debug   Library Member Name

        86          0          0          0          0          0   __dczerorl2.o
         0          0          0          0          0          0   entry.o
         0          0          0          0          0          0   entry10a.o
         0          0          0          0          0          0   entry11a.o
         8          4          0          0          0          0   entry2.o
         4          0          0          0          0          0   entry5.o
         0          0          0          0          0          0   entry7b.o
         0          0          0          0          0          0   entry8b.o
         8          4          0          0          0          0   entry9a.o
        30          0          0          0          0          0   handlers.o
        36          8          0          0          0         68   init.o
         0          0          0          0          0          0   iusefp.o
        30          0          0          0          0         68   llshl.o
        36          0          0          0          0         68   llsshr.o
        32          0          0          0          0         68   llushr.o
       188         20          0          0          0        160   malloc.o
        26          0          0          0          0         80   memcmp.o
        36          0          0          0          0         68   memcpya.o
        36          0          0          0          0        108   memseta.o
         0          0          0          8          0          0   mvars.o
      1204         60          0          0          0        504   printf8.o
      2226         90          0          0          0        444   printfa.o
         0          0          0          4          0          0   stdout.o
        18          0          0          0          0         68   strcpy.o
        14          0          0          0          0         68   strlen.o
        24          0          0          0          0         76   strncpy.o
        36          0          0          0          0         80   strstr.o
        68          6          0          4          0         80   strtok.o
        44          0          0          0          0         80   uidiv.o
        98          0          0          0          0         92   uldiv.o
        48          0          0          0          0         68   cdrcmple.o
       334          0          0          0          0        148   dadd.o
       222          0          0          0          0        100   ddiv.o
       186          0          0          0          0        176   depilogue.o
        48          0          0          0          0         68   dfixul.o
       228          0          0          0          0         96   dmul.o

    ----------------------------------------------------------------------
      5360        192          0         16          0       2836   Library Totals
         6          0          0          0          0          0   (incl. Padding)

    ----------------------------------------------------------------------

      Code (inc. data)   RO Data    RW Data    ZI Data      Debug   Library Name

      4288        192          0         16          0       2180   mc_w.l
      1066          0          0          0          0        656   mf_w.l

    ----------------------------------------------------------------------
      5360        192          0         16          0       2836   Library Totals

    ----------------------------------------------------------------------

==============================================================================


      Code (inc. data)   RO Data    RW Data    ZI Data      Debug   

     29444       3438        344        368      15872     390495   Grand Totals
     29444       3438        344        132      15872     390495   ELF Image Totals (compressed)
     29444       3438        344        132          0          0   ROM Totals

==============================================================================

    Total RO  Size (Code + RO Data)                29788 (  29.09kB)
    Total RW  Size (RW Data + ZI Data)             16240 (  15.86kB)
    Total ROM Size (Code + RO Data + RW Data)      29920 (  29.22kB)

==============================================================================

