###############################################################################
#                                                                             #
# IAR ELF Linker V5.41.0.51741/W32 for ARM              06/Mar/2014  14:54:28 #
# Copyright (C) 2007-2009 IAR Systems AB.                                     #
#                                                                             #
#    Output file  =  D:\安装程序\项目程序\cook book程序\cookbook-2013-12-11\2 #
#                    -5 NTP\Debug\Exe\app.out                                 #
#    Map file     =  D:\安装程序\项目程序\cook book程序\cookbook-2013-12-11\2 #
#                    -5 NTP\Debug\List\app.map                                #
#    Command line =  "D:\安装程序\项目程序\cook book程序\cookbook-2013-12-11\ #
#                    2-5 NTP\Debug\Obj\SPI2.o" "D:\安装程序\项目程序\cook     #
#                    book程序\cookbook-2013-12-11\2-5                         #
#                    NTP\Debug\Obj\at24c16.o" "D:\安装程序\项目程序\cook      #
#                    book程序\cookbook-2013-12-11\2-5                         #
#                    NTP\Debug\Obj\core_cm3.o" "D:\安装程序\项目程序\cook     #
#                    book程序\cookbook-2013-12-11\2-5                         #
#                    NTP\Debug\Obj\device.o" "D:\安装程序\项目程序\cook       #
#                    book程序\cookbook-2013-12-11\2-5 NTP\Debug\Obj\main.o"   #
#                    "D:\安装程序\项目程序\cook book程序\cookbook-2013-12-11\ #
#                    2-5 NTP\Debug\Obj\mcu_init.o"                            #
#                    "D:\安装程序\项目程序\cook book程序\cookbook-2013-12-11\ #
#                    2-5 NTP\Debug\Obj\md5.o" "D:\安装程序\项目程序\cook      #
#                    book程序\cookbook-2013-12-11\2-5 NTP\Debug\Obj\misc.o"   #
#                    "D:\安装程序\项目程序\cook book程序\cookbook-2013-12-11\ #
#                    2-5 NTP\Debug\Obj\ntp.o" "D:\安装程序\项目程序\cook      #
#                    book程序\cookbook-2013-12-11\2-5                         #
#                    NTP\Debug\Obj\socket.o" "D:\安装程序\项目程序\cook       #
#                    book程序\cookbook-2013-12-11\2-5                         #
#                    NTP\Debug\Obj\startup_stm32f10x_hd.o"                    #
#                    "D:\安装程序\项目程序\cook book程序\cookbook-2013-12-11\ #
#                    2-5 NTP\Debug\Obj\stm32f10x_bkp.o"                       #
#                    "D:\安装程序\项目程序\cook book程序\cookbook-2013-12-11\ #
#                    2-5 NTP\Debug\Obj\stm32f10x_flash.o"                     #
#                    "D:\安装程序\项目程序\cook book程序\cookbook-2013-12-11\ #
#                    2-5 NTP\Debug\Obj\stm32f10x_gpio.o"                      #
#                    "D:\安装程序\项目程序\cook book程序\cookbook-2013-12-11\ #
#                    2-5 NTP\Debug\Obj\stm32f10x_it.o"                        #
#                    "D:\安装程序\项目程序\cook book程序\cookbook-2013-12-11\ #
#                    2-5 NTP\Debug\Obj\stm32f10x_rcc.o"                       #
#                    "D:\安装程序\项目程序\cook book程序\cookbook-2013-12-11\ #
#                    2-5 NTP\Debug\Obj\stm32f10x_spi.o"                       #
#                    "D:\安装程序\项目程序\cook book程序\cookbook-2013-12-11\ #
#                    2-5 NTP\Debug\Obj\stm32f10x_tim.o"                       #
#                    "D:\安装程序\项目程序\cook book程序\cookbook-2013-12-11\ #
#                    2-5 NTP\Debug\Obj\stm32f10x_usart.o"                     #
#                    "D:\安装程序\项目程序\cook book程序\cookbook-2013-12-11\ #
#                    2-5 NTP\Debug\Obj\system_stm32f10x.o"                    #
#                    "D:\安装程序\项目程序\cook book程序\cookbook-2013-12-11\ #
#                    2-5 NTP\Debug\Obj\util.o" "D:\安装程序\项目程序\cook     #
#                    book程序\cookbook-2013-12-11\2-5 NTP\Debug\Obj\w5500.o"  #
#                    -o "D:\安装程序\项目程序\cook                            #
#                    book程序\cookbook-2013-12-11\2-5 NTP\Debug\Exe\app.out"  #
#                    --map "D:\安装程序\项目程序\cook                         #
#                    book程序\cookbook-2013-12-11\2-5                         #
#                    NTP\Debug\List\app.map" --config                         #
#                    "D:\安装程序\项目程序\cook book程序\cookbook-2013-12-11\ #
#                    2-5 NTP\app.icf" --semihosting --entry                   #
#                    __iar_program_start                                      #
#                                                                             #
#                                                                             #
###############################################################################

*******************************************************************************
*** RUNTIME MODEL ATTRIBUTES
***

__endian      = little
__thumb_aware = enabled


*******************************************************************************
*** PLACEMENT SUMMARY
***

"A1":  place at 0x08000000 { ro section .intvec };
"P1":  place in [from 0x08000000 to 0x0803ffff] { ro };
"P2":  place in [from 0x20000000 to 0x2000bfff] {
          rw, block CSTACK, block HEAP };

  Section            Kind        Address    Size  Object
  -------            ----        -------    ----  ------
"A1":                                      0x130
  .intvec            ro code  0x08000000   0x130  startup_stm32f10x_hd.o [1]
                            - 0x08000130   0x130

"P1":                                     0x3eac
  .text              ro code  0x08000130   0xcc2  xprintffull.o [3]
  .text              ro code  0x08000df4   0x9cc  ntp.o [1]
  .text              ro code  0x080017c0   0x4a0  socket.o [1]
  .text              ro code  0x08001c60   0x46c  w5500.o [1]
  .text              ro code  0x080020cc   0x340  stm32f10x_rcc.o [1]
  .text              ro code  0x0800240c   0x246  DblDiv.o [4]
  .text              ro code  0x08002654   0x23e  mcu_init.o [1]
  .text              ro code  0x08002894   0x1a2  DblMul.o [4]
  .text              ro code  0x08002a38   0x18a  stm32f10x_usart.o [1]
  .text              ro code  0x08002bc4   0x17e  DblSub.o [4]
  .text              ro code  0x08002d44   0x15c  stm32f10x_gpio.o [1]
  .text              ro code  0x08002ea0   0x158  system_stm32f10x.o [1]
  .text              ro code  0x08002ff8   0x134  stm32f10x_tim.o [1]
  .text              ro code  0x0800312c   0x12e  I64DivMod.o [4]
  .text              ro code  0x0800325c   0x124  main.o [1]
  .text              ro code  0x08003380   0x108  xdscale.o [3]
  .text              ro code  0x08003488    0xe6  DblAdd.o [4]
  .text              ro code  0x08003570    0xd0  util.o [1]
  .text              ro code  0x08003640    0xc6  xdnorm.o [3]
  .text              ro code  0x08003708    0xb4  SPI2.o [1]
  .text              ro code  0x080037bc    0xa0  misc.o [1]
  .text              ro code  0x0800385c    0x7c  stm32f10x_spi.o [1]
  .text              ro code  0x080038d8    0x78  device.o [1]
  .text              ro code  0x08003950    0x70  ABImemcpy.o [4]
  .text              ro code  0x080039c0    0x58  memchr.o [4]
  .text              ro code  0x08003a18    0x56  DblToI32.o [4]
  .text              ro code  0x08003a70    0x42  stm32f10x_it.o [1]
  .text              ro code  0x08003ab4    0x3c  at24c16.o [1]
  .text              ro code  0x08003af0    0x3c  stm32f10x_flash.o [1]
  .text              ro code  0x08003b2c    0x36  strlen.o [4]
  .text              ro code  0x08003b64    0x2e  DblCmpLe.o [4]
  .text              ro code  0x08003b94    0x2e  DblCmpGe.o [4]
  .text              ro code  0x08003bc4    0x2e  I32ToDbl.o [4]
  .rodata            const    0x08003bf4    0x24  main.o [1]
  .text              ro code  0x08003c18    0x24  copy_init2.o [4]
  .iar.init_table    const    0x08003c3c    0x24  - Linker created -
  .rodata            const    0x08003c60    0x20  ntp.o [1]
  .rodata            const    0x08003c80    0x20  w5500.o [1]
  .text              ro code  0x08003ca0    0x20  printf.o [3]
  .text              ro code  0x08003cc0    0x20  data_init2.o [4]
  .text              ro code  0x08003ce0    0x1c  iarwstd.o [5]
  .text              ro code  0x08003cfc    0x1a  zero_init2.o [4]
  .rodata            const    0x08003d18    0x18  main.o [1]
  .rodata            const    0x08003d30    0x18  socket.o [1]
  .rodata            const    0x08003d48    0x18  w5500.o [1]
  .text              ro code  0x08003d60    0x18  cmain.o [4]
  .text              ro code  0x08003d78    0x16  strchr.o [4]
  .text              ro code  0x08003d8e    0x16  device.o [1]
  .text              ro code  0x08003da4    0x16  xprout.o [3]
  .rodata            const    0x08003dbc    0x14  main.o [1]
  .rodata            const    0x08003dd0    0x14  main.o [1]
  .rodata            const    0x08003de4    0x14  main.o [1]
  .rodata            const    0x08003df8    0x14  main.o [1]
  .rodata            const    0x08003e0c    0x14  ntp.o [1]
  .text              ro code  0x08003e20    0x14  exit.o [5]
  .rodata            const    0x08003e34    0x10  ntp.o [1]
  .text              ro code  0x08003e44    0x10  startup_stm32f10x_hd.o [1]
  .text              ro code  0x08003e54     0xe  div.o [3]
  .text              ro code  0x08003e64     0xa  cexit.o [4]
  .rodata            const    0x08003e70     0x8  main.o [1]
  .rodata            const    0x08003e78     0x8  xprintffull.o [3]
  .text              ro code  0x08003e80     0x6  exit.o [3]
  .rodata            const    0x08003e88     0x4  main.o [1]
  .rodata            const    0x08003e8c     0x4  main.o [1]
  .rodata            const    0x08003e90     0x4  main.o [1]
  .text              ro code  0x08003e94     0x2  I64DivZer.o [4]
  .text              ro code  0x08003e96     0x4  startup_stm32f10x_hd.o [1]
  .text              ro code  0x08003e9a     0x4  startup_stm32f10x_hd.o [1]
  .text              ro code  0x08003e9e     0x4  startup_stm32f10x_hd.o [1]
  .text              ro code  0x08003ea2     0x4  startup_stm32f10x_hd.o [1]
  .text              ro code  0x08003ea6     0x4  startup_stm32f10x_hd.o [1]
  .text              ro code  0x08003eaa     0x4  startup_stm32f10x_hd.o [1]
  .text              ro code  0x08003eae     0x4  startup_stm32f10x_hd.o [1]
  .text              ro code  0x08003eb2     0x4  startup_stm32f10x_hd.o [1]
  .text              ro code  0x08003eb6     0x4  startup_stm32f10x_hd.o [1]
  .text              ro code  0x08003eba     0x4  startup_stm32f10x_hd.o [1]
  .text              ro code  0x08003ebe     0x4  startup_stm32f10x_hd.o [1]
  .text              ro code  0x08003ec2     0x4  startup_stm32f10x_hd.o [1]
  .text              ro code  0x08003ec6     0x4  startup_stm32f10x_hd.o [1]
  .text              ro code  0x08003eca     0x4  startup_stm32f10x_hd.o [1]
  .text              ro code  0x08003ece     0x4  startup_stm32f10x_hd.o [1]
  .text              ro code  0x08003ed2     0x4  startup_stm32f10x_hd.o [1]
  .text              ro code  0x08003ed6     0x4  startup_stm32f10x_hd.o [1]
  .text              ro code  0x08003eda     0x4  startup_stm32f10x_hd.o [1]
  .text              ro code  0x08003ede     0x4  startup_stm32f10x_hd.o [1]
  .text              ro code  0x08003ee2     0x4  startup_stm32f10x_hd.o [1]
  .text              ro code  0x08003ee6     0x4  startup_stm32f10x_hd.o [1]
  .text              ro code  0x08003eea     0x4  startup_stm32f10x_hd.o [1]
  .text              ro code  0x08003eee     0x4  startup_stm32f10x_hd.o [1]
  .text              ro code  0x08003ef2     0x4  startup_stm32f10x_hd.o [1]
  .text              ro code  0x08003ef6     0x4  startup_stm32f10x_hd.o [1]
  .text              ro code  0x08003efa     0x4  startup_stm32f10x_hd.o [1]
  .text              ro code  0x08003efe     0x4  startup_stm32f10x_hd.o [1]
  .text              ro code  0x08003f02     0x4  startup_stm32f10x_hd.o [1]
  .text              ro code  0x08003f06     0x4  startup_stm32f10x_hd.o [1]
  .text              ro code  0x08003f0a     0x4  startup_stm32f10x_hd.o [1]
  .text              ro code  0x08003f0e     0x4  startup_stm32f10x_hd.o [1]
  .text              ro code  0x08003f12     0x4  startup_stm32f10x_hd.o [1]
  .text              ro code  0x08003f16     0x4  startup_stm32f10x_hd.o [1]
  .text              ro code  0x08003f1a     0x4  startup_stm32f10x_hd.o [1]
  .text              ro code  0x08003f1e     0x4  startup_stm32f10x_hd.o [1]
  .text              ro code  0x08003f22     0x4  startup_stm32f10x_hd.o [1]
  .text              ro code  0x08003f26     0x4  startup_stm32f10x_hd.o [1]
  .text              ro code  0x08003f2a     0x4  startup_stm32f10x_hd.o [1]
  .text              ro code  0x08003f2e     0x4  startup_stm32f10x_hd.o [1]
  .text              ro code  0x08003f32     0x4  startup_stm32f10x_hd.o [1]
  .text              ro code  0x08003f36     0x4  startup_stm32f10x_hd.o [1]
  .text              ro code  0x08003f3a     0x4  startup_stm32f10x_hd.o [1]
  .text              ro code  0x08003f3e     0x4  startup_stm32f10x_hd.o [1]
  .text              ro code  0x08003f42     0x4  startup_stm32f10x_hd.o [1]
  .text              ro code  0x08003f46     0x4  startup_stm32f10x_hd.o [1]
  .text              ro code  0x08003f4a     0x4  startup_stm32f10x_hd.o [1]
  .text              ro code  0x08003f4e     0x4  startup_stm32f10x_hd.o [1]
  .text              ro code  0x08003f52     0x4  startup_stm32f10x_hd.o [1]
  .text              ro code  0x08003f56     0x4  startup_stm32f10x_hd.o [1]
  .text              ro code  0x08003f5a     0x4  startup_stm32f10x_hd.o [1]
  .text              ro code  0x08003f5e     0x4  startup_stm32f10x_hd.o [1]
  .text              ro code  0x08003f62     0x4  startup_stm32f10x_hd.o [1]
  .text              ro code  0x08003f66     0x4  startup_stm32f10x_hd.o [1]
  .text              ro code  0x08003f6a     0x4  startup_stm32f10x_hd.o [1]
  .text              ro code  0x08003f6e     0x4  startup_stm32f10x_hd.o [1]
  .text              ro code  0x08003f72     0x4  startup_stm32f10x_hd.o [1]
  .text              ro code  0x08003f76     0x4  startup_stm32f10x_hd.o [1]
  .text              ro code  0x08003f7a     0x4  startup_stm32f10x_hd.o [1]
  .text              ro code  0x08003f7e     0x4  startup_stm32f10x_hd.o [1]
  .text              ro code  0x08003f82     0x4  startup_stm32f10x_hd.o [1]
  .text              ro code  0x08003f86     0x4  startup_stm32f10x_hd.o [1]
  .text              ro code  0x08003f8a     0x4  startup_stm32f10x_hd.o [1]
  .text              ro code  0x08003f8e     0x4  startup_stm32f10x_hd.o [1]
  .text              ro code  0x08003f92     0x4  startup_stm32f10x_hd.o [1]
  .text              ro code  0x08003f96     0x4  startup_stm32f10x_hd.o [1]
  .text              ro code  0x08003f9a     0x4  startup_stm32f10x_hd.o [1]
  .text              ro code  0x08003f9e     0x4  startup_stm32f10x_hd.o [1]
  .text              ro code  0x08003fa2     0x4  startup_stm32f10x_hd.o [1]
  .text              ro code  0x08003fa6     0x4  startup_stm32f10x_hd.o [1]
  .text              ro code  0x08003faa     0x4  low_level_init.o [3]
  Initializer bytes  ro data  0x08003fb0    0x2c  <for P2 s0> (used: 0x2a)
                            - 0x08003fdc  0x3eac

"P2", part 1 of 3:                         0x400
  CSTACK                      0x20000000   0x400  <Block>
    CSTACK           uninit   0x20000000   0x400  <Block tail>
                            - 0x20000400   0x400

"P2", part 2 of 3:                          0x2c
  P2 s0                       0x20000400    0x2c  <Init block>
    .data            inited   0x20000400    0x10  stm32f10x_rcc.o [1]
    .data            inited   0x20000410     0x8  device.o [1]
    .data            inited   0x20000418     0x8  device.o [1]
    .data            inited   0x20000420     0x4  ntp.o [1]
    .data            inited   0x20000424     0x4  stm32f10x_rcc.o [1]
    .data            inited   0x20000428     0x1  ntp.o [1]
    .data            inited   0x20000429     0x1  ntp.o [1]
                            - 0x2000042c    0x2c

"P2", part 3 of 3:                         0x8d0
  .bss               zero     0x2000042c   0x800  ntp.o [1]
  .bss               zero     0x20000c30    0x38  ntp.o [1]
  .bss               zero     0x20000c68    0x30  ntp.o [1]
  .bss               zero     0x20000c98    0x2c  device.o [1]
  .bss               zero     0x20000cc4    0x10  w5500.o [1]
  .bss               zero     0x20000cd4    0x10  w5500.o [1]
  .bss               zero     0x20000ce8     0x8  ntp.o [1]
  .bss               zero     0x20000cf0     0x4  iarwstd.o [5]
  .bss               zero     0x20000cf4     0x2  socket.o [1]
  .bss               zero     0x20000cf6     0x2  util.o [1]
  .bss               zero     0x20000cf8     0x1  ntp.o [1]
  .bss               zero     0x20000cf9     0x1  ntp.o [1]
  .bss               zero     0x20000cfa     0x1  ntp.o [1]
  .bss               zero     0x20000cfb     0x1  util.o [1]
                            - 0x20000cfc   0x8d0


*******************************************************************************
*** INIT TABLE
***

          Address     Size
          -------     ----
Zero (__iar_zero_init2)
    1 destination range, total size 0x8d0:
          0x2000042c  0x8d0

Copy (__iar_copy_init2)
    1 source range, total size 0x2c (104% of destination):
          0x08003fb0   0x2c
    1 destination range, total size 0x2a:
          0x20000400   0x2a


*******************************************************************************
*** MODULE SUMMARY
***

    Module                  ro code  ro data  rw data
    ------                  -------  -------  -------
D:\安装程序\项目程序\cook book程序\cookbook-2013-12-11\2-5 NTP\Debug\Obj: [1]
    SPI2.o                      180
    at24c16.o                    60
    device.o                    142       16       60
    main.o                      292      160
    mcu_init.o                  574
    misc.o                      160
    ntp.o                     2 508       74    2 169
    socket.o                  1 184       24        2
    startup_stm32f10x_hd.o      596
    stm32f10x_flash.o            60
    stm32f10x_gpio.o            348
    stm32f10x_it.o               66
    stm32f10x_rcc.o             832       20       20
    stm32f10x_spi.o             124
    stm32f10x_tim.o             308
    stm32f10x_usart.o           394
    system_stm32f10x.o          344
    util.o                      208                 3
    w5500.o                   1 132       56       32
    -------------------------------------------------
    Total:                    9 512      350    2 286

command line: [2]
    -------------------------------------------------
    Total:

dl7M_tl_in.a: [3]
    div.o                        14
    exit.o                        6
    low_level_init.o              4
    printf.o                     32
    xdnorm.o                    198
    xdscale.o                   264
    xprintffull.o             3 266        8
    xprout.o                     22
    -------------------------------------------------
    Total:                    3 806        8

rt7M_tl.a: [4]
    ABImemcpy.o                 112
    DblAdd.o                    230
    DblCmpGe.o                   46
    DblCmpLe.o                   46
    DblDiv.o                    582
    DblMul.o                    418
    DblSub.o                    382
    DblToI32.o                   86
    I32ToDbl.o                   46
    I64DivMod.o                 302
    I64DivZer.o                   2
    cexit.o                      10
    cmain.o                      24
    copy_init2.o                 36
    data_init2.o                 32
    memchr.o                     88
    strchr.o                     22
    strlen.o                     54
    zero_init2.o                 26
    -------------------------------------------------
    Total:                    2 544

shb_l.a: [5]
    exit.o                       20
    iarwstd.o                    28                 4
    -------------------------------------------------
    Total:                       48                 4

    Gaps                         30       10       10
    Linker created                        40    1 024
-----------------------------------------------------
    Grand Total:             15 940      408    3 324


*******************************************************************************
*** ENTRY LIST
***

Entry                      Address   Size  Type      Object
-----                      -------   ----  ----      ------
ADC1_2_IRQHandler       0x08003f03         Code  Wk  startup_stm32f10x_hd.o [1]
ADC3_IRQHandler         0x08003f77         Code  Wk  startup_stm32f10x_hd.o [1]
ADCPrescTable           0x20000424    0x4  Data  Lc  stm32f10x_rcc.o [1]
APBAHBPrescTable        0x20000400   0x10  Data  Lc  stm32f10x_rcc.o [1]
BUFPUB                  0x2000042c  0x800  Data  Gb  ntp.o [1]
BusFault_Handler        0x08003a77    0x2  Code  Gb  stm32f10x_it.o [1]
CAN1_RX1_IRQHandler     0x08003f0f         Code  Wk  startup_stm32f10x_hd.o [1]
CAN1_SCE_IRQHandler     0x08003f13         Code  Wk  startup_stm32f10x_hd.o [1]
CSTACK$$Base            0x20000000          --   Gb  - Linker created -
CSTACK$$Limit           0x20000400          --   Gb  - Linker created -
ConfigMsg               0x20000c98   0x2c  Data  Gb  device.o [1]
DMA1_Channel1_IRQHandler
                        0x08003ee7         Code  Wk  startup_stm32f10x_hd.o [1]
DMA1_Channel2_IRQHandler
                        0x08003eeb         Code  Wk  startup_stm32f10x_hd.o [1]
DMA1_Channel3_IRQHandler
                        0x08003eef         Code  Wk  startup_stm32f10x_hd.o [1]
DMA1_Channel4_IRQHandler
                        0x08003ef3         Code  Wk  startup_stm32f10x_hd.o [1]
DMA1_Channel5_IRQHandler
                        0x08003ef7         Code  Wk  startup_stm32f10x_hd.o [1]
DMA1_Channel6_IRQHandler
                        0x08003efb         Code  Wk  startup_stm32f10x_hd.o [1]
DMA1_Channel7_IRQHandler
                        0x08003eff         Code  Wk  startup_stm32f10x_hd.o [1]
DMA2_Channel1_IRQHandler
                        0x08003f9b         Code  Wk  startup_stm32f10x_hd.o [1]
DMA2_Channel2_IRQHandler
                        0x08003f9f         Code  Wk  startup_stm32f10x_hd.o [1]
DMA2_Channel3_IRQHandler
                        0x08003fa3         Code  Wk  startup_stm32f10x_hd.o [1]
DMA2_Channel4_5_IRQHandler
                        0x08003fa7         Code  Wk  startup_stm32f10x_hd.o [1]
DebugMon_Handler        0x08003a7d    0x2  Code  Gb  stm32f10x_it.o [1]
Delay_ms                0x08003597   0x34  Code  Gb  util.o [1]
Delay_us                0x080035cb   0x34  Code  Gb  util.o [1]
EXTI0_IRQHandler        0x08003ed3         Code  Wk  startup_stm32f10x_hd.o [1]
EXTI15_10_IRQHandler    0x08003f5b         Code  Wk  startup_stm32f10x_hd.o [1]
EXTI1_IRQHandler        0x08003ed7         Code  Wk  startup_stm32f10x_hd.o [1]
EXTI2_IRQHandler        0x08003edb         Code  Wk  startup_stm32f10x_hd.o [1]
EXTI3_IRQHandler        0x08003edf         Code  Wk  startup_stm32f10x_hd.o [1]
EXTI4_IRQHandler        0x08003ee3         Code  Wk  startup_stm32f10x_hd.o [1]
EXTI9_5_IRQHandler      0x08003f17         Code  Wk  startup_stm32f10x_hd.o [1]
FLASH_IRQHandler        0x08003ecb         Code  Wk  startup_stm32f10x_hd.o [1]
FLASH_PrefetchBufferCmd
                        0x08003b0b   0x1c  Code  Gb  stm32f10x_flash.o [1]
FLASH_SetLatency        0x08003af1   0x1a  Code  Gb  stm32f10x_flash.o [1]
FSMC_IRQHandler         0x08003f7b         Code  Wk  startup_stm32f10x_hd.o [1]
GPIO_Configuration      0x08002655   0xf2  Code  Gb  mcu_init.o [1]
GPIO_Init               0x08002d45  0x150  Code  Gb  stm32f10x_gpio.o [1]
GPIO_ResetBits          0x08002e9b    0x6  Code  Gb  stm32f10x_gpio.o [1]
GPIO_SetBits            0x08002e95    0x6  Code  Gb  stm32f10x_gpio.o [1]
HardFault_Handler       0x08003a73    0x2  Code  Gb  stm32f10x_it.o [1]
I2C1_ER_IRQHandler      0x08003f3b         Code  Wk  startup_stm32f10x_hd.o [1]
I2C1_EV_IRQHandler      0x08003f37         Code  Wk  startup_stm32f10x_hd.o [1]
I2C2_ER_IRQHandler      0x08003f43         Code  Wk  startup_stm32f10x_hd.o [1]
I2C2_EV_IRQHandler      0x08003f3f         Code  Wk  startup_stm32f10x_hd.o [1]
IINCHIP_CSoff           0x08001c6d    0xa  Code  Gb  w5500.o [1]
IINCHIP_CSon            0x08001c77    0xa  Code  Gb  w5500.o [1]
IINCHIP_READ            0x08001cc7   0x3a  Code  Gb  w5500.o [1]
IINCHIP_SpiSendData     0x08001c81    0xe  Code  Gb  w5500.o [1]
IINCHIP_WRITE           0x08001c8f   0x38  Code  Gb  w5500.o [1]
MemManage_Handler       0x08003a75    0x2  Code  Gb  stm32f10x_it.o [1]
NMI_Handler             0x08003a71    0x2  Code  Gb  stm32f10x_it.o [1]
NTP_Message             0x20000c68   0x30  Data  Gb  ntp.o [1]
NTP_Port                0x20000429    0x1  Data  Gb  ntp.o [1]
NTP_Retry_Cnt           0x20000cfa    0x1  Data  Gb  ntp.o [1]
NTP_Server_IP           0x20000420    0x4  Data  Gb  ntp.o [1]
NTP_Timeouttimer_Start  0x20000cf8    0x1  Data  Gb  ntp.o [1]
NTPformat               0x20000c30   0x38  Data  Gb  ntp.o [1]
NVIC_Configuration      0x080027d9   0x70  Code  Gb  mcu_init.o [1]
NVIC_Init               0x080037c7   0x6e  Code  Gb  misc.o [1]
NVIC_PriorityGroupConfig
                        0x080037bd    0xa  Code  Gb  misc.o [1]
NVIC_SetVectorTable     0x08003835    0xc  Code  Gb  misc.o [1]
PVD_IRQHandler          0x08003ebf         Code  Wk  startup_stm32f10x_hd.o [1]
PendSV_Handler          0x08003a7f    0x2  Code  Gb  stm32f10x_it.o [1]
RCC_ADCCLKConfig        0x08002249   0x16  Code  Gb  stm32f10x_rcc.o [1]
RCC_APB1PeriphClockCmd  0x08002361   0x1e  Code  Gb  stm32f10x_rcc.o [1]
RCC_APB2PeriphClockCmd  0x08002343   0x1e  Code  Gb  stm32f10x_rcc.o [1]
RCC_Configuration       0x08002747   0x80  Code  Gb  mcu_init.o [1]
RCC_DeInit              0x080020cd   0x5c  Code  Gb  stm32f10x_rcc.o [1]
RCC_GetClocksFreq       0x0800225f   0xe4  Code  Gb  stm32f10x_rcc.o [1]
RCC_GetFlagStatus       0x0800237f   0x56  Code  Gb  stm32f10x_rcc.o [1]
RCC_GetSYSCLKSource     0x080021fb    0xa  Code  Gb  stm32f10x_rcc.o [1]
RCC_HCLKConfig          0x08002205   0x16  Code  Gb  stm32f10x_rcc.o [1]
RCC_HSEConfig           0x08002129   0x4e  Code  Gb  stm32f10x_rcc.o [1]
RCC_IRQHandler          0x08003ecf         Code  Wk  startup_stm32f10x_hd.o [1]
RCC_PCLK1Config         0x0800221b   0x16  Code  Gb  stm32f10x_rcc.o [1]
RCC_PCLK2Config         0x08002231   0x18  Code  Gb  stm32f10x_rcc.o [1]
RCC_PLLCmd              0x080021d9    0xa  Code  Gb  stm32f10x_rcc.o [1]
RCC_PLLConfig           0x080021bb   0x1e  Code  Gb  stm32f10x_rcc.o [1]
RCC_SYSCLKConfig        0x080021e3   0x18  Code  Gb  stm32f10x_rcc.o [1]
RCC_WaitForHSEStartUp   0x08002177   0x44  Code  Gb  stm32f10x_rcc.o [1]
RSIZE                   0x20000cd4   0x10  Data  Lc  w5500.o [1]
RTCAlarm_IRQHandler     0x08003f5f         Code  Wk  startup_stm32f10x_hd.o [1]
RTC_IRQHandler          0x08003ec7         Code  Wk  startup_stm32f10x_hd.o [1]
Region$$Table$$Base     0x08003c3c          --   Gb  - Linker created -
Region$$Table$$Limit    0x08003c60          --   Gb  - Linker created -
Reset_Handler           0x08003e45         Code  Wk  startup_stm32f10x_hd.o [1]
Reset_W5500             0x080038d9   0x26  Code  Gb  device.o [1]
SDIO_IRQHandler         0x08003f7f         Code  Wk  startup_stm32f10x_hd.o [1]
SPI1_IRQHandler         0x08003f47         Code  Wk  startup_stm32f10x_hd.o [1]
SPI2_IRQHandler         0x08003f4b         Code  Wk  startup_stm32f10x_hd.o [1]
SPI2_SendByte           0x08003783   0x32  Code  Gb  SPI2.o [1]
SPI3_IRQHandler         0x08003f87         Code  Wk  startup_stm32f10x_hd.o [1]
SPI_Cmd                 0x0800389d   0x1a  Code  Gb  stm32f10x_spi.o [1]
SPI_I2S_GetFlagStatus   0x080038bf   0x1a  Code  Gb  stm32f10x_spi.o [1]
SPI_I2S_ReceiveData     0x080038bb    0x4  Code  Gb  stm32f10x_spi.o [1]
SPI_I2S_SendData        0x080038b7    0x4  Code  Gb  stm32f10x_spi.o [1]
SPI_Init                0x0800385d   0x40  Code  Gb  stm32f10x_spi.o [1]
SSIZE                   0x20000cc4   0x10  Data  Lc  w5500.o [1]
SVC_Handler             0x08003a7b    0x2  Code  Gb  stm32f10x_it.o [1]
SetSysClock             0x08002ef3    0x8  Code  Lc  system_stm32f10x.o [1]
SetSysClockTo72         0x08002efb   0xe0  Code  Lc  system_stm32f10x.o [1]
SysTick_Handler         0x08003a81    0x2  Code  Gb  stm32f10x_it.o [1]
SystemInit              0x08002ea1   0x52  Code  Gb  system_stm32f10x.o [1]
Systick_Init            0x08003571   0x26  Code  Gb  util.o [1]
TAMPER_IRQHandler       0x08003ec3         Code  Wk  startup_stm32f10x_hd.o [1]
TIM1_BRK_IRQHandler     0x08003f1b         Code  Wk  startup_stm32f10x_hd.o [1]
TIM1_CC_IRQHandler      0x08003f27         Code  Wk  startup_stm32f10x_hd.o [1]
TIM1_TRG_COM_IRQHandler
                        0x08003f23         Code  Wk  startup_stm32f10x_hd.o [1]
TIM1_UP_IRQHandler      0x08003f1f         Code  Wk  startup_stm32f10x_hd.o [1]
TIM2_IRQHandler         0x08003a83   0x26  Code  Gb  stm32f10x_it.o [1]
TIM3_IRQHandler         0x08003aad    0x2  Code  Gb  stm32f10x_it.o [1]
TIM4_IRQHandler         0x08003f33         Code  Wk  startup_stm32f10x_hd.o [1]
TIM5_IRQHandler         0x08003f83         Code  Wk  startup_stm32f10x_hd.o [1]
TIM6_IRQHandler         0x08003f93         Code  Wk  startup_stm32f10x_hd.o [1]
TIM7_IRQHandler         0x08003f97         Code  Wk  startup_stm32f10x_hd.o [1]
TIM8_BRK_IRQHandler     0x08003f67         Code  Wk  startup_stm32f10x_hd.o [1]
TIM8_CC_IRQHandler      0x08003f73         Code  Wk  startup_stm32f10x_hd.o [1]
TIM8_TRG_COM_IRQHandler
                        0x08003f6f         Code  Wk  startup_stm32f10x_hd.o [1]
TIM8_UP_IRQHandler      0x08003f6b         Code  Wk  startup_stm32f10x_hd.o [1]
TIM_ClearITPendingBit   0x080030fd    0x8  Code  Gb  stm32f10x_tim.o [1]
TIM_Cmd                 0x0800308f   0x1a  Code  Gb  stm32f10x_tim.o [1]
TIM_GetITStatus         0x080030c5   0x38  Code  Gb  stm32f10x_tim.o [1]
TIM_ITConfig            0x080030a9   0x16  Code  Gb  stm32f10x_tim.o [1]
TIM_PrescalerConfig     0x080030bf    0x6  Code  Gb  stm32f10x_tim.o [1]
TIM_TimeBaseInit        0x08002ff9   0x96  Code  Gb  stm32f10x_tim.o [1]
Time_Zone               0x20000428    0x1  Data  Gb  ntp.o [1]
Timer_Configuration     0x08002849   0x4a  Code  Gb  mcu_init.o [1]
Total_Seconds           0x20000ce8    0x8  Data  Gb  ntp.o [1]
UART4_IRQHandler        0x08003f8b         Code  Wk  startup_stm32f10x_hd.o [1]
UART5_IRQHandler        0x08003f8f         Code  Wk  startup_stm32f10x_hd.o [1]
USART1_IRQHandler       0x08003aaf    0x2  Code  Gb  stm32f10x_it.o [1]
USART1_Init             0x080038ff   0x48  Code  Gb  device.o [1]
USART2_IRQHandler       0x08003ab1    0x2  Code  Gb  stm32f10x_it.o [1]
USART3_IRQHandler       0x08003f57         Code  Wk  startup_stm32f10x_hd.o [1]
USART_Cmd               0x08002b21   0x1a  Code  Gb  stm32f10x_usart.o [1]
USART_GetFlagStatus     0x08002ba1   0x22  Code  Gb  stm32f10x_usart.o [1]
USART_ITConfig          0x08002b3b   0x5e  Code  Gb  stm32f10x_usart.o [1]
USART_Init              0x08002a39   0xe2  Code  Gb  stm32f10x_usart.o [1]
USART_SendData          0x08002b99    0x8  Code  Gb  stm32f10x_usart.o [1]
USBWakeUp_IRQHandler    0x08003f63         Code  Wk  startup_stm32f10x_hd.o [1]
USB_HP_CAN1_TX_IRQHandler
                        0x08003f07         Code  Wk  startup_stm32f10x_hd.o [1]
USB_LP_CAN1_RX0_IRQHandler
                        0x08003f0b         Code  Wk  startup_stm32f10x_hd.o [1]
UsageFault_Handler      0x08003a79    0x2  Code  Gb  stm32f10x_it.o [1]
WIZ_CS                  0x0800375b   0x28  Code  Gb  SPI2.o [1]
WIZ_SPI_Init            0x08003709   0x52  Code  Gb  SPI2.o [1]
WWDG_IRQHandler         0x08003ebb         Code  Wk  startup_stm32f10x_hd.o [1]
_GenldDefault           0x08000b59  0x24e  Code  Lc  xprintffull.o [3]
_LdtobDefault           0x08000745  0x40e  Code  Lc  xprintffull.o [3]
_LitobDefault           0x08000637  0x10e  Code  Lc  xprintffull.o [3]
_Printf                 0x08000131  0x506  Code  Gb  xprintffull.o [3]
_Prout                  0x08003da5   0x16  Code  Gb  xprout.o [3]
_PutcharsDefault        0x08000dc1   0x32  Code  Lc  xprintffull.o [3]
__aeabi_cdcmple         0x08003b65         Code  Gb  DblCmpLe.o [4]
__aeabi_cdrcmple        0x08003b95         Code  Gb  DblCmpGe.o [4]
__aeabi_d2iz            0x08003a19         Code  Gb  DblToI32.o [4]
__aeabi_d2uiz           0x08003a45         Code  Gb  DblToI32.o [4]
__aeabi_dadd            0x08003489         Code  Gb  DblAdd.o [4]
__aeabi_ddiv            0x0800240d         Code  Gb  DblDiv.o [4]
__aeabi_dmul            0x08002895         Code  Gb  DblMul.o [4]
__aeabi_dsub            0x08002bc5         Code  Gb  DblSub.o [4]
__aeabi_i2d             0x08003bc5         Code  Gb  I32ToDbl.o [4]
__aeabi_ldiv0           0x08003e95         Code  Gb  I64DivZer.o [4]
__aeabi_ldivmod         0x0800312d         Code  Gb  I64DivMod.o [4]
__aeabi_memcpy          0x08003951         Code  Gb  ABImemcpy.o [4]
__aeabi_memcpy4         0x0800396b         Code  Gb  ABImemcpy.o [4]
__aeabi_memcpy8         0x0800396b         Code  Gb  ABImemcpy.o [4]
__aeabi_ui2d            0x08003bd9         Code  Gb  I32ToDbl.o [4]
__aeabi_uldivmod        0x08003141         Code  Gb  I64DivMod.o [4]
__exit                  0x08003e21   0x14  Code  Gb  exit.o [5]
__iar_Dnorm             0x08003641   0xc6  Code  Gb  xdnorm.o [3]
__iar_Dscale            0x08003381  0x108  Code  Gb  xdscale.o [3]
__iar_Memchr            0x080039c1         Code  Gb  memchr.o [4]
__iar_Strchr            0x08003d79         Code  Gb  strchr.o [4]
__iar_copy_init2        0x08003c19   0x24  Code  Gb  copy_init2.o [4]
__iar_d2uiz             0x08003a4f         Code  Gb  DblToI32.o [4]
__iar_dadd              0x0800349b         Code  Gb  DblAdd.o [4]
__iar_data_init2        0x08003cc1   0x20  Code  Gb  data_init2.o [4]
__iar_dsub              0x08002bd7         Code  Gb  DblSub.o [4]
__iar_dsubStart         0x08002be9         Code  Gb  DblSub.o [4]
__iar_program_start     0x08003d61         Code  Gb  cmain.o [4]
__iar_sh_stdout_close   0x08003ce1   0x16  Code  Gb  iarwstd.o [5]
__iar_sh_stdout_handle  0x20000cf0    0x4  Data  Lc  iarwstd.o [5]
__iar_ui2d              0x08003bdb         Code  Gb  I32ToDbl.o [4]
__iar_zero_init2        0x08003cfd   0x1a  Code  Gb  zero_init2.o [4]
__low_level_init        0x08003fab    0x4  Code  Gb  low_level_init.o [3]
__vector_table          0x08000000         Data  Gb  startup_stm32f10x_hd.o [1]
_exit                   0x08003e65         Code  Gb  cexit.o [4]
_main                   0x08003d73         Code  Gb  cmain.o [4]
at24c16_init            0x08003ab5   0x38  Code  Gb  at24c16.o [1]
calc_date_time          0x08001397  0x3ba  Code  Gb  ntp.o [1]
close                   0x080018ab   0x32  Code  Gb  socket.o [1]
div                     0x08003e55    0xe  Code  Gb  div.o [3]
do_ntp_client           0x080011ef  0x1a8  Code  Gb  ntp.o [1]
exit                    0x08003e81    0x6  Code  Gb  exit.o [3]
fac_ms                  0x20000cf6    0x2  Data  Lc  util.o [1]
fac_us                  0x20000cfb    0x1  Data  Lc  util.o [1]
getGAR                  0x08001f47   0x12  Code  Gb  w5500.o [1]
getIINCHIP_TxMAX        0x08001c61    0xc  Code  Gb  w5500.o [1]
getSIPR                 0x08001f6b   0x12  Code  Gb  w5500.o [1]
getSUBR                 0x08001f59   0x12  Code  Gb  w5500.o [1]
getSn_RX_RSR            0x08001fc1   0x6c  Code  Gb  w5500.o [1]
getSn_SR                0x08001faf   0x12  Code  Gb  w5500.o [1]
get_seconds_from_ntp_server
                        0x08000df5  0x324  Code  Gb  ntp.o [1]
local_port              0x20000cf4    0x2  Data  Lc  socket.o [1]
main                    0x0800325d  0x124  Code  Gb  main.o [1]
memchr                  0x080039c1         Code  Gb  memchr.o [4]
memcpy                  0x08003d8f   0x16  Code  Gb  device.o [1]
ntpclient_init          0x08001119   0xd6  Code  Gb  ntp.o [1]
ntptimer                0x20000cf9    0x1  Data  Gb  ntp.o [1]
printf                  0x08003ca1   0x20  Code  Gb  printf.o [3]
putchar                 0x080035ff   0x2a  Code  Gb  util.o [1]
recvfrom                0x08001a11  0x244  Code  Gb  socket.o [1]
rxsize                  0x20000418    0x8  Data  Gb  device.o [1]
send_data_processing    0x0800202d   0x90  Code  Gb  w5500.o [1]
sendto                  0x080018dd  0x134  Code  Gb  socket.o [1]
setGAR                  0x08001eff   0x12  Code  Gb  w5500.o [1]
setRCR                  0x08001f9d   0x12  Code  Gb  w5500.o [1]
setRTR                  0x08001f7d   0x20  Code  Gb  w5500.o [1]
setSHAR                 0x08001f23   0x12  Code  Gb  w5500.o [1]
setSIPR                 0x08001f35   0x12  Code  Gb  w5500.o [1]
setSUBR                 0x08001f11   0x12  Code  Gb  w5500.o [1]
socket                  0x080017c1   0xea  Code  Gb  socket.o [1]
strchr                  0x08003d79         Code  Gb  strchr.o [4]
strlen                  0x08003b2d         Code  Gb  strlen.o [4]
sysinit                 0x08001dbf  0x140  Code  Gb  w5500.o [1]
txsize                  0x20000410    0x8  Data  Gb  device.o [1]
wiz_read_buf            0x08001d61   0x5e  Code  Gb  w5500.o [1]
wiz_write_buf           0x08001d01   0x60  Code  Gb  w5500.o [1]


[1] = D:\安装程序\项目程序\cook book程序\cookbook-2013-12-11\2-5 NTP\Debug\Obj
[2] = command line
[3] = dl7M_tl_in.a
[4] = rt7M_tl.a
[5] = shb_l.a

  15 940 bytes of readonly  code memory
     408 bytes of readonly  data memory
   3 324 bytes of readwrite data memory

Errors: none
Warnings: none
