Component: ARM Compiler 5.05 update 1 (build 106) Tool: armlink [4d0efa]

==============================================================================

Section Cross References

    main.o(.text) refers to system.o(.text) for NVIC_Configuration
    main.o(.text) refers to usart.o(.text) for uart_init
    main.o(.text) refers to gpio.o(.text) for GpioInit
    main.o(.text) refers to delay.o(.text) for DelayInit
    main.o(.text) refers to timer.o(.text) for Timer2_Config
    main.o(.text) refers to iwdg.o(.text) for IWDG_Init
    main.o(.text) refers to cstring.o(.text) for HexToAscii
    main.o(.text) refers to printf8.o(i.__0printf$8) for __2printf
    main.o(.text) refers to w5500_conf.o(.text) for gpio_for_w5500_config
    main.o(.text) refers to w5500.o(.text) for socket_buf_init
    main.o(.text) refers to socket.o(.text) for close
    main.o(.text) refers to dhcp.o(.text) for get_DHCP_state
    main.o(.text) refers to dns.o(.text) for do_dns
    main.o(.text) refers to buffermanage.o(.text) for BufferManageRead
    main.o(.text) refers to main.o(.bss) for MCUID
    main.o(.text) refers to w5500_conf.o(.data) for local_mac
    main.o(.text) refers to w5500.o(.data) for rxsize
    main.o(.text) refers to main.o(.data) for IP
==============================================================================

Removing Unused input sections from the image.

    Removing key.o(.text), (104 bytes).
    Removing core_cm3.o(.emb_text), (32 bytes).
    Removing stm32f10x_flash.o(.text), (1468 bytes).
    Removing smtp.o(.text), (1282 bytes).
    Removing smtp.o(.bss), (2348 bytes).
    Removing smtp.o(.conststring), (65 bytes).
    Removing smtp.o(.data), (1019 bytes).
    Removing ntp.o(.text), (2064 bytes).
    Removing ntp.o(.bss), (2156 bytes).
    Removing ntp.o(.data), (16 bytes).

10 unused section(s) (total 10554 bytes) removed from the image.

==============================================================================

Image Symbol Table

    Local Symbols

    Symbol Name                              Value     Ov Type        Size  Object(Section)

    ../clib/../cmprslib/zerorunl2.c          0x00000000   Number         0  __dczerorl2.o ABSOLUTE
    ../clib/microlib/division.c              0x00000000   Number         0  uldiv.o ABSOLUTE
    ../clib/microlib/division.c              0x00000000   Number         0  uidiv.o ABSOLUTE
    ../clib/microlib/init/entry.s            0x00000000   Number         0  entry8a.o ABSOLUTE
    ../clib/microlib/init/entry.s            0x00000000   Number         0  entry10b.o ABSOLUTE
    ../clib/microlib/init/entry.s            0x00000000   Number         0  entry7a.o ABSOLUTE
    ../clib/microlib/init/entry.s            0x00000000   Number         0  entry10a.o ABSOLUTE
    ../clib/microlib/init/entry.s            0x00000000   Number         0  entry9b.o ABSOLUTE
    ../clib/microlib/init/entry.s            0x00000000   Number         0  entry5.o ABSOLUTE
    ../clib/microlib/init/entry.s            0x00000000   Number         0  entry9a.o ABSOLUTE
    ../clib/microlib/init/entry.s            0x00000000   Number         0  entry8b.o ABSOLUTE
    ../clib/microlib/init/entry.s            0x00000000   Number         0  entry7b.o ABSOLUTE
    ../clib/microlib/init/entry.s            0x00000000   Number         0  entry2.o ABSOLUTE
    ../clib/microlib/init/entry.s            0x00000000   Number         0  entry.o ABSOLUTE
    ../clib/microlib/init/entry.s            0x00000000   Number         0  entry11a.o ABSOLUTE
    ../clib/microlib/init/entry.s            0x00000000   Number         0  entry11b.o ABSOLUTE
    ../clib/microlib/longlong.c              0x00000000   Number         0  llshl.o ABSOLUTE
    ../clib/microlib/longlong.c              0x00000000   Number         0  llsshr.o ABSOLUTE
    ../clib/microlib/longlong.c              0x00000000   Number         0  llushr.o ABSOLUTE
    ../clib/microlib/malloc/malloc.c         0x00000000   Number         0  mallocra.o ABSOLUTE
    ../clib/microlib/malloc/malloc.c         0x00000000   Number         0  malloc.o ABSOLUTE
    ../clib/microlib/malloc/malloc.c         0x00000000   Number         0  malloca.o ABSOLUTE
    ../clib/microlib/malloc/malloc.c         0x00000000   Number         0  mallocr.o ABSOLUTE
    ../clib/microlib/malloc/mvars.c          0x00000000   Number         0  mvars.o ABSOLUTE
    ../clib/microlib/printf/printf.c         0x00000000   Number         0  printf8.o ABSOLUTE
    ../clib/microlib/printf/printf.c         0x00000000   Number         0  printf7.o ABSOLUTE
    ../clib/microlib/printf/printf.c         0x00000000   Number         0  printf4.o ABSOLUTE
    ../clib/microlib/printf/printf.c         0x00000000   Number         0  printf5.o ABSOLUTE
    ../clib/microlib/printf/printf.c         0x00000000   Number         0  printf6.o ABSOLUTE
    ../clib/microlib/printf/printf.c         0x00000000   Number         0  printf3.o ABSOLUTE
    ../clib/microlib/printf/printf.c         0x00000000   Number         0  printf2.o ABSOLUTE
    ../clib/microlib/printf/printf.c         0x00000000   Number         0  printf1.o ABSOLUTE
    ../clib/microlib/printf/printf.c         0x00000000   Number         0  printf0.o ABSOLUTE
    ../clib/microlib/printf/printf.c         0x00000000   Number         0  printfb.o ABSOLUTE
    ../clib/microlib/printf/printf.c         0x00000000   Number         0  printfa.o ABSOLUTE
    ../clib/microlib/printf/stubs.s          0x00000000   Number         0  stubs.o ABSOLUTE
    ../clib/microlib/stdio/streams.c         0x00000000   Number         0  stdout.o ABSOLUTE
    ../clib/microlib/string/memcmp.c         0x00000000   Number         0  memcmp.o ABSOLUTE
    ../clib/microlib/string/memcpy.c         0x00000000   Number         0  memcpya.o ABSOLUTE
    ../clib/microlib/string/memcpy.c         0x00000000   Number         0  memcpyb.o ABSOLUTE
    ../clib/microlib/string/memset.c         0x00000000   Number         0  memseta.o ABSOLUTE
    ../clib/microlib/string/strcat.c         0x00000000   Number         0  strcat.o ABSOLUTE
    ../clib/microlib/string/strchr.c         0x00000000   Number         0  strchr.o ABSOLUTE
    ../clib/microlib/string/strcpy.c         0x00000000   Number         0  strcpy.o ABSOLUTE
    ../clib/microlib/string/strlen.c         0x00000000   Number         0  strlen.o ABSOLUTE
    ../clib/microlib/string/strncpy.c        0x00000000   Number         0  strncpy.o ABSOLUTE
    ../clib/microlib/string/strstr.c         0x00000000   Number         0  strstr.o ABSOLUTE
    ../clib/microlib/string/strtok.c         0x00000000   Number         0  strtok.o ABSOLUTE
    ../clib/microlib/string/strtok.c         0x00000000   Number         0  strtok_r.o ABSOLUTE
    ../clib/microlib/stubs.s                 0x00000000   Number         0  iusefp.o ABSOLUTE
    ../fplib/microlib/fpadd.c                0x00000000   Number         0  dadd.o ABSOLUTE
    ../fplib/microlib/fpdiv.c                0x00000000   Number         0  ddiv.o ABSOLUTE
    ../fplib/microlib/fpepilogue.c           0x00000000   Number         0  depilogue.o ABSOLUTE
    ../fplib/microlib/fpfix.c                0x00000000   Number         0  dfixul.o ABSOLUTE
    ../fplib/microlib/fpmul.c                0x00000000   Number         0  dmul.o ABSOLUTE
    ..\CMSIS\core_cm3.c                      0x00000000   Number         0  core_cm3.o ABSOLUTE
    ..\CMSIS\system_stm32f10x.c              0x00000000   Number         0  system_stm32f10x.o ABSOLUTE
    ..\Libraries\src\misc.c                  0x00000000   Number         0  misc.o ABSOLUTE
    ..\Libraries\src\stm32f10x_flash.c       0x00000000   Number         0  stm32f10x_flash.o ABSOLUTE
    ..\Libraries\src\stm32f10x_gpio.c        0x00000000   Number         0  stm32f10x_gpio.o ABSOLUTE
    ..\Libraries\src\stm32f10x_iwdg.c        0x00000000   Number         0  stm32f10x_iwdg.o ABSOLUTE
    ..\Libraries\src\stm32f10x_rcc.c         0x00000000   Number         0  stm32f10x_rcc.o ABSOLUTE
    ..\Libraries\src\stm32f10x_spi.c         0x00000000   Number         0  stm32f10x_spi.o ABSOLUTE
    ..\Libraries\src\stm32f10x_tim.c         0x00000000   Number         0  stm32f10x_tim.o ABSOLUTE
    ..\Libraries\src\stm32f10x_usart.c       0x00000000   Number         0  stm32f10x_usart.o ABSOLUTE
    ..\Startup\startup_stm32f10x_hd.s        0x00000000   Number         0  startup_stm32f10x_hd.o ABSOLUTE
    ..\User\BufferManage.c                   0x00000000   Number         0  buffermanage.o ABSOLUTE
    ..\User\LoopList.c                       0x00000000   Number         0  looplist.o ABSOLUTE
    ..\User\System.c                         0x00000000   Number         0  system.o ABSOLUTE
    ..\User\cString.c                        0x00000000   Number         0  cstring.o ABSOLUTE
    ..\User\delay.c                          0x00000000   Number         0  delay.o ABSOLUTE
    ..\User\gpio.c                           0x00000000   Number         0  gpio.o ABSOLUTE
    ..\User\iwdg.c                           0x00000000   Number         0  iwdg.o ABSOLUTE
    ..\User\key.c                            0x00000000   Number         0  key.o ABSOLUTE
    ..\User\main.c                           0x00000000   Number         0  main.o ABSOLUTE
    ..\User\stm32f10x_it.c                   0x00000000   Number         0  stm32f10x_it.o ABSOLUTE
    ..\User\timer.c                          0x00000000   Number         0  timer.o ABSOLUTE
    ..\User\usart.c                          0x00000000   Number         0  usart.o ABSOLUTE
    ..\W5500\dhcp.c                          0x00000000   Number         0  dhcp.o ABSOLUTE
    ..\W5500\dns.c                           0x00000000   Number         0  dns.o ABSOLUTE
    ..\W5500\ntp.c                           0x00000000   Number         0  ntp.o ABSOLUTE
    ..\W5500\smtp.c                          0x00000000   Number         0  smtp.o ABSOLUTE
    ..\W5500\socket.c                        0x00000000   Number         0  socket.o ABSOLUTE
    ..\W5500\utility.c                       0x00000000   Number         0  utility.o ABSOLUTE
    ..\W5500\w5500.c                         0x00000000   Number         0  w5500.o ABSOLUTE
    ..\W5500\w5500_conf.c                    0x00000000   Number         0  w5500_conf.o ABSOLUTE
    ..\\CMSIS\\core_cm3.c                    0x00000000   Number         0  core_cm3.o ABSOLUTE
    cdrcmple.s                               0x00000000   Number         0  cdrcmple.o ABSOLUTE
    dc.s                                     0x00000000   Number         0  dc.o ABSOLUTE
    handlers.s                               0x00000000   Number         0  handlers.o ABSOLUTE
    init.s                                   0x00000000   Number         0  init.o ABSOLUTE
    RESET                                    0x08000000   Section      304  startup_stm32f10x_hd.o(RESET)
    .ARM.Collect$$$$00000000                 0x08000130   Section        0  entry.o(.ARM.Collect$$$$00000000)
    .ARM.Collect$$$$00000001                 0x08000130   Section        4  entry2.o(.ARM.Collect$$$$00000001)
    .ARM.Collect$$$$00000004                 0x08000134   Section        4  entry5.o(.ARM.Collect$$$$00000004)
    .ARM.Collect$$$$00000008                 0x08000138   Section        0  entry7b.o(.ARM.Collect$$$$00000008)
    .ARM.Collect$$$$0000000A                 0x08000138   Section        0  entry8b.o(.ARM.Collect$$$$0000000A)
    .ARM.Collect$$$$0000000B                 0x08000138   Section        8  entry9a.o(.ARM.Collect$$$$0000000B)
    .ARM.Collect$$$$0000000D                 0x08000140   Section        0  entry10a.o(.ARM.Collect$$$$0000000D)
    .ARM.Collect$$$$0000000F                 0x08000140   Section        0  entry11a.o(.ARM.Collect$$$$0000000F)
    .ARM.Collect$$$$00002712                 0x08000140   Section        4  entry2.o(.ARM.Collect$$$$00002712)
    __lit__00000000                          0x08000140   Data           4  entry2.o(.ARM.Collect$$$$00002712)
    .text                                    0x08000144   Section        0  stm32f10x_it.o(.text)
    .text                                    0x08000184   Section        0  main.o(.text)
    .text                                    0x08000434   Section        0  system.o(.text)
    .text                                    0x0800052c   Section        0  delay.o(.text)
    .text                                    0x08000600   Section        0  usart.o(.text)
    .text                                    0x08000ba4   Section        0  gpio.o(.text)
    .text                                    0x08000bf0   Section        0  cstring.o(.text)
    .text                                    0x08000dac   Section        0  iwdg.o(.text)
    .text                                    0x08000dd8   Section        0  timer.o(.text)
    .text                                    0x08000e78   Section        0  buffermanage.o(.text)
    .text                                    0x08000f4c   Section        0  looplist.o(.text)
    .text                                    0x08001144   Section        0  system_stm32f10x.o(.text)
    SetSysClockTo72                          0x08001145   Thumb Code   214  system_stm32f10x.o(.text)
    SetSysClock                              0x0800121b   Thumb Code     8  system_stm32f10x.o(.text)
    .text                                    0x08001324   Section        0  misc.o(.text)
    .text                                    0x08001400   Section        0  stm32f10x_rcc.o(.text)
    .text                                    0x080017a4   Section        0  stm32f10x_usart.o(.text)
    .text                                    0x08001bac   Section        0  stm32f10x_gpio.o(.text)
    .text                                    0x08001f08   Section        0  stm32f10x_tim.o(.text)
    TI4_Config                               0x080023af   Thumb Code   130  stm32f10x_tim.o(.text)
    TI3_Config                               0x08002443   Thumb Code   122  stm32f10x_tim.o(.text)
    TI2_Config                               0x080024d7   Thumb Code   130  stm32f10x_tim.o(.text)
    TI1_Config                               0x0800256b   Thumb Code   108  stm32f10x_tim.o(.text)
    .text                                    0x08002d24   Section        0  stm32f10x_iwdg.o(.text)
    .text                                    0x08002d64   Section        0  stm32f10x_spi.o(.text)
    .text                                    0x08003070   Section       36  startup_stm32f10x_hd.o(.text)
    .text                                    0x08003094   Section        0  dhcp.o(.text)
    .text                                    0x080046cc   Section        0  dns.o(.text)
    .text                                    0x08004cc4   Section        0  socket.o(.text)
    .text                                    0x08005350   Section        0  utility.o(.text)
    .text                                    0x080056dc   Section        0  w5500.o(.text)
    .text                                    0x08005ac0   Section        0  w5500_conf.o(.text)
    .text                                    0x08006016   Section        0  uldiv.o(.text)
    .text                                    0x08006078   Section        0  memcpya.o(.text)
    .text                                    0x0800609c   Section        0  memseta.o(.text)
    .text                                    0x080060c0   Section        0  strstr.o(.text)
    .text                                    0x080060e4   Section        0  strncpy.o(.text)
    .text                                    0x080060fc   Section        0  strchr.o(.text)
    .text                                    0x08006110   Section        0  strlen.o(.text)
    .text                                    0x0800611e   Section        0  memcmp.o(.text)
    .text                                    0x08006138   Section        0  strcpy.o(.text)
    .text                                    0x0800614c   Section        0  strtok.o(.text)
    .text                                    0x08006190   Section        0  uidiv.o(.text)
    .text                                    0x080061bc   Section        0  llshl.o(.text)
    .text                                    0x080061da   Section        0  llushr.o(.text)
    .text                                    0x080061fa   Section        0  dadd.o(.text)
    .text                                    0x080061fa   Section        0  iusefp.o(.text)
    .text                                    0x08006348   Section        0  dmul.o(.text)
    .text                                    0x0800642c   Section        0  ddiv.o(.text)
    .text                                    0x0800650a   Section        0  dfixul.o(.text)
    .text                                    0x0800653c   Section       48  cdrcmple.o(.text)
    .text                                    0x0800656c   Section       36  init.o(.text)
    .text                                    0x08006590   Section        0  llsshr.o(.text)
    .text                                    0x080065b4   Section        0  depilogue.o(.text)
    .text                                    0x0800666e   Section        0  __dczerorl2.o(.text)
    i.__0printf                              0x080066c4   Section        0  printfa.o(i.__0printf)
    i.__0printf$8                            0x080066e4   Section        0  printf8.o(i.__0printf$8)
    i.__0sprintf$8                           0x08006704   Section        0  printf8.o(i.__0sprintf$8)
    i.__scatterload_copy                     0x0800672c   Section       14  handlers.o(i.__scatterload_copy)
    i.__scatterload_null                     0x0800673a   Section        2  handlers.o(i.__scatterload_null)
    i.__scatterload_zeroinit                 0x0800673c   Section       14  handlers.o(i.__scatterload_zeroinit)
    i._fp_digits                             0x0800674c   Section        0  printfa.o(i._fp_digits)
    _fp_digits                               0x0800674d   Thumb Code   334  printfa.o(i._fp_digits)
    i._printf_core                           0x080068b0   Section        0  printf8.o(i._printf_core)
    _printf_core                             0x080068b1   Thumb Code   996  printf8.o(i._printf_core)
    i._printf_core                           0x08006cc0   Section        0  printfa.o(i._printf_core)
    _printf_core                             0x08006cc1   Thumb Code  1744  printfa.o(i._printf_core)
    i._printf_post_padding                   0x0800739c   Section        0  printf8.o(i._printf_post_padding)
    _printf_post_padding                     0x0800739d   Thumb Code    36  printf8.o(i._printf_post_padding)
    i._printf_post_padding                   0x080073c0   Section        0  printfa.o(i._printf_post_padding)
    _printf_post_padding                     0x080073c1   Thumb Code    36  printfa.o(i._printf_post_padding)
    i._printf_pre_padding                    0x080073e4   Section        0  printf8.o(i._printf_pre_padding)
    _printf_pre_padding                      0x080073e5   Thumb Code    46  printf8.o(i._printf_pre_padding)
    i._printf_pre_padding                    0x08007412   Section        0  printfa.o(i._printf_pre_padding)
    _printf_pre_padding                      0x08007413   Thumb Code    46  printfa.o(i._printf_pre_padding)
    i._sputc                                 0x08007440   Section        0  printf8.o(i._sputc)
    _sputc                                   0x08007441   Thumb Code    10  printf8.o(i._sputc)
    i.free                                   0x0800744c   Section        0  malloc.o(i.free)
    i.malloc                                 0x0800749c   Section        0  malloc.o(i.malloc)
    .conststring                             0x08007508   Section        5  dhcp.o(.conststring)
    .data                                    0x20000000   Section       69  main.o(.data)
    .data                                    0x20000048   Section       40  system.o(.data)
    .data                                    0x20000070   Section        4  delay.o(.data)
    fac_us                                   0x20000070   Data           1  delay.o(.data)
    fac_ms                                   0x20000072   Data           2  delay.o(.data)
    .data                                    0x20000074   Section       41  usart.o(.data)
    flage                                    0x2000009c   Data           1  usart.o(.data)
    .data                                    0x200000a0   Section        9  cstring.o(.data)
    .data                                    0x200000ac   Section       20  system_stm32f10x.o(.data)
    .data                                    0x200000c0   Section       20  stm32f10x_rcc.o(.data)
    APBAHBPrescTable                         0x200000c0   Data          16  stm32f10x_rcc.o(.data)
    ADCPrescTable                            0x200000d0   Data           4  stm32f10x_rcc.o(.data)
    .data                                    0x200000d4   Section       64  dhcp.o(.data)
    .data                                    0x20000114   Section       20  dns.o(.data)
    dns_wait_time                            0x20000124   Data           4  dns.o(.data)
    .data                                    0x20000128   Section       16  w5500.o(.data)
    .data                                    0x20000138   Section       41  w5500_conf.o(.data)
    .data                                    0x20000164   Section        4  strtok.o(.data)
    state                                    0x20000164   Data           4  strtok.o(.data)
    .data                                    0x20000168   Section        4  stdout.o(.data)
    .data                                    0x2000016c   Section        4  mvars.o(.data)
    .data                                    0x20000170   Section        4  mvars.o(.data)
    .bss                                     0x20000174   Section      232  main.o(.bss)
    .bss                                     0x2000025c   Section    11248  usart.o(.bss)
    .bss                                     0x20002e4c   Section       28  key.o(.bss)
    .bss                                     0x20002e68   Section     1046  dhcp.o(.bss)
    .bss                                     0x2000327e   Section     1024  dns.o(.bss)
    .bss                                     0x2000367e   Section       48  utility.o(.bss)
    addr_str                                 0x2000367e   Data          32  utility.o(.bss)
    addr_str                                 0x2000369e   Data          16  utility.o(.bss)
    .bss                                     0x200036ae   Section       32  w5500.o(.bss)
    .bss                                     0x200036ce   Section       46  w5500_conf.o(.bss)
    HEAP                                     0x20003700   Section      512  startup_stm32f10x_hd.o(HEAP)
    STACK                                    0x20003900   Section     1024  startup_stm32f10x_hd.o(STACK)

    Global Symbols

    Symbol Name                              Value     Ov Type        Size  Object(Section)

    BuildAttributes$$THM_ISAv4$P$D$K$B$S$PE$A:L22UL41UL21$X:L11$S22US41US21$IEEE1$IW$USESV6$~STKCKD$USESV7$~SHL$OSPACE$ROPI$EBA8$MICROLIB$REQ8$PRES8$EABIv2 0x00000000   Number         0  anon$$obj.o ABSOLUTE
    __ARM_use_no_argv                        0x00000000   Number         0  main.o ABSOLUTE
    _printf_a                                0x00000000   Number         0  stubs.o ABSOLUTE
    _printf_c                                0x00000000   Number         0  stubs.o ABSOLUTE
    _printf_charcount                        0x00000000   Number         0  stubs.o ABSOLUTE
    _printf_d                                0x00000000   Number         0  stubs.o ABSOLUTE
    _printf_e                                0x00000000   Number         0  stubs.o ABSOLUTE
    _printf_f                                0x00000000   Number         0  stubs.o ABSOLUTE
    _printf_flags                            0x00000000   Number         0  stubs.o ABSOLUTE
    _printf_fp_dec                           0x00000000   Number         0  stubs.o ABSOLUTE
    _printf_fp_hex                           0x00000000   Number         0  stubs.o ABSOLUTE
    _printf_g                                0x00000000   Number         0  stubs.o ABSOLUTE
    _printf_i                                0x00000000   Number         0  stubs.o ABSOLUTE
    _printf_int_dec                          0x00000000   Number         0  stubs.o ABSOLUTE
    _printf_l                                0x00000000   Number         0  stubs.o ABSOLUTE
    _printf_lc                               0x00000000   Number         0  stubs.o ABSOLUTE
    _printf_ll                               0x00000000   Number         0  stubs.o ABSOLUTE
    _printf_lld                              0x00000000   Number         0  stubs.o ABSOLUTE
    _printf_lli                              0x00000000   Number         0  stubs.o ABSOLUTE
    _printf_llo                              0x00000000   Number         0  stubs.o ABSOLUTE
    _printf_llu                              0x00000000   Number         0  stubs.o ABSOLUTE
    _printf_llx                              0x00000000   Number         0  stubs.o ABSOLUTE
    _printf_longlong_dec                     0x00000000   Number         0  stubs.o ABSOLUTE
    _printf_longlong_hex                     0x00000000   Number         0  stubs.o ABSOLUTE
    _printf_longlong_oct                     0x00000000   Number         0  stubs.o ABSOLUTE
    _printf_ls                               0x00000000   Number         0  stubs.o ABSOLUTE
    _printf_mbtowc                           0x00000000   Number         0  stubs.o ABSOLUTE
    _printf_n                                0x00000000   Number         0  stubs.o ABSOLUTE
    _printf_o                                0x00000000   Number         0  stubs.o ABSOLUTE
    _printf_p                                0x00000000   Number         0  stubs.o ABSOLUTE
    _printf_percent                          0x00000000   Number         0  stubs.o ABSOLUTE
    _printf_pre_padding                      0x00000000   Number         0  stubs.o ABSOLUTE
    _printf_return_value                     0x00000000   Number         0  stubs.o ABSOLUTE
    _printf_s                                0x00000000   Number         0  stubs.o ABSOLUTE
    _printf_sizespec                         0x00000000   Number         0  stubs.o ABSOLUTE
    _printf_str                              0x00000000   Number         0  stubs.o ABSOLUTE
    _printf_truncate_signed                  0x00000000   Number         0  stubs.o ABSOLUTE
    _printf_truncate_unsigned                0x00000000   Number         0  stubs.o ABSOLUTE
    _printf_u                                0x00000000   Number         0  stubs.o ABSOLUTE
    _printf_wc                               0x00000000   Number         0  stubs.o ABSOLUTE
    _printf_wctomb                           0x00000000   Number         0  stubs.o ABSOLUTE
    _printf_widthprec                        0x00000000   Number         0  stubs.o ABSOLUTE
    _printf_x                                0x00000000   Number         0  stubs.o ABSOLUTE
    __cpp_initialize__aeabi_                  - Undefined Weak Reference
    __cxa_finalize                            - Undefined Weak Reference
    _clock_init                               - Undefined Weak Reference
    _microlib_exit                            - Undefined Weak Reference
    __Vectors_Size                           0x00000130   Number         0  startup_stm32f10x_hd.o ABSOLUTE
    __Vectors                                0x08000000   Data           4  startup_stm32f10x_hd.o(RESET)
    __Vectors_End                            0x08000130   Data           0  startup_stm32f10x_hd.o(RESET)
    __main                                   0x08000131   Thumb Code     0  entry.o(.ARM.Collect$$$$00000000)
    _main_stk                                0x08000131   Thumb Code     0  entry2.o(.ARM.Collect$$$$00000001)
    _main_scatterload                        0x08000135   Thumb Code     0  entry5.o(.ARM.Collect$$$$00000004)
    __main_after_scatterload                 0x08000139   Thumb Code     0  entry5.o(.ARM.Collect$$$$00000004)
    _main_clock                              0x08000139   Thumb Code     0  entry7b.o(.ARM.Collect$$$$00000008)
    _main_cpp_init                           0x08000139   Thumb Code     0  entry8b.o(.ARM.Collect$$$$0000000A)
    _main_init                               0x08000139   Thumb Code     0  entry9a.o(.ARM.Collect$$$$0000000B)
    __rt_final_cpp                           0x08000141   Thumb Code     0  entry10a.o(.ARM.Collect$$$$0000000D)
    __rt_final_exit                          0x08000141   Thumb Code     0  entry11a.o(.ARM.Collect$$$$0000000F)
    NMI_Handler                              0x08000145   Thumb Code     2  stm32f10x_it.o(.text)
    HardFault_Handler                        0x08000147   Thumb Code    36  stm32f10x_it.o(.text)
    MemManage_Handler                        0x0800016b   Thumb Code     4  stm32f10x_it.o(.text)
    BusFault_Handler                         0x0800016f   Thumb Code     4  stm32f10x_it.o(.text)
    UsageFault_Handler                       0x08000173   Thumb Code     4  stm32f10x_it.o(.text)
    SVC_Handler                              0x08000177   Thumb Code     2  stm32f10x_it.o(.text)
    DebugMon_Handler                         0x08000179   Thumb Code     2  stm32f10x_it.o(.text)
    PendSV_Handler                           0x0800017b   Thumb Code     2  stm32f10x_it.o(.text)
    main                                     0x08000185   Thumb Code   552  main.o(.text)
    NVIC_Configuration                       0x08000435   Thumb Code   126  system.o(.text)
    Reset_MCU                                0x080004b3   Thumb Code    32  system.o(.text)
    GetSTM32MCUID                            0x080004d3   Thumb Code    50  system.o(.text)
    DelayInit                                0x0800052d   Thumb Code    50  delay.o(.text)
    delay_us                                 0x0800055f   Thumb Code    72  delay.o(.text)
    delay_ms                                 0x080005a7   Thumb Code    72  delay.o(.text)
    uart_init                                0x08000601   Thumb Code   414  usart.o(.text)
    UsartOutStrIT                            0x0800079f   Thumb Code    94  usart.o(.text)
    UsartOutStr                              0x080007fd   Thumb Code    42  usart.o(.text)
    UsartOutChar                             0x08000827   Thumb Code    28  usart.o(.text)
    USART1_IRQHandler                        0x08000843   Thumb Code   214  usart.o(.text)
    USART2_IRQHandler                        0x08000919   Thumb Code   336  usart.o(.text)
    USART3_IRQHandler                        0x08000a69   Thumb Code   222  usart.o(.text)
    fputc                                    0x08000b47   Thumb Code    58  usart.o(.text)
    GpioInit                                 0x08000ba5   Thumb Code    66  gpio.o(.text)
    cStringFree                              0x08000bf1   Thumb Code    12  cstring.o(.text)
    StrBetwStringMalloc                      0x08000bfd   Thumb Code   108  cstring.o(.text)
    cStringRestore                           0x08000c69   Thumb Code    18  cstring.o(.text)
    StrBetwString                            0x08000c7b   Thumb Code    86  cstring.o(.text)
    split                                    0x08000cd1   Thumb Code    84  cstring.o(.text)
    HexToAscii                               0x08000d25   Thumb Code    96  cstring.o(.text)
    insert                                   0x08000d85   Thumb Code    26  cstring.o(.text)
    IWDG_Init                                0x08000dad   Thumb Code    36  iwdg.o(.text)
    IWDG_Feed                                0x08000dd1   Thumb Code     8  iwdg.o(.text)
    Timer2_Config                            0x08000dd9   Thumb Code    80  timer.o(.text)
    TIM2_IRQHandler                          0x08000e29   Thumb Code    76  timer.o(.text)
    BufferManageCreate                       0x08000e79   Thumb Code    64  buffermanage.o(.text)
    BufferManageWrite                        0x08000eb9   Thumb Code    84  buffermanage.o(.text)
    BufferManageRead                         0x08000f0d   Thumb Code    64  buffermanage.o(.text)
    rbCreate                                 0x08000f4d   Thumb Code    20  looplist.o(.text)
    rbDelete                                 0x08000f61   Thumb Code    18  looplist.o(.text)
    rbCapacity                               0x08000f73   Thumb Code    14  looplist.o(.text)
    rbCanRead                                0x08000f81   Thumb Code    56  looplist.o(.text)
    rbCanWrite                               0x08000fb9   Thumb Code    30  looplist.o(.text)
    rbRead                                   0x08000fd7   Thumb Code   162  looplist.o(.text)
    rbWrite                                  0x08001079   Thumb Code   158  looplist.o(.text)
    PutData                                  0x08001117   Thumb Code    46  looplist.o(.text)
    SystemInit                               0x08001223   Thumb Code    78  system_stm32f10x.o(.text)
    SystemCoreClockUpdate                    0x08001271   Thumb Code   142  system_stm32f10x.o(.text)
    NVIC_PriorityGroupConfig                 0x08001325   Thumb Code    10  misc.o(.text)
    NVIC_Init                                0x0800132f   Thumb Code   100  misc.o(.text)
    NVIC_SetVectorTable                      0x08001393   Thumb Code    14  misc.o(.text)
    NVIC_SystemLPConfig                      0x080013a1   Thumb Code    34  misc.o(.text)
    SysTick_CLKSourceConfig                  0x080013c3   Thumb Code    40  misc.o(.text)
    RCC_DeInit                               0x08001401   Thumb Code    64  stm32f10x_rcc.o(.text)
    RCC_HSEConfig                            0x08001441   Thumb Code    70  stm32f10x_rcc.o(.text)
    RCC_GetFlagStatus                        0x08001487   Thumb Code    56  stm32f10x_rcc.o(.text)
    RCC_WaitForHSEStartUp                    0x080014bf   Thumb Code    56  stm32f10x_rcc.o(.text)
    RCC_AdjustHSICalibrationValue            0x080014f7   Thumb Code    20  stm32f10x_rcc.o(.text)
    RCC_HSICmd                               0x0800150b   Thumb Code     6  stm32f10x_rcc.o(.text)
    RCC_PLLConfig                            0x08001511   Thumb Code    24  stm32f10x_rcc.o(.text)
    RCC_PLLCmd                               0x08001529   Thumb Code     6  stm32f10x_rcc.o(.text)
    RCC_SYSCLKConfig                         0x0800152f   Thumb Code    18  stm32f10x_rcc.o(.text)
    RCC_GetSYSCLKSource                      0x08001541   Thumb Code    10  stm32f10x_rcc.o(.text)
    RCC_HCLKConfig                           0x0800154b   Thumb Code    18  stm32f10x_rcc.o(.text)
    RCC_PCLK1Config                          0x0800155d   Thumb Code    18  stm32f10x_rcc.o(.text)
    RCC_PCLK2Config                          0x0800156f   Thumb Code    20  stm32f10x_rcc.o(.text)
    RCC_ITConfig                             0x08001583   Thumb Code    26  stm32f10x_rcc.o(.text)
    RCC_USBCLKConfig                         0x0800159d   Thumb Code     8  stm32f10x_rcc.o(.text)
    RCC_ADCCLKConfig                         0x080015a5   Thumb Code    18  stm32f10x_rcc.o(.text)
    RCC_LSEConfig                            0x080015b7   Thumb Code    50  stm32f10x_rcc.o(.text)
    RCC_LSICmd                               0x080015e9   Thumb Code     6  stm32f10x_rcc.o(.text)
    RCC_RTCCLKConfig                         0x080015ef   Thumb Code    12  stm32f10x_rcc.o(.text)
    RCC_RTCCLKCmd                            0x080015fb   Thumb Code     8  stm32f10x_rcc.o(.text)
    RCC_GetClocksFreq                        0x08001603   Thumb Code   192  stm32f10x_rcc.o(.text)
    RCC_AHBPeriphClockCmd                    0x080016c3   Thumb Code    26  stm32f10x_rcc.o(.text)
    RCC_APB2PeriphClockCmd                   0x080016dd   Thumb Code    26  stm32f10x_rcc.o(.text)
    RCC_APB1PeriphClockCmd                   0x080016f7   Thumb Code    26  stm32f10x_rcc.o(.text)
    RCC_APB2PeriphResetCmd                   0x08001711   Thumb Code    26  stm32f10x_rcc.o(.text)
    RCC_APB1PeriphResetCmd                   0x0800172b   Thumb Code    26  stm32f10x_rcc.o(.text)
    RCC_BackupResetCmd                       0x08001745   Thumb Code     8  stm32f10x_rcc.o(.text)
    RCC_ClockSecuritySystemCmd               0x0800174d   Thumb Code     6  stm32f10x_rcc.o(.text)
    RCC_MCOConfig                            0x08001753   Thumb Code     6  stm32f10x_rcc.o(.text)
    RCC_ClearFlag                            0x08001759   Thumb Code    14  stm32f10x_rcc.o(.text)
    RCC_GetITStatus                          0x08001767   Thumb Code    20  stm32f10x_rcc.o(.text)
    RCC_ClearITPendingBit                    0x0800177b   Thumb Code     6  stm32f10x_rcc.o(.text)
    USART_DeInit                             0x080017a5   Thumb Code   134  stm32f10x_usart.o(.text)
    USART_Init                               0x0800182b   Thumb Code   210  stm32f10x_usart.o(.text)
    USART_StructInit                         0x080018fd   Thumb Code    24  stm32f10x_usart.o(.text)
    USART_ClockInit                          0x08001915   Thumb Code    34  stm32f10x_usart.o(.text)
    USART_ClockStructInit                    0x08001937   Thumb Code    12  stm32f10x_usart.o(.text)
    USART_Cmd                                0x08001943   Thumb Code    24  stm32f10x_usart.o(.text)
    USART_ITConfig                           0x0800195b   Thumb Code    74  stm32f10x_usart.o(.text)
    USART_DMACmd                             0x080019a5   Thumb Code    18  stm32f10x_usart.o(.text)
    USART_SetAddress                         0x080019b7   Thumb Code    18  stm32f10x_usart.o(.text)
    USART_WakeUpConfig                       0x080019c9   Thumb Code    18  stm32f10x_usart.o(.text)
    USART_ReceiverWakeUpCmd                  0x080019db   Thumb Code    24  stm32f10x_usart.o(.text)
    USART_LINBreakDetectLengthConfig         0x080019f3   Thumb Code    18  stm32f10x_usart.o(.text)
    USART_LINCmd                             0x08001a05   Thumb Code    24  stm32f10x_usart.o(.text)
    USART_SendData                           0x08001a1d   Thumb Code     8  stm32f10x_usart.o(.text)
    USART_ReceiveData                        0x08001a25   Thumb Code    10  stm32f10x_usart.o(.text)
    USART_SendBreak                          0x08001a2f   Thumb Code    10  stm32f10x_usart.o(.text)
    USART_SetGuardTime                       0x08001a39   Thumb Code    16  stm32f10x_usart.o(.text)
    USART_SetPrescaler                       0x08001a49   Thumb Code    16  stm32f10x_usart.o(.text)
    USART_SmartCardCmd                       0x08001a59   Thumb Code    24  stm32f10x_usart.o(.text)
    USART_SmartCardNACKCmd                   0x08001a71   Thumb Code    24  stm32f10x_usart.o(.text)
    USART_HalfDuplexCmd                      0x08001a89   Thumb Code    24  stm32f10x_usart.o(.text)
    USART_OverSampling8Cmd                   0x08001aa1   Thumb Code    22  stm32f10x_usart.o(.text)
    USART_OneBitMethodCmd                    0x08001ab7   Thumb Code    24  stm32f10x_usart.o(.text)
    USART_IrDAConfig                         0x08001acf   Thumb Code    18  stm32f10x_usart.o(.text)
    USART_IrDACmd                            0x08001ae1   Thumb Code    24  stm32f10x_usart.o(.text)
    USART_GetFlagStatus                      0x08001af9   Thumb Code    26  stm32f10x_usart.o(.text)
    USART_ClearFlag                          0x08001b13   Thumb Code    18  stm32f10x_usart.o(.text)
    USART_GetITStatus                        0x08001b25   Thumb Code    84  stm32f10x_usart.o(.text)
    USART_ClearITPendingBit                  0x08001b79   Thumb Code    52  stm32f10x_usart.o(.text)
    GPIO_DeInit                              0x08001bad   Thumb Code   172  stm32f10x_gpio.o(.text)
    GPIO_AFIODeInit                          0x08001c59   Thumb Code    20  stm32f10x_gpio.o(.text)
    GPIO_Init                                0x08001c6d   Thumb Code   278  stm32f10x_gpio.o(.text)
    GPIO_StructInit                          0x08001d83   Thumb Code    16  stm32f10x_gpio.o(.text)
    GPIO_ReadInputDataBit                    0x08001d93   Thumb Code    18  stm32f10x_gpio.o(.text)
    GPIO_ReadInputData                       0x08001da5   Thumb Code     8  stm32f10x_gpio.o(.text)
    GPIO_ReadOutputDataBit                   0x08001dad   Thumb Code    18  stm32f10x_gpio.o(.text)
    GPIO_ReadOutputData                      0x08001dbf   Thumb Code     8  stm32f10x_gpio.o(.text)
    GPIO_SetBits                             0x08001dc7   Thumb Code     4  stm32f10x_gpio.o(.text)
    GPIO_ResetBits                           0x08001dcb   Thumb Code     4  stm32f10x_gpio.o(.text)
    GPIO_WriteBit                            0x08001dcf   Thumb Code    10  stm32f10x_gpio.o(.text)
    GPIO_Write                               0x08001dd9   Thumb Code     4  stm32f10x_gpio.o(.text)
    GPIO_PinLockConfig                       0x08001ddd   Thumb Code    18  stm32f10x_gpio.o(.text)
    GPIO_EventOutputConfig                   0x08001def   Thumb Code    26  stm32f10x_gpio.o(.text)
    GPIO_EventOutputCmd                      0x08001e09   Thumb Code     6  stm32f10x_gpio.o(.text)
    GPIO_PinRemapConfig                      0x08001e0f   Thumb Code   138  stm32f10x_gpio.o(.text)
    GPIO_EXTILineConfig                      0x08001e99   Thumb Code    66  stm32f10x_gpio.o(.text)
    GPIO_ETH_MediaInterfaceConfig            0x08001edb   Thumb Code     8  stm32f10x_gpio.o(.text)
    TIM_DeInit                               0x08001f09   Thumb Code   424  stm32f10x_tim.o(.text)
    TIM_TimeBaseInit                         0x080020b1   Thumb Code   122  stm32f10x_tim.o(.text)
    TIM_OC1Init                              0x0800212b   Thumb Code   132  stm32f10x_tim.o(.text)
    TIM_OC2Init                              0x080021af   Thumb Code   154  stm32f10x_tim.o(.text)
    TIM_OC3Init                              0x08002249   Thumb Code   150  stm32f10x_tim.o(.text)
    TIM_OC4Init                              0x080022df   Thumb Code   182  stm32f10x_tim.o(.text)
    TIM_SetIC4Prescaler                      0x08002395   Thumb Code    26  stm32f10x_tim.o(.text)
    TIM_SetIC3Prescaler                      0x08002431   Thumb Code    18  stm32f10x_tim.o(.text)
    TIM_SetIC2Prescaler                      0x080024bd   Thumb Code    26  stm32f10x_tim.o(.text)
    TIM_SetIC1Prescaler                      0x08002559   Thumb Code    18  stm32f10x_tim.o(.text)
    TIM_ICInit                               0x080025d7   Thumb Code   150  stm32f10x_tim.o(.text)
    TIM_PWMIConfig                           0x0800266d   Thumb Code   124  stm32f10x_tim.o(.text)
    TIM_BDTRConfig                           0x080026e9   Thumb Code    32  stm32f10x_tim.o(.text)
    TIM_TimeBaseStructInit                   0x08002709   Thumb Code    18  stm32f10x_tim.o(.text)
    TIM_OCStructInit                         0x0800271b   Thumb Code    20  stm32f10x_tim.o(.text)
    TIM_ICStructInit                         0x0800272f   Thumb Code    18  stm32f10x_tim.o(.text)
    TIM_BDTRStructInit                       0x08002741   Thumb Code    40  stm32f10x_tim.o(.text)
    TIM_Cmd                                  0x08002769   Thumb Code    24  stm32f10x_tim.o(.text)
    TIM_CtrlPWMOutputs                       0x08002781   Thumb Code    30  stm32f10x_tim.o(.text)
    TIM_ITConfig                             0x0800279f   Thumb Code    18  stm32f10x_tim.o(.text)
    TIM_GenerateEvent                        0x080027b1   Thumb Code     4  stm32f10x_tim.o(.text)
    TIM_DMAConfig                            0x080027b5   Thumb Code    10  stm32f10x_tim.o(.text)
    TIM_DMACmd                               0x080027bf   Thumb Code    18  stm32f10x_tim.o(.text)
    TIM_InternalClockConfig                  0x080027d1   Thumb Code    12  stm32f10x_tim.o(.text)
    TIM_SelectInputTrigger                   0x080027dd   Thumb Code    18  stm32f10x_tim.o(.text)
    TIM_ITRxExternalClockConfig              0x080027ef   Thumb Code    24  stm32f10x_tim.o(.text)
    TIM_TIxExternalClockConfig               0x08002807   Thumb Code    62  stm32f10x_tim.o(.text)
    TIM_ETRConfig                            0x08002845   Thumb Code    28  stm32f10x_tim.o(.text)
    TIM_ETRClockMode1Config                  0x08002861   Thumb Code    54  stm32f10x_tim.o(.text)
    TIM_ETRClockMode2Config                  0x08002897   Thumb Code    32  stm32f10x_tim.o(.text)
    TIM_PrescalerConfig                      0x080028b7   Thumb Code     6  stm32f10x_tim.o(.text)
    TIM_CounterModeConfig                    0x080028bd   Thumb Code    18  stm32f10x_tim.o(.text)
    TIM_EncoderInterfaceConfig               0x080028cf   Thumb Code    66  stm32f10x_tim.o(.text)
    TIM_ForcedOC1Config                      0x08002911   Thumb Code    18  stm32f10x_tim.o(.text)
    TIM_ForcedOC2Config                      0x08002923   Thumb Code    26  stm32f10x_tim.o(.text)
    TIM_ForcedOC3Config                      0x0800293d   Thumb Code    18  stm32f10x_tim.o(.text)
    TIM_ForcedOC4Config                      0x0800294f   Thumb Code    26  stm32f10x_tim.o(.text)
    TIM_ARRPreloadConfig                     0x08002969   Thumb Code    24  stm32f10x_tim.o(.text)
    TIM_SelectCOM                            0x08002981   Thumb Code    24  stm32f10x_tim.o(.text)
    TIM_SelectCCDMA                          0x08002999   Thumb Code    24  stm32f10x_tim.o(.text)
    TIM_CCPreloadControl                     0x080029b1   Thumb Code    24  stm32f10x_tim.o(.text)
    TIM_OC1PreloadConfig                     0x080029c9   Thumb Code    18  stm32f10x_tim.o(.text)
    TIM_OC2PreloadConfig                     0x080029db   Thumb Code    26  stm32f10x_tim.o(.text)
    TIM_OC3PreloadConfig                     0x080029f5   Thumb Code    18  stm32f10x_tim.o(.text)
    TIM_OC4PreloadConfig                     0x08002a07   Thumb Code    26  stm32f10x_tim.o(.text)
    TIM_OC1FastConfig                        0x08002a21   Thumb Code    18  stm32f10x_tim.o(.text)
    TIM_OC2FastConfig                        0x08002a33   Thumb Code    26  stm32f10x_tim.o(.text)
    TIM_OC3FastConfig                        0x08002a4d   Thumb Code    18  stm32f10x_tim.o(.text)
    TIM_OC4FastConfig                        0x08002a5f   Thumb Code    26  stm32f10x_tim.o(.text)
    TIM_ClearOC1Ref                          0x08002a79   Thumb Code    18  stm32f10x_tim.o(.text)
    TIM_ClearOC2Ref                          0x08002a8b   Thumb Code    24  stm32f10x_tim.o(.text)
    TIM_ClearOC3Ref                          0x08002aa3   Thumb Code    18  stm32f10x_tim.o(.text)
    TIM_ClearOC4Ref                          0x08002ab5   Thumb Code    24  stm32f10x_tim.o(.text)
    TIM_OC1PolarityConfig                    0x08002acd   Thumb Code    18  stm32f10x_tim.o(.text)
    TIM_OC1NPolarityConfig                   0x08002adf   Thumb Code    18  stm32f10x_tim.o(.text)
    TIM_OC2PolarityConfig                    0x08002af1   Thumb Code    26  stm32f10x_tim.o(.text)
    TIM_OC2NPolarityConfig                   0x08002b0b   Thumb Code    26  stm32f10x_tim.o(.text)
    TIM_OC3PolarityConfig                    0x08002b25   Thumb Code    26  stm32f10x_tim.o(.text)
    TIM_OC3NPolarityConfig                   0x08002b3f   Thumb Code    26  stm32f10x_tim.o(.text)
    TIM_OC4PolarityConfig                    0x08002b59   Thumb Code    26  stm32f10x_tim.o(.text)
    TIM_CCxCmd                               0x08002b73   Thumb Code    30  stm32f10x_tim.o(.text)
    TIM_CCxNCmd                              0x08002b91   Thumb Code    30  stm32f10x_tim.o(.text)
    TIM_SelectOCxM                           0x08002baf   Thumb Code    82  stm32f10x_tim.o(.text)
    TIM_UpdateDisableConfig                  0x08002c01   Thumb Code    24  stm32f10x_tim.o(.text)
    TIM_UpdateRequestConfig                  0x08002c19   Thumb Code    24  stm32f10x_tim.o(.text)
    TIM_SelectHallSensor                     0x08002c31   Thumb Code    24  stm32f10x_tim.o(.text)
    TIM_SelectOnePulseMode                   0x08002c49   Thumb Code    18  stm32f10x_tim.o(.text)
    TIM_SelectOutputTrigger                  0x08002c5b   Thumb Code    18  stm32f10x_tim.o(.text)
    TIM_SelectSlaveMode                      0x08002c6d   Thumb Code    18  stm32f10x_tim.o(.text)
    TIM_SelectMasterSlaveMode                0x08002c7f   Thumb Code    18  stm32f10x_tim.o(.text)
    TIM_SetCounter                           0x08002c91   Thumb Code     4  stm32f10x_tim.o(.text)
    TIM_SetAutoreload                        0x08002c95   Thumb Code     4  stm32f10x_tim.o(.text)
    TIM_SetCompare1                          0x08002c99   Thumb Code     4  stm32f10x_tim.o(.text)
    TIM_SetCompare2                          0x08002c9d   Thumb Code     4  stm32f10x_tim.o(.text)
    TIM_SetCompare3                          0x08002ca1   Thumb Code     4  stm32f10x_tim.o(.text)
    TIM_SetCompare4                          0x08002ca5   Thumb Code     6  stm32f10x_tim.o(.text)
    TIM_SetClockDivision                     0x08002cab   Thumb Code    18  stm32f10x_tim.o(.text)
    TIM_GetCapture1                          0x08002cbd   Thumb Code     6  stm32f10x_tim.o(.text)
    TIM_GetCapture2                          0x08002cc3   Thumb Code     6  stm32f10x_tim.o(.text)
    TIM_GetCapture3                          0x08002cc9   Thumb Code     6  stm32f10x_tim.o(.text)
    TIM_GetCapture4                          0x08002ccf   Thumb Code     8  stm32f10x_tim.o(.text)
    TIM_GetCounter                           0x08002cd7   Thumb Code     6  stm32f10x_tim.o(.text)
    TIM_GetPrescaler                         0x08002cdd   Thumb Code     6  stm32f10x_tim.o(.text)
    TIM_GetFlagStatus                        0x08002ce3   Thumb Code    18  stm32f10x_tim.o(.text)
    TIM_ClearFlag                            0x08002cf5   Thumb Code     6  stm32f10x_tim.o(.text)
    TIM_GetITStatus                          0x08002cfb   Thumb Code    34  stm32f10x_tim.o(.text)
    TIM_ClearITPendingBit                    0x08002d1d   Thumb Code     6  stm32f10x_tim.o(.text)
    IWDG_WriteAccessCmd                      0x08002d25   Thumb Code     6  stm32f10x_iwdg.o(.text)
    IWDG_SetPrescaler                        0x08002d2b   Thumb Code     6  stm32f10x_iwdg.o(.text)
    IWDG_SetReload                           0x08002d31   Thumb Code     6  stm32f10x_iwdg.o(.text)
    IWDG_ReloadCounter                       0x08002d37   Thumb Code    10  stm32f10x_iwdg.o(.text)
    IWDG_Enable                              0x08002d41   Thumb Code    10  stm32f10x_iwdg.o(.text)
    IWDG_GetFlagStatus                       0x08002d4b   Thumb Code    20  stm32f10x_iwdg.o(.text)
    SPI_I2S_DeInit                           0x08002d65   Thumb Code    76  stm32f10x_spi.o(.text)
    SPI_Init                                 0x08002db1   Thumb Code    60  stm32f10x_spi.o(.text)
    I2S_Init                                 0x08002ded   Thumb Code   226  stm32f10x_spi.o(.text)
    SPI_StructInit                           0x08002ecf   Thumb Code    24  stm32f10x_spi.o(.text)
    I2S_StructInit                           0x08002ee7   Thumb Code    20  stm32f10x_spi.o(.text)
    SPI_Cmd                                  0x08002efb   Thumb Code    24  stm32f10x_spi.o(.text)
    I2S_Cmd                                  0x08002f13   Thumb Code    24  stm32f10x_spi.o(.text)
    SPI_I2S_ITConfig                         0x08002f2b   Thumb Code    32  stm32f10x_spi.o(.text)
    SPI_I2S_DMACmd                           0x08002f4b   Thumb Code    18  stm32f10x_spi.o(.text)
    SPI_I2S_SendData                         0x08002f5d   Thumb Code     4  stm32f10x_spi.o(.text)
    SPI_I2S_ReceiveData                      0x08002f61   Thumb Code     6  stm32f10x_spi.o(.text)
    SPI_NSSInternalSoftwareConfig            0x08002f67   Thumb Code    30  stm32f10x_spi.o(.text)
    SPI_SSOutputCmd                          0x08002f85   Thumb Code    24  stm32f10x_spi.o(.text)
    SPI_DataSizeConfig                       0x08002f9d   Thumb Code    18  stm32f10x_spi.o(.text)
    SPI_TransmitCRC                          0x08002faf   Thumb Code    10  stm32f10x_spi.o(.text)
    SPI_CalculateCRC                         0x08002fb9   Thumb Code    24  stm32f10x_spi.o(.text)
    SPI_GetCRC                               0x08002fd1   Thumb Code    16  stm32f10x_spi.o(.text)
    SPI_GetCRCPolynomial                     0x08002fe1   Thumb Code     6  stm32f10x_spi.o(.text)
    SPI_BiDirectionalLineConfig              0x08002fe7   Thumb Code    28  stm32f10x_spi.o(.text)
    SPI_I2S_GetFlagStatus                    0x08003003   Thumb Code    18  stm32f10x_spi.o(.text)
    SPI_I2S_ClearFlag                        0x08003015   Thumb Code     6  stm32f10x_spi.o(.text)
    SPI_I2S_GetITStatus                      0x0800301b   Thumb Code    52  stm32f10x_spi.o(.text)
    SPI_I2S_ClearITPendingBit                0x0800304f   Thumb Code    20  stm32f10x_spi.o(.text)
    Reset_Handler                            0x08003071   Thumb Code     8  startup_stm32f10x_hd.o(.text)
    SysTick_Handler                          0x08003089   Thumb Code     2  startup_stm32f10x_hd.o(.text)
    ADC1_2_IRQHandler                        0x0800308b   Thumb Code     0  startup_stm32f10x_hd.o(.text)
    ADC3_IRQHandler                          0x0800308b   Thumb Code     0  startup_stm32f10x_hd.o(.text)
    CAN1_RX1_IRQHandler                      0x0800308b   Thumb Code     0  startup_stm32f10x_hd.o(.text)
    CAN1_SCE_IRQHandler                      0x0800308b   Thumb Code     0  startup_stm32f10x_hd.o(.text)
    DMA1_Channel1_IRQHandler                 0x0800308b   Thumb Code     0  startup_stm32f10x_hd.o(.text)
    DMA1_Channel2_IRQHandler                 0x0800308b   Thumb Code     0  startup_stm32f10x_hd.o(.text)
    DMA1_Channel3_IRQHandler                 0x0800308b   Thumb Code     0  startup_stm32f10x_hd.o(.text)
    DMA1_Channel4_IRQHandler                 0x0800308b   Thumb Code     0  startup_stm32f10x_hd.o(.text)
    DMA1_Channel5_IRQHandler                 0x0800308b   Thumb Code     0  startup_stm32f10x_hd.o(.text)
    DMA1_Channel6_IRQHandler                 0x0800308b   Thumb Code     0  startup_stm32f10x_hd.o(.text)
    DMA1_Channel7_IRQHandler                 0x0800308b   Thumb Code     0  startup_stm32f10x_hd.o(.text)
    DMA2_Channel1_IRQHandler                 0x0800308b   Thumb Code     0  startup_stm32f10x_hd.o(.text)
    DMA2_Channel2_IRQHandler                 0x0800308b   Thumb Code     0  startup_stm32f10x_hd.o(.text)
    DMA2_Channel3_IRQHandler                 0x0800308b   Thumb Code     0  startup_stm32f10x_hd.o(.text)
    DMA2_Channel4_5_IRQHandler               0x0800308b   Thumb Code     0  startup_stm32f10x_hd.o(.text)
    EXTI0_IRQHandler                         0x0800308b   Thumb Code     0  startup_stm32f10x_hd.o(.text)
    EXTI15_10_IRQHandler                     0x0800308b   Thumb Code     0  startup_stm32f10x_hd.o(.text)
    EXTI1_IRQHandler                         0x0800308b   Thumb Code     0  startup_stm32f10x_hd.o(.text)
    EXTI2_IRQHandler                         0x0800308b   Thumb Code     0  startup_stm32f10x_hd.o(.text)
    EXTI3_IRQHandler                         0x0800308b   Thumb Code     0  startup_stm32f10x_hd.o(.text)
    EXTI4_IRQHandler                         0x0800308b   Thumb Code     0  startup_stm32f10x_hd.o(.text)
    EXTI9_5_IRQHandler                       0x0800308b   Thumb Code     0  startup_stm32f10x_hd.o(.text)
    FLASH_IRQHandler                         0x0800308b   Thumb Code     0  startup_stm32f10x_hd.o(.text)
    FSMC_IRQHandler                          0x0800308b   Thumb Code     0  startup_stm32f10x_hd.o(.text)
    I2C1_ER_IRQHandler                       0x0800308b   Thumb Code     0  startup_stm32f10x_hd.o(.text)
    I2C1_EV_IRQHandler                       0x0800308b   Thumb Code     0  startup_stm32f10x_hd.o(.text)
    I2C2_ER_IRQHandler                       0x0800308b   Thumb Code     0  startup_stm32f10x_hd.o(.text)
    I2C2_EV_IRQHandler                       0x0800308b   Thumb Code     0  startup_stm32f10x_hd.o(.text)
    PVD_IRQHandler                           0x0800308b   Thumb Code     0  startup_stm32f10x_hd.o(.text)
    RCC_IRQHandler                           0x0800308b   Thumb Code     0  startup_stm32f10x_hd.o(.text)
    RTCAlarm_IRQHandler                      0x0800308b   Thumb Code     0  startup_stm32f10x_hd.o(.text)
    RTC_IRQHandler                           0x0800308b   Thumb Code     0  startup_stm32f10x_hd.o(.text)
    SDIO_IRQHandler                          0x0800308b   Thumb Code     0  startup_stm32f10x_hd.o(.text)
    SPI1_IRQHandler                          0x0800308b   Thumb Code     0  startup_stm32f10x_hd.o(.text)
    SPI2_IRQHandler                          0x0800308b   Thumb Code     0  startup_stm32f10x_hd.o(.text)
    SPI3_IRQHandler                          0x0800308b   Thumb Code     0  startup_stm32f10x_hd.o(.text)
    TAMPER_IRQHandler                        0x0800308b   Thumb Code     0  startup_stm32f10x_hd.o(.text)
    TIM1_BRK_IRQHandler                      0x0800308b   Thumb Code     0  startup_stm32f10x_hd.o(.text)
    TIM1_CC_IRQHandler                       0x0800308b   Thumb Code     0  startup_stm32f10x_hd.o(.text)
    TIM1_TRG_COM_IRQHandler                  0x0800308b   Thumb Code     0  startup_stm32f10x_hd.o(.text)
    TIM1_UP_IRQHandler                       0x0800308b   Thumb Code     0  startup_stm32f10x_hd.o(.text)
    TIM3_IRQHandler                          0x0800308b   Thumb Code     0  startup_stm32f10x_hd.o(.text)
    TIM4_IRQHandler                          0x0800308b   Thumb Code     0  startup_stm32f10x_hd.o(.text)
    TIM5_IRQHandler                          0x0800308b   Thumb Code     0  startup_stm32f10x_hd.o(.text)
    TIM6_IRQHandler                          0x0800308b   Thumb Code     0  startup_stm32f10x_hd.o(.text)
    TIM7_IRQHandler                          0x0800308b   Thumb Code     0  startup_stm32f10x_hd.o(.text)
    TIM8_BRK_IRQHandler                      0x0800308b   Thumb Code     0  startup_stm32f10x_hd.o(.text)
    TIM8_CC_IRQHandler                       0x0800308b   Thumb Code     0  startup_stm32f10x_hd.o(.text)
    TIM8_TRG_COM_IRQHandler                  0x0800308b   Thumb Code     0  startup_stm32f10x_hd.o(.text)
    TIM8_UP_IRQHandler                       0x0800308b   Thumb Code     0  startup_stm32f10x_hd.o(.text)
    UART4_IRQHandler                         0x0800308b   Thumb Code     0  startup_stm32f10x_hd.o(.text)
    UART5_IRQHandler                         0x0800308b   Thumb Code     0  startup_stm32f10x_hd.o(.text)
    USBWakeUp_IRQHandler                     0x0800308b   Thumb Code     0  startup_stm32f10x_hd.o(.text)
    USB_HP_CAN1_TX_IRQHandler                0x0800308b   Thumb Code     0  startup_stm32f10x_hd.o(.text)
    USB_LP_CAN1_RX0_IRQHandler               0x0800308b   Thumb Code     0  startup_stm32f10x_hd.o(.text)
    WWDG_IRQHandler                          0x0800308b   Thumb Code     0  startup_stm32f10x_hd.o(.text)
    get_DHCP_state                           0x08003095   Thumb Code     6  dhcp.o(.text)
    reset_DHCP_time                          0x0800309b   Thumb Code    28  dhcp.o(.text)
    send_DHCP_DISCOVER                       0x080030b7   Thumb Code   686  dhcp.o(.text)
    send_DHCP_REQUEST                        0x08003365   Thumb Code  1060  dhcp.o(.text)
    send_DHCP_RELEASE_DECLINE                0x08003789   Thumb Code   708  dhcp.o(.text)
    parseDHCPMSG                             0x08003a4d   Thumb Code  1528  dhcp.o(.text)
    check_DHCP_Timeout                       0x08004045   Thumb Code   134  dhcp.o(.text)
    check_leasedIP                           0x080040cb   Thumb Code    82  dhcp.o(.text)
    check_DHCP_state                         0x0800411d   Thumb Code   452  dhcp.o(.text)
    DHCP_timer_handler                       0x080042e1   Thumb Code    36  dhcp.o(.text)
    init_dhcp                                0x08004305   Thumb Code    22  dhcp.o(.text)
    do_dhcp                                  0x0800431b   Thumb Code   850  dhcp.o(.text)
    dns_makequery                            0x080046cd   Thumb Code   194  dns.o(.text)
    parse_name                               0x0800478f   Thumb Code   156  dns.o(.text)
    dns_answer                               0x0800482b   Thumb Code   252  dns.o(.text)
    dns_question                             0x08004927   Thumb Code    38  dns.o(.text)
    parseMSG                                 0x0800494d   Thumb Code   218  dns.o(.text)
    dns_query                                0x08004a27   Thumb Code   284  dns.o(.text)
    init_dns                                 0x08004b43   Thumb Code    12  dns.o(.text)
    do_dns                                   0x08004b4f   Thumb Code   178  dns.o(.text)
    close                                    0x08004cc5   Thumb Code    52  socket.o(.text)
    socket                                   0x08004cf9   Thumb Code   192  socket.o(.text)
    listen                                   0x08004db9   Thumb Code    62  socket.o(.text)
    connect                                  0x08004df7   Thumb Code   248  socket.o(.text)
    disconnect                               0x08004eef   Thumb Code    38  socket.o(.text)
    send                                     0x08004f15   Thumb Code   216  socket.o(.text)
    recv                                     0x08004fed   Thumb Code    66  socket.o(.text)
    sendto                                   0x0800502f   Thumb Code   268  socket.o(.text)
    recvfrom                                 0x0800513b   Thumb Code   510  socket.o(.text)
    c2d                                      0x08005351   Thumb Code    54  utility.o(.text)
    atoi16                                   0x08005387   Thumb Code    32  utility.o(.text)
    atoi32                                   0x080053a7   Thumb Code    32  utility.o(.text)
    itoa                                     0x080053c7   Thumb Code    64  utility.o(.text)
    validatoi                                0x08005407   Thumb Code    72  utility.o(.text)
    replacetochar                            0x0800544f   Thumb Code    26  utility.o(.text)
    swaps                                    0x08005469   Thumb Code    14  utility.o(.text)
    swapl                                    0x08005477   Thumb Code    28  utility.o(.text)
    mid                                      0x08005493   Thumb Code    68  utility.o(.text)
    inet_addr_                               0x080054d7   Thumb Code    90  utility.o(.text)
    inet_ntoa                                0x08005531   Thumb Code    40  utility.o(.text)
    inet_ntoa_pad                            0x08005559   Thumb Code    40  utility.o(.text)
    verify_ip_address                        0x08005581   Thumb Code   116  utility.o(.text)
    htons                                    0x080055f5   Thumb Code    12  utility.o(.text)
    htonl                                    0x08005601   Thumb Code    12  utility.o(.text)
    ntohs                                    0x0800560d   Thumb Code    12  utility.o(.text)
    ntohl                                    0x08005619   Thumb Code    12  utility.o(.text)
    checksum                                 0x08005625   Thumb Code    76  utility.o(.text)
    check_dest_in_local                      0x08005671   Thumb Code    62  utility.o(.text)
    getNetworkCableState                     0x080056dd   Thumb Code    16  w5500.o(.text)
    setMR                                    0x080056ed   Thumb Code    14  w5500.o(.text)
    iinchip_init                             0x080056fb   Thumb Code    10  w5500.o(.text)
    getIINCHIP_RxMAX                         0x08005705   Thumb Code    10  w5500.o(.text)
    getIINCHIP_TxMAX                         0x0800570f   Thumb Code    10  w5500.o(.text)
    setGAR                                   0x08005719   Thumb Code    16  w5500.o(.text)
    getGAR                                   0x08005729   Thumb Code    16  w5500.o(.text)
    setSUBR                                  0x08005739   Thumb Code    18  w5500.o(.text)
    setSHAR                                  0x0800574b   Thumb Code    18  w5500.o(.text)
    setSIPR                                  0x0800575d   Thumb Code    18  w5500.o(.text)
    getSUBR                                  0x0800576f   Thumb Code    18  w5500.o(.text)
    getSHAR                                  0x08005781   Thumb Code    18  w5500.o(.text)
    getSIPR                                  0x08005793   Thumb Code    18  w5500.o(.text)
    getIR                                    0x080057a5   Thumb Code    12  w5500.o(.text)
    setRTR                                   0x080057b1   Thumb Code    26  w5500.o(.text)
    setRCR                                   0x080057cb   Thumb Code    16  w5500.o(.text)
    clearIR                                  0x080057db   Thumb Code    26  w5500.o(.text)
    setSn_MSS                                0x080057f5   Thumb Code    36  w5500.o(.text)
    setSn_TTL                                0x08005819   Thumb Code    22  w5500.o(.text)
    getSn_IR                                 0x0800582f   Thumb Code    18  w5500.o(.text)
    setSn_IR                                 0x08005841   Thumb Code    22  w5500.o(.text)
    getSn_SR                                 0x08005857   Thumb Code    18  w5500.o(.text)
    getSn_TX_FSR                             0x08005869   Thumb Code    84  w5500.o(.text)
    getSn_RX_RSR                             0x080058bd   Thumb Code    84  w5500.o(.text)
    send_data_processing                     0x08005911   Thumb Code   116  w5500.o(.text)
    recv_data_processing                     0x08005985   Thumb Code   116  w5500.o(.text)
    socket_buf_init                          0x080059f9   Thumb Code   128  w5500.o(.text)
    write_config_to_eeprom                   0x08005ac1   Thumb Code    12  w5500_conf.o(.text)
    read_config_from_eeprom                  0x08005acd   Thumb Code    10  w5500_conf.o(.text)
    set_w5500_ip                             0x08005ad7   Thumb Code   334  w5500_conf.o(.text)
    set_w5500_mac                            0x08005c25   Thumb Code    32  w5500_conf.o(.text)
    gpio_for_w5500_config                    0x08005c45   Thumb Code   240  w5500_conf.o(.text)
    wiz_cs                                   0x08005d35   Thumb Code    30  w5500_conf.o(.text)
    iinchip_csoff                            0x08005d53   Thumb Code    10  w5500_conf.o(.text)
    iinchip_cson                             0x08005d5d   Thumb Code    10  w5500_conf.o(.text)
    reset_w5500                              0x08005d67   Thumb Code    38  w5500_conf.o(.text)
    SPI_SendByte                             0x08005d8d   Thumb Code    50  w5500_conf.o(.text)
    IINCHIP_SpiSendData                      0x08005dbf   Thumb Code    12  w5500_conf.o(.text)
    IINCHIP_WRITE                            0x08005dcb   Thumb Code    50  w5500_conf.o(.text)
    IINCHIP_READ                             0x08005dfd   Thumb Code    50  w5500_conf.o(.text)
    wiz_write_buf                            0x08005e2f   Thumb Code    80  w5500_conf.o(.text)
    wiz_read_buf                             0x08005e7f   Thumb Code   408  w5500_conf.o(.text)
    __aeabi_uldivmod                         0x08006017   Thumb Code    98  uldiv.o(.text)
    __aeabi_memcpy                           0x08006079   Thumb Code    36  memcpya.o(.text)
    __aeabi_memcpy4                          0x08006079   Thumb Code     0  memcpya.o(.text)
    __aeabi_memcpy8                          0x08006079   Thumb Code     0  memcpya.o(.text)
    __aeabi_memset                           0x0800609d   Thumb Code    14  memseta.o(.text)
    __aeabi_memset4                          0x0800609d   Thumb Code     0  memseta.o(.text)
    __aeabi_memset8                          0x0800609d   Thumb Code     0  memseta.o(.text)
    __aeabi_memclr                           0x080060ab   Thumb Code     4  memseta.o(.text)
    __aeabi_memclr4                          0x080060ab   Thumb Code     0  memseta.o(.text)
    __aeabi_memclr8                          0x080060ab   Thumb Code     0  memseta.o(.text)
    _memset$wrapper                          0x080060af   Thumb Code    18  memseta.o(.text)
    strstr                                   0x080060c1   Thumb Code    36  strstr.o(.text)
    strncpy                                  0x080060e5   Thumb Code    24  strncpy.o(.text)
    strchr                                   0x080060fd   Thumb Code    20  strchr.o(.text)
    strlen                                   0x08006111   Thumb Code    14  strlen.o(.text)
    memcmp                                   0x0800611f   Thumb Code    26  memcmp.o(.text)
    strcpy                                   0x08006139   Thumb Code    18  strcpy.o(.text)
    strtok                                   0x0800614d   Thumb Code    62  strtok.o(.text)
    __aeabi_uidiv                            0x08006191   Thumb Code     0  uidiv.o(.text)
    __aeabi_uidivmod                         0x08006191   Thumb Code    44  uidiv.o(.text)
    __aeabi_llsl                             0x080061bd   Thumb Code    30  llshl.o(.text)
    _ll_shift_l                              0x080061bd   Thumb Code     0  llshl.o(.text)
    __aeabi_llsr                             0x080061db   Thumb Code    32  llushr.o(.text)
    _ll_ushift_r                             0x080061db   Thumb Code     0  llushr.o(.text)
    __I$use$fp                               0x080061fb   Thumb Code     0  iusefp.o(.text)
    __aeabi_dadd                             0x080061fb   Thumb Code   322  dadd.o(.text)
    __aeabi_dsub                             0x0800633d   Thumb Code     6  dadd.o(.text)
    __aeabi_drsub                            0x08006343   Thumb Code     6  dadd.o(.text)
    __aeabi_dmul                             0x08006349   Thumb Code   228  dmul.o(.text)
    __aeabi_ddiv                             0x0800642d   Thumb Code   222  ddiv.o(.text)
    __aeabi_d2ulz                            0x0800650b   Thumb Code    48  dfixul.o(.text)
    __aeabi_cdrcmple                         0x0800653d   Thumb Code    48  cdrcmple.o(.text)
    __scatterload                            0x0800656d   Thumb Code    28  init.o(.text)
    __scatterload_rt2                        0x0800656d   Thumb Code     0  init.o(.text)
    __aeabi_lasr                             0x08006591   Thumb Code    36  llsshr.o(.text)
    _ll_sshift_r                             0x08006591   Thumb Code     0  llsshr.o(.text)
    _double_round                            0x080065b5   Thumb Code    30  depilogue.o(.text)
    _double_epilogue                         0x080065d3   Thumb Code   156  depilogue.o(.text)
    __decompress                             0x0800666f   Thumb Code     0  __dczerorl2.o(.text)
    __decompress1                            0x0800666f   Thumb Code    86  __dczerorl2.o(.text)
    __0printf                                0x080066c5   Thumb Code    22  printfa.o(i.__0printf)
    __1printf                                0x080066c5   Thumb Code     0  printfa.o(i.__0printf)
    __2printf$full                           0x080066c5   Thumb Code     0  printfa.o(i.__0printf)
    __c89printf                              0x080066c5   Thumb Code     0  printfa.o(i.__0printf)
    printf                                   0x080066c5   Thumb Code     0  printfa.o(i.__0printf)
    __0printf$8                              0x080066e5   Thumb Code    22  printf8.o(i.__0printf$8)
    __1printf$8                              0x080066e5   Thumb Code     0  printf8.o(i.__0printf$8)
    __2printf                                0x080066e5   Thumb Code     0  printf8.o(i.__0printf$8)
    __0sprintf$8                             0x08006705   Thumb Code    34  printf8.o(i.__0sprintf$8)
    __1sprintf$8                             0x08006705   Thumb Code     0  printf8.o(i.__0sprintf$8)
    __2sprintf                               0x08006705   Thumb Code     0  printf8.o(i.__0sprintf$8)
    __scatterload_copy                       0x0800672d   Thumb Code    14  handlers.o(i.__scatterload_copy)
    __scatterload_null                       0x0800673b   Thumb Code     2  handlers.o(i.__scatterload_null)
    __scatterload_zeroinit                   0x0800673d   Thumb Code    14  handlers.o(i.__scatterload_zeroinit)
    free                                     0x0800744d   Thumb Code    76  malloc.o(i.free)
    malloc                                   0x0800749d   Thumb Code    92  malloc.o(i.malloc)
    Region$$Table$$Base                      0x08007510   Number         0  anon$$obj.o(Region$$Table)
    Region$$Table$$Limit                     0x08007530   Number         0  anon$$obj.o(Region$$Table)
    MainLen                                  0x20000000   Data           4  main.o(.data)
    MainString                               0x20000004   Data           4  main.o(.data)
    IP                                       0x20000008   Data           4  main.o(.data)
    DomainName                               0x2000000c   Data          55  main.o(.data)
    NetworkCableState                        0x20000043   Data           1  main.o(.data)
    NetworkCableStateCopy                    0x20000044   Data           1  main.o(.data)
    idAddr                                   0x20000048   Data          40  system.o(.data)
    Usart2SendData                           0x20000074   Data           4  usart.o(.data)
    Usart3SendData                           0x20000078   Data           4  usart.o(.data)
    Usart1ReadCnt                            0x2000007c   Data           4  usart.o(.data)
    Usart1SendBits                           0x20000080   Data           1  usart.o(.data)
    Usart1SendData                           0x20000084   Data           4  usart.o(.data)
    Usart1SendDataCnt                        0x20000088   Data           4  usart.o(.data)
    Usart2ReadCnt                            0x2000008c   Data           4  usart.o(.data)
    Usart2SendDataCnt                        0x20000090   Data           4  usart.o(.data)
    Usart3ReadCnt                            0x20000094   Data           4  usart.o(.data)
    Usart3SendDataCnt                        0x20000098   Data           4  usart.o(.data)
    StringStr                                0x200000a0   Data           4  cstring.o(.data)
    StrStop                                  0x200000a4   Data           4  cstring.o(.data)
    StringValue                              0x200000a8   Data           1  cstring.o(.data)
    SystemCoreClock                          0x200000ac   Data           4  system_stm32f10x.o(.data)
    AHBPrescTable                            0x200000b0   Data          16  system_stm32f10x.o(.data)
    SRC_MAC_ADDR                             0x200000d4   Data           4  dhcp.o(.data)
    GET_SN_MASK                              0x200000d8   Data           4  dhcp.o(.data)
    GET_GW_IP                                0x200000dc   Data           4  dhcp.o(.data)
    GET_DNS_IP                               0x200000e0   Data           4  dhcp.o(.data)
    DHCP_HOST_NAME                           0x200000e4   Data           4  dhcp.o(.data)
    GET_SIP                                  0x200000e8   Data           4  dhcp.o(.data)
    DHCP_SIP                                 0x200000ec   Data           4  dhcp.o(.data)
    DHCP_REAL_SIP                            0x200000f0   Data           4  dhcp.o(.data)
    OLD_SIP                                  0x200000f4   Data           4  dhcp.o(.data)
    dhcp_state                               0x200000f8   Data           1  dhcp.o(.data)
    dhcp_retry_count                         0x200000f9   Data           1  dhcp.o(.data)
    DHCP_timeout                             0x200000fa   Data           1  dhcp.o(.data)
    dhcp_lease_time                          0x200000fc   Data           4  dhcp.o(.data)
    next_dhcp_time                           0x20000100   Data           4  dhcp.o(.data)
    dhcp_tick_cnt                            0x20000104   Data           4  dhcp.o(.data)
    DHCP_timer                               0x20000108   Data           1  dhcp.o(.data)
    Conflict_flag                            0x20000109   Data           1  dhcp.o(.data)
    DHCP_XID                                 0x2000010c   Data           4  dhcp.o(.data)
    pRIPMSG                                  0x20000110   Data           4  dhcp.o(.data)
    domain_name                              0x20000114   Data           8  dns.o(.data)
    dns_get_ip                               0x2000011c   Data           4  dns.o(.data)
    MSG_ID                                   0x20000120   Data           2  dns.o(.data)
    dns_retry_cnt                            0x20000122   Data           1  dns.o(.data)
    dns_ok                                   0x20000123   Data           1  dns.o(.data)
    txsize                                   0x20000128   Data           8  w5500.o(.data)
    rxsize                                   0x20000130   Data           8  w5500.o(.data)
    local_mac                                0x20000138   Data           6  w5500_conf.o(.data)
    local_ip                                 0x2000013e   Data           4  w5500_conf.o(.data)
    subnet                                   0x20000142   Data           4  w5500_conf.o(.data)
    gateway                                  0x20000146   Data           4  w5500_conf.o(.data)
    dns_server                               0x2000014a   Data           4  w5500_conf.o(.data)
    local_port                               0x2000014e   Data           2  w5500_conf.o(.data)
    remote_ip                                0x20000150   Data           4  w5500_conf.o(.data)
    remote_port                              0x20000154   Data           2  w5500_conf.o(.data)
    ip_from                                  0x20000156   Data           1  w5500_conf.o(.data)
    dhcp_ok                                  0x20000157   Data           1  w5500_conf.o(.data)
    ms                                       0x20000158   Data           4  w5500_conf.o(.data)
    dhcp_time                                0x2000015c   Data           4  w5500_conf.o(.data)
    ntptimer                                 0x20000160   Data           1  w5500_conf.o(.data)
    __stdout                                 0x20000168   Data           4  stdout.o(.data)
    __microlib_freelist                      0x2000016c   Data           4  mvars.o(.data)
    __microlib_freelist_initialised          0x20000170   Data           4  mvars.o(.data)
    MainBuffer                               0x20000174   Data         200  main.o(.bss)
    MCUID                                    0x2000023c   Data          12  main.o(.bss)
    MAC                                      0x20000248   Data          20  main.o(.bss)
    buff_manage_struct1                      0x2000025c   Data          60  usart.o(.bss)
    Usart1Sendrb                             0x20000298   Data          16  usart.o(.bss)
    Usart1BufferMemory                       0x200002a8   Data        1024  usart.o(.bss)
    Usart1BufferMemoryRead                   0x200006a8   Data         500  usart.o(.bss)
    Usart1BufferMemoryManage                 0x2000089c   Data         200  usart.o(.bss)
    Usart1SendBuff                           0x20000964   Data        1024  usart.o(.bss)
    buff_manage_struct2                      0x20000d64   Data          60  usart.o(.bss)
    Usart2BufferMemory                       0x20000da0   Data        1024  usart.o(.bss)
    Usart2BufferMemoryRead                   0x200011a0   Data         500  usart.o(.bss)
    Usart2BufferMemoryManage                 0x20001394   Data         200  usart.o(.bss)
    buff_manage_struct3                      0x2000145c   Data          60  usart.o(.bss)
    Usart3BufferMemory                       0x20001498   Data        1024  usart.o(.bss)
    Usart3BufferMemoryRead                   0x20001898   Data         500  usart.o(.bss)
    Usart3BufferMemoryManage                 0x20001a8c   Data         200  usart.o(.bss)
    send_manage_struct3                      0x20001b54   Data          60  usart.o(.bss)
    Usart3SendMemory                         0x20001b90   Data        1024  usart.o(.bss)
    Usart3SendMemoryRead                     0x20001f90   Data         500  usart.o(.bss)
    Usart3SendMemoryManage                   0x20002184   Data         200  usart.o(.bss)
    Usart1ReadBuff                           0x2000224c   Data        1024  usart.o(.bss)
    Usart2ReadBuff                           0x2000264c   Data        1024  usart.o(.bss)
    Usart3ReadBuff                           0x20002a4c   Data        1024  usart.o(.bss)
    KeySmartConfig                           0x20002e4c   Data          28  key.o(.bss)
    DHCP_GET                                 0x20002e68   Data          22  dhcp.o(.bss)
    EXTERN_DHCPBUF                           0x20002e7e   Data        1024  dhcp.o(.bss)
    BUFPUB                                   0x2000327e   Data        1024  dns.o(.bss)
    SSIZE                                    0x200036ae   Data          16  w5500.o(.bss)
    RSIZE                                    0x200036be   Data          16  w5500.o(.bss)
    ConfigMsg                                0x200036ce   Data          28  w5500_conf.o(.bss)
    EEPROM_MSG                               0x200036ea   Data          18  w5500_conf.o(.bss)
    __heap_base                              0x20003700   Data           0  startup_stm32f10x_hd.o(HEAP)
    __heap_limit                             0x20003900   Data           0  startup_stm32f10x_hd.o(HEAP)
    __initial_sp                             0x20003d00   Data           0  startup_stm32f10x_hd.o(STACK)



==============================================================================

Memory Map of the image

  Image Entry point : 0x08000131

  Load Region LR_IROM1 (Base: 0x08000000, Size: 0x000076a4, Max: 0x00010000, ABSOLUTE, COMPRESSED[0x000075b8])

    Execution Region ER_IROM1 (Base: 0x08000000, Size: 0x00007530, Max: 0x00010000, ABSOLUTE)

    Base Addr    Size         Type   Attr      Idx    E Section Name        Object

    0x08000000   0x00000130   Data   RO          497    RESET               startup_stm32f10x_hd.o
    0x08000130   0x00000000   Code   RO          674  * .ARM.Collect$$$$00000000  mc_w.l(entry.o)
    0x08000130   0x00000004   Code   RO          994    .ARM.Collect$$$$00000001  mc_w.l(entry2.o)
    0x08000134   0x00000004   Code   RO          997    .ARM.Collect$$$$00000004  mc_w.l(entry5.o)
    0x08000138   0x00000000   Code   RO          999    .ARM.Collect$$$$00000008  mc_w.l(entry7b.o)
    0x08000138   0x00000000   Code   RO         1001    .ARM.Collect$$$$0000000A  mc_w.l(entry8b.o)
    0x08000138   0x00000008   Code   RO         1002    .ARM.Collect$$$$0000000B  mc_w.l(entry9a.o)
    0x08000140   0x00000000   Code   RO         1004    .ARM.Collect$$$$0000000D  mc_w.l(entry10a.o)
    0x08000140   0x00000000   Code   RO         1006    .ARM.Collect$$$$0000000F  mc_w.l(entry11a.o)
    0x08000140   0x00000004   Code   RO          995    .ARM.Collect$$$$00002712  mc_w.l(entry2.o)
    0x08000144   0x00000040   Code   RO            1    .text               stm32f10x_it.o
    0x08000184   0x000002b0   Code   RO          104    .text               main.o
    0x08000434   0x000000f8   Code   RO          194    .text               system.o
    0x0800052c   0x000000d4   Code   RO          213    .text               delay.o
    0x08000600   0x000005a4   Code   RO          230    .text               usart.o
    0x08000ba4   0x0000004c   Code   RO          249    .text               gpio.o
    0x08000bf0   0x000001bc   Code   RO          261    .text               cstring.o
    0x08000dac   0x0000002c   Code   RO          297    .text               iwdg.o
    0x08000dd8   0x000000a0   Code   RO          312    .text               timer.o
    0x08000e78   0x000000d4   Code   RO          331    .text               buffermanage.o
    0x08000f4c   0x000001f8   Code   RO          346    .text               looplist.o
    0x08001144   0x000001e0   Code   RO          379    .text               system_stm32f10x.o
    0x08001324   0x000000dc   Code   RO          397    .text               misc.o
    0x08001400   0x000003a4   Code   RO          409    .text               stm32f10x_rcc.o
    0x080017a4   0x00000408   Code   RO          423    .text               stm32f10x_usart.o
    0x08001bac   0x0000035c   Code   RO          447    .text               stm32f10x_gpio.o
    0x08001f08   0x00000e1a   Code   RO          459    .text               stm32f10x_tim.o
    0x08002d22   0x00000002   PAD
    0x08002d24   0x00000040   Code   RO          471    .text               stm32f10x_iwdg.o
    0x08002d64   0x0000030c   Code   RO          483    .text               stm32f10x_spi.o
    0x08003070   0x00000024   Code   RO          498    .text               startup_stm32f10x_hd.o
    0x08003094   0x00001638   Code   RO          502    .text               dhcp.o
    0x080046cc   0x000005f8   Code   RO          537    .text               dns.o
    0x08004cc4   0x0000068c   Code   RO          580    .text               socket.o
    0x08005350   0x0000038c   Code   RO          592    .text               utility.o
    0x080056dc   0x000003e4   Code   RO          616    .text               w5500.o
    0x08005ac0   0x00000556   Code   RO          635    .text               w5500_conf.o
    0x08006016   0x00000062   Code   RO          677    .text               mc_w.l(uldiv.o)
    0x08006078   0x00000024   Code   RO          679    .text               mc_w.l(memcpya.o)
    0x0800609c   0x00000024   Code   RO          681    .text               mc_w.l(memseta.o)
    0x080060c0   0x00000024   Code   RO          685    .text               mc_w.l(strstr.o)
    0x080060e4   0x00000018   Code   RO          687    .text               mc_w.l(strncpy.o)
    0x080060fc   0x00000014   Code   RO          689    .text               mc_w.l(strchr.o)
    0x08006110   0x0000000e   Code   RO          691    .text               mc_w.l(strlen.o)
    0x0800611e   0x0000001a   Code   RO          693    .text               mc_w.l(memcmp.o)
    0x08006138   0x00000012   Code   RO          695    .text               mc_w.l(strcpy.o)
    0x0800614a   0x00000002   PAD
    0x0800614c   0x00000044   Code   RO          697    .text               mc_w.l(strtok.o)
    0x08006190   0x0000002c   Code   RO         1009    .text               mc_w.l(uidiv.o)
    0x080061bc   0x0000001e   Code   RO         1011    .text               mc_w.l(llshl.o)
    0x080061da   0x00000020   Code   RO         1013    .text               mc_w.l(llushr.o)
    0x080061fa   0x00000000   Code   RO         1017    .text               mc_w.l(iusefp.o)
    0x080061fa   0x0000014e   Code   RO         1018    .text               mf_w.l(dadd.o)
    0x08006348   0x000000e4   Code   RO         1020    .text               mf_w.l(dmul.o)
    0x0800642c   0x000000de   Code   RO         1022    .text               mf_w.l(ddiv.o)
    0x0800650a   0x00000030   Code   RO         1024    .text               mf_w.l(dfixul.o)
    0x0800653a   0x00000002   PAD
    0x0800653c   0x00000030   Code   RO         1026    .text               mf_w.l(cdrcmple.o)
    0x0800656c   0x00000024   Code   RO         1028    .text               mc_w.l(init.o)
    0x08006590   0x00000024   Code   RO         1030    .text               mc_w.l(llsshr.o)
    0x080065b4   0x000000ba   Code   RO         1032    .text               mf_w.l(depilogue.o)
    0x0800666e   0x00000056   Code   RO         1042    .text               mc_w.l(__dczerorl2.o)
    0x080066c4   0x00000020   Code   RO          938    i.__0printf         mc_w.l(printfa.o)
    0x080066e4   0x00000020   Code   RO          912    i.__0printf$8       mc_w.l(printf8.o)
    0x08006704   0x00000028   Code   RO          914    i.__0sprintf$8      mc_w.l(printf8.o)
    0x0800672c   0x0000000e   Code   RO         1036    i.__scatterload_copy  mc_w.l(handlers.o)
    0x0800673a   0x00000002   Code   RO         1037    i.__scatterload_null  mc_w.l(handlers.o)
    0x0800673c   0x0000000e   Code   RO         1038    i.__scatterload_zeroinit  mc_w.l(handlers.o)
    0x0800674a   0x00000002   PAD
    0x0800674c   0x00000164   Code   RO          945    i._fp_digits        mc_w.l(printfa.o)
    0x080068b0   0x00000410   Code   RO          919    i._printf_core      mc_w.l(printf8.o)
    0x08006cc0   0x000006dc   Code   RO          946    i._printf_core      mc_w.l(printfa.o)
    0x0800739c   0x00000024   Code   RO          920    i._printf_post_padding  mc_w.l(printf8.o)
    0x080073c0   0x00000024   Code   RO          947    i._printf_post_padding  mc_w.l(printfa.o)
    0x080073e4   0x0000002e   Code   RO          921    i._printf_pre_padding  mc_w.l(printf8.o)
    0x08007412   0x0000002e   Code   RO          948    i._printf_pre_padding  mc_w.l(printfa.o)
    0x08007440   0x0000000a   Code   RO          923    i._sputc            mc_w.l(printf8.o)
    0x0800744a   0x00000002   PAD
    0x0800744c   0x00000050   Code   RO          966    i.free              mc_w.l(malloc.o)
    0x0800749c   0x0000006c   Code   RO          967    i.malloc            mc_w.l(malloc.o)
    0x08007508   0x00000005   Data   RO          504    .conststring        dhcp.o
    0x0800750d   0x00000003   PAD
    0x08007510   0x00000020   Data   RO         1034    Region$$Table       anon$$obj.o


    Execution Region RW_IRAM1 (Base: 0x20000000, Size: 0x00003d00, Max: 0x00005000, ABSOLUTE, COMPRESSED[0x00000088])

    Base Addr    Size         Type   Attr      Idx    E Section Name        Object

    0x20000000   0x00000045   Data   RW          106    .data               main.o
    0x20000045   0x00000003   PAD
    0x20000048   0x00000028   Data   RW          195    .data               system.o
    0x20000070   0x00000004   Data   RW          214    .data               delay.o
    0x20000074   0x00000029   Data   RW          232    .data               usart.o
    0x2000009d   0x00000003   PAD
    0x200000a0   0x00000009   Data   RW          262    .data               cstring.o
    0x200000a9   0x00000003   PAD
    0x200000ac   0x00000014   Data   RW          380    .data               system_stm32f10x.o
    0x200000c0   0x00000014   Data   RW          410    .data               stm32f10x_rcc.o
    0x200000d4   0x00000040   Data   RW          505    .data               dhcp.o
    0x20000114   0x00000014   Data   RW          539    .data               dns.o
    0x20000128   0x00000010   Data   RW          618    .data               w5500.o
    0x20000138   0x00000029   Data   RW          637    .data               w5500_conf.o
    0x20000161   0x00000003   PAD
    0x20000164   0x00000004   Data   RW          698    .data               mc_w.l(strtok.o)
    0x20000168   0x00000004   Data   RW         1008    .data               mc_w.l(stdout.o)
    0x2000016c   0x00000004   Data   RW         1015    .data               mc_w.l(mvars.o)
    0x20000170   0x00000004   Data   RW         1016    .data               mc_w.l(mvars.o)
    0x20000174   0x000000e8   Zero   RW          105    .bss                main.o
    0x2000025c   0x00002bf0   Zero   RW          231    .bss                usart.o
    0x20002e4c   0x0000001c   Zero   RW          280    .bss                key.o
    0x20002e68   0x00000416   Zero   RW          503    .bss                dhcp.o
    0x2000327e   0x00000400   Zero   RW          538    .bss                dns.o
    0x2000367e   0x00000030   Zero   RW          593    .bss                utility.o
    0x200036ae   0x00000020   Zero   RW          617    .bss                w5500.o
    0x200036ce   0x0000002e   Zero   RW          636    .bss                w5500_conf.o
    0x200036fc   0x00000004   PAD
    0x20003700   0x00000200   Zero   RW          496    HEAP                startup_stm32f10x_hd.o
    0x20003900   0x00000400   Zero   RW          495    STACK               startup_stm32f10x_hd.o


==============================================================================

Image component sizes


      Code (inc. data)   RO Data    RW Data    ZI Data      Debug   Object Name

       212          0          0          0          0       2212   buffermanage.o
         0          0          0          0          0         32   core_cm3.o
       444         14          0          9          0       2811   cstring.o
       212         18          0          4          0       1002   delay.o
      5688       1632          5         64       1046       9491   dhcp.o
      1528        274          0         20       1024       5870   dns.o
        76         10          0          0          0        491   gpio.o
        44          0          0          0          0        638   iwdg.o
         0          0          0          0         28        529   key.o
       504          0          0          0          0       3279   looplist.o
       688        136          0         69        232       4607   main.o
       220         22          0          0          0       1785   misc.o
      1676         48          0          0          0       3871   socket.o
        36          8        304          0       1536        804   startup_stm32f10x_hd.o
       860         38          0          0          0       5633   stm32f10x_gpio.o
        64          8          0          0          0     274593   stm32f10x_it.o
        64          6          0          0          0       1265   stm32f10x_iwdg.o
       932         36          0         20          0       8808   stm32f10x_rcc.o
       780         14          0          0          0       6514   stm32f10x_spi.o
      3610         88          0          0          0      22120   stm32f10x_tim.o
      1032         22          0          0          0       8356   stm32f10x_usart.o
       248         40          0         40          0       1510   system.o
       480         38          0         20          0       1815   system_stm32f10x.o
       160          4          0          0          0        680   timer.o
      1444        150          0         41      11248       5864   usart.o
       908         46          0          0         48       5731   utility.o
       996         72          0         16         32       6017   w5500.o
      1366        330          0         41         46       6188   w5500_conf.o

    ----------------------------------------------------------------------
     24274       3054        344        356      15244     392516   Object Totals
         0          0         32          0          0          0   (incl. Generated)
         2          0          3         12          4          0   (incl. Padding)

    ----------------------------------------------------------------------

      Code (inc. data)   RO Data    RW Data    ZI Data      Debug   Library Member Name

        86          0          0          0          0          0   __dczerorl2.o
         0          0          0          0          0          0   entry.o
         0          0          0          0          0          0   entry10a.o
         0          0          0          0          0          0   entry11a.o
         8          4          0          0          0          0   entry2.o
         4          0          0          0          0          0   entry5.o
         0          0          0          0          0          0   entry7b.o
         0          0          0          0          0          0   entry8b.o
         8          4          0          0          0          0   entry9a.o
        30          0          0          0          0          0   handlers.o
        36          8          0          0          0         68   init.o
         0          0          0          0          0          0   iusefp.o
        30          0          0          0          0         68   llshl.o
        36          0          0          0          0         68   llsshr.o
        32          0          0          0          0         68   llushr.o
       188         20          0          0          0        160   malloc.o
        26          0          0          0          0         80   memcmp.o
        36          0          0          0          0         68   memcpya.o
        36          0          0          0          0        108   memseta.o
         0          0          0          8          0          0   mvars.o
      1204         60          0          0          0        504   printf8.o
      2226         90          0          0          0        444   printfa.o
         0          0          0          4          0          0   stdout.o
        20          0          0          0          0         68   strchr.o
        18          0          0          0          0         68   strcpy.o
        14          0          0          0          0         68   strlen.o
        24          0          0          0          0         76   strncpy.o
        36          0          0          0          0         80   strstr.o
        68          6          0          4          0         80   strtok.o
        44          0          0          0          0         80   uidiv.o
        98          0          0          0          0         92   uldiv.o
        48          0          0          0          0         68   cdrcmple.o
       334          0          0          0          0        148   dadd.o
       222          0          0          0          0        100   ddiv.o
       186          0          0          0          0        176   depilogue.o
        48          0          0          0          0         68   dfixul.o
       228          0          0          0          0         96   dmul.o

    ----------------------------------------------------------------------
      5382        192          0         16          0       2904   Library Totals
         8          0          0          0          0          0   (incl. Padding)

    ----------------------------------------------------------------------

      Code (inc. data)   RO Data    RW Data    ZI Data      Debug   Library Name

      4308        192          0         16          0       2248   mc_w.l
      1066          0          0          0          0        656   mf_w.l

    ----------------------------------------------------------------------
      5382        192          0         16          0       2904   Library Totals

    ----------------------------------------------------------------------

==============================================================================


      Code (inc. data)   RO Data    RW Data    ZI Data      Debug   

     29656       3246        344        372      15244     391700   Grand Totals
     29656       3246        344        136      15244     391700   ELF Image Totals (compressed)
     29656       3246        344        136          0          0   ROM Totals

==============================================================================

    Total RO  Size (Code + RO Data)                30000 (  29.30kB)
    Total RW  Size (RW Data + ZI Data)             15616 (  15.25kB)
    Total ROM Size (Code + RO Data + RW Data)      30136 (  29.43kB)

==============================================================================

